:1000000000800020BD010000996800005D680000CC
:100010005D6800005D6800005D6800005D680000CC
:100020005D6800005D6800005D6800009968000080
:10003000996800005D680000996800004D68000044
:1000400099680000996800009968000099680000AC
:10005000996800009968000099680000996800009C
:10006000996800009968000099680000996800008C
:10007000996800009968000099680000996800007C
:10008000996800009968000099680000996800006C
:10009000996800009968000099680000996800005C
:1000A000693E0000793E00009968000099680000F0
:1000B000996800009968000099680000996800003C
:1000C000996800009968000099680000996800002C
:1000D000996800009968000099680000996800001C
:1000E000996800009968000099680000996800000C
:1000F000996800002D85000099680000458C00007B
:1001000099680000C191000099680000996800009A
:1001100099680000996800009968000099680000DB
:1001200099680000996800009968000099680000CB
:1001300099680000996800009968000099680000BB
:1001400099680000996800009968000099680000AB
:10015000996800009968000099680000996800009B
:1001600099680000A5700000996800009968000077
:10017000996800009968000099680000996800007B
:10018000996800009968000099680000996800006B
:10019000996800009968000099680000996800005B
:1001A000996800009968000099680000996800004B
:1001B000996800009968000099680000574B4CF25C
:1001C000205210B51A804DF628121A8000BF00BFC9
:1001D00006F066FB524B4FF010621A60514A9A606B
:1001E000514ADA60A3F53043203B1A6812F480725A
:1001F00004D14E490A604FF4A8521A604C4B1A7849
:10020000110703D51A7842F008021A70494B4A4C7C
:100210004A482A221A704A4A00239918A14203D256
:10022000195899500433F8E7464B474900228B424E
:1002300002D243F8042BFAE74448454900235A58B0
:100240001A500433B3F5DE7FF9D1424B424A802184
:1002500003F8011B9342FBD1404B3C4A1A60404BD0
:100260000A221A70A3F5805324225A70A0221A7011
:100270009A799207FCD59A79D406FCD4394A9379B5
:1002800003F00C03082B374BF9D103221A714022DB
:100290005A719A799006FCD5324A9179314B4906C8
:1002A000FBD5314A314911600221516020221A7078
:1002B0009A7902F00C020C2AFAD12D4B2D4A1A60C1
:1002C0002D4B4BF67F321A6000225A60072243F80A
:1002D000042C2A4AC3F80C2D62B606F0A3FD134B7A
:1002E0001B68DA0705D5264806F0D2FC254B264ABE
:1002F0001A60264B1B785B0609D5224C224A2368DC
:10030000934204D11E4806F0C3FC0023236009F089
:100310009FFE06F0CBFA07F0F7FCFEE70E20054043
:1003200030800440823F04000100002B14D00340C1
:1003300002D0074000E0074058A7FF1FB8E60000C2
:100340006087FF1F58A7FF1F78F6FF1F0082FF1F5F
:100350000000000000E400E05FE400E008ED00E0E1
:100360000050064000400640448004400000131145
:1003700004800440C010050014E000E000002020CC
:10038000C8BFDB571CE00340A5C3945A00F00740E8
:10039000FFFFFFFFFFFFFFFFFFFFFFFFFFFFFFFF6D
:1003A000FFFFFFFFFFFFFFFFFFFFFFFFFFFFFFFF5D
:1003B000FFFFFFFFFFFFFFFFFFFFFFFFFFFFFFFF4D
:1003C000FFFFFFFFFFFFFFFFFFFFFFFFFFFFFFFF3D
:1003D000FFFFFFFFFFFFFFFFFFFFFFFFFFFFFFFF2D
:1003E000FFFFFFFFFFFFFFFFFFFFFFFFFFFFFFFF1D
:1003F000FFFFFFFFFFFFFFFFFFFFFFFFFFFFFFFF0D
:10040000FFFFFFFFFFFFFFFFFFFFFFFFDEF9FFFF23
:1004100010B5054C237833B9044B13B10448AFF33E
:1004200000800123237010BD58A7FF1F00000000AB
:10043000B8E6000008B5064B1BB106480649AFF305
:1004400000800648036813B1054B03B1984708BD07
:1004500000000000B8E600005CA7FF1F58A7FF1FC0
:100460000000000008B5083004F048FF08BD00BFD8
:1004700000B583B002AB03F8011D08301946012214
:1004800004F03CFF03B05DF804FB00BF08B500F5C5
:100490008C6005F0F1FE08BD08B500F58C6005F034
:1004A0007FFF08BD08B500F58C6005F031FF08BD81
:1004B00008B500F58C6005F0EFFF08BD38B50546BE
:1004C0000C4608460AF086FB02462B685B68284605
:1004D0002146984738BD00BF38B504460D4608464A
:1004E0000AF078FB024623685B6820462946984755
:1004F0000546204607F0B2FB284438BD70B48DB0E5
:100500000446051D1D4E0FCE0FC596E8030085E875
:1005100003004FF48043A383194B1A680692069A8E
:1005200022621A680592059AA2621A680492049AD5
:1005300022631A680392039AA2631A680292029ACB
:1005400022641A680192019AA2641A680B920B9AAB
:1005500022651A680A920A9AA2651A680992099A8B
:1005600022661A680892089AA2661B680793079B7E
:10057000236720460DB070BC704700BFF8D4000060
:1005800060F3FF1F84B0194B1B681BB1B3F1FF3F31
:100590000FD024E0002825D0154B1B680193019A49
:1005A000144B1A604FF0FF33134A13600F4A136065
:1005B00015E070B90E4B1B680293029B0F4A136043
:1005C0000C4A1068181A0C4B18600022074B1A606E
:1005D0000AE0074B1B680393039A064B1A60054B0E
:1005E000186801E04FF0FF3004B0704774A7FF1F98
:1005F00060F3FF1F20F0FF1F6487FF1FD8A7FF1FB6
:10060000F8B50278042A10D0064600254FF6FF748C
:100610000F4F3846214603F0B9FC04460135ADB210
:1006200016F8012F042AF4D102E000254FF6FF74DA
:10063000084E33685B68304607490C2298473046BD
:10064000294607F057FB304607F008FB2046F8BD67
:1006500008EEFF1F58F4FF1F74D500000B78042B21
:1006600014D00D2B0DD00A2B0BD04A1C114600F8CC
:10067000013B12F8013B042B08D00D2B01D00A2BB3
:10068000F4D1037000234370481C704700210170AF
:10069000084670470B782BB100F8013B11F8013F79
:1006A000002BF9D10A230370042300F8013F70479F
:1006B00070B504463D210AF0A7F800282CD12F4D33
:1006C0002846214603F040FD04462846214603F013
:1006D000E5FD002845D0204629490AF059FC0028AC
:1006E00041D1204627490AF053FC00283DD120463D
:1006F00025490AF04DFC002839D1204623490AF04B
:1007000047FC002835D1204621490AF041FC002849
:1007100014BFEF20FE2070BD461C00220270174D52
:100720002846214603F010FD04462846214603F0E2
:100730004BFD2846214603F0F5FD2846314603F0DF
:1007400003FD054620460AF045FA0346201801300D
:100750003D22E254A8420ED029460AF0DDF90020DD
:1007600070BDFE2070BDDF2070BDAF2070BDBF200A
:1007700070BDCF2070BD002070BD00BF08EEFF1F10
:1007800084D5000090D500009CD50000A8D50000BD
:10079000B8D5000010B50D4C23685B6820460C49A5
:1007A0001122984720460B4B598807F0A3FA23687B
:1007B0005B68204608491F229847204607F04EFAFA
:1007C000064B1A8801321A8010BD00BF58F4FF1F73
:1007D000C0D5000008EEFF1FD4D5000004EEFF1FB7
:1007E00070B504460AF0F6F9052836D12278A2F150
:1007F0003003092B33D8201D234613F8011F30394D
:1008000009292ED88342F8D131E020461346002131
:100810003026392B1ABF0133DBB2334610F8015FA3
:10082000AB4204D10131C9B20429F2D11BE0042941
:100830001BD000203921302A1ABF02F1FF32D2B278
:100840000A4614F8013F9A4203D10130C0B204288D
:10085000F1D1043818BF012070BD002070BD002008
:1008600070BD002070BD002070BD002070BD2178DB
:1008700063789942C9D1002070BD00BF70B588B0BF
:1008800006463D2109F0C0FF044640B98C488D4919
:1008900003F0ACFD8C4B1A8801321A80B0E1451C84
:1008A00000230370864A138028460AF093F9102823
:1008B00004D98348854903F099FDA1E1684629469A
:1008C0000AF02AF9304682490AF018F810BB284687
:1008D000804909F077FFC0B128467F4909F072FFCF
:1008E00098B128467D4909F06DFF70B128467C49D2
:1008F00009F068FF48B128467A4909F063FF20B142
:100900006F48794903F072FD72E1784829460AF090
:1009100003F96DE13046764909F0F0FFA8B9637834
:1009200083B16748694603F0C3FB724B984204D118
:100930006348714903F05AFD5AE1704829460AF0AC
:10094000EBF855E1FFF726FF52E130466C4909F01C
:10095000D5FFA8B9637883B15948694603F0A8FB6D
:10096000644B984204D15648634903F03FFD3FE190
:10097000644829460AF0D0F83AE1FFF70BFF37E167
:100980003046614909F0BAFFB0B963788BB14C4881
:10099000694603F039FB4FF6FF73984204D148488B
:1009A0005A4903F023FD23E1594829460AF0B4F8D7
:1009B0001EE1FFF7EFFE1BE13046564909F09EFFAE
:1009C000B0B963788BB13E48694603F01DFB4FF622
:1009D000FF73984204D13A484C4903F007FD07E100
:1009E0004D4829460AF098F802E1FFF7D3FEFFE0F0
:1009F00030464A4909F082FFB0B963788BB130487C
:100A0000694603F001FB4FF6FF73984204D12C486E
:100A10003E4903F0EBFCEBE0414829460AF07CF844
:100A2000E6E0FFF7B7FEE3E030463E4909F066FF37
:100A300098B9637873B12248694603F09BFC20B9EA
:100A40001F48394903F0D2FCD2E0384829460AF061
:100A500063F8CDE0FFF79EFECAE03046344909F066
:100A60004DFF98B9637873B11548694603F082FC6D
:100A700020B913482F4903F0B9FCB9E02E482946A4
:100A80000AF04AF8B4E0FFF785FEB1E030462B49A2
:100A900009F034FF002857D1637873B108486946DC
:100AA00003F068FC20B90648254903F09FFC9FE04D
:100AB000244829460AF030F89AE0FFF76BFE97E0E9
:100AC00008EEFF1F48D700001CF0FF1FF4D5000000
:100AD00030D600000CD6000014D6000018D6000056
:100AE00020D6000024D6000028D60000B888FF1FBA
:100AF00038D600008051010040D600005099FF1FF9
:100B000050D600009088FF1F58D6000064D6000021
:100B1000688EFF1F78D60000708EFF1F84D60000FD
:100B2000788EFF1F98D6000090D6000084F1FF1F3A
:100B3000A4D600009CD60000D8F1FF1FACD6000060
:100B4000B8D60000E8F1FF1F30462E4909F0D6FE66
:100B500060BB63783BB328462B4909F033FEE8B10C
:100B600028462A4909F02EFEC0B12846284909F036
:100B700029FE98B12846274909F024FE70B128467D
:100B8000254909F01FFE48B12846244909F01AFEFC
:100B900020B12348234903F029FC29E022482946B3
:100BA00009F0BAFF24E0FFF7F5FD21E030461F49C8
:100BB00009F0A4FEC0B963789BB128461C4909F02E
:100BC00001FE48B128461B4909F0FCFD20B114483C
:100BD000194903F00BFC0BE01848294609F09CFF6B
:100BE00006E0FFF7D7FD03E00D48154903F0FEFBD3
:100BF0003D232370134B1988094A12880A441A802E
:100C000008B070BDCCD60000D0D60000D4D600000D
:100C1000D8D60000DCD60000E0D60000E8D6000000
:100C200008EEFF1FF0D60000B088FF1F08D70000B5
:100C30000CD7000010D7000014D700008888FF1FD1
:100C400028D700001CF0FF1F70B506463D2109F0B3
:100C5000DBFD044640B96E486E4903F0C7FB6E4B9E
:100C60001A8801321A8070BD451C00230370684A3F
:100C70001380284609F0AEFF082804D96448674964
:100C800003F0B4FB70BD304665490AF081F930B31A
:100C900063780BB35E48B11D03F012FB0646FF28D4
:100CA00004D15B485F4903F0A1FBA8E058482946FE
:100CB00003F0AAF94FF6FF73984204D154485A49F9
:100CC00003F094FB9BE006EB4606584800EBC60099
:100CD000294609F021FF92E0FFF75CFD8FE03046E6
:100CE00053490AF055F940B363781BB3484806F1FD
:100CF000080103F0E5FA0646FF2804D144484949B3
:100D000003F074FB7BE04248294603F07DF94FF67F
:100D1000FF73984204D13E48434903F067FB6EE0FD
:100D200006EB4606414B03EBC6000830294609F0A6
:100D3000F3FE64E0FFF72EFD61E030463D490AF026
:100D400027F958B3637833B3314806F1080103F04B
:100D5000B7FA0646FF2804D12D48324903F046FB76
:100D60004DE02B48294603F0E9FAC0B2192808D013
:100D7000282806D0322804D025482F4903F036FB16
:100D80003DE006EB4606294B03EBC6001030294632
:100D900009F0C2FE33E0FFF7FDFC30E030462749A2
:100DA0000AF0F6F838B3637813B3194806F10C016A
:100DB00003F086FA0646FF2804D11548194903F0C6
:100DC00015FB1CE028461E4909F0FCFC48B12846EA
:100DD0001C4909F0F7FC20B10D481B4903F006FB44
:100DE0000DE01A4800EBC600294609F095FE06E022
:100DF000FFF7D0FC03E00648154903F0F7FA3D235E
:100E00002370054B1988024A12880A441A8070BD63
:100E100008EEFF1F40D700001CF0FF1FF4D50000B4
:100E20005CD7000064D7000064D60000E88EFF1F86
:100E300080D700008CD7000098D70000A8D700000A
:100E400010D700000CD70000B8D70000808EFF1F1D
:100E500028D7000070B506463D2109F0D5FC0446B0
:100E600040B96E486E4903F0C1FA6E4B1A880132E0
:100E70001A8070BD451C00230370684A1380284601
:100E800009F0A8FE082804D96448674903F0AEFABF
:100E900070BD304665490AF07BF830B363780BB318
:100EA0005E48B11D03F00CFA0646FF2804D15B48EA
:100EB0005F4903F09BFAA8E05848294603F0A4F8DC
:100EC0004FF6FF73984204D154485A4903F08EFA02
:100ED0009BE006EB4606584800EBC600294609F0A1
:100EE0001BFE92E0FFF756FC8FE0304653490AF0B4
:100EF0004FF840B363781BB3484806F1080103F08C
:100F0000DFF90646FF2804D14448494903F06EFA48
:100F10007BE04248294603F077F84FF6FF7398428A
:100F200004D13E48434903F061FA6EE006EB460601
:100F3000414B03EBC6000830294609F0EDFD64E0A3
:100F4000FFF728FC61E030463D490AF021F858B32C
:100F5000637833B3314806F1080103F0B1F906466E
:100F6000FF2804D12D48324903F040FA4DE02B48C8
:100F7000294603F0E3F9C0B2192808D0282806D082
:100F8000322804D025482F4903F030FA3DE006EB23
:100F90004606294B03EBC6001030294609F0BCFD7C
:100FA00033E0FFF7F7FB30E03046274909F0F0FF68
:100FB00038B3637813B3194806F10C0103F080F9D4
:100FC0000646FF2804D11548194903F00FFA1CE022
:100FD00028461E4909F0F6FB48B128461C4909F08D
:100FE000F1FB20B10D481B4903F000FA0DE01A484F
:100FF00000EBC600294609F08FFD06E0FFF7CAFBAB
:1010000003E00648154903F0F1F93D232370054B31
:101010001988024A12880A441A8070BD08EEFF1F20
:1010200040D700001CF0FF1FF4D50000DCD7000003
:1010300064D7000064D60000308DFF1FE4D70000A5
:10104000F0D7000098D70000FCD7000010D70000B0
:101050000CD70000B8D70000C088FF1F28D70000B9
:1010600070B506463D2109F0CFFB044640B98748DC
:10107000874903F0BBF9874B1A8801321A8070BD8B
:10108000451C00230370814A1380284609F0A2FD05
:10109000082804D97D48804903F0A8F970BD30467E
:1010A0007E4909F02BFCB0B963788BB177482946AB
:1010B00002F0AAFF4FF6FF73984204D173487849B3
:1010C00003F094F9D9E07748294609F025FDD4E0EA
:1010D000FFF760FBD1E03046734909F00FFCB0B96F
:1010E00063788BB16948294602F08EFF4FF6FF7393
:1010F000984204D165486A4903F078F9BDE06B482D
:10110000294609F009FDB8E0FFF744FBB5E0304699
:10111000674909F0F3FBC8B96378A3B15B48294676
:1011200003F00CF9C0B2192808D0282806D03228BC
:1011300004D056485F4903F059F99EE05E482946BD
:1011400009F0EAFC99E0FFF725FB96E030465B49A1
:1011500009F01EFFC0B163789BB12846584909F0D9
:1011600031FB48B12846574909F02CFB20B14748CC
:10117000554903F03BF980E05448294609F0CCFC7E
:101180007BE0FFF707FB78E03046514909F0B6FBFA
:10119000B0B963788BB13D48294602F035FF4FF670
:1011A000FF73984204D139483D4903F01FF964E0C8
:1011B0004848294609F0B0FC5FE0FFF7EBFA5CE035
:1011C0003046454909F09AFBB0B963788BB12F4896
:1011D000294602F019FF4FF6FF73984204D12B48BD
:1011E0002F4903F003F948E03C48294609F094FCF4
:1011F00043E0FFF7CFFA40E03046394909F07EFB83
:10120000C8B96378A3B12148294603F097F8C0B262
:10121000192808D0282806D0322804D01B48254990
:1012200003F0E4F829E02F48294609F075FC24E092
:10123000FFF7B0FA21E030462B4909F0A9FEC0B112
:1012400063789BB128461E4909F0BCFA48B128468C
:101250001C4909F0B7FA20B10C481B4903F0C6F845
:101260000BE02248294609F057FC06E0FFF792FA06
:1012700003E006481E4903F0B9F83D232370054BEF
:101280001988024A12880A441A8070BD08EEFF1FAE
:1012900040D700001CF0FF1FF4D500000CD8000060
:1012A00064D60000008DFF1F18D80000088DFF1FB6
:1012B00028D8000098D70000108DFF1F38D80000F4
:1012C00010D700000CD70000B8D70000A088FF1F7F
:1012D0004CD80000188DFF1F58D80000208DFF1F2C
:1012E00068D80000288DFF1F78D80000A888FF1F4D
:1012F00028D7000070B506463D2109F085FA04465E
:1013000040B95448544903F071F8544B1A880132DB
:101310001A8070BD451C002303704E4A1380284676
:1013200009F058FC102804D94A484D4903F05EF8EA
:1013300086E030464B4909F02BFEC0B16378002BA4
:101340007ED04448711D02F0F9FFC3B20A2B04D9C4
:101350004048454903F04AF872E0C0B200EB800013
:10136000424B03EBC000294609F0D6FB68E030464B
:101370003F4909F00DFE18B36378002B60D0354863
:10138000311D02F0DBFF0646C3B20A2B04D93148F7
:10139000384903F02BF853E02846FFF721FA50B103
:1013A000F6B206EB8606314B03EBC6001030294639
:1013B00009F0B2FB44E027482F4903F017F83FE05B
:1013C00030462E4909F09AFA002835D06378002B70
:1013D00036D02048F11D02F0B1FF0646C3B20A2BF9
:1013E00004D91C48264903F001F829E063783BB38F
:1013F0002846244909F0E6F998B12846224909F01F
:10140000E1F970B12846214909F0DCF948B12846D4
:101410001F4909F0D7F920B10E481E4902F0E6FF36
:101420000EE0F6B206EB8606104B03EBC600183052
:10143000294609F071FB03E00648174902F0D6FF80
:101440003D232370054B1988024A12880A441A80EA
:1014500070BD00BF08EEFF1F40D700001CF0FF1F4B
:10146000F4D500008CD8000094D800004CECFF1F8D
:10147000A8D80000B0D80000C4D80000D8D8000018
:10148000E0D80000F8D8000000D9000008D900001A
:1014900010D900001CD9000028D700002DE9F04326
:1014A00083B004460125234E06F10807DFF88C803F
:1014B0002EE038460DF10701012203F0EDFC012872
:1014C00033D19DF807300A2B0FD104F101092370A5
:1014D000042363700023A370D8F800305B68404693
:1014E0001549012298474C4610E00D2B0ED0621C86
:1014F0002370042363700023A37041F6FE739D42A2
:1015000003D900236370284611E014460135ADB2BB
:101510006B1E98B2337A13F0080F08D0716AF26923
:101520008A1AC6D4002AC4D101E0FF23DFE703B042
:10153000BDE8F08324F1FF1F34D9000058F4FF1FE9
:101540002DE9F04106463D2109F05EF9451C28468B
:1015500009F040FBC7B2304609F03CFB5FFA80F867
:101560003046164909F014FD20B185428CBF102485
:10157000082400E008243046114909F009FD10B1A3
:10158000854288BF102430460E4909F001FD10B194
:10159000854288BF102430460B4909F0F9FC10B190
:1015A000854288BF10240A232B5508F10108C7EB98
:1015B000080754FA87F0C0B2BDE8F08198D6000061
:1015C000A4D6000038D9000040D9000003780A2BC7
:1015D0000ED00D2B0ED0042B0ED00022013210F8AD
:1015E000013F0A2B09D00D2B07D0042BF6D104E0C4
:1015F000002202E0002200E00022501C704700BFE1
:1016000084B070B504AC84E80F000A9D099E1C48A4
:101610000021802209F076F89DF8102052B1194B74
:1016200004AC184603F8012C14F8012F0133002AEA
:10163000F7D100E01248421C3D230370337833B1E8
:10164000314602F8013B11F8013F002BF9D100238C
:1016500013700B48FFF774FF014658B10023084888
:101660001A5CEA540133DAB28A42F9D30139C9B2B9
:1016700001310D442846BDE8704004B0704700BFFA
:1016800024F0FF1F25F0FF1F70B584B00446614DA4
:10169000614A2B4607CA03C31A802B78002B00F03F
:1016A000A7802A4604F8013B12F8013F002BF9D12C
:1016B0009EE005EB450306EBC303029403F1100221
:1016C00092E803008DE803000FCBFFF799FF044673
:1016D00001350C2DEDD14F4E504B35460FCB07C584
:1016E0002B703378002B00F08680324604F8013BE3
:1016F00012F8013F002BF9D17DE005EB450306EB25
:10170000C303029403F1100292E803008DE8030082
:101710000FCBFFF775FF04460135312DEDD13D4E5E
:101720003F4B35460FCB07C52B703378002B65D068
:10173000324604F8013B12F8013F002BF9D15DE07D
:1017400005EB450306EBC303029403F1100292E894
:1017500003008DE803000FCBFFF752FF044601356D
:10176000312DEDD12B4E2F4B35460FCB07C52B809E
:101770003378002B45D0324604F8013B12F8013F84
:10178000002BF9D13DE005EB450306EBC3030294C2
:1017900003F1100292E803008DE803000FCBFFF77E
:1017A0002FFF04460135092DEDD11A4D1E4A2B4657
:1017B00007CA03C31A702B7833B32A4604F8013BD7
:1017C00012F8013F002BF9D11EE005EB450306EBB3
:1017D000C303029403F1100292E803008DE80300B2
:1017E0000FCBFFF70DFF044601351F2DEDD10EE0A5
:1017F00001250E4E5DE701250D4E7EE701250D4EBC
:101800009EE701250C4EBEE701250C4EDDE704B036
:1018100070BD00BF24F0FF1F48D9000054D900005C
:1018200064D9000074D9000084D900006887FF1FC4
:101830002090FF1FB894FF1F2889FF1F008AFF1FF9
:10184000F0B583B00620022105F064FA08200221D9
:1018500005F060FA0A20022105F05CFA142002214A
:1018600005F058FA1020022105F054FA1620012143
:1018700005F050FA1620002105F01AFA1620012171
:1018800005F016FA4B4C20461C2102F039FE20468A
:1018900002F03AFE204602F03BFE474E30461B2146
:1018A00003F0B0F9454D28461A2103F0ABF9444C3A
:1018B0002046192103F0A6F9304603F0A9F928467D
:1018C00003F0A6F9204603F0A3F9304603F04CFAE2
:1018D000284603F049FA204603F046FA002737630A
:1018E000304603F0EFF92F63284603F0EBF9276346
:1018F000204603F0E7F9334C2046502100F04EFD1E
:10190000204600F04DFD204600F026FE2E482F4DCB
:101910002F4B304C42F20F71027812F0FF0F40D083
:101920002A7812F0030F3CD01E682268B21A182AD7
:1019300037D9294C23685B682046284915229847E7
:1019400023685B68204626490C22984723685B6819
:10195000204624490822984723685B68204622498C
:101960000122984723685B68204620490B2298474C
:10197000204606F073F9134B1B7DC3B923685B68DF
:1019800020461B4929229847204606F067F923681C
:101990005B682046174920229847204606F05EF9EA
:1019A000FEE71A680192019A8A42B5D9C1E703B0ED
:1019B000F0BD00BFACA7FF1F70F2FF1F50F1FF1F6B
:1019C00078A7FF1F94F1FF1F44F4FF1F54F4FF1F7B
:1019D00060F3FF1F70F6FF1F58F4FF1F90D900003F
:1019E000A8D90000B8D900006CDF0000C4D90000FD
:1019F000D0D90000FCD900002DE9F0478E48042121
:101A00004FF4005208F07EFE102005F075F978B111
:101A10008A4C23685B68204689490A2298472046F9
:101A200006F01CF91024204605F066F90028FAD1CA
:101A3000824C23685B68204682490C2298472046E6
:101A400006F00CF9052005F0D7F97F4901F58C6007
:101A500001F26C410F22042304F058FB00B37A4CCE
:101A600004F23C4003F0E6FB2046012104F000FABA
:101A700020B92046002104F0FBF988B1724901F237
:101A80003C4003F0EDF9034650B16F4A92F83C2414
:101A900012F0700F1DBF6D496D4A1160002353B9DC
:101AA000664C23685B6820466A49162298472046A0
:101AB00006F0D4F8FEE7614C674E23685B68204669
:101AC000664918229847204606F0C8F823685B68E4
:101AD000204663490C229847204606F0BFF8236849
:101AE0005B6820465F490F229847204606F0B6F80B
:101AF00023685B6820465C490C229847204606F024
:101B0000ADF823685B68204658490B229847204669
:101B100006F0A4F823685B68204655490E229847D2
:101B2000204606F09BF823685B68204651490D2249
:101B3000984705F011FF0028FBD005F0C1FEC5B2A3
:101B4000284605F0B1FF23685B6820464A49002219
:101B50009847204606F082F8A5F13103042B00F2E5
:101B6000A180DFE803F003182C4054003046384BC6
:101B70001968424A012303F065FB002800F09280B7
:101B80002E4C23685B6820463D4911229847204629
:101B900006F064F889E030462D4B1968394A012374
:101BA00003F050FB00287DD0244C23685B6820465E
:101BB000354914229847204606F050F875E0304623
:101BC000234B1968314A012303F03CFB002869D0FC
:101BD0001A4C23685B6820462D49112298472046FD
:101BE00006F03CF861E03046194B1968294A012398
:101BF00003F028FB002855D0104C23685B68204672
:101C0000254910229847204606F028F84DE0304636
:101C10000F4B1968214A012303F014FB002841D01F
:101C2000064C23685B6820461D49132298472046CE
:101C300006F014F839E000BFDCA7FF1F58F4FF1FBF
:101C400020DA00002CDA0000DCC7FF1F18CCFF1FD1
:101C5000D0F2FF1F3CDA00002CF1FF1F54DA000025
:101C600070DA000080DA000090DA0000A0DA0000EC
:101C7000ACDA0000BCDA00000CDD0000CCDA0000B9
:101C8000D4DA0000E8DA0000F4DA00000CDB00002F
:101C900014DB000028DB000030DB000044DB000028
:101CA00050DB0000FF2D7FF408AF6D4C23685B68AC
:101CB00020466C4909229847204605F0CFFF0120B5
:101CC000FEF760FC684F3846FFF7E8FB06466748BA
:101CD00003F0B0FA0020FEF755FC054623685B6868
:101CE00020466349072298472046314606F002F80D
:101CF00023685B6820465F490F22984720462946A3
:101D000005F0F8FF23685B6820465B49022298478C
:101D1000204605F0A3FF0025584B5D8023685B68D3
:101D2000204657490A229847204605F097FF012090
:101D3000FEF728FCDFF87081524C504EDFF86C91B2
:101D400020463946FEF78AFC0746002843D0237810
:101D5000042B02D188F800303DE072880132728095
:101D60000D2BEDD00A2BEBD02046232108F04CFDA3
:101D70000028E5D12046FEF79BFC824668B1FE288C
:101D800004D13046494602F031FBD9E740462146AE
:101D9000FEF780FC80465546D2E7DF2D03D1204672
:101DA000FEF76CFDCCE7AF2D03D12046FEF74CFFCC
:101DB000C6E7BF2D03D12046FFF74CF8C0E7CF2D73
:101DC00003D12046FFF74CF9BAE7EF2DB8D12046F2
:101DD000FFF790FAB4E70020FEF7D4FB0546204C4D
:101DE00023685B68204628490A2298472046234BEF
:101DF000598805F07FFF23685B68204623490A2243
:101E000098472046294605F075FF23685B68204601
:101E10001F49042298471F4B1988002948D02046A3
:101E200005F068FF23685B6820461B490B22984732
:101E300020461A4B198805F05DFF23685B68204631
:101E400017490D229847204605F008FF23685B6874
:101E5000204614491A229847204605F0FFFE3CE030
:101E600058F4FF1F64DB00004CCCFF1F2CF1FF1F58
:101E700070DB000078DB000088DB000008EEFF1F4D
:101E80008CDB000024F0FF1F98DB0000A4DB0000C7
:101E9000B0DB00001CF0FF1FB8DB000004EEFF1FEA
:101EA000C4DB0000D4DB0000DCA7FF1F48D7000024
:101EB000964C23685B68204695490C22984720463B
:101EC000944B198805F016FF23685B6820469249F9
:101ED0000C229847204605F0C1FE8E4B1B8893B11B
:101EE0008E4B1B88002B40F04E818D488D498E4AC9
:101EF00002F0F0FC38B9874B1A88884B1A80834867
:101F00008A49FEF7E9FA854B1B88002B40F03B819C
:101F1000874F3846FFF7B8FB7C4C23685B68204648
:101F2000844917229847204605F098FE0120FEF7C5
:101F300029FB7B4804214FF480724FF4706302F058
:101F400091FC0020FEF71EFB054623685B682046D7
:101F500079490922984720464FF4706105F0CAFE7E
:101F600023685B68204675490F229847204629461A
:101F700005F0C0FE23685B6820467149022298473D
:101F8000204605F06BFE00226E4B5A8023685B688A
:101F900020466D4909229847204605F05FFE012042
:101FA000FEF7F0FA69484FF4807100F02FFA684D9F
:101FB000644E664C28463946FEF750FB074688B10A
:101FC000738801337380A5622846FFF7FFFA206308
:101FD000204600F0D5FA4D4803685B685D49012250
:101FE0009847E7E7594C04232376204600F09AFBF4
:101FF0002046002100F00AFA204600F00FFB544D65
:102000004FF4807628460021324608F07BFB2046BC
:10201000002100F0FBF9A5622663204600F0B0FA2B
:102020000020FEF7AFFA0546384C23685B6820466F
:10203000494908229847434F2046798805F05AFEBF
:1020400023685B6820464549122298472046294666
:1020500005F050FE23685B68204639490222984704
:10206000204605F0FBFD0120FEF78CFA3048FEF714
:10207000C7FA05463846314601F096FF85422FD112
:10208000324C2046FE2100F0C1F96583204600F065
:10209000B7FA0020FEF776FA07461C4C2046304976
:1020A000FEF70CFA1E4E3046294602F0D1FC2046BF
:1020B0002C49FEF703FA2046394605F01BFE204660
:1020C0001F49FEF709FA20462749FEF7F7F930467F
:1020D0001449264A012302F0FDFB00284FD04BE0B3
:1020E0000F481049224A012302F0F4FB18B10C48B2
:1020F000002102F027FD054C23685B6820461D493E
:1021000035229847204605F0A9FDFEE758F4FF1F49
:10211000F0DB000004EEFF1F00DC00001CF0FF1FDE
:10212000F8F1FF1F10DC000018DC000044DC0000A8
:10213000DCA7FF1F50DC000068DC000074DC00003E
:1021400088DB000008EEFF1F84DC000094F1FF1F15
:1021500024F0FF1F34D9000090DC00009CDC00005C
:10216000B0DC0000C0DC0000E8DC000024DD000082
:1021700010DD000040DD0000304802F059F9304821
:102180003049FEF7A9F930483049314A012302F0BD
:10219000A1FB20B12C484FF4804102F0D3FC2A4827
:1021A0002A492C4A002302F095FB38B3244C2046E0
:1021B0002949FEF791F90120FEF7E4F922480421AC
:1021C0004FF48042134602F04DFB0020FEF7DAF98F
:1021D000054620462149FEF771F920464FF480411B
:1021E00005F088FD20461E49FEF768F9204629467D
:1021F00005F080FD20461B49FEF76EF91248134991
:10220000194A002302F066FB50B90D4C23685B6845
:102210002046164922229847204605F01FFDFEE77A
:10222000134800214FF4005208F06CFA0023114AC1
:102230001380114A1380BDE8F08700BF08EEFF1F2E
:1022400058F4FF1F78DD0000F8F1FF1F10DC0000DC
:1022500080DD000098DD0000B4DD000068DC0000D7
:1022600074DC000088DB0000D4DD0000E8DD000045
:102270004CCCFF1F1CF0FF1F04EEFF1F2DE9F041A7
:102280003B4D00242C806C803A4F07F118084E26F5
:10229000281D4146324604F03FFA05F152004146FE
:1022A000324604F039FA05F1A00657F8680F79684C
:1022B000BA68FB680FC63B8A3380C5F8B440C5F8DE
:1022C000B840C5F8BC40C5F8C04005F1C40021467F
:1022D000442208F017FA032385F8C43045F260431E
:1022E000C5F8C8304FF62053C5F8CC3040F65553EA
:1022F000A5F8D03040F6B863A5F8D23041F21C03FF
:10230000A5F8D430012385F80631F82385F8073184
:102310001948FEF7F3F8194A5470F021D170FF23E1
:1023200013715371164A5471D17113725372154A55
:102330005471D17113725372134A5471D171137263
:102340005372124BDC7183F83C4483F83D4483F8AC
:102350006444192283F8662483F869440C4A1A609D
:102360000C4B1C725C721C710B4A1A60BDE8F08148
:1023700008EEFF1FF8D40000F8F1FF1FACA7FF1F05
:1023800070F2FF1F50F1FF1F78A7FF1FDCC7FF1F70
:10239000E8D4000024F1FF1FD8D40000017070477A
:1023A00000B587B0094B1869597B002914BF032277
:1023B00000220023009301920293039301220492CE
:1023C0001A4600F0E1FD07B05DF804FBB8F2FF1F0C
:1023D0000139072918D8DFE801F004080E12080EA9
:1023E000120443680133436070478368013383609C
:1023F000002303757047C3680133C36070470369E6
:102400000133036100230375704700BF11F4004FCF
:1024100003D149BAC18200207047FE20704700BF37
:10242000C38A5BBA9BB20133C3F30E035BBAC382A8
:10243000704700BFC28A52BA036B13FA82F3C3F328
:102440000E035BBAC382704730B583B00446037D88
:1024500013B3134B1869597B22780123009300258D
:10246000019501F0BDF9A06350B10D4B186901F061
:1024700001FA84F820002046FFF7D2FF28460CE03E
:10248000074B1B6993F84E12C9B284F83C102046E2
:10249000FFF79EFFFF2000E0FD2003B030BD00BF2E
:1024A000B8F2FF1F2DE9F04182B00546294C2046C5
:1024B0007C2100F0A7FE2368297849001B6820468C
:1024C00001F0FE0198472169627B002300932046BA
:1024D00001F072F9044685F83C0058BB03232B63D6
:1024E0001C4A1069517B01220092002201927C2239
:1024F00001F076F9A8632B6B83421BD1154E30692E
:1025000001F08CF98046306901F088F9074630699E
:1025100001F084F9C7F303135FFA88F803EB081896
:10252000A5F8428007F00F07C0B200EB0727A5F817
:1025300040700AE0074B1B6993F84E12C9B285F848
:102540003C102846FFF744FFFF24204602B0BDE8B8
:10255000F08100BFB8F2FF1F10B50446FFF7A2FFDD
:10256000034618B9226C05498A4203D0002323751B
:10257000FF2301E001222275184610BD10050A0054
:1025800070B582B00446037D002B32D01B4D064649
:10259000284616F8161B00F035FE28463146022262
:1025A00000F00CF92846A16A226B00F007F960637D
:1025B000296991F84E32DBB2082B05D1204608215B
:1025C000FFF706FFFF2515E00C48427B0023009330
:1025D000012301F0F1F8054684F83C0018B92046C3
:1025E000FFF728FF06E020462946FFF7F1FEFF250A
:1025F00000E0FD25284602B070BD00BFB8F2FF1F05
:1026000008B5037D3BB100F11A0383620223036323
:10261000FFF7B6FF08BDFD2008BD00BF70B582B052
:102620000446037D03B3124D0646284616F8161BD2
:1026300000F0E8FD28463146022200F0BFF8296983
:102640006A7B002300932846012301F0B5F8014678
:1026500084F83C0020B12046FFF7BAFEFF2004E0DA
:102660002046FFF7F1FE00E0FD2002B070BD00BF84
:10267000B8F2FF1F2DE9F04182B00446C66A037D1F
:10268000002B48D0264D0746284617F8161B00F0A9
:10269000B9FD28463946022200F090F829696A7B84
:1026A00000230093284601F087F8054684F83C0093
:1026B00028B120462946FFF78BFEFF252CE0184B5A
:1026C0001869597B2278236B01270097002701970F
:1026D00001F086F8A063236B834210D12046FFF7F8
:1026E000A9FE236BC3B1DFF83880D8F8100001F0E1
:1026F000C1F8F0550137236BBB42F6D80CE0084B0C
:102700001B6993F84E12C9B284F83C102046FFF7BB
:102710005FFEFF2500E0FD25284602B0BDE8F08100
:10272000B8F2FF1F70B582B00446037D0BB3134DA2
:102730000646284616F8161B00F064FD284631466A
:10274000022200F03BF82846217E00F023F8606367
:1027500029696A7B002300932846012301F02CF8A5
:10276000014684F83C0028B12046FFF731FEFF21E6
:1027700000E0FD21084602B070BD00BFB8F2FF1FA7
:102780000369D3F83801D3F83431C01A704700BF59
:10279000704700BF0369D3F84422B2F5817F09D89E
:1027A000D3F84422501CC3F84402134483F83C116C
:1027B00001207047012303710020704730B4036982
:1027C000D3F84442B4F5817F1ED8D3F84442C4F50F
:1027D00081740134D3F844522B4403F59E73944220
:1027E00002D201220271224632B18D1811F8014B3A
:1027F00003F8014BA942F9D10369D3F844121144FB
:10280000C3F84412104602E001230371002030BCDB
:10281000704700BF38B50446084B0360036993F85E
:102820004822022A08D1D3F860522DB1284605F07B
:10283000FBF9284605F074FA204638BD60DE00003A
:1028400010B4002202714FF47A7484600273064A55
:10285000026041734FF41A74044A04FB01210161C0
:102860005DF8044B704700BF60DE00005899FF1F01
:1028700070B504460D46C3681B7813F0200F40F076
:10288000B680836880211970C3681221197090F88E
:102890004932012B0BD022B9002380F848320120A5
:1028A00070BD531EDBB2012B00F2A38000E00122B9
:1028B00025B94FF08071504B196005E0012D03D10F
:1028C0004FF000714C4B1960022A40F08C80D4F814
:1028D00060624EB9082005F01FFA0646002105F097
:1028E00045F9C4F860627EB13379102B0CD13046C3
:1028F00005F09AF9304605F013FA0023C4F8603267
:10290000012084F8480270BD002D30D133689A8BC5
:1029100092B2998B42F008029A83D4F86032197906
:1029200010313648364A42F821001A7953119B007B
:1029300003F1604303F5614302F01F02012101FA34
:1029400002F21A60D4F860321B689A8B92B2998BAB
:1029500042F002029A83D4F860321B7903F180437B
:1029600003F5043300221A7096221A7033E0012D09
:1029700031D1D4F860321B689A8B92B2998B42F0B5
:1029800008029A83D4F86032197910311D481C4A24
:1029900042F821001A7953119B0003F1604303F5BB
:1029A000614302F01F02012101FA02F21A60D4F819
:1029B00060321B689A8B92B2998B42F002029A8322
:1029C000D4F860321B7903F1804303F5043300220D
:1029D0001A7097221A70002384F85632022384F862
:1029E0004832012070BD012084F8480270BD0020EB
:1029F00070BD012070BD00BF00E100E0693E000035
:102A00000082FF1F793E000010B4034698488142BF
:102A100057D10D2A4DD8DFE802F0070C11161B2004
:102A2000252A2F34393E434759682C20087001204D
:102A300043E059682420087001203EE05968552081
:102A40000870012039E059684F200870012034E0F7
:102A500059681920087001202FE059681320087068
:102A600001202AE0596845200870012025E05968B6
:102A70000D200870012020E059680B20087001200B
:102A80001BE0596806200870012016E059680520EF
:102A90000870012011E059680220087001200CE044
:102AA00059680120087008E059680020087001206A
:102AB00003E05A68002010700D22996904240C70FC
:102AC000B3E16C48814253D10C2A49D8DFE802F0C7
:102AD000070C11161B20252A2F34393E4300596854
:102AE0002C20087001203FE0596824200870012044
:102AF0003AE059681E200870012035E059684F20DF
:102B00000870012030E059681520087001202BE082
:102B100059680F200870012026E059680E200870BF
:102B2000012021E059680C20087001201CE0596840
:102B30000A200870012017E0596809200870012058
:102B400012E059680420087001200DE05968022045
:102B50000870012008E0596800200870012003E097
:102B60005A68002010700C22996904240C705CE1F2
:102B7000414881424DD10B2A43D8DFE802F0060BD1
:102B800010151A1F24292E33383D59682720087044
:102B900001203AE059685A200870012035E0596850
:102BA0001C200870012030E0596885200870012041
:102BB0002BE0596814200870012026E05968452050
:102BC0000870012021E059680D20087001201CE0E8
:102BD00059680B200870012017E059680920087017
:102BE000012012E059680320087001200DE05968A7
:102BF00002200870012008E05968002008700120B8
:102C000003E05A68002010700B22996904240C70AC
:102C10000BE11A4881424AD1092A40D8DFE802F084
:102C2000050A0F14191E2330353A5968952008708B
:102C3000012038E0596855200870012033E05968B8
:102C40008520087001202EE05968152008700120A9
:102C500029E0596845200870012024E059680C20BB
:102C6000087001201FE059680A20087001201AE04E
:102C700000879303007E5603006CDC02005125029E
:102C800059680520087001200DE05968022008707D
:102C9000012008E0596800200870012003E05A680C
:102CA000002010700922996903240C70BDE061486E
:102CB000814237D1072A2DD8DFE802F004090E132C
:102CC000181D222759681F200870012026E0596826
:102CD00085200870012021E0596814200870012027
:102CE0001CE0596845200870012017E059680B2046
:102CF0000870012012E059680520087001200DE0DD
:102D0000596802200870012008E059680020087006
:102D1000012003E05A6800201070072299690224FC
:102D20000C7082E0444881422CD1052A22D8DFE889
:102D300002F003080D12171C59681D2008700120AD
:102D40001CE0596814200870012017E059684320DE
:102D50000870012012E059680B20087001200DE076
:102D6000596803200870012008E0596800200870A5
:102D7000012003E05A68002010700522996901249F
:102D80000C7052E02D48814221D1032A17D8DFE888
:102D900002F002070C11596814200870012012E09B
:102DA00059680B20087001200DE059680320087055
:102DB000012008E0596800200870012003E05A68EB
:102DC000002010700322996901240C702DE01C482A
:102DD000814215D112B1012A05D009E059680B20B2
:102DE0000870012008E0596800200870012003E005
:102DF0005A68002010700122996900240C7014E0B8
:102E0000104881420CD122B95A680021117001206A
:102E100002E05A6800201070996900220A7004E0EC
:102E20005968002008709969087083F84C225DF891
:102E3000044B704700366E010024F40000127A0043
:102E400000093D0080841E00F8B504469DF8180076
:102E500000284DD0E5682D7815F0200F44D147E0CB
:102E6000012A0ED128B1002B5AD053E0132003F0D1
:102E700051FF012384F84A323F4B1D60043B1D6023
:102E800060E028B1002B57D050E0102003F042FF43
:102E9000002384F84A32394B1D60043B1D6051E029
:102EA000012923D1042A0FD128B1002B52D04BE0A5
:102EB0001D2003F02FFF042384F84A32304B1E609C
:102EC00004331E600120F8BD28B1002B4ED047E02E
:102ED0001A2003F01FFF032384F84A32294B1D6098
:102EE000043B1D600120F8BD0020F8BD0120F8BDA5
:102EF000002B40F2032508BF4FF4197540F203661A
:102F000040F26467002B08BF3E4684F84B3200292C
:102F1000C6D1A5E71220022103F0FCFE0221A5E79D
:102F20001220002103F0F6FE00219FE7112002216C
:102F300003F0F0FE0221A8E71120002103F0EAFED1
:102F40000021A2E70120F8BD1E20022103F0E2FECD
:102F50000221ADE71E20002103F0DCFE0021A7E7DF
:102F60001F20022103F0D6FE0221B1E71F2000211D
:102F700003F0D0FE0021ABE704A004400CA0044005
:102F800000D004402CB00440F0B583B004469DF856
:102F900020009DF82C600D4629B92F490F6847F095
:102FA00040070F6006E0012904D12B490F6847F064
:102FB00080070F6084F84922002184F84E123AB944
:102FC000636920221A7022681170E269117011E0A1
:102FD0006269002837D12DE05B00DBB21370E26933
:102FE0004300DBB205E04000C0B21070E2695B0054
:102FF000DBB2137000230093204629469DF824205D
:103000009DF82830FFF720FF204614493246FFF78D
:10301000FBFC204629469DF83020FFF729FC94F858
:1030200049321BB9A36880221A7012E0A368C0223B
:103030001A700EE02021117022685B00DBB2137061
:10304000E2690023D5E72821117022689842C3D88D
:10305000C9E703B0F0BD00BF34800440006CDC025F
:103060002DE9F04F83B082468B4690F84A32042B0C
:103070004FD8DFE803F03134030609001726162481
:103080002FE01E261D242CE01F261A2429E02046AE
:10309000494603F00DFE2B46013B7FF4FDAF204671
:1030A000414603F005FE2B46013B7FF4FDAF304661
:1030B00003F022FE18B9013F17F0FF07E7D1002106
:1030C0008AF84E129AF84A229AF84B3200915046EA
:1030D0005946FFF7B9FE1CE01226132401E0112621
:1030E00010249AF84B32002B304614BF02210021E5
:1030F00003F010FE2046012103F0DAFD20460121F5
:1031000003F008FE0B274FF0000950254FF001088F
:10311000CDE703B0BDE8F08F2DE9F84305468846BA
:103120001646994603F046FE0746AB681A7812F039
:10313000200F0ED0B4221A7032E0EC68247814F01C
:10314000200F06D1002385F84932AB68B0221A70EF
:1031500006E0002EF1D003F02DFEC01B8642ECD815
:10316000AB681B7813F0200F0ED128464146FFF7BD
:1031700077FFEB681B7813F0200F05D1002385F84B
:103180004932AB68B0221A70AB681B7803F0200399
:1031900003F0FF0023B9042385F84E32BDE8F8831D
:1031A00095F84832013BDBB2012B20D803F088FBB5
:1031B000124B134AB8F1000F18BF13461B78984200
:1031C00018DC0F2804DC012089F80000BDE8F88332
:1031D0000A4B0B4AB8F1000F14BF90469846A0F175
:1031E0001003DBB288F800300120BDE8F88301202D
:1031F000BDE8F8830120BDE8F88300BF18E400E0D3
:1032000019E400E00369490083F83C1103690122D5
:10321000C3F8442200230371026982F84E327047DA
:103220002DE9F04383B0054614461F4600238DF870
:103230000730D0F84432002B00F0C8800FB9D0F826
:103240006472EB6812221A7028463A460DF10703A1
:10325000FFF762FF002800F0B98095F848321BB1F3
:103260009DF80720002A54D003F0A4FD81460123D5
:1032700085F84E3285F84D4200264FF002082BE0CB
:103280002B69AA1992F83C211A70EC68217811F088
:10329000020FFBD084F80080EB681978C9B211F0F6
:1032A000100F09D0072385F84E32AB6880221A70C0
:1032B000EB6810221A701BE011F0010F0BD01EB941
:1032C000052385F84E3202E0062385F84E32AB68BE
:1032D00080221A700CE00136D5F844329E4207D2A3
:1032E000002FCDD003F066FDC9EB00008742C7D8A0
:1032F000D5F84432B3428CBF0423002385F84E3204
:1033000095F84D32012BAB680CBF8022B0221A70A9
:103310005CE05A1ED2B2012A58D8012285F84E220A
:1033200085F84D420022C5F84022022B14D1D5F871
:103330004432042B18D80FE013689B6833B9136824
:1033400000210120187259729972D97213680022F3
:103350001A765A769A76DA76AB68F0221A702B696A
:1033600095F83C211A7031E0012385F85632D5F8E2
:10337000602205F59F70D5F84442033C11680B6844
:10338000002308601168012008714B711168CB712E
:10339000116808724B728B72CB7211686042C86000
:1033A0001068C18BA1B2C1831268D08AD182D5F8CE
:1033B000602229691068046901611068037543750A
:1033C00010688371B1F1804FB9D3B5E703B0BDE8A0
:1033D000F08300BF2DE9F04383B0044616469DF804
:1033E00028700B9D00208DF80700002B00F04E8107
:1033F000B3F5827F03D3082384F84E3246E1C4F844
:1034000050320023C4F83431C4F838310DB9D4F83F
:103410006452E36812221A7020462A460DF107030F
:10342000FFF77AFE002800F0318194F8483223B18A
:103430009DF80720002A00F0968003F0BBFC804630
:10344000022384F84E3284F84D722369720042F0F0
:103450000102D2B21A70E268137813F0020FFBD0A7
:1034600002231370E3681B78DBB213F0100F09D04E
:10347000072384F84E32A36880221A70E368102272
:103480001A7003E113F0010F06D0052384F84E32C1
:10349000A36880221A70F9E0032384F84E32D4F82E
:1034A0005032012BA3680CBFA822A0221A702369F6
:1034B0001B780226002745E00B7813F0020FFBD0A3
:1034C0000E70002D00F0AA8003F074FCC8EB000021
:1034D00085428CBF00230123D4F838110231D4F87F
:1034E0005022914205D03BB194F8552222B900E018
:1034F0003B46A26882F80090D4F838110131D4F824
:103500005022914280F09F80002B00F0918094F82F
:103510005522002A40F0AA808AE0042284F84E2234
:1035200001E084F84E7294F84D22012A06D110224F
:10353000013A7FF4FDAFA2688021117023B101230D
:1035400084F855324FF0A809D4F83821D4F8503215
:103550009A4280F09B8094F84E32DBB2032B40F00D
:103560009580E168A8E75A1ED2B2012A00F28E8047
:10357000022284F84E2284F84D72934244D1D4F84A
:103580005032042B40D9012384F85632D4F86032EB
:10359000216918680268002201601868027142718E
:1035A0001868C271B1F1804F02D31A68926832B9BB
:1035B0001A6800210120107251729172D1721A683A
:1035C0000023137353739373D373D4F8602204F1FD
:1035D0003005D4F85002013811680F690D61116887
:1035E00001250D754B7511688B7111680D724B7249
:1035F0008B72CB721368414299611368D98B81B287
:10360000D9831368DA8AD982A368F0221A702369F1
:10361000720042F00102D2B21A7037E0D4F83821B9
:103620000232D4F850329A423FF462AF3B4663E72D
:1036300022691178D4F83821501CC4F8380122448A
:1036400082F830107AE784F85572A268B0211170C0
:1036500022691178D4F83821501CC4F8380122446A
:1036600082F83010002B3FF45CAF56E784F85572B7
:10367000A268B021117022691178D4F83821501C49
:10368000C4F83801224482F8301046E703B0BDE8A0
:10369000F08300BF036993F84E32043B042B0CD82F
:1036A000DFE803F00910050703000120704703203D
:1036B000704704207047042070470079003018BF1D
:1036C000012070470220704790F84E3213F0FF0F30
:1036D0001BD090F84E32DBB2052B18D090F84E324A
:1036E000DBB2062B15D090F84E32DBB2072B12D08E
:1036F00090F84E32DBB2042B0FD090F84E02C0B2DD
:10370000082814BF002001207047012070470120C5
:10371000704701207047012070470120704700BFAB
:1037200070B5044615460AB9D0F8645203F042FB5E
:1037300006462046FFF7C8FF00283AD1002DF8D0F2
:1037400003F038FB801B8542F3D803F033FB801B6A
:10375000854210D894F84832022B0CD194F8563296
:1037600013F0FF0F07D02046FFF7AEFF0028FAD076
:10377000042384F84E3294F84E32DBB2012B09D088
:1037800094F84E32DBB2022B04D094F84E32DBB206
:10379000032B02D1042384F84E324023013B7FF4F3
:1037A000FDAF94F84E3213F0FF0F14BF002001203C
:1037B00070BD002DDFD0C8E7F8B507460E461546A8
:1037C000069C084611461A462346FFF729FD304657
:1037D00029462246FFF7A4FF3846FFF75BFFF8BDF6
:1037E00070B582B004460D461E468BB19DF8183068
:1037F00000930799019129463346FFF7EBFD2046D8
:103800002946079AFFF78CFF20B1D4F8380102E06F
:10381000002000E0002002B070BD00BFD0F83421CD
:10382000D0F838319A4208D2D0F834315A1CC0F856
:103830003421184490F8300070474FF0FF30704743
:1038400008B50069FFF7EAFF08BD00BFD0F83421D2
:10385000D0F838319A423DBFD0F83431C01890F8D2
:1038600030004FF0FF30704708B50069FFF7EEFFFA
:1038700008BD00BFD0F83421D0F838319A4208D2C0
:10388000D0F834315A1CC0F83421184490F8300074
:1038900070470020704700BF38B50446C2681578ED
:1038A000EDB281680B78DBB213F0200F00F0C3811A
:1038B00013F0100F00F0058190F85632DBB2022BA6
:1038C00004D090F85632DBB2032B4CD1D4F86012FE
:1038D0000B689B8B03F080039BB2002B00F080826F
:1038E00094F85632DBB2022B40F07A826EE2137803
:1038F00013F0800FFBD00A79B54B1A70002384F8BF
:103900005632D4F84432013BC4F840322369D4F82B
:103910004022224492F83C211A7020E0AD4B1A68F4
:103920000B7901219940114219D0AB4A1370D4F898
:1039300060321A79A94B1A70002384F8563215F0B8
:10394000100F0CD0072384F84E32A36880221A701F
:10395000E36812221A700023C4F8403238BDE368CD
:1039600002221A7038BD90F84E32DBB2012B56D1CC
:1039700015F0100F0DD0002380F85632072280F882
:103980004E2280220A70C26812211170C0F84032A3
:1039900038BD15F0010F0FD0002380F85632D0F853
:1039A00040321BB9052380F84E3202E0062380F82E
:1039B0004E3280230B702EE0D0F840320133C0F835
:1039C0004032D0F8442293420AD3002380F84E328A
:1039D00090F84D32012B0CBF8023B0230B701AE0FE
:1039E00090F85632DBB2012B0ED1022380F856320A
:1039F000F1230B70D0F860321A79794B1A70036991
:103A000090F83D211A7006E00369D0F84022024484
:103A100092F83C211A70E36802221A7038BD90F8BF
:103A20004E32DBB2022B36D115F0100F08D007232F
:103A300080F84E3280230B70C36812221A7038BD92
:103A400015F0010F05D0052380F84E3280230B704E
:103A50001DE090F85632DBB2012B0CD1022380F826
:103A60005632E1230B70D0F860321A795C4B1A7031
:103A700003691B780BE0032380F84E32D0F85032F4
:103A8000012B0CBFE823E0230B7003691B78E3686C
:103A900002221A7038BD90F84E32DBB2042B0AD1E4
:103AA00090F84D32012B0CBF8023B0230B70C368FC
:103AB00002221A7038BD80230B70C36802221A706C
:103AC00038BD90F85632DBB2022B04D090F8563253
:103AD000DBB2032B56D1D4F860321A68928B02F015
:103AE000800292B2002A00F08C8194F85622D2B261
:103AF000022A40F086817AE11A79354B1A70002348
:103B000084F8563294F84E32DBB2042B1CBF0023EB
:103B100084F84E32A368B0221A70D4F85032013BB8
:103B2000C4F83831D4F838315A1CC4F83821226925
:103B30001278234483F8302094F84D32012B1DD1A4
:103B40001023013B7FF4FDAFA36880221A7015E0BB
:103B5000204A12681B790121994011420ED01F4A58
:103B60001370D4F860321A791B4B1A70002384F852
:103B7000563284F84E32A36880221A70E36802221B
:103B80001A7038BDD0F838210232D0F850329A423B
:103B900000F03E8190F84E32DBB2042B04D190F855
:103BA0005532002B00F03481D4F838210132D4F89A
:103BB00050329A4280F03A8194F84E32DBB2042BB4
:103BC00040F0298194F85532002B40F02F8122E1FA
:103BD0001C8000402C8000401F8000401E80004060
:103BE0001B800040002384F84E32A368B0221A7074
:103BF000D4F838315A1CC4F8382122691278234489
:103C000083F8302094F84D32012B06D11023013B6C
:103C10007FF4FDAFA36880221A7094F84E32DBB2B5
:103C2000042B04D194F85532002B00F00981E3688D
:103C300002221A7038BD15F0100F08D0102313702F
:103C400015F0400F06D1C36802221A7038BD15F076
:103C5000400F60D094F84E32DBB20A2B04D1D4F876
:103C60005832002B40F0F08015F0040F1ED00923CD
:103C700084F84E320023C4F84432A368D0221A706C
:103C800023691B785B0884F84F32D4F85C3203B1A7
:103C90009847D4F844320BB984F83C31236994F83E
:103CA0003C211A700123C4F8403230E0002384F82C
:103CB000543294F84A322BB912206849032202F098
:103CC00087FF16E0012B05D111206449032202F081
:103CD0007FFF0EE0032B05D11E206149032202F075
:103CE00077FF06E0042B04D11F205D49032202F078
:103CF0006FFF0A2384F84E320023C4F83831A368DA
:103D0000C0221A7023691B785B0884F84F32E3687D
:103D100002221A7038BD13F0100F20D015F0010FD9
:103D200015D1D0F84022D0F844329A4208D2D0F8C7
:103D300040325A1CC0F84022034493F83C2100E072
:103D4000002223691A70A368D0221A703AE0C023B7
:103D50000B7003691B78002380F84E3232E0002399
:103D600080F8543290F84A322BB912203B49032292
:103D700002F02EFF16E0012B05D111203749032256
:103D800002F026FF0EE0032B05D11E20344903224A
:103D900002F01EFF06E0042B04D11F20304903224D
:103DA00002F016FF23691B78DAB2D4F83831B3F584
:103DB000817F07D8D4F83831591CC4F8381123440E
:103DC00083F83020E36802221A7038BD0A79254B47
:103DD0001A70A368F0221A70032384F85632BEE5E5
:103DE00094F85632DBB2032B7FF498AD7FE51A7955
:103DF0001C4B1A70A368E8221A70032384F8563209
:103E0000BCE694F85622D2B2032A7FF4A1AE73E640
:103E1000E8230B70C8E6D4F838315A1CC4F83821AE
:103E200022691278234483F83020F6E6002384F8D0
:103E3000553294F84E32DBB2042B7FF4D3AED4E685
:103E4000012384F85532F2E60023C4F83431D4F863
:103E50003801D4F85832984706E700BF2D3F0000DC
:103E60003D3F00001F80004008B502480021FFF7D9
:103E700013FD08BD5899FF1F08B502480121FFF73F
:103E80000BFD08BDC09BFF1F10B50446C3681B781F
:103E900013F0200F24D1002380F84E3290F84A32DC
:103EA0001BB9122002F0DCFE10E0012B03D111201F
:103EB00002F0D6FE0AE0032B03D11E2002F0D0FE52
:103EC00004E0042B02D11F2002F0CAFED4F85832BD
:103ED00053B30022C4F83421D4F83801984710BDF8
:103EE00090F854320133DBB280F85432012B03D8FE
:103EF00090F84932012B17D094F84A321BB912209E
:103F000002F0AEFE10BD012B03D1112002F0A8FE7D
:103F100010BD032B03D11E2002F0A2FE10BD042B06
:103F200002D11F2002F09CFE10BD00BF08B5024860
:103F30000021FFF7A9FF08BD5899FF1F08B50248E7
:103F40000121FFF7A1FF08BDC09BFF1F70B50B4EFD
:103F500030460021FEF774FC094D0A4C30462946D4
:103F6000224606F065F8084E30460121FEF768FC4F
:103F700030462946224606F05BF870BDB8F2FF1FB6
:103F8000152800006087FF1FA4F2FF1F82EA0100CE
:103F900008234AF2010210F0010F14BF82EA600008
:103FA0004008013BF7D17047F8B50746154C20464D
:103FB000FEF72CFA2046FEF731FB94F82020042A65
:103FC00016D14FF6FF70F8BD38463146FFF7DEFFD9
:103FD0000646013CA4B244B12846FEF735FA95F8EE
:103FE0002020042AF0D13046F8BD4FF6FF70F8BD0E
:103FF00038464FF6FF71FFF7C9FF064641F6FE74DB
:10400000004DE9E794F1FF1F30B583B002AB002209
:1040100043F8042D0846194608F07AF8019B4BB383
:104020001B7853BB00221E4B05F06CFB18A3D3E991
:10403000002305F045FE04460D4617A3D3E90023EF
:1040400005F0A4FFE0B9204629460022154B05F0F3
:104050007FFFC0B9204629460022134B05F006FD1C
:104060000022124B05F002FD05F0C2FF20F0070010
:1040700080B20AE04FF6FF7007E04FF6FF7004E0F1
:104080004FF6FF7001E04FF6FF7003B030BD00BF88
:10409000000000C0CCCCFC3F0000000000C062402B
:1040A0000000404000804BC0000030400000204035
:1040B00010B50C4608463A2106F0A6FB034690B31D
:1040C000002202702078A0F13002092A2DD8D0B247
:1040D0006278A2F13001092906D800EB800001EBDB
:1040E000400000F0FF0000E00ABB5A78A2F1300166
:1040F00009291ED89B78A3F1300109291BD817285C
:104100001BD8303AD2B202EB820201EB420303F039
:10411000FF033B2B13D8C3EB03139B004FF46162E7
:1041200002FB003010BD074810BD064810BD054811
:1041300010BD044810BD034810BD024810BD014821
:1041400010BD00BF805101002DE9F843884691B3AE
:10415000084606F03FFD814608EB00064446274628
:1041600014F8015B284605F09BFF18B1002DF6D12D
:104170003D4600E03D46AE4209D03446661E14F886
:10418000010C344605F08CFF08B1B542F6D109F1B7
:10419000FF39C144B14504D0002373703846BDE8EF
:1041A000F88345450AD04D450BD1002388F80030EF
:1041B0003846BDE8F8830020BDE8F8833846BDE8FE
:1041C000F8833846BDE8F88370B50C465F261AE0E0
:1041D00005F066FF90B1631C2670607880B11C46C4
:1041E00007E0651C2046294606F096FC607848B139
:1041F0002C4605F055FF0028F3D104E0013402E01D
:104200001C4600E02C4620780028E1D170BD00BF9C
:1042100030B12038C0B25E2894BF00200120704722
:1042200000207047F8B50D461B4C2046FEF7F6F906
:1042300094F820402046FFF7EBFF10B9164BDB8ABD
:104240004BB9042C04D100232B704FF6FF70F8BD3E
:1042500000202870F8BDE4B16E1C2C7001270E4DB3
:104260002846FEF7F1F895F820402046FFF7D0FFEA
:1042700008B9EB8A43B9042C4FF0000333700CBF2C
:104280004FF6FF703846F8BD06F8014B0137BFB254
:10429000E6E74FF6FF70F8BD94F1FF1F10B50C462E
:1042A0000B785B2B0AD1084606F094FC204410F8EA
:1042B000010C5D2814BF0020012010BD002010BD9E
:1042C0000B78642B20D14B78A3F13002092A1DD83A
:1042D000CA78632A1CD10A79A2F13000092819D8BA
:1042E000C0B24979C1B9A3F13101C9B2032915D8C6
:1042F000313AD2B2022A13D8303BDBB2013B03EB96
:1043000043031844C0B27047FF207047FF20704736
:10431000FF207047FF207047FF207047FF20704745
:10432000FF20704710B5087838B14C1E07F0F8FE32
:1043300004F8010F60780028F8D110BD0B78A3F1C4
:104340003002D2B2092A0FD8002003E0A3F13002D4
:10435000092A0CD800EB8000303B03EB400011F839
:10436000013F002BF2D170474FF0FF3070474FF004
:10437000FF30704770B584B00546009108462E2185
:1043800006F042FA034620B3013000221A70019071
:104390002E2106F039FA0346E8B1013000221A70E6
:1043A00002902E2106F030FAB8B1002300F8013B4C
:1043B0000390ADF1040403AE284654F8041FFFF740
:1043C000BDFFB0F1FF3F0AD0FF280ADCB442F3D1B1
:1043D00009E0002008E0002006E0002004E00020C2
:1043E00002E0002000E0012004B070BD70B5054679
:1043F0000E46084606F0EEFB02460B4C23685B684F
:1044000020463146984723685B68204607490922C1
:1044100098472046698803F06DFC204603F01EFC97
:104420002B8801332B8070BD58F4FF1FC8D50000C6
:104430002DE9F041C0B006462B484FF48071FDF7DE
:10444000E5FF0125294CDFF8B480294F3046694645
:10445000FFF7E8FE002844D04FF6FF72904216D1D5
:10446000684606F0B7FB0246204C23685B6820468E
:1044700069469847204603F0F1FB23685B682046B5
:104480001C490A229847204603F0E8FB29E0092D41
:1044900006D823685B68204639460222984707E021
:1044A000632D05D823685B68204641460122984762
:1044B0002046294603F01EFC23685B6820460E490F
:1044C00002229847684606F085FB024623685B682F
:1044D000204669469847204603F0C0FB0135ADB23F
:1044E000B4E740B0BDE8F08194F1FF1F58F4FF1F1E
:1044F00084DE000078DE000088DE00006CDF000053
:1045000008B500F00DF808BD08B500F015F808BDB5
:1045100008B5FF210122002300F020F908BD00BFEB
:10452000017080F82410002383704370F023C3705F
:10453000FF2303714371704700B587B0094B1869B9
:10454000597B002914BF032200220023009301920B
:1045500002930393012204921A46FEF715FD07B059
:104560005DF804FBB8F2FF1F08291FD8DFE801F04F
:1045700005090D14180D14180900C3680133C36030
:104580007047036901330361704743690133436135
:10459000002380F8203070478369013383617047BE
:1045A000C3690133C361002380F82030704700BF26
:1045B00070B582B004460D4690F82030002B31D003
:1045C0001B4B1869597B2278012300930026019622
:1045D000FFF706F901280AD0154B1B6993F84E1214
:1045E000C9B221722046FFF7BFFFFF201DE0104B2C
:1045F0001869FFF713F9C0B2287063790BB9A0707E
:104600000AE0012B02D1607000200EE0022B03D1E2
:104610002B78E370002008E0032B05D12B78237161
:10462000002002E0FD2000E0002002B070BD00BFCD
:10463000B8F2FF1F70B582B004460D4690F82030E6
:104640002BB3154E30462178FEF7DCFD3046294667
:10465000FEF7A0F8C0B22072012806D00021217216
:104660002046FFF781FFFF2112E00B480169427BE2
:10467000002300930123FFF79FF80146207220B129
:104680002046FFF771FFFF2102E0657100E0FD2188
:10469000084602B070BD00BFB8F2FF1F38B504462F
:1046A0000D4690F8203063B10021FFF7C3FF50B9E9
:1046B00020462946FFF77CFF002814BFFF2000207A
:1046C00038BDFD2038BDFF2038BD00BFF0B583B038
:1046D00004460D46164690F82030002B37D01E4F6A
:1046E00038462178FEF78EFD38462946FEF752F807
:1046F000207238463146FEF74DF8237A1844C3B28B
:104700002372022B06D0002121722046FFF72CFFD6
:10471000FF211DE010480169427B00230093012323
:10472000FFF74AF80146207220B12046FFF71CFF30
:10473000FF210DE06571012D01D1667008E0022DA9
:1047400001D1E67004E0032D02D1267100E0FD21C5
:10475000084603B0F0BD00BFB8F2FF1F2DE9F043DB
:1047600083B005468946174698461C4C2046297852
:10477000FEF748FD2068066820460021B047216901
:10478000627B0023009320460123FFF715F820B138
:10479000002385F82030FF201CE0012485F820400C
:1047A0006FEA090228460321D2B2FFF78FFF0646BF
:1047B000284602214246FFF789FF3043C6B2284609
:1047C00021463A46FFF782FF304310F0FF0F14BF37
:1047D000FF20002003B0BDE8F08300BFB8F2FF1F48
:1047E00070B504460D46417890F82030F3B13AB1E7
:1047F00021EA050601213246FFF768FFC0B907E04C
:1048000045EA010601213246FFF760FF90B902E058
:1048100046EA050201E026EA050220460121FFF7EB
:1048200055FF002814BFFF20002070BDFD2070BD83
:10483000FF2070BDFF2070BD10B5447890F8203087
:104840006BB112B141EA040201E024EA0102012144
:10485000FFF73CFF002814BFFF20002010BDFD2003
:1048600010BD00BF70B5C0B015461C46013B1344D7
:10487000B3F5004F26D868464FF4807205F042FF2A
:10488000134E30462946FDF7C1FD4FF48073336364
:1048900000ABB362B4F5807F0AD94FF4807530461F
:1048A000FDF76EFE05F58072944202D91546F6E7D3
:1048B0000025AC4208D00648641B0463FDF760FE87
:1048C000002002E0FF2000E0002040B070BD00BFEB
:1048D00094F1FF1FF8B50F4616461D462A4C236873
:1048E0005B682046294907229847384606F072F946
:1048F000024623685B6820463946984723685B6810
:104900002046234902229847304606F063F90246C2
:1049100023685B6820463146984735B120462368B6
:104920005B681C490922984705E0174803685B68E3
:1049300019490922984703F00FF80028FBD002F02C
:10494000BFFFC0B20D2801D195B903E000F0DF0030
:104950004E280BD10C4C23685B6820460F4902227D
:104960009847204603F07AF90020F8BD5928E2D193
:10497000054C23685B682046094903229847204676
:1049800003F06CF90120F8BD58F4FF1F4CDF000064
:1049900054DF000058DF000064DF00000CD7000087
:1049A00010D700002DE9F8430E46022A17D0042A3A
:1049B00002D0012A2FD125E004254FF080541E4F4C
:1049C000DFF878904FF00108A64205D23B685B689B
:1049D00038464946424698472409013DF4D102250C
:1049E0004FF48054144FDFF854904FF00108A64262
:1049F00005D23B685B6838464946424698472409D9
:104A0000013DF4D10F2E0ED80B4803685B680B49AB
:104A10000122984707E0084803685B6808491C22A0
:104A20009847BDE8F883044831461022002303F07C
:104A300025F9BDE8F88300BF58F4FF1F70DF0000C0
:104A400074DF000008B50122FFF7ACFF08BD00BF0E
:104A500008B50222FFF7A6FF08BD00BF2DE9F04F01
:104A600083B007468A4602F1080902F58472019272
:104A70002E4CDFF8CC80A9F1080623685B6820463D
:104A80002B490422984738465146FFF7E1FF236837
:104A90005B6820462749042298474D464FF0010B9A
:104AA000384616F8011BFFF7CDFF23685B682046E8
:104AB00041465A469847AE42F2D123685B68204689
:104AC0001D490422984709F1080B0126384615F8BC
:104AD000011BFFF7B7FF23685B682046414632465B
:104AE00098475D45F2D123685B682046134903224D
:104AF000984709F10706A9F109054FF02E0B15F8A3
:104B0000011F1F2923681B68204698BF59469847F4
:104B1000B542F4D10AF1100ACAF30E0A09F11009DC
:104B2000019B9945A7D103B0BDE8F08F58F4FF1F52
:104B300008DD0000C8DF0000D0DF0000D8DF000083
:104B40006CDF00002DE9F041C0B007460C46174B62
:104B500000AADA624FF480721A631E46144DDFF821
:104B60005C8030462146FDF751FC3046FDF782FD62
:104B7000384621466A46FFF771FF2B685B68284676
:104B8000414600229847284603F068F8384609490C
:104B9000094A0123FFF79EFE20B104F58074C4F397
:104BA0000E04DEE740B0BDE8F08100BF94F1FF1FC6
:104BB00058F4FF1F10DC0000DCDF00000CDD0000FB
:104BC00010B586B004460A4B1869597B002914BFFA
:104BD00003220022002300930192029303930122F7
:104BE00004921A46FEF7D0F9204606B010BD00BF69
:104BF000B8F2FF1F08B50248FFF7E2FF08BD00BF8B
:104C0000CCF2FF1F08B50430FFF78AFC08BD00BFD7
:104C100008B50430FFF790FC08BD00BF2DE9F04750
:104C200082B005468A46066B041D204620210122DB
:104C3000FFF702FE204601210022FFF7FDFD20279D
:104C40004FF080094FF040082B685B002B60204636
:104C50000DF10701FFF722FD9DF8073013F0100F4B
:104C600003D02B6843F001032B6020464946F20F26
:104C7000FFF7E2FD7600204641460022FFF7B0FD37
:104C80007B1E13F0FF07DFD1BAF1000F0AD02046D8
:104C900028210022FFF7D0FD204608210122FFF73E
:104CA000CBFD04E0204620210022FFF7C5FD204671
:104CB00001210A46FFF7C0FD2B68EB62002002B01D
:104CC000BDE8F08708B50121FFF7A8FF08BD00BFC8
:104CD0002DE9F04182B0002402AF07F8014D051D17
:104CE000284602212246FFF7F1FC4FF00108E6B208
:104CF000284641463246FFF7E9FC28463946FFF789
:104D0000CDFC9DF80720A3B29A421ED0134C236815
:104D10005B68204612490B229847204631461022F4
:104D2000002302F0ABFF23685B6820460D49052293
:104D3000984720469DF807101022002302F09EFF9E
:104D4000204602F08BFFFF2004E00134B4F5807FA1
:104D5000CDD1002002B0BDE8F08100BF58F4FF1FA4
:104D600044E0000050E0000038B50446051D284628
:104D7000FF2101220023FFF7F1FC50B92046FFF785
:104D8000A7FF38B92846E92101220023FFF7E6FCF6
:104D900038BD38BD38BD00BF08B5837863F07F03E8
:104DA00083700246806852F8101F01F00BF808BDAE
:104DB0002DE9F8430446037813F0200F31D14369FD
:104DC0001D4A93422FD8FFF7E7FF064600282FD051
:104DD000A068216900F08EFF8046A068243041461B
:104DE000052200F063FF8146F8B100214FF4007204
:104DF00005F088FCA0680779012F0DD90125076807
:104E00007F6805EB08014A46B84780B10135EDB22D
:104E1000A0680779BD42F2D3636903EB472363615E
:104E200006E0002604E0002602E0002600E0064638
:104E30003046BDE8F88300BFFFFD1F0010B50446F3
:104E40000A4680682430A16900F030FF034628B18B
:104E5000A08800F00F0003EB401010BD002010BD33
:104E600038B504460D46037893B90021242205F095
:104E700049FCA560EB79102B02D0202B03D009E070
:104E80002023237001E0402323700120A07038BD4F
:104E9000002038BD002038BD2DE9F04F83B0044616
:104EA000884600920378002B00F0B380827812F0DD
:104EB000010F00F0AE8013F0080F08D0C2694369FB
:104EC000D31A009A9A4228BF1A4600920DE013F0B6
:104ED000200F0AD083681A894369C3EB42139BB23F
:104EE000009A9A4228BF1A460092009B002B00F0BD
:104EF0008C801E464FF0000A04F110020192636993
:104F0000C3F30807227812F0200F04D0A268126AB7
:104F100002EB532922E0A06890F805A00AEA532A80
:104F2000B7B9BAF1000F13D133B912F0400F14BF63
:104F3000036A236A23610BE02169019A00F0E0FE15
:104F4000002866DB20B9237813F0700F5ED160E093
:104F5000A068216900F0CEFE00EB0A0947B9B6F55A
:104F6000007F05D3D4F808B0DBF82C30994513D175
:104F7000C7F50075AE4238BF3546A06824304946B3
:104F8000002200F093FE0146002842D040463944FA
:104F90002A4601F0C1FB30E0B6F5806F23D3C6F39B
:104FA0004727227812F0200F07D19BF80420CAEB84
:104FB0000202D2B2BA4238BF17467D02994508D3E1
:104FC0003B4499452CD304E00BF50C7000F046FEF1
:104FD000F8B1A0680368D3F808C0494642463B468A
:104FE000E04750B915E0DBF800301B6858464946E9
:104FF0004246984768B14FF40075A84463692B4452
:105000006361761B7FF47BAF00E0009E009B981BE2
:105010000DE0637843F0020363704FF0FF3006E069
:105020000BF1240000F01AFE0028F2D0CCE703B008
:10503000BDE8F08F30B583B004464369C3F3431530
:1050400005B171B920460DF107010122FFF724FFD8
:1050500040B2012801D0002009E063691F33636179
:1050600001E020334361A068303000EB451003B00D
:1050700030BD00BF2DE9F04104460E4607690378B4
:10508000002B3CD042698A423DD011B90023036114
:1050900031E013F0080F03D0C1698E422FD808E029
:1050A00013F0200F05D083681B89B1EB431F26D86E
:1050B00021E0A1688D790935501EE84006F1FF3CDA
:1050C0002CFA05F5A84200D832B913F0400F14BFEE
:1050D0000B6A236A23610AE02D1A08E0A06821699F
:1050E000424600F00DFE013D002802DC07E004F11D
:1050F0001008002DF2D166610120BDE8F081276122
:105100000020BDE8F0810120BDE8F081F8B504463B
:105110000E4615461F460021242205F0F3FAB0681A
:10512000A060A580336AE36000F1300305F00F0250
:1051300003EB4212D37A13F0080F34D103F01703B4
:105140002370D17A11F0180F04BF43F008032370C5
:105150009DF81830E37017F0320F03D0237813F066
:10516000110F20D107F00F03A370C36AA361918AC6
:10517000538B43EA014117F0100F08D011B100F032
:1051800057FE80B1A37863F07F03A37002E0216231
:10519000D369E36117F0200F09D02046E169FFF7DA
:1051A00069FF034620B900202070034600E0012378
:1051B0001846F8BD38B504460378002B34D090F972
:1051C0000230002B1EDA0121FFF738FE054628B316
:1051D0000378E52B22D0237813F0080F1CBFE36976
:1051E000C361238C4383638C8382114B1B682BB177
:1051F000183005F1160198472B8B6B82A37803F0CA
:105200007F03A370A56805F1240000F027FD28B1F5
:1052100005F50C7000F022FD034630B9637843F0C9
:1052200001036370002300E00123184638BD00BF6E
:10523000D4F2FF1F10B50446FFF7BCFF0023237014
:1052400010BD00BF2DE9F04192B006460C46019218
:10525000984600238DF824308DF825300378002BF4
:1052600044D10B7813F0700F42D0134612782F2AD6
:1052700014D10133019313F8012B2F2AFAD02AB944
:105280003046A168FFF7ECFD024632E009A8A168AC
:10529000FFF7E6FD024600282BD009AC0127019854
:1052A00003A901AA00F03EF9024610B3019A13784F
:1052B000A3B13046214603AA3B4600F0D5FA024688
:1052C000B8B109AC35460FCD0FC40FCD0FC42B6854
:1052D00023603046FFF7AEFF09ACE0E730462146D9
:1052E00003AA434600F0C0FA024602E0002200E0B2
:1052F0000022104612B0BDE8F08100BF2DE9F84F42
:10530000044688469246037813F0080F00F0B980EF
:10531000837813F0020F00F0B48013F0040F05D06F
:10532000E169FFF7A7FE002800F0AB806369DB436B
:105330009A4500F2A680BAF1000F00F0868056462A
:105340004FF001094FF0050BA06863694579C3F37D
:10535000080715EA532521D1002F40F09A802169D2
:1053600081B104F1100200F0CBFC0028C0F289806A
:10537000002840F093802046FFF70EFD002840F003
:105380008D807EE0236A3BB92046FFF705FD0028AB
:1053900077D02369236281E023617FE0216900F0F7
:1053A000A9FC4119002F40F08A80B6F5007F7BD31D
:1053B00018E04A4600E05A46A068243000F076FC27
:1053C00000285ED0384441462A4601F0A5F92F4412
:1053D000B7F5007F32D1A068243000F03FFC0028F0
:1053E0002CD14EE0B6F5806F16D3A26813795D1B01
:1053F000EDB2C6F34723AB4228BF2B465D02D06A0D
:10540000884202D8184488425FD8A0680268D768EA
:105410004246B84790B934E0A368DA6A914205D1B0
:10542000002283F824204FF0FF32DA62A06803687C
:105430005B684246984720B34FF4007563692B447C
:105440006361A844761B7FF47FAF6369E26993428E
:1054500005D9E361A37863F07F03A37006E01E4BD8
:105460001B681BB1A37863F07F03A370A37813F0CC
:10547000080F03D02046FFF79DFE10B15046BDE84F
:10548000F88F637843F0010363704FF0FF30BDE89D
:10549000F88F216900F02EFC014610E0A068216918
:1054A00000F028FC014680E7C7F50075AE4238BF22
:1054B00035466269E3699A42BFF47DAF79E7C7F583
:1054C0000075AE4238BF354673E7002082F82400ED
:1054D0004FF0FF30D06298E7D4F2FF1F042904D8C0
:1054E00000EB4101B1F8010070470A2904D80139E5
:1054F00000EB4100C088704710299DBF013100EBCF
:10550000410080880020704700231A46510841EA74
:10551000C212C15C51FA82F2D2B201330B2BF5D127
:10552000104670472DE9F00F82B00378202B05D18B
:10553000431C184601330478202CFAD08860037885
:1055400023B12F2B04D00546002407E0002400E0FF
:10555000002407193B4622E02F2BFAD05C2B00F0E9
:10556000FA8003F0F706222E00F0F7803A2B00F0C5
:10557000F68003F0BF063C2E00F0F380A3F13E0658
:10558000F6B2012E40F2EF80203BDBB25E2B00F240
:10559000EC80013415F8013F002BDDD1D9E71E4620
:1055A00013F8015B202DFAD02F2DF8D0166074B1BE
:1055B0003A4612F8013D2E2B01D0202B02D1013C9E
:1055C000F7D104E0FF2CC8BF002000F3DF804C605F
:1055D00000232025CA18557301330B2BFAD1002361
:1055E00000E00133C25C2E2AFBD0202AF9D01E46EF
:1055F000D3F1010738BF0027651E06D4425D2E2A6D
:1056000003D0013DB5F1FF3F05D1A64207DB0020E5
:105610000190009087E0425D2E2AF2D1F5E74FF02D
:1056200007090026019600964FF0080AB446AB46DB
:10563000C25C202A66D02E2A02D19D4264D122E08B
:10564000222A20D07C2A1ED0A2F12A085FFA88F8EC
:10565000B8F1050F02D82D2A15D10DE0A2F13A08B4
:105660005FFA88F8B8F1050F0DD9A2F15B085FFA6F
:1056700088F8B8F1020F06D9A2F121085FFA88F87C
:10568000B8F15D0F02D9AB4203D178E0AB4202D151
:1056900075E067465F224E456DD809E0AB4241DCBC
:1056A0005B464FF00A0908264FF0100A674635E0BE
:1056B000A2F161085FFA88F8B8F1190F08D8203A0A
:1056C000D2B2DDF8008048EA0A08CDF800800CE08C
:1056D000A2F141085FFA88F8B8F1190F05D8DDF892
:1056E000048048EA0A08CDF8048006F101085FFA50
:1056F00088F80E447273B8F1060F07D881F80C8051
:1057000046460BE0674609E0674607E0464605E087
:105710005B464FF00A0908264FF0100A0133A342F6
:1057200086DB00E000274B7B202B20D057B101986F
:10573000009A00EA0203002B134618BF02230B70E5
:10574000012023E0012008700B7B19447E234B735A
:1057500031238B731AE0002018E0002016E00020AF
:1057600014E0002012E0002010E000200EE00020F5
:105770000CE000200AE0B9F10A0F8FD102E0B9F184
:105780000A0FC5D14B7B202BDCD1F2E702B0BDE87C
:10579000F00F70472DE9F84F04460F460E7B4FF08F
:1057A00002094FF07E0A01F10D085FFA89F3012B1F
:1057B00003D8BA193033937324E0796809EB0103F5
:1057C0009BB2B86849B10246084412F8011B03EBCA
:1057D00043134B409BB28242F7D1032E28BF0326CE
:1057E000321DD2B2B2420DD903F00F011046092981
:1057F00094BF30313731384441731B09013AD2B27A
:10580000B242F1D8BB1983F80DA020460021FFF762
:1058100031FC01254FF00B0B20462946FFF70AFC0F
:10582000014630B96078D0F1010038BF0020BDE8F2
:10583000F88F037853B1C37A13F0080FECD14046C8
:105840005A4604F02BFF0028E6D105E00120BDE810
:10585000F88F0020BDE8F88F09F101091FFA89F9D6
:10586000B9F1640FA1D1F4E72DE9F04F8FB00990A1
:105870000E4605920A9351680491337813F0700F25
:1058800000F0D5810378002B40F0D381137813F01A
:10589000030F09D001F10C027F4BA3FB02139B08FD
:1058A00001335FFA83FA01E04FF0010A304600212C
:1058B000FFF7E0FB00270B9706973C46B846089792
:1058C0004FF0010B059A0D32079220E04FF00008CF
:1058D0001DE04FF000081AE04FF0000817E00693B3
:1058E0004FF0000813E04FF0000810E0039C4FF069
:1058F00000080CE0039C4FF0000808E04FF000089F
:1059000005E0CDF820B002E0DDF83480039C736937
:10591000C3F34F1930465946FFF78CFB054620B9B3
:105920007378002B00F09B8085E10378E52B00D095
:1059300043B9002C08BF4F4654453CBF0134E4B284
:1059400023B98CE0544538BF002401E0E52BBDD0DD
:105950002E2BBED0EA7A0F2A5AD1B8F1000F09D106
:1059600013F0400FD3D003F01F086B7B0B93CDF8DF
:1059700018800AE006994A1ED2B206929342ABD131
:105980006A7B0B998A42AAD10693069A531E03EBAF
:10599000430203EB820203929146049B9342A2D9F5
:1059A00002F10D010C91CDF83480904603940C4621
:1059B000C8EB09012846C9B2FFF790FD049A91454A
:1059C00007D1DDF83480039C002818BF4FF0000891
:1059D0009DE7FF288AD8C0B2A0F14103DBB2192BA2
:1059E0009CBF2030C0B209F1010305998A6812F802
:1059F0000920A2F14101C9B219299CBF2032D2B2BB
:105A000090427FF477AFA3423FF47EAF9946CFE751
:105A100012F0080F7FF472AFB8F1000F0BD0069AA6
:105A2000012A40F00A812846FFF76EFD0B9B984241
:105A30000FD000230CE1284607990B2204F02EFE1C
:105A400000287FF464AF05990B7813F0010F7FF401
:105A500058AF0A9A12F0800F00F0DF80EFE00A9949
:105A600001F04203422B40F0EC80002C18BFB946F5
:105A7000544522D2002530462946FFF7DBFA30B9DB
:105A80007378002B40F0DF80544507D315E00134D4
:105A9000E4B2A245EFD810E04FECC44E3046FFF719
:105AA00087F90346002800F0D380B3681B79012BE7
:105AB00003D81034E4B2A245F0D8089A3AB130467F
:105AC0000599FFF767FE0346002800F0C1803046C5
:105AD0004FEA4911FFF7CEFA0346002800F0B880DC
