:1000000000800020BD01000081B6000045B6000060
:1000100045B6000045B6000045B6000045B60000F4
:1000200045B6000045B6000045B6000081B60000A8
:1000300081B6000045B6000061DC000051DD000023
:1000400081B6000081B6000081B6000081B60000D4
:1000500081B6000081B6000081B6000081B60000C4
:1000600081B6000081B6000081B6000081B60000B4
:1000700081B6000081B6000081B6000081B60000A4
:1000800081B6000081B6000081B6000081B6000094
:1000900081B6000081B6000081B6000081B6000084
:1000A000594400006944000081B6000081B6000098
:1000B00081B6000081B6000081B6000081B6000064
:1000C00081B6000081B6000081B6000081B6000054
:1000D00081B6000081B6000081B6000081B6000044
:1000E00081B6000081B6000081B6000081B6000034
:1000F00081B60000A1C1000081B6000015C9000052
:1001000081B60000BDE3000081B6000081B60000AA
:1001100081B6000081B6000081B6000081B6000003
:1001200081B6000081B6000081B6000081B60000F3
:1001300081B6000081B6000081B6000081B60000E3
:1001400081B6000081B6000081B6000081B60000D3
:1001500081B6000081B6000081B6000081B60000C3
:1001600081B60000F1CB000081B6000081B600002E
:1001700081B6000081B6000081B6000081B60000A3
:1001800081B6000081B6000081B6000081B6000093
:1001900081B6000081B6000081B6000081B6000083
:1001A00081B6000081B6000081B6000081B6000073
:1001B00081B6000081B6000081B60000564B4CF2BB
:1001C000205210B51A804DF628121A8000BF00BFC9
:1001D0000BF05AFA514B4FF010621A60504A9A6075
:1001E000504ADA60504A136813F4807304D14F49BF
:1001F0000B604FF4A85313604D4B1A78110703D5C9
:100200001A7842F008021A704A4B4B492A221A7097
:100210004A4A4B4B8B4204D252F8040F43F8040B6A
:10022000F8E7484B484900228B4202D243F8042B9E
:10023000FAE74649464A002352F8230041F82300D2
:1002400001336F2BF8D1434B434A802103F8011B44
:100250009342FBD1414B3D4A1A60414B8A221A70AE
:10026000A3F5805324225A70A0221A709A7992071B
:10027000FCD59A79D406FCD43A4A937903F00C035E
:10028000082B384BF9D103221A7140225A719A79FE
:100290009006FCD5334A9179324B4906FBD5324A58
:1002A000324911600221516020221A709A7902F0BD
:1002B0000C020C2AFAD12E4B2E4A1A602E4B4BF60A
:1002C0007F321A6000225A60072243F8042C2B4A1E
:1002D000C3F80C2D62B60BF0D7FB144B1B68DA0782
:1002E00005D527480BF094FA264B274A1A60274B6E
:1002F0001B785B0609D5234C234B22689A4204D114
:100300001F480BF085FA002323600EF0D7FD0BF099
:10031000C1F90DF033FFFEE70E20054030800440A8
:10032000823F04000100002B10D0034014D0034092
:1003300002D0074000E0074028A8FF1FD07D010041
:100340002087FF1F28A8FF1FDC2A00200082FF1F34
:100350000000000000E400E05FE400E008ED00E0E1
:100360000050064000400640448004400000131145
:1003700004800440C010050014E000E000002020CC
:10038000B4D3226A1CE00340A5C3945A00F007408E
:10039000FFFFFFFFFFFFFFFFFFFFFFFFFFFFFFFF6D
:1003A000FFFFFFFFFFFFFFFFFFFFFFFFFFFFFFFF5D
:1003B000FFFFFFFFFFFFFFFFFFFFFFFFFFFFFFFF4D
:1003C000FFFFFFFFFFFFFFFFFFFFFFFFFFFFFFFF3D
:1003D000FFFFFFFFFFFFFFFFFFFFFFFFFFFFFFFF2D
:1003E000FFFFFFFFFFFFFFFFFFFFFFFFFFFFFFFF1D
:1003F000FFFFFFFFFFFFFFFFFFFFFFFFFFFFFFFF0D
:10040000FFFFFFFFFFFFFFFFFFFFFFFFDEF9FFFF23
:1004100010B5054C237833B9044B13B10448AFF33E
:1004200000800123237010BD28A8FF1F00000000DA
:10043000CC7D0100084B10B51BB108490848AFF34B
:1004400000800848036803B910BD074B002BFBD0A0
:10045000BDE81040184700BF000000002CA8FF1F97
:10046000CC7D010028A8FF1F00000000002070477D
:10047000704700BF10B50446143002F05DFE204600
:1004800010BD00BF10B504460C3002F055FE2046EA
:1004900010BD00BF08B500F58C6007F0DDF808BDA1
:1004A00008B500F58C6007F015F808BD08B500F533
:1004B0008C6007F057F808BD08B500F58C6006F0B1
:1004C000BFFF08BD08B5083005F0B2FD08BD00BF8C
:1004D00008B5083005F070FE08BD00BF00B583B058
:1004E00002AB03F8011D01221946083005F064FE35
:1004F00003B05DF804FB00BFF0B585B00D460A22DD
:1005000001A911F01DF90446019803782D2B18BF9D
:10051000FF2037D1013004A941F80C0D0A2211F057
:100520000FF90646019B1A782D2A18BFFF2029D102
:10053000581C04A941F80C0D0A2211F001F9019B85
:100540001B78E3B9F6B2C7B23B463246A1B20E48B9
:1005500004F0BAFCA8B14E348DF80E408DF80D6051
:100560008DF80C7000248DF80A408DF8094004A81D
:1005700000F8084D04F046FE2860204602E0FF2007
:1005800000E0FF2005B0F0BDA8FBFF1FF0B585B06F
:100590000524434E434F444D782203A9304607F0CB
:1005A00001FA002861D17279531EDBB20E2B4BD8B1
:1005B000039A3E493C480DF04FFD039804F036FD88
:1005C00000283BD0384C039A394920460DF044FDB1
:1005D0000399DFF808E181FB0E230B44C817C0EB39
:1005E000E3234FF4616202FB1313324D85FB036278
:1005F0001A44DB17C3EB62132F4E81FB0667CA193F
:10060000C0EB22422D4E06FB12128EFB02761644E0
:10061000D217C2EBE62281FB0567CD19C0EB65104E
:10062000C0EB0010A1EB8001C9B20091DBB2D2B2E5
:10063000234920460DF010FD00202FE021491A48E3
:100640000DF00AFDFF2029E052B9737C327CF17C69
:100650000191B17C00911C4928460DF0FDFC0BE096
:100660001A4928460DF0F8FC06E0F0280CBF18499E
:10067000394628460DF0F0FC164928460DF0ECFCF2
:1006800042F210700BF0EAF9134928460DF0E4FC31
:10069000631E13F0FF047FF47FAFFF2005B0F0BDB1
:1006A000EC1F0020E4580100C89DFF1F44580100C2
:1006B000545801008988888807452EC2805101005E
:1006C000645801008058010094580100B45801009A
:1006D000CC580100F8580100E0580100C5B3A291C0
:1006E00084B0164B1B681BB1B3F1FF3F0CD01DE06B
:1006F000F8B1134B1B680193019A124B1A604FF02B
:10070000FF320E4B1A6011E050B90D4B1B6802937B
:10071000029B0C4A1068181A0022084B1A600AE063
:10072000074B1B680393039A064B1A60054B186826
:1007300001E04FF0FF3004B0704700BFA01C002064
:10074000D427002070FCFF1F0278042A0DD038B592
:1007500004464FF6FF70064D0146284603F00EFF93
:1007600014F8012F042AF7D138BD4FF6FF707047F7
:10077000D8C7FF1F0B78042B18D00D2B14D00A2BD1
:1007800018D04A1C03E00D2B0ED00A2B12D01146B4
:1007900000F8013B12F8013B042BF4D106E0037092
:1007A00000234370481C70470D23F8E700210170B7
:1007B000084670470A23F2E70B782BB100F8013B9B
:1007C00011F8013F002BF9D10A230370042300F82C
:1007D000013F704770B504463D210FF02DFA002807
:1007E0002CD12F4D2146284604F0DCF80446014662
:1007F000284604F035F9002845D02A4920460FF054
:1008000079FE002841D1284920460FF073FE0028C8
:100810003DD1264920460FF06DFE002839D12449EC
:1008200020460FF067FE002835D1224920460FF000
:1008300061FE00280CBFFE20EF2070BD461C002288
:100840000270174D2146284604F0ACF804460146D4
:10085000284604F0E3F82146284604F045F93146DD
:10086000284604F09FF8054620460FF029FC431C5B
:1008700023443D2222549D420FD0294618460FF0B2
:10088000BDFB002070BDFE2070BDDF2070BDAF201D
:1008900070BDBF2070BDCF2070BD002070BD00BFF7
:1008A000D8C7FF1F1C590100285901003459010005
:1008B000405901005059010008B5034641F20602B3
:1008C00005498A5A054906480DF0C6FB054A1388B2
:1008D0000133138008BD00BFD8C7FF1F8C5901002A
:1008E000C89DFF1FB820002070B505460478A4B14C
:1008F00020460EF00BFB50B920460EF011FB30B92C
:100900002246074907480DF0A7FB002070BD15F8E7
:10091000014F002CECD1012070BD012070BD00BF43
:10092000B0590100C89DFF1FF8B500EB40020F4B06
:1009300013F81230B3B90F4606460C4D05EB4200D2
:100940000FF05CFB06350124A64204D02946384648
:100950000FF0EAF940B10134E4B206350B2CF3D1C3
:100960000120F8BD0020F8BD0020F8BDCC210020FA
:1009700070B504460FF0A4FB052847D1651C237809
:10098000A3F13002092A43D8601D294611F8012B32
:10099000303A092A3ED88142F8D162789A4204D08E
:1009A0001A4628460021302610E00134012214F8AE
:1009B000011F994204D10132D2B2042AF7D12BE0AF
:1009C000042A2BD01A4628460021ECE7392A1ABF00
:1009D0000132D2B2324610F8014B944224D1013197
:1009E000C9B20429F2D11BE0302B1ABF03F1FF3347
:1009F000DBB20B4615F8012B9A4203D10130C0B28D
:100A00000428F1D1043818BF012070BD002070BD4A
:100A1000002070BD002070BD002070BD002070BDA2
:100A2000002070BD002070BD0429FBD000203921BA
:100A3000DAE700BF2DE9F04389B006463D210FF00B
:100A4000FBF840B99A499B4804F0C0F89A4A1388C9
:100A50000133138041E20446451C0023037041F238
:100A6000040294498B52294668460FF0C7FA28467B
:100A70000FF026FB0746102804D990498D4804F052
:100A8000A5F820E28E4930460FF04EF9B0B9042F98
:100A90000FD128460EF002FA80B242F20F7398424C
:100AA00002D8884B18800EE28749824804F08EF8FD
:100AB00009E285497F4804F089F804E28349304619
:100AC0000FF032F9F8B929467A4804F019F8804F46
:100AD0000026DFF86092DFF8DC8157F8041F284613
:100AE0000FF022F920B929467A480FF087FAEAE197
:100AF000F3B2052B03D94946404604F067F80136A6
:100B0000072EEAD1DFE1744930460FF00DF968B9DC
:100B1000637833B171492846FFF7EEFC002800F0F6
:100B2000D2816F49634804F051F8CCE16D493046F9
:100B30000FF0FAF850B96378002B00F0C481294611
:100B40005C4803F0D7FE684B1880BCE1674930462B
:100B50000FF0EAF8E0B96378B3B12946554803F0DD
:100B6000C9FE024658B1B0F5057F08D0604961481A
:100B70000DF072FA60494F4804F028F8A3E12946C5
:100B80005E480FF03BFA9EE13046FFF795FE9AE192
:100B90005B4930460FF0C8F8B0B9637883B1694655
:100BA000444803F031FE574B984204D1564941481E
:100BB00004F00CF887E1294654480FF01FFA82E14F
:100BC0003046FFF779FE7EE1514930460FF0ACF830
:100BD000B0B9637883B16946364803F015FE494BD6
:100BE000984204D14849334803F0F0FF6BE12946AD
:100BF00048480FF003FA66E13046FFF75DFE62E118
:100C0000454930460FF090F8B8B963788BB1694622
:100C1000284803F059FD4FF6FF73984204D13F492D
:100C2000244803F0D3FF4EE129463D480FF0E6F992
:100C300049E13046FFF740FE45E13A4930460FF0C2
:100C400073F8B8B963788BB169461A4803F03CFD74
:100C50004FF6FF73984204D13049164803F0B6FFAF
:100C600031E1294630480FF0C9F92CE13046FFF751
:100C700023FE28E12D4930460FF056F800285BD1BD
:100C800063788BB169460B4803F01EFD4FF6FF7386
:100C9000984204D12149074803F098FF13E12946FF
:100CA00023480FF0ABF90EE13046FFF705FE0AE1ED
:100CB0007C5B0100D8C7FF1F38200020C459010009
:100CC000DC590100D08DFF1FE4590100045A0100D6
:100CD0004497FF1FD0C6FF1F0C5A010044A8FF1FF6
:100CE000185A01002C5A0100F496FF1F385A0100CF
:100CF000445A0100C89DFF1F585A0100C88DFF1FAC
:100D0000745A0100805101007C5A0100B895FF1F00
:100D10008C5A0100D48DFF1F945A0100A05A010083
:100D2000EC96FF1FB45A01006497FF1FC05A0100E0
:100D30006C97FF1FFC590100694930460EF0F4FF23
:100D4000F8B96378CBB12946664803F0D9FE664B03
:100D5000196828460EF0E8FF28B1634B5968284609
:100D60000EF0E2FF20B9294660480FF047F9AAE0EB
:100D70005F495C4803F02AFFA5E03046FFF79CFD81
:100D8000A1E05C4930460EF0CFFFA0B9637873B1A3
:100D90006946544803F0DCFE20B95749514803F036
:100DA00015FF90E0294655480FF028F98BE03046B2
:100DB000FFF782FD87E0524930460EF0B5FFA0B93B
:100DC000637873B16946474803F0C2FE20B94D49C4
:100DD000444803F0FBFE76E029464B480FF00EF93D
:100DE00071E03046FFF768FD6DE0484930460EF08F
:100DF0009BFFA0B9637873B169463A4803F0A8FE37
:100E000020B94349374803F0E1FE5CE029464148F8
:100E10000FF0F4F857E03046FFF74EFD53E03E493F
:100E200030460EF081FF28BB6378FBB129462D4880
:100E300003F066FE0026DFF8FC90DFF8FC80294F07
:100E400059F8261028460EF06FFF20B9294633487E
:100E50000FF0D4F837E0F3B2042B03D941463846FB
:100E600003F0B4FE0136062EEAD12CE03046FFF73F
:100E700023FD28E02A4930460EF056FFF8B9637882
:100E8000CBB12946174803F03BFE174B196828469B
:100E90000EF04AFF28B1144B596828460EF044FF63
:100EA00020B929461F480FF0A9F80CE01E490D484B
:100EB00003F08CFE07E03046FFF7FEFC03E01B4921
:100EC000084803F083FE3D232370194A41F20403CE
:100ED0000449C95A13880B44138009B0BDE8F08354
:100EE000CC5A0100D8C7FF1F7497FF1F4C90FF1FFB
:100EF000D45A0100F45A0100EC5A010060FCFF1FB3
:100F0000005B0100F85A010050FCFF1F085B010064
:100F1000145B0100BC210020285B0100F896FF1F34
:100F2000445B01009897FF1F485B01005C5B010078
:100F3000382000207C97FF1F2C5B0100F8B5054688
:100F40003D210EF079FE40B95A495B4803F03EFE60
:100F50005A4A138801331380F8BD0446461C002307
:100F6000037041F2040254498B5230460FF0A8F846
:100F7000082804D95249504803F028FE8FE051490F
:100F800028460FF0B7FA48B363781BB3A91D4A4847
:100F900003F078FD0546FF2804D14B49464803F08D
:100FA00015FE7CE0444F3146384603F0E7FB01462E
:100FB000384603F0D9FB40B105EB450531464348BF
:100FC00000EBC5000FF01AF869E041493A4803F018
:100FD000FDFD64E02846FFF76FFC60E03D492846D0
:100FE0000FF088FA58B363782BB305F10801324843
:100FF00003F048FD0546FF2804D133492E4803F08D
:10100000E5FD4CE02C4F3146384603F0B7FB014676
:10101000384603F0A9FB48B105EB45052B4B03EB24
:10102000C500314608300EF0E9FF38E02849224873
:1010300003F0CCFD33E02846FFF73EFC2FE02649C5
:1010400028460FF057FA30B3637803B305F108016F
:10105000194803F017FD0546FF2804D11A49164820
:1010600003F0B4FD1BE03146134803F01BFC48B10C
:1010700005EB4505154B03EBC500314610300EF06E
:10108000BDFF0CE015490C4803F0A0FD07E0284621
:10109000FFF712FC03E01249074803F097FD3D23D8
:1010A0002370064A41F204030349C95A13880B44CA
:1010B0001380F8BD745B0100D8C7FF1F38200020E3
:1010C000C4590100905B0100985B0100148FFF1F61
:1010D000A05A0100B45B0100C05B0100CC5B0100C1
:1010E0005C5B0100F8B505463D210EF0A5FD40B959
:1010F0005A495B4803F06AFD5A4A1388013313804A
:10110000F8BD0446461C0023037041F20402544912
:101110008B5230460EF0D4FF082804D9524950486B
:1011200003F054FD8FE0514928460FF0E3F948B32E
:1011300063781BB3A91D4A4803F0A4FC0546FF28A9
:1011400004D14B49464803F041FD7CE0444F314611
:10115000384603F013FB0146384603F005FB40B167
:1011600005EB45053146434800EBC5000EF046FF50
:1011700069E041493A4803F029FD64E02846FFF759
:101180009BFB60E03D4928460FF0B4F958B3637803
:101190002BB305F10801324803F074FC0546FF2823
:1011A00004D133492E4803F011FD4CE02C4F314659
:1011B000384603F0E3FA0146384603F0D5FA48B161
:1011C00005EB45052B4B03EBC500314608300EF00F
:1011D00015FF38E02849224803F0F8FC33E02846A0
:1011E000FFF76AFB2FE0264928460FF083F930B35A
:1011F000637803B305F10801194803F043FC054681
:10120000FF2804D11A49164803F0E0FC1BE03146E0
:10121000134803F047FB48B105EB4505154B03EBBD
:10122000C500314610300EF0E9FE0CE015490C48BF
:1012300003F0CCFC07E02846FFF73EFB03E0124931
:10124000074803F0C3FC3D232370064A41F2040320
:101250000349C95A13880B441380F8BD745B01001D
:10126000D8C7FF1F38200020C4590100DC5B0100F3
:10127000985B0100DC8DFF1FA05A0100E45B0100B8
:10128000F05B0100CC5B01005C5B010070B50546C2
:101290003D210EF0D1FC40B96C496D4803F096FC3D
:1012A0006C4A13880133138070BD0446461C00232A
:1012B000037041F2040266498B5230460EF000FF83
:1012C000082804D96449624803F080FCB3E063490C
:1012D00028460EF029FDC8B963789BB15C4D3146B4
:1012E000284603F04BFA0146284603F03DFA20B1A8
:1012F00031465B480EF082FE9DE05A49544803F0A7
:1013000065FC98E02846FFF7D7FA94E0564928464E
:101310000EF00AFDC8B963789BB14D4D31462846A1
:1013200003F02CFA0146284603F01EFA20B131469C
:101330004E480EF063FE7EE04A49454803F046FC05
:1013400079E02846FFF7B8FA75E0494928460EF0DB
:10135000EBFCA0B9637873B131463D4803F0A2FAC3
:1013600020B1314643480EF049FE64E04249384816
:1013700003F02CFC5FE02846FFF79EFA5BE03F4954
:1013800028460EF0D1FCC8B963789BB1304D314688
:10139000284603F0F3F90146284603F0E5F920B1A9
:1013A000314637480EF02AFE45E02E49284803F022
:1013B0000DFC40E02846FFF77FFA3CE03149284623
:1013C0000EF0B2FCC8B963789BB1214D3146284676
:1013D00003F0D4F90146284603F0C6F920B131469E
:1013E00029480EF00BFE26E01E49194803F0EEFBDB
:1013F00021E02846FFF760FA1DE0244928460EF058
:1014000093FCA0B9637873B13146114803F04AFAEE
:1014100020B131461E480EF0F1FD0CE016490C4893
:1014200003F0D4FB07E02846FFF746FA03E019492A
:10143000074803F0CBFB3D232370064A41F2040327
:101440000349C95A13880B44138070BD745B0100B3
:10145000D8C7FF1F38200020C4590100FC5B0100E1
:101460001897FF1FA05A0100085C01002097FF1F7A
:10147000185C01002897FF1FCC5B0100285C01006D
:101480003097FF1F345C01003897FF1F445C010058
:101490004097FF1F5C5B01002DE9F04706463D21A8
:1014A0000EF0CAFB48B96549654803F08FFB654AF1
:1014B000138801331380BDE8F0870446451C0023E0
:1014C000037041F204025E498B5228460EF0F8FD8B
:1014D000102804D95C495A4803F078FBA1E05B4925
:1014E00030460FF007F838B36378002B00F099808E
:1014F000711D534803F010FB0646C3B2142B04D9E8
:1015000053494F4803F062FB8BE02846FFF7ECF9A4
:1015100068B129464A4803F0F3FAF6B206EB8606AC
:1015200029464C4800EBC6000EF068FD79E04A49B8
:10153000434803F04BFB74E0484930460EF0DAFFB5
:1015400068B36378002B6CD0311D3D4803F0E4FA9A
:101550000646C7B2142F04D94149394803F036FB77
:101560005FE02846FFF704FAA0B129463846FFF7A6
:10157000DBF920B93B49324803F028FB51E0F6B2D1
:1015800006EB8606334B03EBC600294610300EF0FF
:1015900035FD46E034492A4803F018FB41E0334961
:1015A00030460EF0C1FB002837D06378002B38D0CE
:1015B000F11D234803F0B0FA0646C3B2142B04D938
:1015C0002B491F4803F002FB2BE063784BB32946FD
:1015D0001B4803F095FADFF8A0800027DFF89CA0F5
:1015E000DFF85C9058F8041B28460EF09DFB48B9C4
:1015F000F6B22820174B00FB0630294618300EF0B3
:10160000FDFC0EE0FBB2032B03D95146484603F024
:10161000DDFA0137052FE5D103E01649084803F04C
:10162000D5FA3D232370074A41F204030449C95AFD
:1016300013880B441380BDE8F08700BF745B010082
:10164000D8C7FF1F38200020C4590100545C010096
:101650005C5C0100A41C0020705C0100845C010043
:101660008C5C0100A05C0100B85C0100CC5C010056
:10167000D45C01005C5B01005490FF1FEC5C010036
:101680002DE9F04FA1B0284C04F548760125002142
:10169000894688460F46DFF898A0DFF8B0B02A46A2
:1016A00094F840304C2B04D0532B10D0492B11D040
:1016B00000E00127462B0FD1BAF800300133AAF819
:1016C0000030594619480CF0C7FC012104E04FF0E6
:1016D000010801E04FF0010928340135A642DED1AE
:1016E0002FB1B8F1000F02D0B9F1000F19D129B113
:1016F0000F4A1388013313800E4A09E00E4A41F263
:1017000004030E49C95A13880B44013313800C4A51
:101710000C4968460EF046FA6A460B4903480CF03D
:101720009BFC21B0BDE8F08FA41C0020C89DFF1FCA
:10173000B8200020045D010038200020D8C7FF1F1A
:101740000C5D0100585D0100985D0100145D010011
:101750002DE9F04107463D210EF06EFA461C304659
:101760000EF0AEFC5FFA80F838460EF0A9FCC5B268
:10177000164938460EF0BEFE20B1864294BF0824BA
:10178000102400E00824124938460EF0B3FE10B1D0
:10179000864288BF10240F4938460EF0ABFE10B1C8
:1017A000864288BF10240C4938460EF0A3FE10B1C3
:1017B000864288BF10240A233355681CC8EB0000FA
:1017C00054FA80F0C0B2BDE8F08100BFF45A0100C5
:1017D000005B01009C5D0100A45D01000378043BF7
:1017E000DBB2092B08D840F2412222FA03F313F0AE
:1017F000010F12D1002200E0002240F2412104E05A
:1018000021FA03F313F0010F08D1013210F8013F60
:10181000043BDBB2092BF8D8F2E70022501C7047DA
:1018200084B038B504AC84E80F00099D089C802280
:1018300000211A480DF062FF9DF8103043B104A951
:10184000164A02F8013B11F8013F002BF9D100E0E4
:10185000124A511C3D231370237833B1224601F8FC
:10186000013B12F8013F002BF9D100230B700B480C
:10187000FFF76EFF60B16B1E441EE4B22819074AE1
:1018800012F8011B03F8011F9842F9D101342544D5
:101890002846BDE8384004B0704700BFBC20002097
:1018A00070B582B00446534D534A2B4607CA03C352
:1018B0001A802B7813B90125504E07E04D4A04F8E1
:1018C000013B12F8013F002BF9D1F4E705EB85034A
:1018D00006EB830301941A6900920FCBFFF7A0FF78
:1018E000044601350E2DF1D1424E454B35460FCB06
:1018F00007C52B70337813B90125424E07E03D4AE6
:1019000004F8013B12F8013F002BF9D1F4E705EB95
:10191000850306EB830301941A6900920FCBFFF74E
:101920007FFF04460135252DF1D1324E364B354629
:101930000FCB07C52B70337813B90125334E07E061
:101940002C4A04F8013B12F8013F002BF9D1F4E7CF
:1019500005EB850306EB830301941A6900920FCB14
:10196000FFF75EFF04460135252DF1D1214E284BAE
:1019700035460FCB07C52B80337813B90125254E8B
:1019800007E01C4A04F8013B12F8013F002BF9D193
:10199000F4E705EB850306EB830301941A690092D3
:1019A0000FCBFFF73DFF04460135072DF1D1114D57
:1019B000194A2B4607CA03C31A702B7813B901259D
:1019C000164E07E00B4A04F8013B12F8013F002BCA
:1019D000F9D1F4E705EB850306EB830301941A695B
:1019E00000920FCBFFF71CFF044601353D2DF1D1CE
:1019F00002B070BDBC200020AC5D0100C095FF1F8F
:101A0000B85D01000088FF1FC85D0100E48AFF1F68
:101A1000D85D01006890FF1FE85D0100F490FF1F92
:101A200038B500280CBF4FF480754FF488550D4C25
:101A30002946204601F0ECF87F23A377204601F0E9
:101A40003FF9002384F828302946204601F0E0F8C9
:101A5000204601F015FA94F828007F2814BF0020D2
:101A6000012038BD48A8FF1F70B50D4660B322E0C5
:101A70001A491B480CF0F0FA21461A4801F0C8F840
:101A80009DB1194E29461948FEF774FE054660B10E
:101A9000338801333380134C14482063FFF79EFED4
:101AA000A063204601F052F9ECE70E480423837747
:101AB00001F006F970BD002141F206030C4AD15233
:101AC0004FF488540B4AD3E7002141F20603084A39
:101AD000D1524FF48074084ACAE700BF045E010087
:101AE000C89DFF1F48A8FF1FDED7FF1FBC20002096
:101AF000D8C7FF1FFC5D0100F45D010038B5002868
:101B000014BF4FF488554FF4807540F6FF7441F6CA
:101B1000FF73002818BF1C46084B094A002808BF5D
:101B20001A46084908480CF097FA631B01332A4605
:101B30000421064803F074F838BD00BFF45D0100CD
:101B4000FC5D01001C5E0100C89DFF1FA8FBFF1F7C
:101B500070B582B005460E4602460DF106010C48EE
:101B600002F01CFDBDF80640B4420ED1002D094D17
:101B700041F2FE0108BFFE21284601F049F82C84FD
:101B8000284601F02FF9002000E0FF2002B070BDD0
:101B9000D8C7FF1F48A8FF1F10B584B02C4C41F2D6
:101BA000F601204601F034F8204601F017FAE36A06
:101BB000284A1268934248D05BB941F2F6012046A8
:101BC00001F026F8234B1B686362204601F018F9E8
:101BD0003BE0214C214920460CF03EFA02A91C4B67
:101BE000D86A03F02FFA9DF80D309DF80E209DF86D
:101BF0000C10009102F2B272194920460CF02CFA36
:101C000002A9144B186803F01DFA9DF80D309DF8D9
:101C10000E209DF80C10009102F2B272114920467C
:101C20000CF01AFA0023104A1049114803F02EF85C
:101C300058B1074C41F2F601204600F0E9FF054B90
:101C40001B686362204601F0DBF804B010BD00BFE2
:101C500048A8FF1F44A8FF1FC89DFF1F345E010056
:101C6000605E01008C5E0100B45E0100DC5E01007C
:101C7000A8FBFF1F254B1A884FF6FF739A4244D0EA
:101C800010B5234C41F2F401204600F0C1FF20467C
:101C900001F096F9638D1D4A12889A4234D05BB9DF
:101CA00041F2F401204600F0B3FF184B1B88238457
:101CB000204601F097F810BD164C174920460CF04D
:101CC000CBF9134B5A8DD3B2120A144920460CF0AB
:101CD000C3F90E4B1A88D3B2120A114920460CF0F0
:101CE000BBF900230F4A1049104802F0CFFF58B14A
:101CF000074C41F2F401204600F08AFF034B1B8899
:101D00002384204601F06EF810BD7047F496FF1F43
:101D100048A8FF1FC89DFF1FE45E0100105F01007F
:101D2000385F0100605F0100DC5E0100A8FBFF1F5F
:101D3000234B1A884FF6FF739A4240D010B5214CBE
:101D400041F2F201204600F063FF204601F038F92D
:101D5000638D1B4A12889A4230D05BB941F2F2017E
:101D6000204600F055FF164B1B882384204601F0C7
:101D700039F810BD144C154920460CF06DF9114B83
:101D80005A8D134920460CF067F90D4B1A881149FA
:101D900020460CF061F900230F4A1049104802F068
:101DA00075FF58B1074C41F2F201204600F030FFB8
:101DB000034B1B882384204601F014F810BD7047A4
:101DC000D08DFF1F48A8FF1FC89DFF1F905F010017
:101DD000B85F0100D85F0100605F0100DC5E0100B8
:101DE000A8FBFF1F2DE9F04383B005460124244ED4
:101DF00006F10807DFF8908002E00134A4B24D46F6
:101E0000601E80B2337A13F0080F36D0736AF2691D
:101E10009B1A00D48BB301220DF10701384603F061
:101E20001BFF012827D19DF807300A2B10D105F19F
:101E300001092B7004236B700023AB7014F0010FA9
:101E4000DBD1104803685B68012241469847D4E71C
:101E50000D2B08BFA946D0D005F101092B70042332
:101E60006B700023AB7041F6FE739C42C5D9002312
:101E70006B70204601E0FF23EEE703B0BDE8F0837E
:101E800074FCFF1FC89DFF1FF85F0100F0B587B00D
:101E90000221042009F0FEFC0221062009F0FAFCD0
:101EA0000221082009F0F6FC02210A2009F0F2FCC8
:101EB0000221142009F0EEFC0221102009F0EAFCB6
:101EC000012009F0CBFD0121162009F0E3FC0121DE
:101ED000092009F0DFFC0021162009F0A9FC0021EF
:101EE000092009F0A5FC012009F0B8FD0121162008
:101EF00009F09EFC0121092009F09AFC012009F05B
:101F0000ADFD5848584D594B594C42F20F7102786B
:101F100012F0FF0F00F09D802A7812F0010F00F000
:101F200098801A682668921B0E2A40F2928042F22C
:101F3000107009F007FE42F210700AF0C3F94D4B21
:101F40004D4A4E494E480CF087F81A200AF010FB13
:101F500000211F200AF0D0FA4A4D4B4E2946304648
:101F60000CF07AF8494C294620460CF075F83220DE
:101F700009F074FD464D294630460CF06DF82946AF
:101F800020460CF069F8434C1C21204603F0B6F9BA
:101F9000204603F0D9F9204603F0DAF93E4E1B2122
:101FA000304603F0ABFB3D4D1A21284603F0A6FB5B
:101FB0003B4C1921204603F0A1FB304603F0C4FB43
:101FC000284603F0C1FB204603F0BEFB304603F079
:101FD000C1FB284603F0BEFB204603F0BBFB0027F5
:101FE0007767304603F014FC6F67284603F010FC57
:101FF0006767204603F00CFC2A4B1A798DF80820FD
:102000009A6803921A7B8DF81020274A01925A7B16
:102010008DF811201B690593244C254B01AA5021F2
:10202000204600F0BDFD01A801F086F8204600F032
:10203000D7FD204600F034FE94F8483083B9104CA8
:102040001C4920460CF008F81B4920460CF004F807
:10205000FEE71A680092009A8A427FF658AF66E758
:1020600007B0F0BDCC290020E4290020D4270020AF
:10207000D42A0020FC5F0100086001001460010008
:10208000C89DFF1F40600100A89DFF1FB89DFF1F56
:10209000446001004020002050C6FF1F58C7FF1FAA
:1020A000D8C6FF1F602200209868010048A8FF1FC3
:1020B0006860010070600100086601002DE9F84FBA
:1020C0004FF400520421B8480DF018FBB74B03F150
:1020D0007801002203F8062F9942FBD1102009F065
:1020E000CBFB60B1B249B3480BF0B6FF10242046D9
:1020F00009F0C2FB0028FAD1322009F0AFFCAE494A
:10210000AC480BF0A9FFAD4804230F2200F26C414C
:1021100000F58C6005F0E8F880B3A84C04F23C4070
:1021200003F0C6FF0121204604F03CFF20B9002146
:10213000204604F037FF08B3A048014600F23C40B7
:1021400003F06EFDD0B19D4B93F83C3413F0700F4B
:1021500014D09B4C9B4B1C609B4996480BF07CFF1A
:102160000021204603F068FE0024DFF854A2DFF8C7
:10217000B49209F10806DFF874820CE08D4C0F224E
:10218000924920460BF068FF914A21468B4803F0A4
:10219000A5FCFEE72C4601225146304603F0F6FE30
:1021A000B8B399F8083013F0080F03D1304603F0A4
:1021B0007FFFF0E7651CEDB24FEA851B08EB0B07CC
:1021C00020223946304604F029F938460DF078FFD0
:1021D00004385BFA80F07F4940440DF009FD18B1E6
:1021E000304603F065FFD6E7724C3B462A467A49F3
:1021F00020460BF031FF2146304604F093FD77492D
:1022000020460BF029FF304603F052FF622DC1D962
:102210002C4624B9724967480BF01EFFFEE7714E49
:10222000644DDFF804920BF04FFB10B10BF000FB94
:10223000F9E7314628460BF00FFF00270BF044FB6F
:102240000028FBD00BF0F4FAC0B20246A0F1300334
:10225000092B0BD813F0FF0001D1002FEED007EBB4
:10226000870800EB480000F0FF07E7E70A2824D1C1
:10227000EFB1BC421BD33A465B494E480BF0ECFE33
:102280005A4B03EB8718012342464E4909685848C8
:1022900003F016FF28B14246564946480BF0DCFED3
:1022A00010E04246544943480BF0D6FE0AE03A4655
:1022B000524928460BF0D0FEB5E7494628460BF0B8
:1022C000CBFEB0E73B4E4E4930460BF0C5FE012039
:1022D000FEF706FA4B4D2846FFF784FD04464448B6
:1022E00003F0E6FE0020FEF7FBF9034622464649CE
:1022F00030460BF0B1FE002441F20603434AD452AB
:10230000434930460BF0A8FE0120FEF7E9F9DFF85B
:1023100098803E4F07F58056063629463D48FEF721
:1023200029FA0546002800F0A0803A4B1B78042BC0
:1023300002D188F8003098E03288013232800D2BCB
:10234000EBD00A2BE9D0DFF8CC904946384602F0B2
:1023500029FB014648460DF051FE99F80030232B29
:10236000DBD0232148460DF067FC40B12A493846AE
:1023700002F02CFC294A138801331380CDE725484D
:10238000FEF728FA8146002850D0FE2804D12449BF
:10239000384602F01BFCC0E71E494046FEF70CFA27
:1023A00080464C46B9E700BFA0FCFF1FCC210020AF
:1023B0009C600100C89DFF1FAC600100DCA8FF1FEE
:1023C00018ADFF1FE8260020BC600100F46001008A
:1023D000086601002861010030610100AC61010064
:1023E0004061010088610100986101004CADFF1F50
:1023F0007CFCFF1FA0610100B0610100CC61010005
:10240000F8610100A8DBFF1F04620100D8C7FF1FAD
:1024100024620100BC20002034620100382000202A
:102420007C5B010074FCFF1FE0610100DF2C03D125
:10243000A148FEF7FFFA70E7AF2C03D19E48FEF7E4
:102440007DFD6AE7BF2C03D19B48FEF74BFE64E796
:10245000CF2C03D19848FEF719FF5EE7EF2C7FF4ED
:102460005CAF9548FFF718F857E7944B1B783BB9DA
:10247000934994480BF0F0FD934A1388013313807D
:10248000924B1A884FF6FF739A4207D190498D48B4
:102490000BF0E2FD8C4A1388013313808D4B1B68CF
:1024A0003BB98D4987480BF0D7FD874A1388013324
:1024B0001380FFF7E5F80020FEF712F9824B1B8826
:1024C00013B3804C854920460BF0C6FD844D294648
:1024D00020460BF0C1FD834B1B887B4A1288824942
:1024E00020460BF0B9FD814920460BF0B5FD80492F
:1024F00020460BF0B1FD294620460BF0ADFD7D498D
:1025000020460BF0A9FDFEE7764C22887A496D48FB
:102510000BF0A2FD2388CBB16B4B1B88002B40F046
:10252000C3800BF0D1F910B10BF082F9F9E7002369
:10253000724A7349734802F0A9FB38B9694B1A888B
:10254000614B1A8070495F480BF086FD5E4B1B881B
:10255000002B40F0A9806D48FFF7A2F90020FFF79B
:102560005FFA20B96A4957480BF076FDFEE76949E2
:1025700054480BF071FD0020FFF7C0FA00216648B7
:1025800002F064F840B965494E480BF065FD002142
:102590005C4802F03BFCFEE70120FFF741FA20B95E
:1025A0005F4948480BF058FDFEE70120FFF7A6FA07
:1025B0000121594802F04AF820B95A4941480BF024
:1025C0004BFDFEE7514C21460020FFF74DFA214616
:1025D0000120FFF749FA2046FEF7B6F80446014607
:1025E0000020FFF7B5FAA8B10BF06EF910B10BF0AF
:1025F0001FF9F9E701234C4A4149424802F046FBE2
:1026000018B100213F4802F001FC48492D480BF069
:1026100023FDFEE7224646492A480BF01DFD3B48B4
:10262000FEF792F8054601460120FFF791FAB0B196
:102630000BF04AF910B10BF0FBF8F9E701233D4A22
:102640002F49304802F022FB20B14FF47A712D4817
:1026500002F0DCFB38491B480BF0FEFCFEE7194C8E
:102660002A46364920460BF0F7FCFFF795FAFFF7AC
:1026700001FBFFF75DFB324920460BF0EDFC0BF050
:1026800023F910B10BF0D4F8F9E701232D4A1C49C6
:102690001C4802F0FBFA18B100211A4802F0B6FB00
:1026A000294908480BF0D8FC0BF00EF900284DD052
:1026B0000BF0BEF8F8E700BFBC200020D0C6FF1F1B
:1026C00048620100C89DFF1F38200020D08DFF1FE9
:1026D0006862010044A8FF1F88620100AC6201002B
:1026E000E0620100B8200020E46201000463010000
:1026F000246301004C63010080630100A0630100BA
:10270000DC5E0100A8FBFF1FCC630100A0FCFF1FE3
:10271000DC630100E0580100D8C7FF1F3C640100E2
:1027200088640100E8640100306501006065010013
:1027300098650100B0650100EC6501002C660100A0
:1027400044660100446501006C6601000123274ACC
:102750002749284802F09AFA20B14FF480412548D1
:1027600002F054FB0BF0B0F810B10BF061F8F9E790
:102770000023214A1E491F4802F088FAC0B11F4CAD
:102780001F4920460BF068FC0120FDF7A9FF4FF41C
:1027900080431A460421174802F042FA0020FDF750
:1027A0009FFF03464FF48042164920460BF054FC2D
:1027B0000BF08AF810B10BF03BF8F9E70123124A4D
:1027C0000B490C4802F062FA58B100210F4805F09D
:1027D00085F810B9FDF7DAFE03E00D4907480BF064
:1027E0003BFC0C4905480BF037FCFEE7786601001E
:1027F000DC5E0100A8FBFF1F90660100C89DFF1F63
:10280000AC660100D0660100F4660100EC1F0020F8
:102810000467010028670100F0B58DB0B84C204670
:1028200000F094F9B74AB84920460CF031FB002675
:10283000B64C04F8346BB64D95E80F0084E80F00F1
:10284000B44C41F20403E65241F20603E65205F1AC
:1028500010069C273A46314604F58050083008F0AF
:1028600057FE3A46314604F58550043008F050FED4
:1028700005F1AC0604F58A54CC35274630687168FA
:10288000B268F3680FC710363C46AE42F5D13068E7
:102890003860A04C41F264155022002160190CF000
:1028A0002DFF0323635541F265116218984E33469C
:1028B00053F8D00F60509B8893800025D58022224A
:1028C00041F26E13E25245F2604241F27013E2505F
:1028D0004FF6205241F27413E25040F6555241F245
:1028E0007813E25240F6B86241F27A13E25241F2B2
:1028F0001C0241F27C13E252012241F2AF13E25476
:10290000F82241F2B013E25404F58D5714374FF416
:10291000FC72294638460CF0F1FE06F1D8030FCBC5
:1029200087E80F003D7441F2C512A1187A4B186870
:10293000A0509B888B80022241F2CB13E254FF23EC
:1029400041F2E312A35441F2FB12A35441F21322C9
:10295000A35441F22B22A35441F24322A35441F247
:102960005B22A35441F27322A35441F28B22A3545D
:1029700041F2A322A35441F2BB22A35441F2D32239
:10298000A35441F2EB22A35441F20332A35441F287
:102990001B32A35441F23332A35441F24B32A354BD
:1029A00041F26332A35441F27B32A35441F2933299
:1029B000A35441F2AB32A354584C271D06F1EC0E40
:1029C000BEE80F000FC79EE8030087E8030004F18C
:1029D0001C03D6F80401D6F80811D6F80C2107C359
:1029E00096F810211A704E4B1A680192019A2265CE
:1029F0000A2262651A680292029AA2654FF4FA727C
:102A0000E2651A680392039A22664FF47A7262664C
:102A1000196804910499A16641F28831E166196848
:102A20000591059921670521616719680691069945
:102A3000A167E267196807910799C4F88010C4F884
:102A400084201A680892089AC4F888203222C4F8B0
:102A50008C20196809910999C4F89010C4F8942041
:102A60001A680A920A9AC4F8982047F23052C4F8B9
:102A70009C201B680B930B9BC4F8A030C4F8A420C7
:102A8000284E304602F06CFC1E4C22462649304649
:102A90000CF0FEF9254F07F1080002F061FC244E0E
:102AA0002246314638460CF0F3F9224F07F1080070
:102AB00002F056FC2246314638460CF0E9F91E4F2A
:102AC00007F1080002F04CFC2246314638460CF073
:102AD000DFF91A4BDD7183F83C5483F83D5483F8D9
:102AE0006454192283F8662483F86954144A1A60DE
:102AF000144B1D725D721D71134A1A600DB0F0BD4A
:102B000048A8FF1FFC87FF1F912B0000EC1F00202F
:102B100030570100D8C7FF1F50670100A8FBFF1FF7
:102B2000D4270020402000208504000050C6FF1F4D
:102B30007504000058C7FF1FD8C6FF1FDCA8FF1F81
:102B40002057010074FCFF1F0857010030B40C4AE5
:102B500042600C4A117901730B49816091680161EF
:102B6000117B017509498160517B41751269826150
:102B70005022027000240025C0E91E4530BC704779
:102B800088680100602200206C68010098680100DC
:102B900010B50446083000F0CFFA204610BD00BF43
:102BA00010B5A1F15004E4B2072C07D9024648320F
:102BB0000C210A4800F020FAFF2010BD01701179A5
:102BC000017391680161117B0175517B4175126937
:102BD0008261C0F888304360002010BDD8A8FF1F74
:102BE00030B587B08569447D204600F0D3FA0123D3
:102BF0000493064B03930022029201900092134625
:102C00002146284600F084FC07B030BDA0860100B4
:102C100011F4004F08D008B5024648320C21044890
:102C200000F0EAF9FE2008BD49BA81830020704710
:102C3000D8A8FF1F808B40BA80B27047838B5BBAE5
:102C40009BB20133C3F30E035BBA8383704700BFAB
:102C5000838B5BBA826B12FA83F3C3F30E035BBA06
:102C60008383704790F84830ABB130B583B00446E9
:102C700000F108050178284600F0B6FD627DA169E3
:102C8000002300930123284601F090F8002814BF88
:102C9000FF20002001E0FD20704703B030BD00BFE1
:102CA00010B50446012380F84830FFF7DBFF20B160
:102CB000002384F84830FF2010BD002010BD00BF65
:102CC00070B582B090F84830002B38D0044600F13F
:102CD0000805064616F81C1B284600F085FD022252
:102CE0003146284600F0FCF9E063A17F284600F059
:102CF000E3F9E36B1844E063032807D004F14802CA
:102D00000B21114800F078F9FF2519E0627D0023BE
:102D100000930123A169284601F048F8054638B11F
:102D200004F148020146084800F066F9FF2507E073
:102D300004F148020021044800F05EF900E0FD259E
:102D4000284602B070BD00BFD8A8FF1F70B582B082
:102D500090F84830002B3ED0044600F108050646A6
:102D600016F81C1B284600F03FFD0222314628467B
:102D700000F0B6F9E063A26B216B284600F0B0F9D1
:102D8000E36B1844E063A36B0233984207D204F16B
:102D900048020B21124800F02FF9FF251CE0627D4C
:102DA000002300930123A169284600F0FFFF054698
:102DB00038B104F148020146094800F01DF9FF2529
:102DC0000AE02046FFF744FF04F1480200210448CE
:102DD00000F012F900E0FD25284602B070BD00BFEA
:102DE000D8A8FF1F08B590F848303BB100F1200388
:102DF000036302238363FFF7A9FF08BDFD2008BD1D
:102E000008B590F848303BB100F124030363042374
:102E10008363FFF79BFF08BDFD2008BD90F8483095
:102E200043B310B582B004460278417D002301937C
:102E300001230093806900F0CDFF2064012809D0B0
:102E4000A36993F8511204F148020C4800F0D4F839
:102E5000FF2011E0A06901F005F884F82800204661
:102E6000FFF7ECFE04F148020021044800F0C4F82A
:102E7000002001E0FD20704702B010BDD8A8FF1F60
:102E800090F848307BB370B582B0044600F1080674
:102E9000054615F81C1B304600F0A6FC0222294608
:102EA000304600F01DF9E063022807D004F1480223
:102EB0000B210F4800F0A0F8FF2016E0627D0023F0
:102EC00000930123A169304600F070FF014630B144
:102ED00004F14802064800F08FF8FF2005E0204684
:102EE000FFF79CFF01E0FD20704702B070BD00BFFE
:102EF000D8A8FF1FF0B583B090F84830002B58D009
:102F00000446476B00F10806054615F81C1B3046C1
:102F100000F06AFC02222946304600F0E1F8E06346
:102F2000022807D004F148020B21244800F064F87D
:102F3000FF253FE0627D00230093A169304600F049
:102F400035FF054638B104F1480201461B4800F040
:102F500053F8FF252EE02278617D002301930123A1
:102F60000093A36BA06900F035FF2064A36B83423C
:102F700002D1A3B13E4609E0A36993F8511204F1CE
:102F800048020E4800F038F8FF2513E0A06900F071
:102F900069FF06F8010BF21BA36B9A42F6D3204699
:102FA000FFF756FE04F148020021044800F024F81F
:102FB00000E0FD25284603B0F0BD00BFD8A8FF1FE4
:102FC00008B590F848303BB100F12A03436302236F
:102FD0008363FFF78FFF08BDFD2008BD08B590F89B
:102FE00048303BB100F12C03436304238363FFF7B4
:102FF00081FF08BDFD2008BD0B4600294ED0D2E957
:103000000C01B1F1FF3F08BFB0F1FF3F04D0013028
:1030100041F10001C2E90C0153700C2B3AD8DFE8F2
:1030200003F007151D21191D2125292D2D313500EE
:10303000D2E90E01B1F1FF3F08BFB0F1FF3F30D040
:10304000013041F10001C2E90E017047936801337C
:1030500093607047D3680133D360704713690133BD
:1030600013617047536901335361704793690133AA
:1030700093617047D3690133D3617047136A013399
:10308000136270475368013353607047D36A01334A
:10309000D3627047536A0133536270470023537001
:1030A000C6E770470369D3F83801D3F83431C01A42
:1030B000704700BF704700BF0369D3F84422B2F5E0
:1030C000817F09D8D3F84422501CC3F8440213442A
:1030D00083F83C11012070470123037100207047E1
:1030E00030B40469D4F84432B3F5817F1FD8D4F8E2
:1030F0004452C5F58175013504F59E73D4F84442F8
:10310000954202D2012202712A4642B1013C234477
:103110008D1811F8014B03F8014FA942F9D101694B
:10312000D1F844321344C1F84432104602E001237E
:103130000371002030BC704738B50446094B03606A
:10314000036993F84822022A09D1D3F8645235B1B1
:1031500028460AF049FD082128460BF01BF82046B6
:1031600038BD00BF9868010010B4002202714FF40E
:103170007A7484600273054A026041734FF41C74D0
:10318000034A04FB0121016110BC704798680100EB
:10319000A097FF1F01280CBF02200120704700BF2D
:1031A000C3681B7813F0200F40F0B58070B504465B
:1031B0000D46836880211970C3681221197090F838
:1031C0004932012B0BD022B9002380F8483201206C
:1031D00070BD531EDBB2012B00F29F8000E0012284
:1031E00025B94FF080714E4B196005E0012D03D1D8
:1031F0004FF000714A4B1960022A40F08880D4F8E1
:1032000064624EB908200AF0C1FF064600210AF0A8
:103210008DFCC4F8646286B13379102B0DD1304631
:103220000AF0E2FC082130460AF0B4FF0023C4F89B
:103230006432012084F8480270BD75BB3268938BFC
:103240009BB243F008039383D4F8642213791033BC
:103250003448354941F82300127953119B0003F19A
:10326000604303F5614302F01F02012101FA02F2FB
:103270001A60D4F864321A68938B9BB243F002034D
:103280009383D4F864321B7903F1804303F504334C
:1032900000221A7096221A7031E0012D2FD1D4F835
:1032A00064321A68938B9BB243F008039383D4F87B
:1032B0006422137910331D481B4941F82300127909
:1032C00053119B0003F1604303F5614302F01F02B9
:1032D000012101FA02F21A60D4F864321A68938B61
:1032E0009BB243F002039383D4F864321B7903F159
:1032F000804303F5043300221A7097221A700023CA
:1033000084F85A32022384F84832012070BD01202B
:1033100084F8480270BD00207047012070BD00BFD6
:1033200000E100E0594400000082FF1F69440000F2
:1033300070B4244CA4FB0135AD092B02A4FB02257B
:10334000AD09B3FBF5F5B5F5A05F1FDB1E4A012300
:1033500052F8044FB5EB042F03DB0133372BF7D1C1
:1033600000E0A3B15C1E184E56F82420A5EB022203
:10337000002AB8BF524256F82360A5EB0625002D5F
:10338000B8BF6D42AA42D8BF234600E0002342687E
:103390000E4CE45C14700C4A52F82330B1FBF3F38A
:1033A000C0F84C320A4B994203D9836904221A703F
:1033B00006E08369074AA2FB0121C1F30751197096
:1033C00070BC7047D34D6210B46801009069010071
:1033D000FF6BDC02819F5E162DE9F0479DF820E02F
:1033E000BEF1000F72D0C468247814F0200F64D1AD
:1033F0006CE0012A64D81C46154689468046BEF119
:10340000000F32D090F84B32002B0CBF4FF0000A67
:103410004FF0020A90F84A32032B26D8DFE803F077
:10342000020B141D5146112008F034FA51461020A9
:1034300008F030FA19E05146122008F02BFA5146F4
:10344000132008F027FA10E051461E2008F022FA57
:1034500051461D2008F01EFA07E051461F2008F0D3
:1034600019FA51461A2008F015FAB9F1000F0DD1DA
:1034700015B1012D05D009E0214B1E60043B1E60F3
:1034800014E0204B1E60043B1E600FE0B9F1010FF9
:103490000CD1022D06D0032D08D11B4B1F60043325
:1034A0001F6003E0194B1E60043B1E6088F84A52FF
:1034B00088F84B420120BDE8F0870020BDE8F08786
:1034C0000020BDE8F0870020BDE8F087002B40F227
:1034D000032608BF4FF4197640F2036440F2646794
:1034E000002B18BF2746002983D0012902D00020D5
:1034F000BDE8F087941E012C7FF67DAFE3E700BFA7
:1035000004A004400CA0044000D004402CB00440AF
:1035100070B582B004469DF818600D4629B9304850
:10352000016841F04001016006E0012904D12C4806
:10353000016841F08001016084F84922002184F88B
:1035400051123AB9636920221A7022681170E26937
:10355000117011E06269002E3AD130E05B00DBB2FD
:103560001370E2697300DBB205E07600F6B2167004
:10357000E2695B00DBB21370002300939DF82030FA
:103580009DF81C2029462046FFF726FF099A154979
:103590002046FFF7CDFE9DF8282029462046FFF75C
:1035A000FFFD94F849321BB9A36880221A7002E02B
:1035B000A368C0221A700023C4F86C320EE02021E8
:1035C000117022685B00DBB21370E2690023D2E75E
:1035D0002821117022689E42C0D8C6E702B070BD93
:1035E00034800440006CDC022DE9F04F83B090F889
:1035F0004A32032B62D8DFE803F0400244064FF062
:103600001208132540E04FF01F081A253CE0404601
:1036100008F032F990B9013C14F0FF040ED0514685
:10362000284608F005F93346013BFDD149462846B6
:1036300008F0FEF83346013BFDD1E8E797F84B323E
:1036400097F84A220021009159463846FFF7C4FEF8
:10365000FB681B7813F07F0F0BD0BB6800221A7039
:1036600050231A46013AFDD1BA6880211170013BFE
:10367000FDD1002387F8513220E04FF011081025CA
:1036800002E04FF01E081D258B46074690F84B328E
:10369000002B0CBF00210221404608F0FBF801215D
:1036A000284608F0C5F80121284608F0F3F80B2455
:1036B0004FF0000A50264FF00109A8E703B0BDE81B
:1036C000F08F00BF2DE9F04104460E4615461F4617
:1036D00008F0A0F90DB9D4F8685208F09BF98046BB
:1036E000A3681A7812F0200F02D0B4221A7039E0C1
:1036F0002DB108F08FF9C8EB000085420AD9E368C4
:103700001B7813F0200FF3D1002384F84932A3680B
:10371000B0221A70A3681B7813F0200F16D131461F
:103720002046FFF761FFD4F86C32B3F1FF3F1CBFB6
:103730000133C4F86C32E3681B7813F0200F05D115
:10374000002384F84932A368B0221A70A3681B785A
:1037500003F0200303F0FF0023B9042384F851325F
:10376000BDE8F08194F84832013BDBB2012B31D83F
:1037700007F0B8FF16B1012E03D005E0184B1B78F7
:1037800004E0184B1B7801E0154B1B78834224DBC7
:103790000F2803DC01203870BDE8F08116B1012E3E
:1037A00008D00FE0A0F11003DBB20D4A1370012026
:1037B000BDE8F081A0F11003DBB20A4A13700120CA
:1037C000BDE8F081A0F11003DBB2054A13700120BF
:1037D000BDE8F0810120BDE8F0810120BDE8F08165
:1037E00018E400E019E400E00369490083F83C11A3
:1037F00003690122C3F8442200230371026982F89D
:10380000513270472DE9F04383B01E4600238DF8F6
:103810000730D0F84432002B00F0B880044615463B
:103820000EB9D0F86862E36812221A700DF107032E
:1038300032462046FFF746FF002800F0A78094F8A4
:1038400048321BB19DF80720002A53D008F0E2F857
:103850008146012384F8513284F8505204F23B1718
:1038600000254FF00208D4F844329D4231D22EB1E7
:1038700008F0D0F8C9EB000086422AD9236917F86E
:10388000012F1A70E268137813F0020FFBD082F850
:103890000080E2681378DBB213F0100F08D0072322
:1038A00084F8513210231370A36880221A706DE0DF
:1038B00013F0010F0BD01DB9052384F8513202E03B
:1038C000062384F85132A36880221A705EE0013525
:1038D000C9E7D4F844329D4234BF0423002384F85E
:1038E000513294F85032012BA3680CBF8022B022D1
:1038F0001A704BE05A1ED2B2012A47D8012284F82E
:10390000512284F850520022C4F84022022B0DD1DB
:10391000D4F84432042B11D808E01A68926812B91E
:103920001A68012191601B6800229A61A368F02245
:103930001A70236994F83C211A7027E0012084F85A
:103940005A02D4F8642204F59F71D4F84432033B40
:10395000156829601168888015680021E97115686B
:10396000A86010685D42C56010689BB2C38312688E
:10397000D382D4F86432226918680261186881829F
:1039800018688171B2F1804FCAD3C6E703B0BDE8B1
:10399000F08300BF2DE9F04182B09DF82050002453
:1039A0008DF80740002B00F06B81B3F5827F03D3C5
:1039B000082380F8513263E1C0F854320023C0F884
:1039C0003431C0F83831099B13B9D0F86832099303
:1039D00016460446C36812221A700DF10703099AAD
:1039E000FFF770FE002800F04B8194F8483223B1B5
:1039F0009DF80720002A00F08F8008F00BF807469A
:103A0000022384F8513284F850522269730043F043
:103A10000103DBB21370E268137813F0020FFBD0DE
:103A200002231370E2681378DBB213F0100F08D092
:103A3000072384F8513210231370A36880221A7070
:103A40001EE113F0010F06D0052384F85132A3685C
:103A500080221A7014E1032384F85132D4F85432CE
:103A6000012BA3680CBFA822A0221A7023691B781F
:103A7000022600254FF0A808D4F83821D4F8543293
:103A80009A4280F0FD8094F85132DBB2032B40F073
:103A9000F780E268137813F0020FFBD01670099BD1
:103AA00043B107F0B7FFC01B099B83428CBF0020C6
:103AB000012000E02846D4F838310233D4F85422EB
:103AC000934274D0002800F0C38094F85932002B40
:103AD0006DD0A5E0002875D094F85932002B40F045
:103AE000BF806FE0042384F8513294F85032012BE8
:103AF00006D00DE084F8515294F85032012BBBD11E
:103B00001023013BFDD1A36880221A700028B3D096
:103B1000012384F85932ADE75A1ED2B2012A00F2CD
:103B2000AF80022284F8512284F85052934234D15B
:103B3000D4F85432042B30D9012384F85A32D4F803
:103B40006432226919680A60186800218180186847
:103B5000C171B2F1804F02D31A68926812B91A6823
:103B6000012191601B680020D860D4F8642204F120
:103B70003001D4F85432013B1568296115680121E0
:103B8000A9821568A871106881601168584288611F
:103B900011689BB2CB831268D382A368F0221A709B
:103BA0002269730043F00103DBB2137068E0A3687D
:103BB00083F80080D4F838310133D4F8542293428A
:103BC0000BD287E723691A78D4F83831591CC4F826
:103BD0003811234483F8302098E784F85952A368B9
:103BE000B0221A7023691A78D4F83831591CC4F8F5
:103BF0003811234483F8302000283FF47BAF71E76D
:103C000084F85952A368B0221A7023691A78D4F83C
:103C10003831591CC4F83811234483F8302061E747
:103C2000D4F838310133D4F854229342E8D251E722
:103C300084F85952A368B0221A7023691A78D4F80C
:103C40003831591CC4F83811234483F8302051E727
:103C5000D4F838310133D4F854229342E8D239E70A
:103C600084F85952A368B0221A7023691A78D4F8DC
:103C70003831591CC4F83811234483F8302031E717
:103C800002B0BDE8F08100BF036993F85132043BF4
:103C9000042B0CD8DFE803F009030507100002200D
:103CA0007047032070470420704704207047007954
:103CB000003018BF012070470120704790F8513242
:103CC00013F0FF0F1BD090F85132DBB2052B18D048
:103CD00090F85132DBB2062B15D090F85132DBB29E
:103CE000072B12D090F85132DBB2042B0FD090F892
:103CF0005102C0B2082814BF0020012070470120E3
:103D00007047012070470120704701207047012053
:103D1000704700BF70B50446154607F07BFE0DB92D
:103D2000D4F8685207F076FE06462046FFF7C6FF35
:103D300038B9002DF9D007F06DFE801B8542F4D80C
:103D400000E0ADB107F066FE801B854210D894F804
:103D50004832022B0CD194F85A3213F0FF0F07D0DF
:103D60002046FFF7ABFF0028FAD0042384F8513235
:103D700094F85132DBB2012B09D094F85132DBB206
:103D8000022B04D094F85132DBB2032B02D104236E
:103D900084F851324023013BFDD194F8513213F0A5
:103DA000FF0F0CBF0120002070BD00BF70B506469C
:103DB0000C4615461A46049B29462046FFF722FD6D
:103DC000049A29462046FFF7A5FF3046FFF75CFF1F
:103DD00070BD00BFA3B130B583B00D46044607994E
:103DE00001919DF8181000912946FFF7D3FD079A1D
:103DF00029462046FFF78EFF20B1D4F8380102E0B3
:103E000000207047002003B030BD00BFD0F834213F
:103E1000D0F838319A4208D2D0F834315A1CC0F860
:103E20003421184490F8300070474FF0FF3070474D
:103E300008B50069FFF7EAFF08BD00BFD0F83421DC
:103E4000D0F838319A423DBFD0F83431C01890F8DC
:103E500030004FF0FF30704708B50069FFF7EEFF04
:103E600008BD00BFD0F83421D0F838319A4208D2CA
:103E7000D0F834315A1CC0F83421184490F830007E
:103E800070470020704700BF38B5C2681578EDB2A2
:103E900081680B78DBB213F0200F00F0C18113F0C2
:103EA000100F00F0058190F85A32DBB2022B04D0DB
:103EB00090F85A32DBB2032B4CD1D0F864120B6865
:103EC0009B8B03F080039BB2002B00F0848290F860
:103ED0005A32DBB2022B40F07E8272E2137813F08A
:103EE000800FFBD00A79B54B1A70002380F85A3244
:103EF000D0F84432013BC0F840320269D0F8403279
:103F0000034493F83C31137020E0AD4B1C680A79F0
:103F100001239340234219D0AA4B1A70D0F864327F
:103F20001A79A94B1A70002380F85A3215F0100F35
:103F30000CD0072380F85132C36812221A708368AC
:103F400080221A700023C0F8403238BDC3680222B4
:103F50001A7038BD90F85132DBB2012B56D115F0F2
:103F6000100F0DD0002380F85A32072180F851122B
:103F700012211170826880211170C0F8403238BD62
:103F800015F0010F0FD0002380F85A32D0F84032DC
:103F90001BB9052380F8513202E0062380F8513224
:103FA00080230B702EE0D0F840320133C0F840324D
:103FB000D0F8442293420AD3002380F8513290F87B
:103FC0005032012B0CBF8023B0230B701AE090F805
:103FD0005A32DBB2012B0ED1022380F85A32F12380
:103FE0000B70D0F864321A79784B1A70036990F824
:103FF0003D211A7006E00269D0F84032034493F87C
:104000003C311370C36802221A7038BD90F85132E7
:10401000DBB2022B36D115F0100F08D0072380F841
:10402000513212231370836880221A7038BD15F044
:10403000010F05D0052380F8513280230B701DE05D
:1040400090F85A32DBB2012B0CD1022380F85A329D
:10405000E1230B70D0F864321A795C4B1A70036953
:104060001B780BE0032380F85132D0F85432012B37
:104070000CBFE823E0230B7003691B78C36802229E
:104080001A7038BD90F85132DBB2042B0AD190F887
:104090005032012B0CBF8023B0230B70C368022267
:1040A0001A7038BD80230B70C36802221A7038BDA5
:1040B00090F85A32DBB2022B04D090F85A32DBB2BD
:1040C000032B55D1D0F8642213689B8B03F0800337
:1040D0009BB2002B00F0908190F85A32DBB2022B99
:1040E00040F08A817EE11279344B1A70002380F807
:1040F0005A3290F85132DBB2042B1CBF002380F8F7
:1041000051328368B0221A70D0F85432013BC0F8A3
:104110003831D0F838315A1CC0F838210269127889
:10412000034483F8302090F85032012B1CD1102327
:10413000013BFDD1836880221A7015E0204B19687D
:104140001279012393400B420ED01F4B1A70D0F806
:1041500064321A791B4B1A70002380F85A3280F8A7
:104160005132836880221A70C36802221A7038BDE7
:10417000D0F838310233D0F85422934200F0438112
:1041800090F85132DBB2042B04D190F85932002B55
:1041900000F03981D0F838310133D0F854229342FD
:1041A00080F03F8190F85132DBB2042B40F02E8139
:1041B00090F85932002B40F0348127E11C800040F8
:1041C0002C8000401F8000401E8000401B8000406B
:1041D000002380F851328368B0221A70D0F8383149
:1041E0005A1CC0F8382102691278034483F8302041
:1041F00090F85032012B05D11023013BFDD183688B
:1042000080221A7090F85132DBB2042B04D190F85E
:104210005932002B00F00F81C36802221A7038BD9A
:10422000044615F0100F08D01023137015F0400F3E
:1042300006D1C36802221A7038BD15F0400F60D055
:1042400094F85132DBB20A2B04D1D4F85C32002B43
:1042500040F0F58015F0040F1ED0092384F8513288
:104260000023C4F84432A368D0221A7023691B7853
:104270005B0884F85232D4F8603203B19847D4F81E
:1042800044320BB984F83C31236994F83C211A700C
:104290000123C4F8403230E0002384F8583294F807
:1042A0004A32012B05D103226849122007F032FB64
:1042B00015E02BB903226549112007F02BFB0EE016
:1042C000022B05D1032262491E2007F023FB06E0E2
:1042D000032B04D103225E491F2007F01BFB0A2396
:1042E00084F851320023C4F83831A368C0221A7010
:1042F00023691B785B0884F85232E36802221A7043
:1043000038BD13F0100F20D015F0010F15D1D0F8E3
:104310004022D0F844329A4208D2D0F840325A1C97
:10432000C0F84022034493F83C2100E000222369B6
:104330001A70A368D0221A703FE0C0230B70036983
:104340001B78002380F8513237E090F85132DBB20D
:104350000A2B32D1002380F8583290F84A32012BD0
:1043600005D103223949122007F0D4FA15E02BB900
:1043700003223649112007F0CDFA0EE0022B05D1B9
:10438000032233491E2007F0C5FA06E0032B04D1AF
:1043900003222F491F2007F0BDFA23691B78DBB2E7
:1043A000D4F83821B2F5817F07D8D4F83821511CD0
:1043B000C4F83811224482F83030E36802221A70BF
:1043C00038BD0A79234B1A708368F0221A700323D0
:1043D00080F85A32BAE590F85A32DBB2032B7FF4F8
:1043E00094AD7BE512791B4B1A708368E8221A7032
:1043F000032380F85A32B7E690F85A32DBB2032B27
:104400007FF49CAE6FE6E8230B70C3E6D0F838313A
:104410005A1CC0F8382102691278034483F830200E
:10442000F0E6002380F8593290F85132DBB2042BC9
:104430007FF4CEAECFE6012380F85932ECE60022BD
:10444000C4F83421D4F83801984703E71D4500002B
:104450002D4500001F80004008B500210148FFF7EE
:1044600013FD08BDA097FF1F08B501210148FFF704
:104470000BFD08BD109AFF1F10B50446C3681B78DA
:1044800013F0200F24D1002380F8513290F84A32E3
:10449000012B03D1122007F071F90FE01BB9112095
:1044A00007F06CF90AE0022B03D11E2007F066F931
:1044B00004E0032B02D11F2007F060F9D4F85C322E
:1044C00053B30022C4F83421D4F83801984710BD02
:1044D00090F858320133DBB280F85832012B03D800
:1044E00090F84932012B17D094F84A32012B03D1AE
:1044F000122007F043F910BD1BB9112007F03EF957
:1045000010BD022B03D11E2007F038F910BD032B7C
:1045100002D11F2007F032F910BD00BF08B50021FD
:104520000148FFF7A9FF08BDA097FF1F08B50121AB
:104530000148FFF7A1FF08BD109AFF1F70B50B4C93
:1045400000212046FEF710FE094E0A4D324629464C
:1045500020460AF09DFC084C01212046FEF704FE8F
:104560003246294620460AF093FC70BD60220020A6
:10457000FC87FF1F393100004C22002081EA020035
:1045800008234AF2010210F0010F14BF82EA600012
:104590004008013B13F0FF03F5D170472DE9F043CC
:1045A000C1B006460D46002A14BF4FF488514FF49F
:1045B000807140F6FF7341F6FF78002A08BF9846E5
:1045C0004FF6FF732B801E4C2046FEF721FB4FF465
:1045D0008073A363C4F834D0A1460DF1FF074846A9
:1045E000FEF788FC20B99DF80020042A1DD123E0A5
:1045F000134B93F849201349134809F02DFDFF2070
:104600001AE014F8012F042A0DD029883046FFF74C
:10461000B5FF2880BC42F4D14846FEF70BFB80452D
:10462000DDD8FF2008E0002006E029883046FFF7AB
:10463000A5FF28806C46E4E741B0BDE8F08300BFE9
:1046400048A8FF1FB46A0100C89DFF1F70B5C0B025
:104650000C464FF48072002168460BF04FF82CB3E3
:104660001CE0174B4FF480729A63C3F834D01D4698
:104670000DEB02042846FEF73DFC6B4613F8012BB8
:1046800012F0FB0F08D1A342F8D12846FEF7D2FA68
:104690008642EFD8012011E000200FE04FF488514E
:1046A0000748FEF7B5FA41F6FF76DAE74FF4807176
:1046B0000348FEF7ADFA40F6FF76D2E740B070BD92
:1046C00048A8FF1FFFFFFFFF30B583B0084601A9D0
:1046D0000CF088FF019B1B784BBB00221E4B09F09E
:1046E0002BFF19A3D3E900230AF004FA04460D4670
:1046F00017A3D3E900230AF063FBD8B90022174BB4
:10470000204629460AF03EFBB8B90022144B204649
:1047100029460AF0C5F80022124B0AF0C1F80AF047
:1047200097FB20F0070040F0010080B207E04FF651
:10473000FF7004E04FF6FF7001E04FF6FF7003B02A
:1047400030BD00BFAFF30080000000C0CCCCFC3F08
:104750000000000000C062400000404000804BC0EC
:1047600000003040000020400909A1F1370080B26C
:1047700037288CBF00200120704700BF10B4087894
:10478000A0F13003092B28D909E0214608E000EB0D
:104790008000303B03EB400080B2033100E000209A
:1047A000000180B20B7863B32E2B10D14B78A3F1AC
:1047B0003002092A05D88A7862B9303B184380B2A2
:1047C0001FE04FF6FF72002B18BF104619E04FF69E
:1047D000FF7016E04FF6FF7013E0303880B24C1CCB
:1047E0004B78A3F13002092ACFD800EB800002EB0E
:1047F000400080B28C1C8B78A3F13002092AC6D904
:10480000C3E710BC704700BF10B50C463A212046E4
:104810000BF012FAA8B30346002202702078A0F130
:104820003002092A2FD8D0B26278A2F130010929CA
:1048300006D800EB800001EB400000F0FF0000E034
:104840001ABB5A78A2F13001092920D89978A1F130
:104850003003092B1DD817281DD8A2F13003DBB275
:1048600003EB8303303901EB430303F0FF033B2BDE
:1048700013D8C3EB03139B004FF4616202FB0030BB
:1048800010BD074810BD064810BD054810BD0448BE
:1048900010BD034810BD024810BD014810BD00BF47
:1048A000805101000B78A3F13002092A18D84A7808
:1048B000A2F13000092815D8303B03EB830302EB4B
:1048C0004303493BDBB2192B0ED8094A22FA03F302
:1048D00013F0010F0AD08878B0FA80F040097047D1
:1048E000002070470020704700207047002070476C
:1048F0000180000210B40878A0F13003092B45D9DB
:1049000007E000EB8000303B03EB400080B2023157
:1049100002E0002000E021460B782BB32E2B26D19D
:104920004B78A3F13002092A1AD893B28A78A2F1FF
:104930003004092C24D8C978E1B903EB830304EBD4
:1049400043039BB208E0012203EB83035B009BB2AD
:104950000132D2B2012AF7D903EB002080B21EE067
:104960005BB9000280B21AE0000280B217E04FF695
:10497000FF7014E04FF6FF7011E04FF6FF700EE08D
:104980008A78002ADFD04FF6FF7008E0303880B216
:104990004C1C4B78A3F13002092AB2D9BBE710BCFA
:1049A000704700BF89B32DE9F84308460B7893B3ED
:1049B00089460BF085FB804609EB00064C462746EE
:1049C00014F8015B28460AF0ABFA08B1002DF6D1C5
:1049D000B74206D016F8010D0AF0A2FA08B1B742A4
:1049E000F8D108F1FF38C844464504D0002373705D
:1049F0003846BDE8F8834F4509D0B7420AD10023B5
:104A000089F800303846BDE8F883002070474846F2
:104A1000BDE8F8833846BDE8F88300BF70B50D46A1
:104A20005F2602E0254600E025462878B8B10AF066
:104A300077FA90B16C1C2E7068780028F2D00AF0DA
:104A40006FFA0028F0D0651C294620460BF0D6FAF4
:104A500060780028E9D02C46F1E70135E5E770BD24
:104A60000B785B2B0CD110B50C4608460BF028FBDD
:104A7000204410F8010C5D2814BF0020012010BD57
:104A8000002070470B78642B20D14B78A3F13002C3
:104A9000092A1DD8CA78632A1CD10A79A2F13000EC
:104AA000092819D8C0B24979C1B9A3F13101C9B2F5
:104AB000032915D8313AD2B2022A13D8303BDBB2DF
:104AC000013B03EB43031844C0B27047FF2070471B
:104AD000FF207047FF207047FF207047FF2070477E
:104AE000FF207047FF20704710B50C46087830B1A2
:104AF0000EF094F9207014F8010F0028F8D110BDC1
:104B000010B50C46087830B10EF096F9207014F804
:104B1000010F0028F8D110BD0B78A3F13002D2B2FA
:104B2000092A0FD8002003E0A3F13002092A0CD88B
:104B300000EB8000303B03EB400011F8013F002BFD
:104B4000F2D170474FF0FF3070474FF0FF307047A1
:104B500070B588B0054668460BF050FACDF810D015
:104B60002E2168460BF068F828B303460130002276
:104B70001A7005902E210BF05FF80346E8B1013062
:104B800000221A7006902E210BF056F8B8B10023BF
:104B900000F8013B079004AC08AE54F8041B28460B
:104BA000FFF7BAFFB0F1FF3F0BD0FF280BDCB44298
:104BB000F3D1012008E0002006E0002004E00020FE
:104BC00002E0002000E0002008B070BD10B50446EF
:104BD00041F20603C35A0A460449054809F03CFA63
:104BE00041F20402A35A0133A35210BDB86B010075
:104BF000C89DFF1F084B0022DA7183F83C2483F81C
:104C00003D2483F86424192183F8661483F8692409
:104C1000024A1A60704700BF74220020205701002A
:104C2000581E1044B0F5004F29D870B5C0B01C46CE
:104C300015464FF4807268460AF060FD124E294610
:104C40003046FDF7E5FF4FF48073B363C6F830D00C
:104C50009C420AD91D4600E015463046FEF776F81C
:104C600005F580729442F7D800E00025AC4208D0E8
:104C70000548641B8463FEF769F8002002E0FF200A
:104C80007047002040B070BD48A8FF1FF8B50F4620
:104C900016461D462A4C23685B6807222949204690
:104CA000984738460BF00CFA23685B680246394691
:104CB0002046984723685B6802222349204698478C
:104CC00030460BF0FDF923685B680246314620460A
:104CD000984735B1204623685B6809221B499847ED
:104CE00005E0174803685B6809221949984708F0EE
:104CF000EBFD0028FBD008F09BFDC0B20D2801D1D0
:104D000095B903E000F0DF004E280BD10C4C23686E
:104D10005B6802220F4920469847204609F084F933
:104D20000020F8BD5928E2D1054C23685B680322B6
:104D3000094920469847204609F076F90120F8BD38
:104D4000C89DFF1F686D0100706D0100746D01004A
:104D5000806D0100006C0100046C01002DE9F84F2A
:104D60008A4602F1080902F5847B234C234FA9F1FE
:104D7000080652462249204609F06EF94D4616F8BB
:104D8000012B3946204609F067F9AE42F7D1236876
:104D90005B6804221B492046984709F1080615F86C
:104DA000012B3946204609F057F9B542F7D123685F
:104DB0005B680322144920469847A9F1090509F1C7
:104DC00007064FF02E0815F8011FA1F12003DBB2F2
:104DD0005E2B23681B6888BF414620469847B54232
:104DE000F1D10AF1100ACAF30E0A09F11009D945E6
:104DF000BDD1BDE8F88F00BFC89DFF1F986D0100B1
:104E00008C6D0100A06D0100A86D01002DE9F0413D
:104E1000C0B007460C46174BC3F834D04FF480722D
:104E20009A631E46DFF85C80134D21463046FDF73D
:104E3000EFFE3046FEF75EF86A4621463846FFF739
:104E40008DFF2B685B68002241462846984728461C
:104E500009F0EAF80123094A09493846FFF716FF25
:104E600020B104F58074C4F30E04DEE740B0BDE861
:104E7000F08100BF48A8FF1FC89DFF1FAC6D010057
:104E8000DC5E01000875010011F0030F15D10D4B18
:104E9000A3FB01235B09642202FB13139BB273B9CA
:104EA000084BA3FB0123DB094FF4C87000FB131070
:104EB00080B2B0FA80F040097047002070470120AE
:104EC000704700BF1F85EB51022A0ED110B51C465A
:104ED000FFF7DAFF20B11D2C8CBF0020012010BD90
:104EE0001C2C8CBF0020012010BD0244127F9A426E
:104EF00034BF00200120704770B586B005460B4BCB
:104F00001E695C7B2046FEF745F901230493084B9C
:104F100003930022029201900092134621463046EC
:104F2000FEF7F6FA284606B070BD00BF60220020EA
:104F3000A0860100054BA3FB0023DB0803EB8302E3
:104F4000A0EB420000EB0310C0B27047CDCCCCCC3C
:104F500008B50248FFF7D0FF08BD00BFE4260020D7
:104F600030B583B00546304C68212046FEF73CFC46
:104F700000212046FEF7A0F880212046FEF79CF88D
:104F80006878FFF7D7FF01462046FEF795F8A87826
:104F9000FFF7D0FF01462046FEF78EF8E878FFF7CE
:104FA000C9FF01462046FEF787F82879FFF7C2FFC0
:104FB00001462046FEF780F86879FFF7BBFF0146FF
:104FC0002046FEF779F8A8791E38C0B2FFF7B2FF85
:104FD00001462046FEF770F8627B00230093012310
:104FE00021692046FEF7E2FED0B968212046FEF78F
:104FF000FBFB00212046FEF75FF82878FFF79AFFB9
:1050000001462046FEF758F8627B002300930123F7
:1050100021692046FEF7CAFEB0FA80F0400900E0A0
:10502000002003B030BD00BF6022002000B583B077
:10503000694600F007F86846FFF792FF03B05DF895
:1050400004FB00BF2DE9F047674AA2FB00435B0960
:10505000C3EB0314A0EB84040C70A2FB03425209BF
:10506000C2EB0212A3EB82024A70604AA2FB00323A
:10507000D20A5F4CA4FB0234240904EB4404A2EBE3
:10508000C4028A705B4BA3FB0030000C021D5A4C1B
:10509000A2FB0445531B05EB53039B08C3EBC3035F
:1050A000D31A0133CB700022134640F26D1CDFF897
:1050B0004CE14FF064084FF4B77A4FF4C879D7B297
:1050C00007F2B27414F0030F14D18EFB0465E617D7
:1050D000C6EB651508FB154575B98EFB0465E6172B
:1050E000C6EBE51509FB1545002D14BF65464FF4C9
:1050F000B77502E0654600E055462B440132984200
:10510000DDD28F71002C1DDD14F0030F1DD13B4A41
:1051100082FB0425E217C2EB6512642505FB1242EF
:10512000B2B9364A82FB0425E217C2EBE5124FF40E
:10513000C87505FB1242002A40F26D1208BF4FF4F9
:10514000B77207E040F26D1204E040F26D1201E028
:105150004FF4B7729B1AC31A284A82FB0402E01765
:10516000C0EB621E642505FB1E4EC0EBE2174FF438
:10517000C87202FB174701220025214E4FF01C0C7C
:1051800004F003094FF01D0802E001350132D2B2EC
:105190005FFA85FABAF1010F0CD1002C1BDDB9F1D1
:1051A000000F1AD1BEF1000F19D1002F14BF1C201F
:1051B0001D2015E0E8B2305C984203D81B1A0B2A78
:1051C000E3D900E0524601324A7101330B71BDE868
:1051D000F0871B1AD9E7604602E0604600E04046CF
:1051E0009842F6D95246EEE789888888C5B3A291DD
:1051F000ABAAAAAA07452EC2254992241F85EB51C6
:10520000CC6F01002DE9F0418679384A02FB06F2A5
:105210001EB94579012D27DC55E006F2B27740F240
:10522000B273DFF8CCE04FF0640C4FF4C878002B79
:1052300016DD13F0030F13D18EFB0354DD17C5EBFE
:1052400064140CFB14343CB98EFB0345DC17C4EB2F
:10525000E51408FB143119B902F5A83202F5C07241
:1052600001339F42E3D1D4E706F2B276204B83FBB1
:10527000063EF317C3EB6E1C642101FB1C6CC3EBF1
:10528000EE1E4FF4C87303FB1E6E1A4901231A4F1A
:1052900006F00308022B0FD1002E0DDDB8F1000F30
:1052A0000AD1BCF1000F02D1BEF1000F04D102F50A
:1052B000181202F56E5202E00C7807FB042201334B
:1052C0000131AB42E6D181784378C3EB03139B00F5
:1052D0004FF4616404FB013301780B440179013917
:1052E000054800FB01301044BDE8F0818033E10146
:1052F0001F85EB51CC6F01008051010010B586B0C5
:1053000004460E4B1A798DF808209A6803921A7B8E
:105310008DF810200A4A01925A7B8DF811201B69E2
:105320000593084B01AA00F03FF801A8FDF704FF20
:1053300004F12003E36606B010BD00BF6022002028
:10534000986801006860010008B500F04DF808BDDC
:1053500008B500230322FF2100F006F908BD00BFB5
:10536000002242708270F022C270FF22027103227A
:105370004271094A8260094A117901740849C16081
:1053800091684161117B01760649C160517B41768C
:105390001269C261704700BF886801006022002066
:1053A0006C6801009868010010B5A1F11804E4B21E
:1053B000072C07D9024620320C210A48FDF71CFEB3
:1053C000FF2010BD01701179017491684161117B5A
:1053D0000176517B41761269C26143668360002089
:1053E00010BD00BFD8A8FF1F70B586B00446C669BF
:1053F000457E2846FDF7CEFE01230493084B039318
:105400000022029201900092134629463046FEF790
:105410007FF8E369034AC3F8682206B070BD00BF95
:10542000A0860100400D030070B582B090F82030D6
:10543000002B38D00D460446032905D900F120027F
:105440000C211B48FDF7D8FD04F10C0621783046ED
:10545000FEF7CAF929463046FDF72EFEC0B20128F4
:1054600007D004F120020B211148FDF7C5FDFF26EE
:105470001AE0627E002300930123E1693046FEF7C3
:1054800095FC064638B104F1200201460848FDF7B4
:10549000B3FDFF2608E0657104F1200200210448F5
:1054A000FDF7AAFD00E0FD26304602B070BD00BF4A
:1054B000D8A8FF1F2DE9F04182B004460D461746DB
:1054C000032905D900F120020C212648FDF794FD9F
:1054D00094F82030002B3FD004F10C08217840468E
:1054E000FEF782F929464046FDF7E6FDC6B2394689
:1054F0004046FDF7E1FD3044C0B2022807D004F178
:1055000020020B211748FDF777FDFF2625E0627E7C
:10551000002300930123E1694046FEF747FC06465D
:1055200038B104F1200201460E48FDF765FDFF2663
:1055300013E06571012D01D1677006E0022D01D1E4
:10554000E77002E0032D08BF277104F1200200215B
:105550000448FDF751FD00E0FD26304602B0BDE8ED
:10556000F08100BFD8A8FF1FF8B505460E461446C7
:105570001F46012180F82010FFF756FF20B10023BD
:1055800085F82030FD20F8BD224601212846FFF78E
:1055900091FF0446F243D2B203212846FFF78AFF67
:1055A0002043C4B23A4602212846FFF783FF204336
:1055B000C0B2F8BD90F820309BB330B583B00D4633
:1055C00004460278417E0023019301230093C069C1
:1055D000FEF700FC012809D0E36993F8511204F1A9
:1055E00020021248FDF708FDFF201CE0E069FEF7ED
:1055F00039FC287063790BB9A0700AE0012B01D146
:10560000607006E0022B01D1E07002E0032B08BFBE
:10561000207104F1200200210448FDF7EDFC002078
:1056200001E0FD20704703B030BD00BFD8A8FF1FC8
:1056300070B504460D461646032905D900F120022F
:105640000C210C48FDF7D8FC94F820306BB12946AA
:105650002046FFF7E9FE50B931462046FFF7AAFF82
:10566000002814BFFF20002070BDFD2070BDFF206A
:1056700070BD00BFD8A8FF1F90F8203013B370B5DD
:105680000D46044641783AB121EA05063246012129
:10569000FFF710FFC0B907E041EA050632460121D5
:1056A000FFF708FF90B902E045EA060201E026EAAA
:1056B000050201212046FFF7FDFE002814BFFF2050
:1056C000002070BDFD207047FF2070BDFF2070BD21
:1056D00008B590F8203073B1437812B143EA010263
:1056E00001E023EA01020121FFF7E4FE002814BFD4
:1056F000FF20002008BDFD2008BD00BF10B586B00A
:1057000004460E4B1A798DF808209A6803921A7B8A
:105710008DF810200A4A01925A7B8DF811201B69DE
:105720000593084B01AA0830FFF73EFE01A8FDF7DC
:1057300003FD04F12803636006B010BD6022002061
:10574000986801006860010008B50830FFF74CFE5A
:1057500008BD00BF08B500230122E9210830FFF78A
:1057600003FF08BD2DE9F04782B006468A46476F21
:1057700000F10805012220212846FFF7A9FF002299
:1057800001212846FFF7A4FF20244FF000084FF026
:10579000800933685B0033600DF1070241462846FB
:1057A000FFF746FF9DF8073013F0100F03D0336862
:1057B00043F001033360FA0F49462846FFF788FF9C
:1057C0007F00424640212846FFF756FF013C14F077
:1057D000FF04DED1BAF1000F0AD0002228212846AA
:1057E000FFF776FF012208212846FFF771FF04E04A
:1057F000002220212846FFF76BFF01221146284690
:10580000FFF766FF33683367002002B0BDE8F0871A
:1058100008B50121FFF7A6FF08BD00BF08B54B4B37
:10582000196B08794A4A1070DA6A1079494A10707F
:10583000097911709B6A002B75D0444A5268D2686E
:10584000934204D99B1A414A9362012133E0013B00
:105850003E4AD26A1268D18B11F4004F03D1C3F3D0
:105860000E03D38306E0D18B01F47E41C3F308031A
:105870000B43D383D38B9BB2D382344B9A6A1B6B7B
:105880001B68D98B11F4004F03D1C2F30E02DA83E7
:1058900006E0D98B01F47E41C2F308020A43DA83A1
:1058A000DA8B92B2DA82294B996A11F1FF3118BF73
:1058B000012100229A62254BDA6A126810682433AB
:1058C000984209D1243B1B68DA68204A92F82420C8
:1058D00042F000425A631AE01C4B1B68DB6813F06D
:1058E000804F0AD013681B88106802301060174A76
:1058F000126843F00043536309E013681B78106893
:1059000001301060114A126843F0004353630F4B9B
:105910001B6B1A79104B1A70B9B10C4BDB6A1A79F0
:105920000D4B1A7008BD094A1368002119630B4812
:10593000D862D86820F08040D860032382F82530F0
:10594000506B03681B680A46984708BD809CFF1F80
:105950001F8000401C8000401B80004000000FFFA3
:1059600010B441680A6814684B68234313600368E5
:10597000184A1A600368184ADA60036802F1804224
:105980001A610368154A1A604468427A144BA118D8
:1059900091F8241003EBC10149680A3254F822201F
:1059A0000A604268047A1119097E03EBC101496853
:1059B00002EB8402D2690A604268817A501890F83A
:1059C000300003EBC0035B6802EB8102526B1A608C
:1059D00010BC704701401F000110003800001F80FC
:1059E0005877010038B590F86634F3B10C46054697
:1059F0000B685B6810220D4920469847002310224F
:105A000095F86614204608F035FB23685B6803228E
:105A10000749204698470023102295F8681420462D
:105A200008F028FB204608F0FFFA38BD847001001A
:105A30009870010038B505460C4690F86634D3B12D
:105A40000B685B6826221D4920469847204608F0CF
:105A5000EBFA95F86634012B08D123685B682F2296
:105A6000174920469847204608F0DEFA2146284686
:105A7000FFF7B8FF38BDC3794BB90B685B681C22D0
:105A8000104920469847204608F0CEFA38BD90F8D5
:105A90003C344BB90B685B681A220B492046984787
:105AA000204608F0C1FA38BD0B685B680F22074931
:105AB00020469847204608F0B7FA38BDA470010088
:105AC000CC700100FC7001001C71010038710100F4
:105AD00008B5FFF7AFFF08F087FBFCE708B50646FF
