:1000000000800020BD01000015240000D92300005D
:10001000D9230000D9230000D9230000D9230000F0
:10002000D9230000D9230000D923000015240000A3
:1000300015240000D923000015240000C923000066
:1000400015240000152400001524000015240000CC
:1000500015240000152400001524000015240000BC
:1000600015240000152400001524000015240000AC
:10007000152400001524000015240000152400009C
:10008000152400001524000015240000152400008C
:10009000152400001524000015240000152400007C
:1000A000AD200000BD200000152400001524000034
:1000B000152400001524000015240000152400005C
:1000C000152400001524000015240000152400004C
:1000D000152400001524000015240000152400003C
:1000E000152400001524000015240000152400002C
:1000F000152400002D410000152400004548000093
:1001000015240000C14D0000152400001524000036
:1001100015240000152400001524000015240000FB
:1001200015240000152400001524000015240000EB
:1001300015240000152400001524000015240000DB
:1001400015240000152400001524000015240000CB
:1001500015240000152400001524000015240000BB
:1001600015240000212C0000152400001524000097
:10017000152400001524000015240000152400009B
:10018000152400001524000015240000152400008B
:10019000152400001524000015240000152400007B
:1001A000152400001524000015240000152400006B
:1001B000152400001524000015240000574B4CF2B4
:1001C000205210B51A804DF628121A8000BF00BFC9
:1001D00002F024F9524B4FF010621A60514A9A60B3
:1001E000514ADA60A3F53043203B1A6812F480725A
:1001F00004D14E490A604FF4A8521A604C4B1A7849
:10020000110703D51A7842F008021A70494B4A4C7C
:100210004A482A221A704A4A00239918A14203D256
:10022000195899500433F8E7464B474900228B424E
:1002300002D243F8042BFAE74448454900235A58B0
:100240001A500433B3F5DE7FF9D1424B424A802184
:1002500003F8011B9342FBD1404B3C4A1A60404BD0
:100260000A221A70A3F5805324225A70A0221A7011
:100270009A799207FCD59A79D406FCD4394A9379B5
:1002800003F00C03082B374BF9D103221A714022DB
:100290005A719A799006FCD5324A9179314B4906C8
:1002A000FBD5314A314911600221516020221A7078
:1002B0009A7902F00C020C2AFAD12D4B2D4A1A60C1
:1002C0002D4B4BF67F321A6000225A60072243F80A
:1002D000042C2A4AC3F80C2D62B602F061FB134BC2
:1002E0001B68DA0705D5264802F090FA254B264A06
:1002F0001A60264B1B785B0609D5224C224A2368DC
:10030000934204D11E4802F081FA0023236005F0D5
:1003100005F802F089F803F0F7FAFEE70E20054031
:1003200030800440823F04000100002B14D00340C1
:1003300002D0074000E007402495FF1FC865000079
:100340006087FF1F2495FF1F60BCFF1F0082FF1FF7
:100350000000000000E400E05FE400E008ED00E0E1
:100360000050064000400640448004400000131145
:1003700004800440C010050014E000E000002020CC
:10038000548DA3571CE00340A5C3945A00F00740C6
:10039000FFFFFFFFFFFFFFFFFFFFFFFFFFFFFFFF6D
:1003A000FFFFFFFFFFFFFFFFFFFFFFFFFFFFFFFF5D
:1003B000FFFFFFFFFFFFFFFFFFFFFFFFFFFFFFFF4D
:1003C000FFFFFFFFFFFFFFFFFFFFFFFFFFFFFFFF3D
:1003D000FFFFFFFFFFFFFFFFFFFFFFFFFFFFFFFF2D
:1003E000FFFFFFFFFFFFFFFFFFFFFFFFFFFFFFFF1D
:1003F000FFFFFFFFFFFFFFFFFFFFFFFFFFFFFFFF0D
:10040000FFFFFFFFFFFFFFFFFFFFFFFFDEF9FFFF23
:1004100010B5054C237833B9044B13B10448AFF33E
:1004200000800123237010BD2495FF1F00000000F1
:10043000C865000008B5064B1BB106480649AFF376
:1004400000800648036813B1054B03B1984708BD07
:1004500000000000C86500002895FF1F2495FF1FBD
:10046000000000000B7893B10D2B18D00A2B18D088
:100470004A1C114600F8013B12F8013B3BB10D2B21
:100480000DD00A2BF5D10CE0501C01311370002364
:1004900003700B78002B14BF0846002070470246FB
:1004A000F2E70246F0E700BF2DE9F04184B01620E4
:1004B000012102F0EDF91620002102F0B7F9162013
:1004C000012102F0B3F9724C20461C2101F06CFFAF
:1004D000204601F06DFF204601F06EFF6D496E4C25
:1004E0006E4A6F4E42F20F700B7813F0FF0F00F060
:1004F000C480237813F0030F00F0BF8015683368C1
:10050000EB1A182B40F2B980664C23685B682046D2
:10051000654915229847204603F05EF9634D284649
:10052000502100F09DF9284600F09CF92846002152
:1005300000F0B0F923685B6820465D4905229847C2
:10054000204603F049F9554B1B680193019D4FF07C
:100550000008524C534F20E023680293029B5B1B20
:10056000B3421CD923680393039D3B685B683846FC
:1005700050491222984738465FFA88F10A22002330
:1005800003F03AF93B685B6838464B4905229847C7
:10059000384603F021F908F1010842F2107602F022
:1005A00099FF0028D8D03F4C23685B682046434918
:1005B00009229847204603F00FF9414E2546414C49
:1005C000414F28460A2122464FF4807303F078F900
:1005D00080B2B0B10128F4D02046232105F0D2F931
:1005E0000028EED13046214605F046FA204605F0B7
:1005F000A1FA06442B685B682846394601229847D1
:10060000DFE7284C23685B68204630490922984779
:10061000204603F0E1F82A4E2A4D244C214F28466B
:100620003146FFF71FFF0646A560284605F082FA0F
:100630002082204600F064F93B685B683846224916
:1006400001229847002EEAD118480423837100F054
:1006500099F9144C23685B6820461D491B22984772
:100660001C4801F0EBFD23685B6820461A4906220E
:100670009847204603F0B0F806E013680093009B0B
:1006800083427FF631AF3FE704B0BDE8F08100BFA1
:100690005097FF1F2CBAFF1F3CBAFF1F48B9FF1F1E
:1006A00058BCFF1F40BAFF1FC45E00005898FF1FD0
:1006B000DC5E0000E45E0000F85E0000005F000009
:1006C0007098FF1F5897FF1FFC5E00000C5F000032
:1006D000185F00004095FF1F345F0000704700BFA7
:1006E0002DE9F8435C4B4FF0000883F8018083F854
:1006F000028083F80380594CA4F80080A4F802809B
:100700004FF04E09201D41464A4605F0DBF840F601
:10071000B867678140F65556A6811925A5732782CB
:1007200066822575E7822683A576A783E68384F80B
:1007300020506784A68484F826502785668584F82F
:100740002C50E785268684F83250A786E68684F802
:1007500038506787A68784F83E50A4F84070A4F804
:10076000426084F84450A4F84670A4F8486084F8C5
:100770004A50A4F84C70A4F84E6084F8505004F12C
:10078000520041464A4605F09DF8A4F85870A4F876
:100790005A6084F85C50A4F85E70A4F8606084F835
:1007A0006250A4F86470A4F8666084F86850A4F8F5
:1007B0006A70A4F86C6084F86E50A4F87070A4F8A5
:1007C000726084F87450A4F87670A4F8786084F8A5
:1007D0007A50A4F87C70A4F87E6084F88050A4F865
:1007E0008270A4F8846084F88650A4F88870A4F815
:1007F0008A6084F88C50A4F88E70A4F8906084F815
:100800009250A4F89470A4F8966084F89850A4F8D4
:100810009A70A4F89C6084F89E50C4F8A080C4F834
:10082000A480C4F8A880A4F8B080A4F8A670A4F8A6
:10083000A86084F8AA50A4F8AC70A4F8AE6084F85C
:10084000B050C4F8B480C4F8B880C4F8BC80C4F810
:10085000C080BDE8F88300BF5097FF1F4095FF1F81
:100860000170704700B587B0094B1869597B0029A2
:1008700014BF0322002200230093019202930393EA
:10088000012204921A4600F0A1FC07B05DF804FBB7
:1008900084B8FF1F11F4004F03D149BA81800020B2
:1008A0007047FF20704700BF83885BBA9BB201335B
:1008B000C3F30E035BBA8380704700BF83885BBAC3
:1008C000028A12FA83F3C3F30E035BBA8380704784
:1008D00070B582B00446094D2869697B22780123EE
:1008E00000930026019601F09DF8286901F0E4F8D4
:1008F000E0712046FFF7D8FF02B070BD84B8FF1F3B
:1009000070B582B005460F4C0646204616F8041B0B
:1009100000F09AFD20463146022200F071F8204690
:10092000A9682A8A00F06CF82169627B0023009391
:100930002046012301F062F82846FFF7BFFF02B00E
:1009400070BD00BF84B8FF1F70B582B006460C4C66
:100950000546204615F8041B00F076FD2046294682
:10096000022200F04DF82169627B002300932046AB
:10097000012301F043F83046FFF7AAFF02B070BD33
:1009800084B8FF1F70B582B006460D4C0546204660
:1009900015F8041B00F058FD20462946022200F0FD
:1009A0002FF82046B17900F017F82169627B002307
:1009B00000932046012301F021F802B070BD00BF72
:1009C00084B8FF1F0369D3F83801D3F83431C01A53
:1009D000704700BF704700BF0369D3F84422B2F5E7
:1009E000817F09D8D3F84422501CC3F84402134431
:1009F00083F83C11012070470123037100207047E8
:100A000030B40369D3F84442B4F5817F1ED8D3F8DB
:100A10004442C4F581740134D3F844522B4403F5A5
:100A20009E73944202D201220271224632B18D1885
:100A300011F8014B03F8014BA942F9D10369D3F82E
:100A400044121144C3F84412104602E0012303711A
:100A5000002030BC704700BF38B50446084B036027
:100A6000036993F84822022A08D1D3F860522DB1C5
:100A7000284602F097FE284602F052FF204638BD75
:100A8000485F000010B4002202714FF47A74846051
:100A90000273064A026041734FF41A74044A04FB5D
:100AA000012101615DF8044B704700BF485F000001
:100AB0006487FF1F70B504460D46C3681B7813F0AA
:100AC000200F40F0B680836880211970C36812211E
:100AD000197090F84932012B0BD022B9002380F80D
:100AE0004832012070BD531EDBB2012B00F2A380FF
:100AF00000E0012225B94FF08071504B196005E0EC
:100B0000012D03D14FF000714C4B1960022A40F0C7
:100B10008C80D4F860624EB9082002F0FDFE0646D3
:100B2000002102F0E1FDC4F860627EB13379102B40
:100B30000CD1304602F036FE304602F0F1FE0023C2
:100B4000C4F86032012084F8480270BD002D30D115
:100B500033689A8B92B2998B42F008029A83D4F848
:100B60006032197910313648364A42F821001A7934
:100B700053119B0003F1604303F5614302F01F0230
:100B8000012101FA02F21A60D4F860321B689A8BD4
:100B900092B2998B42F002029A83D4F860321B79A8
:100BA00003F1804303F5043300221A7096221A7071
:100BB00033E0012D31D1D4F860321B689A8B92B2A8
:100BC000998B42F008029A83D4F860321979103177
:100BD0001D481C4A42F821001A7953119B0003F169
:100BE000604303F5614302F01F02012101FA02F2A2
:100BF0001A60D4F860321B689A8B92B2998B42F0DB
:100C000002029A83D4F860321B7903F1804303F522
:100C1000043300221A7097221A70002384F8563287
:100C2000022384F84832012070BD012084F8480274
:100C300070BD002070BD012070BD00BF00E100E06C
:100C4000AD2000000082FF1FBD20000010B403464D
:100C50009848814257D10D2A4DD8DFE802F0070CA1
:100C600011161B20252A2F34393E434759682C2062
:100C70000870012043E059682420087001203EE0FC
:100C8000596855200870012039E059684F200870D4
:100C9000012034E059681920087001202FE05968BC
:100CA0001320087001202AE05968452008700120AF
:100CB00025E059680D200870012020E059680B20BC
:100CC000087001201BE0596806200870012016E01A
:100CD000596805200870012011E059680220087049
:100CE00001200CE059680120087008E059680020D4
:100CF0000870012003E05A68002010700D229969E5
:100D000004240C70B3E16C48814253D10C2A49D8B9
:100D1000DFE802F0070C11161B20252A2F34393E7C
:100D2000430059682C20087001203FE059682420B6
:100D3000087001203AE059681E200870012035E053
:100D400059684F200870012030E05968152008705C
:100D500001202BE059680F200870012026E0596817
:100D60000E200870012021E059680C200870012035
:100D70001CE059680A200870012017E05968092012
:100D80000870012012E059680420087001200DE06D
:100D9000596802200870012008E059680020087096
:100DA000012003E05A68002010700C229969042485
:100DB0000C705CE1414881424DD10B2A43D8DFE8F9
:100DC00002F0060B10151A1F24292E33383D5968DE
:100DD0002720087001203AE059685A200870012045
:100DE00035E059681C200870012030E059688520E2
:100DF000087001202BE0596814200870012026E0BB
:100E0000596845200870012021E059680D200870BC
:100E100001201CE059680B200870012017E0596878
:100E200009200870012012E0596803200870012091
:100E30000DE0596802200870012008E05968002080
:100E40000870012003E05A68002010700B22996995
:100E500004240C700BE11A4881424AD1092A40D877
:100E6000DFE802F0050A0F14191E2330353A5968DD
:100E700095200870012038E059685520087001203D
:100E800033E059688520087001202EE0596815204C
:100E90000870012029E0596845200870012024E0ED
:100EA00059680C20087001201FE059680A2008705A
:100EB00001201AE000879303007E5603006CDC02D9
:100EC0000051250259680520087001200DE059687D
:100ED00002200870012008E05968002008700120F5
:100EE00003E05A68002010700922996903240C70ED
:100EF000BDE06148814237D1072A2DD8DFE802F0F2
:100F000004090E13181D222759681F20087001209C
:100F100026E0596885200870012021E059681420D6
:100F2000087001201CE0596845200870012017E076
:100F300059680B200870012012E0596805200870DC
:100F400001200DE0596802200870012008E059686E
:100F500000200870012003E05A680020107007226A
:100F6000996902240C7082E0444881422CD1052A00
:100F700022D8DFE802F003080D12171C59681D2063
:100F8000087001201CE0596814200870012017E047
:100F9000596843200870012012E059680B2008703E
:100FA00001200DE0596803200870012008E059680D
:100FB00000200870012003E05A680020107005220C
:100FC000996901240C7052E02D48814221D1032AF5
:100FD00017D8DFE802F002070C11596814200870D6
:100FE000012012E059680B20087001200DE05968BB
:100FF00003200870012008E05968002008700120D3
:1010000003E05A68002010700322996901240C70D3
:101010002DE01C48814215D112B1012A05D009E00A
:1010200059680B200870012008E0596800200870FA
:10103000012003E05A680020107001229969002401
:101040000C7014E0104881420CD122B95A6800217A
:101050001170012002E05A68002010709969002286
:101060000A7004E05968002008709969087083F8D4
:101070004C225DF8044B704700366E010024F400EA
:1010800000127A0000093D0080841E00F8B5044675
:101090009DF8180000284DD0E5682D7815F0200F38
:1010A00044D147E0012A0ED128B1002B5AD053E099
:1010B000132001F0EDFB012384F84A323F4B1D6001
:1010C000043B1D6060E028B1002B57D050E0102099
:1010D00001F0DEFB002384F84A32394B1D60043BEB
:1010E0001D6051E0012923D1042A0FD128B1002B22
:1010F00052D04BE01D2001F0CBFB042384F84A3290
:10110000304B1E6004331E600120F8BD28B1002B57
:101110004ED047E01A2001F0BBFB032384F84A328B
:10112000294B1D60043B1D600120F8BD0020F8BD67
:101130000120F8BD002B40F2032508BF4FF41975BC
:1011400040F2036640F26467002B08BF3E4684F815
:101150004B320029C6D1A5E71220022101F098FBED
:101160000221A5E71220002101F092FB00219FE758
:101170001120022101F08CFB0221A8E7112000219F
:1011800001F086FB0021A2E70120F8BD1E2002210C
:1011900001F07EFB0221ADE71E20002101F078FB6B
:1011A0000021A7E71F20022101F072FB0221B1E715
:1011B0001F20002101F06CFB0021ABE704A00440DC
:1011C0000CA0044000D004402CB00440F0B583B023
:1011D00004469DF820009DF82C600D4629B92F4942
:1011E0000F6847F040070F6006E0012904D12B4942
:1011F0000F6847F080070F6084F84922002184F8C7
:101200004E123AB9636920221A7022681170E2699D
:10121000117011E06269002837D12DE05B00DBB26C
:101220001370E2694300DBB205E04000C0B2107009
:10123000E2695B00DBB2137000230093204629466D
:101240009DF824209DF82830FFF720FF2046144900
:101250003246FFF7FBFC204629469DF83020FFF779
:1012600029FC94F849321BB9A36880221A7012E055
:10127000A368C0221A700EE02021117022685B0062
:10128000DBB21370E2690023D5E7282111702268D0
:101290009842C3D8C9E703B0F0BD00BF3480044012
:1012A000006CDC022DE9F04F83B082468B4690F84B
:1012B0004A32042B4FD8DFE803F03134030609002B
:1012C000172616242FE01E261D242CE01F261A2484
:1012D00029E02046494601F0A9FA2B46013B7FF45C
:1012E000FDAF2046414601F0A1FA2B46013B7FF4B9
:1012F000FDAF304601F0BEFA18B9013F17F0FF0705
:10130000E7D100218AF84E129AF84A229AF84B3215
:10131000009150465946FFF7B9FE1CE012261324EF
:1013200001E0112610249AF84B32002B304614BFEE
:101330000221002101F0ACFA2046012101F076FAE9
:101340002046012101F0A4FA0B274FF00009502597
:101350004FF00108CDE703B0BDE8F08F2DE9F84369
:10136000054688461646994601F0E2FA0746AB68FC
:101370001A7812F0200F0ED0B4221A7032E0EC6806
:10138000247814F0200F06D1002385F84932AB6889
:10139000B0221A7006E0002EF1D001F0C9FAC01B8D
:1013A0008642ECD8AB681B7813F0200F0ED128468C
:1013B0004146FFF777FFEB681B7813F0200F05D14C
:1013C000002385F84932AB68B0221A70AB681B78ED
:1013D00003F0200303F0FF0023B9042385F84E3205
:1013E000BDE8F88395F84832013BDBB2012B20D8E9
:1013F00001F024F8124B134AB8F1000F18BF13463E
:101400001B78984218DC0F2804DC012089F80000C2
:10141000BDE8F8830A4B0B4AB8F1000F14BF9046A1
:101420009846A0F11003DBB288F800300120BDE837
:10143000F8830120BDE8F8830120BDE8F88300BFF0
:1014400018E400E019E400E00369490083F83C1166
:1014500003690122C3F8442200230371026982F860
:101460004E3270472DE9F04383B0054614461F46BF
:1014700000238DF80730D0F84432002B00F0C880EC
:101480000FB9D0F86472EB6812221A7028463A46F7
:101490000DF10703FFF762FF002800F0B98095F80F
:1014A00048321BB19DF80720002A54D001F040FAC1
:1014B0008146012385F84E3285F84D4200264FF0D3
:1014C00002082BE02B69AA1992F83C211A70EC68EB
:1014D000217811F0020FFBD084F80080EB681978B6
:1014E000C9B211F0100F09D0072385F84E32AB684E
:1014F00080221A70EB6810221A701BE011F0010FA5
:101500000BD01EB9052385F84E3202E0062385F87C
:101510004E32AB6880221A700CE00136D5F84432A6
:101520009E4207D2002FCDD001F002FAC9EB000095
:101530008742C7D8D5F84432B3428CBF0423002376
:1015400085F84E3295F84D32012BAB680CBF8022E6
:10155000B0221A705CE05A1ED2B2012A58D8012279
:1015600085F84E2285F84D420022C5F84022022B14
:1015700014D1D5F84432042B18D80FE013689B68B7
:1015800033B9136800210120187259729972D97207
:10159000136800221A765A769A76DA76AB68F022C9
:1015A0001A702B6995F83C211A7031E0012385F8F7
:1015B0005632D5F8602205F59F70D5F84442033CB9
:1015C00011680B68002308601168012008714B71D5
:1015D0001168CB71116808724B728B72CB721168F3
:1015E0006042C8601068C18BA1B2C1831268D08A02
:1015F000D182D5F8602229691068046901611068F8
:101600000375437510688371B1F1804FB9D3B5E7A5
:1016100003B0BDE8F08300BF2DE9F04383B004467A
:1016200016469DF828700B9D00208DF80700002BB2
:1016300000F04E81B3F5827F03D3082384F84E3245
:1016400046E1C4F850320023C4F83431C4F83831CC
:101650000DB9D4F86452E36812221A7020462A4663
:101660000DF10703FFF77AFE002800F0318194F8AE
:10167000483223B19DF80720002A00F0968001F03F
:1016800057F98046022384F84E3284F84D7223695C
:10169000720042F00102D2B21A70E268137813F0BD
:1016A000020FFBD002231370E3681B78DBB213F048
:1016B000100F09D0072384F84E32A36880221A70D5
:1016C000E36810221A7003E113F0010F06D005231E
:1016D00084F84E32A36880221A70F9E0032384F85C
:1016E0004E32D4F85032012BA3680CBFA822A0229E
:1016F0001A7023691B780226002745E00B7813F047
:10170000020FFBD00E70002D00F0AA8001F010F93E
:10171000C8EB000085428CBF00230123D4F83811A8
:101720000231D4F85022914205D03BB194F85522B1
:1017300022B900E03B46A26882F80090D4F8381144
:101740000131D4F85022914280F09F80002B00F0AC
:10175000918094F85522002A40F0AA808AE0042261
:1017600084F84E2201E084F84E7294F84D22012A4A
:1017700006D11022013A7FF4FDAFA26880211170DA
:1017800023B1012384F855324FF0A809D4F8382149
:10179000D4F850329A4280F09B8094F84E32DBB2FB
:1017A000032B40F09580E168A8E75A1ED2B2012AC7
:1017B00000F28E80022284F84E2284F84D72934209
:1017C00044D1D4F85032042B40D9012384F8563246
:1017D000D4F8603221691868026800220160186834
:1017E000027142711868C271B1F1804F02D31A6858
:1017F000926832B91A6800210120107251729172F8
:10180000D1721A680023137353739373D373D4F88C
:10181000602204F13005D4F85002013811680F69D4
:101820000D61116801250D754B7511688B7111687B
:101830000D724B728B72CB721368414299611368BF
:10184000D98B81B2D9831368DA8AD982A368F0224E
:101850001A702369720042F00102D2B21A7037E0A6
:10186000D4F838210232D4F850329A423FF462AFB1
:101870003B4663E722691178D4F83821501CC4F83C
:101880003801224482F830107AE784F85572A26851
:10189000B021117022691178D4F83821501CC4F895
:1018A0003801224482F83010002B3FF45CAF56E739
:1018B00084F85572A268B021117022691178D4F8A9
:1018C0003821501CC4F83801224482F8301046E711
:1018D00003B0BDE8F08300BF036993F84E32043BC8
:1018E000042B0CD8DFE803F00910050703000120E2
:1018F0007047032070470420704704207047007928
:10190000003018BF012070470220704790F84E3217
:1019100013F0FF0F1BD090F84E32DBB2052B18D01E
:1019200090F84E32DBB2062B15D090F84E32DBB277
:10193000072B12D090F84E32DBB2042B0FD090F868
:101940004E02C0B2082814BF0020012070470120B9
:101950007047012070470120704701207047012027
:10196000704700BF70B5044615460AB9D0F86452F6
:1019700000F0DEFF06462046FFF7C8FF00283AD1F8
:10198000002DF8D000F0D4FF801B8542F3D800F082
:10199000CFFF801B854210D894F84832022B0CD11F
:1019A00094F8563213F0FF0F07D02046FFF7AEFF32
:1019B0000028FAD0042384F84E3294F84E32DBB279
:1019C000012B09D094F84E32DBB2022B04D094F8EC
:1019D0004E32DBB2032B02D1042384F84E32402373
:1019E000013B7FF4FDAF94F84E3213F0FF0F14BFAC
:1019F0000020012070BD002DDFD0C8E7F8B50746F4
:101A00000E461546069C084611461A462346FFF721
:101A100029FD304629462246FFF7A4FF3846FFF746
:101A20005BFFF8BD70B582B004460D461E468BB113
:101A30009DF8183000930799019129463346FFF726
:101A4000EBFD20462946079AFFF78CFF20B1D4F81A
:101A5000380102E0002000E0002002B070BD00BFAD
:101A6000D0F83421D0F838319A4208D2D0F8343145
:101A70005A1CC0F83421184490F8300070474FF0D9
:101A8000FF30704708B50069FFF7EAFF08BD00BFE7
:101A9000D0F83421D0F838319A423DBFD0F83431F3
:101AA000C01890F830004FF0FF30704708B500695B
:101AB000FFF7EEFF08BD00BFD0F83421D0F8383171
:101AC0009A4208D2D0F834315A1CC0F83421184454
:101AD00090F8300070470020704700BF38B50446CA
:101AE000C2681578EDB281680B78DBB213F0200F75
:101AF00000F0C38113F0100F00F0058190F856320A
:101B0000DBB2022B04D090F85632DBB2032B4CD15F
:101B1000D4F860120B689B8B03F080039BB2002B00
:101B200000F0808294F85632DBB2022B40F07A82C9
:101B30006EE2137813F0800FFBD00A79B54B1A7060
:101B4000002384F85632D4F84432013BC4F84032C2
:101B50002369D4F84022224492F83C211A7020E0F4
:101B6000AD4B1A680B7901219940114219D0AB4A4B
:101B70001370D4F860321A79A94B1A70002384F8D4
:101B8000563215F0100F0CD0072384F84E32A3689C
:101B900080221A70E36812221A700023C4F84032BF
:101BA00038BDE36802221A7038BD90F84E32DBB2BD
:101BB000012B56D115F0100F0DD0002380F85632AE
:101BC000072280F84E2280220A70C268122111700A
:101BD000C0F8403238BD15F0010F0FD0002380F857
:101BE0005632D0F840321BB9052380F84E3202E05D
:101BF000062380F84E3280230B702EE0D0F840325E
:101C00000133C0F84032D0F8442293420AD3002373
:101C100080F84E3290F84D32012B0CBF8023B02358
:101C20000B701AE090F85632DBB2012B0ED1022372
:101C300080F85632F1230B70D0F860321A79794B64
:101C40001A70036990F83D211A7006E00369D0F814
:101C50004022024492F83C211A70E36802221A7072
:101C600038BD90F84E32DBB2022B36D115F0100F92
:101C700008D0072380F84E3280230B70C3681222ED
:101C80001A7038BD15F0010F05D0052380F84E32CB
:101C900080230B701DE090F85632DBB2012B0CD183
:101CA000022380F85632E1230B70D0F860321A79A3
:101CB0005C4B1A7003691B780BE0032380F84E32EB
:101CC000D0F85032012B0CBFE823E0230B700369DE
:101CD0001B78E36802221A7038BD90F84E32DBB2EE
:101CE000042B0AD190F84D32012B0CBF8023B02376
:101CF0000B70C36802221A7038BD80230B70C36852
:101D000002221A7038BD90F85632DBB2022B04D092
:101D100090F85632DBB2032B56D1D4F860321A68F1
:101D2000928B02F0800292B2002A00F08C8194F82B
:101D30005622D2B2022A40F086817AE11A79354BD6
:101D40001A70002384F8563294F84E32DBB2042B1A
:101D50001CBF002384F84E32A368B0221A70D4F856
:101D60005032013BC4F83831D4F838315A1CC4F829
:101D7000382122691278234483F8302094F84D32B8
:101D8000012B1DD11023013B7FF4FDAFA3688022FE
:101D90001A7015E0204A12681B79012199401142FE
:101DA0000ED01F4A1370D4F860321A791B4B1A7088
:101DB000002384F8563284F84E32A36880221A70C9
:101DC000E36802221A7038BDD0F838210232D0F808
:101DD00050329A4200F03E8190F84E32DBB2042B32
:101DE00004D190F85532002B00F03481D4F838211A
:101DF0000132D4F850329A4280F03A8194F84E324F
:101E0000DBB2042B40F0298194F85532002B40F0CE
:101E10002F8122E11C8000402C8000401F80004068
:101E20001E8000401B800040002384F84E32A368CF
:101E3000B0221A70D4F838315A1CC4F838212269FB
:101E40001278234483F8302094F84D32012B06D1C8
:101E50001023013B7FF4FDAFA36880221A7094F831
:101E60004E32DBB2042B04D194F85532002B00F033
:101E70000981E36802221A7038BD15F0100F08D0EE
:101E80001023137015F0400F06D1C36802221A7098
:101E900038BD15F0400F60D094F84E32DBB20A2BFB
:101EA00004D1D4F85832002B40F0F08015F0040F24
:101EB0001ED0092384F84E320023C4F84432A368AC
:101EC000D0221A7023691B785B0884F84F32D4F84B
:101ED0005C3203B19847D4F844320BB984F83C31F2
:101EE000236994F83C211A700123C4F8403230E091
:101EF000002384F8543294F84A322BB912206849EE
:101F0000032200F023FC16E0012B05D111206449C7
:101F1000032200F01BFC0EE0032B05D11E206149BB
:101F2000032200F013FC06E0042B04D11F205D49BE
:101F3000032200F00BFC0A2384F84E320023C4F87D
:101F40003831A368C0221A7023691B785B0884F8B3
:101F50004F32E36802221A7038BD13F0100F20D000
:101F600015F0010F15D1D0F84022D0F844329A4232
:101F700008D2D0F840325A1CC0F84022034493F8EB
:101F80003C2100E0002223691A70A368D0221A7055
:101F90003AE0C0230B7003691B78002380F84E32AF
:101FA00032E0002380F8543290F84A322BB91220E4
:101FB0003B49032200F0CAFB16E0012B05D111209A
:101FC0003749032200F0C2FB0EE0032B05D11E208F
:101FD0003449032200F0BAFB06E0042B04D11F2091
:101FE0003049032200F0B2FB23691B78DAB2D4F83F
:101FF0003831B3F5817F07D8D4F83831591CC4F88B
:102000003811234483F83020E36802221A7038BD67
:102010000A79254B1A70A368F0221A70032384F8FA
:102020005632BEE594F85632DBB2032B7FF498ADFE
:102030007FE51A791C4B1A70A368E8221A700323F3
:1020400084F85632BCE694F85622D2B2032A7FF4C2
:10205000A1AE73E6E8230B70C8E6D4F838315A1CF9
:10206000C4F8382122691278234483F83020F6E638
:10207000002384F8553294F84E32DBB2042B7FF4FF
:10208000D3AED4E6012384F85532F2E60023C4F837
:102090003431D4F83801D4F85832984706E700BFF5
:1020A00071210000812100001F80004008B5024816
:1020B0000021FFF713FD08BD6487FF1F08B5024824
:1020C0000121FFF70BFD08BDCC89FF1F10B50446A9
:1020D000C3681B7813F0200F24D1002380F84E3200
:1020E00090F84A321BB9122000F078FB10E0012B67
:1020F00003D1112000F072FB0AE0032B03D11E2054
:1021000000F06CFB04E0042B02D11F2000F066FB02
:10211000D4F8583253B30022C4F83421D4F838012B
:10212000984710BD90F854320133DBB280F8543236
:10213000012B03D890F84932012B17D094F84A327A
:102140001BB9122000F04AFB10BD012B03D1112056
:1021500000F044FB10BD032B03D11E2000F03EFB1A
:1021600010BD042B02D11F2000F038FB10BD00BFB2
:1021700008B502480021FFF7A9FF08BD6487FF1FCB
:1021800008B502480121FFF7A1FF08BDCC89FF1F58
:1021900070B50B4E30460021FEF774FC094D0A4C19
:1021A00030462946224603F0A9F8084E3046012160
:1021B000FEF768FC30462946224603F09FF870BDC2
:1021C00084B8FF1F590A00006087FF1F70B8FF1F07
:1021D0001F2803D8003018BF012070477E2894BF05
:1021E00000200120704700BFF8B50D46124C204674
:1021F000FEF7AAFBE4792046FFF7EAFF10B90E4B81
:102200009B8813B900202870F8BD6F1C2C70012624
:10221000094C2046FEF75CFBE5792846FFF7D8FF1E
:1022200008B9A3881BB900233B703046F8BD07F8F6
:10223000015B0136B6B2ECE75898FF1F2DE9F0417B
:10224000C0B006461D480021FEF724FB01251C4CAA
:10225000DFF878801B4F30466946FFF7C5FF00283E
:1022600029D0092D06D823685B682046394602220A
:10227000984707E0632D05D823685B6820464146F0
:10228000012298472046294601F0F2FA23685B684C
:1022900020460D4902229847684603F04BFC02464F
:1022A00023685B68204669469847204601F094FA07
:1022B0000135ADB2CFE740B0BDE8F0815898FF1FBF
:1022C00040BAFF1FD0620000D4620000685F0000C7
:1022D000044A002353719371D371034A537193716C
:1022E000D371704798B8FF1FACB8FF1F0170017120
:1022F000002383704370C370704700BF00B587B080
:10230000094B1869597B002914BF032200220023BE
:102310000093019202930393012204921A46FEF75E
:1023200055FF07B05DF804FB84B8FF1F70B582B09D
:1023300003460D461646012908BF42700E4C204642
:102340001978FFF781F820462946FEF745FB054638
:1023500020463146FEF740FB50FA85F52169627B45
:102360000023009320460123FFF748FB50FA85F035
:10237000C0B202B070BD00BF84B8FF1F10B50446E4
:10238000C3704270CA430321D2B2FFF7CFFF204689
:102390000221E278FFF7CAFF204601216278FFF7A9
:1023A000C5FF002010BD00BF08B5FFF79FFF08BDA7
:1023B00008B5FFF7A3FF08BD08B5FF2101220023E0
:1023C000FFF7DCFF08BD00BF024B1A6801321A603C
:1023D000704700BF48B9FF1F08B50D4C236813F4C0
:1023E000802F01D000F01CFC236813F4806F01D013
:1023F00001F09CFE236813F4006F01D002F022FA72
:10240000236813F4805FE9D002F0DAFCE6E700BF4E
:102410003480044008B5FFF7DFFF00BF1022014BF6
:102420001A80704700200540704700BF024A1368B9
:102430001844106018467047348CFF1FEFF3138365
:10244000ABB9EFF31083ABB9EFF3058323B10F2BD7
:1024500005D9094A985C03E04FF4807000E0002041
:10246000EFF311833BB1834238BF184670474FF0FA
:10247000FF30704700207047F0E300E010B5154BC7
:102480001C681C6014F4805F05D0134BDB6813B12B
:10249000114BDB68984714F4005F05D00E4B1B69A5
:1024A00013B10D4B1B69984714F0200F05D00A4B50
:1024B0001B6E13B1084B1B6E984714F0100F07D01A
:1024C000054BD3F884301BB1034BD3F884309847C5
:1024D00010BD00BFA0900440C0B8FF1F10B5274B2F
:1024E0001C681C6014F4803F05D0254B1B6813B199
:1024F000234B1B68984714F4003F05D0204B5B68C2
:1025000013B11F4B5B68984714F0010F05D01C4BAB
:102510001B6C13B11A4B1B6C984714F0020F05D0BB
:10252000174B5B6C13B1164B5B6C984714F0080F9C
:1025300005D0134B9B6C13B1114B9B6C984714F057
:10254000040F05D00E4BDB6C13B10D4BDB6C9847C1
:1025500014F4002F05D00A4B5B6E13B1084B5B6E71
:10256000984714F4802F07D0054BD3F880301BB167
:10257000034BD3F88030984710BD00BFA0A00440A3
:10258000C0B8FF1F10B5384B1C681C6014F0080F52
:1025900005D0364B5B6A13B1344B5B6A984714F035
:1025A000100F05D0314B9B6A13B1304B9B6A984793
:1025B00014F0400F05D02D4BDB6A13B12B4BDB6AB7
:1025C000984714F0800F05D0284B1B6B13B1274B95
:1025D0001B6B984714F0200F05D0244B5B6B13B195
:1025E000224B5B6B984714F0010F05D01F4BDB6B40
:1025F00013B11E4BDB6B984714F0020F05D01B4B39
:102600009B6D13B1194B9B6D984714F0040F05D0C7
:10261000164BDB6D13B1154BDB6D984714F4007F3F
:1026200005D0124BDB6E13B1104BDB6E984714F4E0
:10263000807F05D00D4B1B6F13B10C4B1B6F984760
:1026400014F4806F05D0094B5B6F13B1074B5B6FC0
:10265000984714F4006F05D0044B9B6F13B1034BE4
:102660009B6F984710BD00BFA0B00440C0B8FF1FCB
:1026700010B5264B1C681C6014F0010F05D0244BCC
:102680009B6813B1224B9B68984714F0800F05D0CC
:102690001F4B5B6913B11E4B5B69984714F0100F19
:1026A00005D01B4B9B6913B1194B9B69984714F0DC
:1026B000040F05D0164BDB6913B1154BDB69984746
:1026C00014F0080F05D0124B1B6A13B1104B1B6A94
:1026D000984714F0020F05D00D4B9B6B13B10C4BB8
:1026E0009B6B984714F0200F05D0094B1B6D13B15D
:1026F000074B1B6D984714F0400F05D0044B5B6DE2
:1027000013B1034B5B6D984710BD00BFA0C00440E0
:10271000C0B8FF1F10B50B4B1C681C6014F0020FF3
:1027200005D0094B9B6E13B1074B9B6E984714F075
:10273000010F05D0044BDB6F13B1034BDB6F9847E0
:1027400010BD00BFA0D00440C0B8FF1F30B4212886
:1027500031D8042A2FD8DFE802F00709050B03005F
:102760000B2406E00A2404E0082402E00C2400E024
:102770000924124B03EBC0035A68114B114DC3F8E7
:102780009C51114DC3F8A051104DC3F8A451104DE8
:10279000C3F8A8510F4DC3F8AC5172B6136823F4B7
:1027A000702313600C4D45F8201043F0807343EA0A
:1027B0000444146062B630BC704700BFD8620000A9
:1027C0000082FF1F7D240000DD240000852500001D
:1027D0007126000015270000C0B8FF1F094B03EB4E
:1027E000C0035A6872B6136823F0877323F48033EA
:1027F00043F0807313600022034B43F8202062B63D
:10280000704700BFD8620000C0B8FF1F044B002211
:102810001A6004490A60044A106010221A60704766
:1028200014D0034004D0034000D0034021281ED818
:102830000F4B53F8303093F8802212F0FF0F08D07E
:1028400019B1012283F880207047012283F800210A
:102850007047074B03EBC000436821B11A6842F090
:1028600003021A6070471A6822F002021A60704769
:10287000D8620000212806D8044B53F8303093F872
:102880000002C0B270470020704700BFD86200004D
:1028900021284AD8254B03EBC0035B68012911D0DE
:1028A00004291DD0214A52F83020002082F88002ED
:1028B00000292FD0022931D003291FD040F2031262
:1028C0001A607047194A52F83020012182F88012AC
:1028D0004FF4A2721A601A6822F020021A60704740
:1028E000124A52F83020012182F880124FF4A2726D
:1028F0001A601A6842F020021A6070474FF4807222
:102900001A601A6842F002021A601A6822F0010284
:102910001A6070474FF480721A6070474FF48072EB
:102920001A601A6842F003021A607047D862000009
:1029300072B60C4B1B680C4A12680C49096862B6E7
:1029400011F0806F02D0322B88BF0132C3F53B43B8
:102950007F330749A1FB03035B094FF47A7000FB47
:102960000230704718E000E048B9FF1F04ED00E0B6
:10297000ABAAAAAA38B50546FFF7DAFF044625B97F
:1029800038BD013D0AD004F57A74FFF7D1FF001B72
:10299000B0F57A7FF5D200F0F7FFF6E738BD00BF5B
:1029A00010B5264B4FF400021A604FF080721A6087
:1029B0004FF000721A604FF080621A604FF00062B0
:1029C0001A6000201E4B18604BF6FF71043319602B
:1029D00028231C4A1360083213600832136008323F
:1029E0001360083213600832136008321360083233
:1029F00013600922144C226004F5805404342060D2
:102A0000043421600434236008342360143C2260C1
:102A100004F5FE24043420600C4801600C490B606E
:102A200008310B600B4B1A6000F0D0FF4FF4C870F8
:102A3000FFF7A0FF00F074FC10BD00BF08E100E04C
:102A4000048003400C8003400080034008800B405A
:102A50000C800B4000800B4030B40E4B1B7843F0D1
:102A600002020D4C04EBC20460600C4800780028A0
:102A70000CBF8824C82444EA0141074D45F83210B0
:102A800080F00100054A107083F00103014A1370C1
:102A900030BC7047B4B9FF1F0080FF1F2DBAFF1F65
:102AA00010B4431E032B11D872B60A4A52F8230001
:102AB00050B14268074941F82320074A32F81340D1
:102AC0000188611A22F8131062B600E000205DF858
:102AD000044B7047A4B9FF1F48BCFF1F01380328EF
:102AE0000DD872B6074B53F820302BB100200130BF
:102AF0005B68002BFBD100E0002062B6704700202D
:102B0000704700BFF8B9FF1F38B572B601231B49E3
:102B10001B4C5A1812F8012C12F0080F24D09A00FE
:102B200054F832506DB9164B03EBC20108304860BF
:102B3000144943F83210144B1A78013A1A7062B6ED
:102B400038BD42F0010254F832506DB90C4B03EB22
:102B5000C201083048600D4943F832100A4B1A7818
:102B6000013A1A7062B638BD0133052BD1D162B675
:102B70000022054B1A7000F037FC38BD18640000C5
:102B80000080FF1F8800400022BAFF1FC8004000DD
:102B900010B4431E032B37D8400140F010001C4AEC
:102BA000104472B61B4AD25C032A09D8DFE802F04F
:102BB00019021B050830022216E00830042213E037
:102BC000154A52F823201AB9134A42F8231003E099
:102BD000124A52F823205160104A42F8231062B67C
:102BE00012E0032200E005220A4CE25401F108033E
:102BF000436000F00803002B0CBF8823C8230A8819
:102C000043EA0243036062B65DF8044B704700BFBD
:102C10000080FF1F60B9FF1FF8B9FF1F08BAFF1F30
:102C20002DE9F84FA34CDFF8E092DFF8E0A2DFF8DF
:102C3000E0B22578EDB215F0040F1DD09E4B1B7845
:102C400013F0FF0F16D09D4B1B7803F0FF022BB142
:102C5000531EDBB2994A137003B900BE984B1B7820
:102C600003F0FF0233B1531EDBB2954A13700BB968
:102C700000F016FD0423237015F0080F00F0E48225
:102C800099F80030DBB21D0940F021828D4D9E087D
:102C900005EBC6035A6855F83630C3F38303013B8E
:102CA0000C2B00F21082DFE813F0CB01CB010E02F7
:102CB0000E020E020E020E020E02E8010E020E02BB
:102CC0000E020D00804913680B6052684A607F4A0B
:102CD00045F8362000227E490A607A490A618A61F5
:102CE00001217C4A11709BB240F28162934218D854
:102CF000B3F5D06F2ED2B3F5817F00F01E8106D8D8
:102D0000802B00F0C980822B00F0CC8066E140F27D
:102D10000232934200F02681B3F5A06F00F0628189
:102D20005CE142F22102934200F0868107D8B3F5BC
:102D3000086F00F0AB80B3F5106F11D04EE142F296
:102D40002122934200F0418142F22132934200F06D
:102D5000498143E1604B5D68002D40F0188130E10E
:102D6000594B9A78544B1A70564D05F180062B6AD0
:102D700013F0800F03D0686A083800F035FB08357F
:102D8000B542F4D1DFF88C8100263746534AB0585B
:102D900028B1456800F028FB0DB12846F9E700236B
:102DA0004E4973504E4AB3504E4BF05828B14568C7
:102DB00000F01AFB0DB12846F9E70023494973508A
:102DC000494AB35028F8023F484BFB5C023B032BB7
:102DD0000AD8DFE803F0020602060022434BDA5568
:102DE00002E00122414BDA5501370436102ECDD1D5
:102DF00000223F4B1A7001253E4EDFF81C81314FF7
:102E000005EB080313F8013C06F8043B13F0080F28
:102E10002DD000F0C9FA48B1A90007EB451200F126
:102E200008035360344A47F8312007E0AB00002222
:102E300047F833202E4B1A7801321A7000F0B4FA9A
:102E400058B1AB0043F0010307EBC30100F10802E6
:102E50004A601E4A47F8332009E0AB0043F0010303
:102E6000002247F83320224B1A7801321A70AA0048
:102E700042F00201002347F8313042F0030247F8E4
:102E8000323001351D4B9E42BAD11EE20A4B1B78EF
:102E90001B4D2B700127AAE0194D00232B706B707E
:102EA0000227A4E0084B9B88042B37D90F22154B2F
:102EB0001A70C1E0802007402CBAFF1FB5B9FF1F70
:102EC0002EBAFF1F0080FF1F18BAFF1FC800400066
:102ED0004CB9FF1F2DBAFF1F1C640000A4B9FF1FCF
:102EE00050B9FF1FF8B9FF1F08BAFF1F60B9FF1FD5
:102EF00022BAFF1FC420074088004000D4200740AA
:102F000024BAFF1FC02007409020074094200740AC
:102F10009820074046BCFF1F18640000A04A00210B
:102F2000117051709F4A12F8233013F0020F5CD0D9
:102F30009B4D01232B70022759E09B4B9B8803F08C
:102F40007F03042B02DC984A52881AB10F22954B5A
:102F50001A7071E0934A12F8231021F0020102F86E
:102F60002310B2E1904B9B8803F07F03042B02DC1B
:102F70008D4A52881AB10F228A4B1A705CE0894A36
:102F800012F8231041F0020102F823109DE1864B54
:102F90005E889F88854BA3F10C02114633F80C0C18
:102FA000B04209D133F80A0CB84205D1360A032ED3
:102FB0000CBF2F7817891AE00D690C330C32002DE5
:102FC000EBD10F22774B1A7036E0794B1A68794BA8
:102FD0001A60754B9A78784B1A7076E10F22714B14
:102FE0001A7029E000273D4601E002276C4D6E4B28
:102FF000DB889F4228BF1F46402F34BF3E464026F5
:1030000028463146FFF728FD3544BF1B03D13F2E2C
:1030100000F2608110E0402F34BF3E464026284633
:103020003146FFF719FD3544BF1B01D13F2E03D9AF
:10303000624B1D60624B1F8001238AF8003042E022
:10304000594B198842F22103994212D15D4BD81D88
:1030500012F8011B03F8011F8342F9D15A4B1B6878
:10306000862B02D10F22594B1A7000200146FFF720
:10307000F3FC574B45F8363025E0504B1E68BEB187
:103080004F4FB7F80080B8F1400F34BF4546402598
:1030900030462946FFF7E0FCC5EB08039BB23B80B6
:1030A0000BB9402D01D1354400E00025434B1D6094
:1030B0003D4B1B88B3F5A06F05D13B4B00225A70E6
:1030C0009B788BF8003001238AF80030B9E0414E3C
:1030D0009F0806EBC708D8F80420A2F10800013DBC
:1030E000EDB213F0080F47D000F07EF93A4B53F8D9
:1030F00025304BB35A68384941F8252003F10802BE
:10310000C8F80420354A525D032A12D8DFE802F0DD
:1031100002060A0E0321314A51550AE002212F4AC4
:10312000515506E005212D4A515502E004212B4A54
:10313000515518F0080F0CBF8822C8221B8842EA9C
:10314000034346F837307CE0244B5B5D032B0BD800
:10315000DFE803F0777702060022204B5A5570E033
:1031600001221E4B5A556CE018F0080F0CBF0222CA
:1031700003221A4B5A5564E056F837301B0C22F8DC
:10318000083C002B55D0002322F8063C42F8043CB2
:10319000134B53F825302BBB114B43F8250025E08A
:1031A00024BAFF1FC020074018BAFF1F2864000080
:1031B00048B9FF1F58BCFF1F3CBAFF1F4CB9FF1F87
:1031C00020BAFF1F4FBCFF1F50BCFF1FB5B9FF1F28
:1031D000C80040000080FF1FF8B9FF1F60B9FF1F43
:1031E000A4B9FF1F3F4B53F8253058603D4B43F8BF
:1031F00025003D4B33F8151032F8082C0A4423F80B
:10320000152000F0D1F860B100F10803C8F80430CF
:1032100018F0080F354B364A08BF134646F83730CA
:103220000FE0002346F83730324B1A7801321A701B
:1032300007E018F0080F2D4B2D4A08BF134646F83B
:10324000373008232370F4E415F0010F22D02A4907
:1032500002230B700022294B1A70294B2448186056
:10326000284C5C6098602848D8601A619A610D20EB
:10327000264B1870FF232648037008380370183057
:103280000270244A13709F22234B1A7001230B7083
:10329000BDE8F88F15F0800F05D00D221B4B1A707A
:1032A0008022403B1A7015F0020F06D0184B1A7896
:1032B000D2B21A700222083B1A7015F0100F0ED00D
:1032C0001022164B1A70BDE8F88F00200146FFF758
:1032D000C3FBB1E628460021FFF7BEFBACE6BDE824
:1032E000F88F00BF50B9FF1F48BCFF1FC800400047
:1032F0008800400022BAFF1F94200740B4B9FF1F86
:103300000080FF1F64B9FF1FB8B9FF1FC02007402E
:10331000882007408C2007408420074080200740F9
:1033200008B501F0C1FD00231B491A465A50C818C0
:1033300042600833882BF9D1184B1A6842F4802276
:103340001A60154BC3F30721154A1170C3F30741E7
:10335000143211701B0E04321370FF23343A1370B1
:1033600008321370783A13700123843213700021ED
:103370006C3211707C3A137070220A4B1A704FF441
:103380000072A3F241331A60102203F1C04303F527
:10339000C8231A7008BD00BF0080FF1F348004409E
:1033A0009C20074049E400E072B60D4B1A68B2FA5F
:1033B00082F30B2B02D962B6002070474FF0004118
:1033C000D94022EA010206490A6062B6054903EBC8
:1033D000C303DB00C8180022CA504260704700BF18
:1033E000388CFF1F0084FF1F08B50F4BC31A0F4A0C
:1033F000A2FB03131B090B2B14D80D4A12783AB108
:103400000C4A127812F0FF0F02D0FFF77DFB08BDC7
:1034100072B6094A4FF0004121FA03F311681943CB
:10342000116062B608BD00BF0084FF1F398EE3380B
:1034300022BAFF1F2CBAFF1F388CFF1F10B5134B89
:103440001B6853B9124B1B7813F0FF0F18D00320E1
:10345000FFF726FB0D4B1860A8B10C4B186843888A
:103460005A1C03441C7A03889A4206D3FFF7BCFF18
:103470000022064B1A60204610BD4280204610BD37
:103480004FF0FF3010BD4FF0FF3010BD38BAFF1FB6
:103490002CBAFF1F08B50D4B1B6883B90C4B1B786A
:1034A00013F0FF0F08D00320FFF7FAFA074B18605C
:1034B00028B94FF0FF3008BD4FF0FF3008BD034B77
:1034C0001B685A881344187A08BD00BF38BAFF1F1A
:1034D0002CBAFF1F044B9888044B1B681BB11A8839
:1034E0005B88D31A1844704748BCFF1F38BAFF1FC7
:1034F00010B50B4B1B7813F0FF0F0FD0094B18685A
:1035000020B1FFF771FF0022064B1A60032420460A
:10351000FFF7C6FA10B1FFF767FFF8E710BD00BF6D
:103520002CBAFF1F38BAFF1F2DE9F04704460122CD
:10353000374B1A700E46002964D0DFF8E080DFF8C0
:10354000E0909A46334FD8F8003083BB99F80030AA
:1035500013F0FF0F06D100222D4B1A704FF0FF30F1
:10356000BDE8F08747F209550420FFF7B7FA0728AE
:103570000AD801238AF80030FFF716FFC8F80000C8
:10358000A8B900238AF80030013D01D03B7833B15F
:103590000122204B1A704FF0FF30BDE8F08700F099
:1035A000F3F999F8003013F0FF0FDDD1D3E70023D2
:1035B0003B70D8F800104A88C2F14005AE4238BFCF
:1035C000354602F108030B442A444A80761B3DB17C
:1035D000254414F8012B03F8012BAC42F9D100E08B
:1035E00025464B883F2B07D940230B800420FFF74B
:1035F000CFFA0023C8F800300522074B1A700EB12D
:103600002C46A0E70020024B1870BDE8F08700BFF1
:103610002FBAFF1F34BAFF1F2EBAFF1F30BAFF1F89
:103620002CBAFF1F00B583B002AB03F8010D18469A
:103630000121FFF779FF03B05DF804FB10B5144BCF
:103640001B7813F0FF0F21D00122124B1A70124B7E
:10365000196851B10024114B1C704B880B80042059
:10366000FFF796FA0C4B1C600DE0FFF79DFE01463C
:1036700030B10022094B1A700420FFF789FA02E0EA
:103680000122064B1A700022024B1A7010BD00BFB7
:103690002CBAFF1F2FBAFF1F30BAFF1F2EBAFF1F11
:1036A00008B50E4B1B7813F0FF0F16D10C4B1968A1
:1036B00041B14B880B800420FFF76AFA0022084BC7
:1036C0001A6008BDFFF770FE014618B10420FFF72D
:1036D0005FFA08BD0122034B1A7008BD2FBAFF1F05
:1036E00030BAFF1F2EBAFF1F30B472B699B9026804
:1036F0008AB103790F2B0ED827490988194111F097
:10370000010F08D003F1007303F59063B2EB431F80
:1037100001D162B63EE0204B1D882946002341FAC4
:1037200003F212F0010F2DD1012202FA03F4254316
:10373000194A158062B6DAB2027118490C6844F071
:1037400002040C6004390C6844F002040C6082240A
:1037500013490C601A310A7004310A7006390A7074
:1037600007310A7003F1007303F590635B01036096
:1037700000221A605A609A60DA601A615A619A618E
:10378000DA6107E00133102BC9D162B60023036070
:103790001023037130BC70473EBAFF1F40800440C5
:1037A0000080004003790F2B10D8094A137072B6BD
:1037B000084B0279012101FA02F2198821EA02027A
:1037C0001A8062B61023037100230360704700BFA4
:1037D0001A8000403EBAFF1F00B583B0054B1B881E
:1037E000ADF8043003685B6801A90222984703B072
:1037F0005DF804FBE8630000F0B58BB0164622B913
:1038000003681B68C9B298472FE0012A08BF0A263F
:1038100021B930228DF82520212417E021243746B4
:10382000B1FBF6F506FB1515EDB22246092D94BF46
:1038300030353735EDB20DF1280E724402F8245CB4
:10384000B1FBF7F111B1013CE4B2E9E733B1013C5E
:10385000E4B20AAB23442D2203F8242C03685B68EE
:1038600001A92144C4F1220298470BB0F0BD00BF6A
:1038700008B50029BABF49422D2300230A22FFF7C9
:10388000BBFF08BD70B582B004460C4B1B680093AB
:10389000009E0A4D2368DB682046984700280ADA14
:1038A00000F072F82B680193019A921BA3689A4268
:1038B000F0D34FF0FF3002B070BD00BF48B9FF1F1A
:1038C0002DE9F04106460F461546CBB1B3F101088C
:1038D00010D000243046FFF7D5FF87420BD00028D8
:1038E00002DA0123337306E005F8010B0134A04529
:1038F000F0D100E0002400232B702046BDE8F081C9
:103900000020BDE8F08100BF08B5FCF7CDFDFCF755
:10391000E5FE00F039F8FAE708B501F027FD08BD2B
:1039200008B501F02BFD08BD08B5FFF7D3FD08BDB4
:1039300008B5FFF783FD08BD08B5FFF7ABFD08BD6F
:1039400008B5FFF77BFE08BD08B5FFF7D1FD08BD40
:1039500008B50846FFF766FE08BD00BF08B5084673
:103960001146FFF7E1FD08BD704700BF044B002280
:103970001A714FF47A7199601A73024A1A6070478B
:1039800040BAFF1FF863000008B50F4B1B78CBB996
:1039900001220D4B1A70FFF79DFD08B1FFF7E4FF00
:1039A00000F03AFB08B101F055FB00F0C1FE08B190
:1039B00001F0F2FB01F08EF908B101F08FFC00225A
:1039C000014B1A7008BD00BF50BAFF1F60223A4B6E
:1039D0001A70E12201331A70384B1B78082B10D172
:1039E000012203F1804303F56C331A601323344939
:1039F0000B6001F5FF2101F2FC710A60314A13608E
:103A00001FE00A2B0DD139222F4B1A6013232C49AA
:103A10000B6001F5FF2101F2FC710A60294A136075
:103A20000FE00C2B0CBF35223D22274B1A601223CE
:103A300023490B6001F5FF2101F2FC710A60214A64
:103A40001360224B1B7833B10123214A136002F526
:103A50000022136005E000231D4A136002F50022D6
:103A600013601C4B1B78012B06D880231A4A136065
:103A700002F5002213601AE0042B06D88423164AAC
:103A8000136002F50022136011E0082B06D885238D
:103A9000114A136002F50022136008E0102B94BF56
:103AA000862387230C4A136002F50022136001224B
:103AB0000A4B1A70704700BF004007403C8CFF1F44
:103AC0000CB003400CB00B4008B0034052BAFF1FCB
:103AD00020B003403D8CFF1F24B0034051BAFF1FAC
:103AE00030B40023B0FBF2F402FB14041D46092C91
:103AF00094BF30343734E4B2CC54B0FBF2F008B1A8
:103B00000133EFE70D4400226A70934207DD885CC1
:103B1000CC5C8C54C8540132013B9A42F7DB084616
:103B200030BC7047254B1A6842F480621A6000234B
:103B3000234A1370234A1370234A1370234A1370C5
:103B4000234A1370234B1B7813B1152B05D008E0C3
:103B500040F21332204B1A6003E040F213321F4B45
:103B60001A601F4B1B78012B02D0052B05D008E0F3
:103B70004FF451721B4B1A6003E04FF451721A4B11
:103B80001A60C0F34432194B1A70C0F347125A70CE
:103B900000F01F00987204229A700221D9745A759D
:103BA00088221A743C22DA704022114B1A704FF4AA
:103BB0000052A3F229331A60704700BF34800440DA
:103BC000E0BAFF1F59BAFF1FE8BAFF1FE1BAFF1F93
:103BD00058BAFF1F9CBAFF1F40A0044018C0044001
:103BE0003E8CFF1F44A004401CC0044000A00640BF
:103BF0002DE400E0164B9B7803F0EC0300F0030289
:103C0000134310F0040F18BF43F01003104A9370D1
:103C100000F00F03042B04D11346927942F04002C6
:103C20009A710B4B5A7902F0EF0210F0100F18BF87
:103C300042F01002064B5A719B7903F0EF0310F02B
:103C4000200F18BF43F01003014A9371704700BF63
:103C500000A0064010B5144B1B6813F4806F21D0F0
:103C6000124B1B7813F0FF0F06D0104CFFF78CFEA1
:103C7000237813F0FF0FF9D14FF400520C4B1A6068
:103C800000230C4AD37040F203120B490A6004313E
:103C90000A600A4A13700A4A13700A4B1B680BB178
:103CA00001221A7010BD00BF3480044058BAFF1FB3
:103CB00084E100E000A0064040A00440E0BAFF1FFD
:103CC00059BAFF1F54BAFF1F10B50446094A1378AA
:103CD00013F0FF0FFBD120460121FEF7D9FD20464E
:103CE0000021FEF7A3FD044B53F83420034B1A6068
:103CF00010BD00BF58BAFF1FD8620000E4BAFF1F12
:103D000010B40C4609B140F08000184B1B78984263
:103D100028D0174A126812F4806F21D003F07F0375
:103D2000012B02D0052B04D006E00022114B1A60B3
:103D300002E00022104B1A60002C0CBF44226022CB
:103D400000F07F03012B02D0052B05D008E042F4E0
:103D50004072084B1A6003E042F44072064B1A604E
:103D6000024B18705DF8044B704700BF3E8CFF1F7C
:103D70003480044044A004401CC00440114B1B7814
:103D800098421ED0104A126812F4806F17D013B1F7
:103D9000152B04D006E000220C4B1A6002E0002232
:103DA0000B4B1A6010B1152805D008E040F2133211
:103DB000064B1A6003E040F21332054B1A60014BC8
:103DC000187070479CBAFF1F3480044040A0044024
:103DD00018C0044010B50D4B1B6813F4806F12D04F
:103DE00021280CD80A4C0B4B53F8303023600121AA
:103DF000FEF74EFD236800221A70012010BD00203E
:103E0000034B186010BD002010BD00BF348004407B
:103E100054BAFF1FD8620000114B1B6813F4806F67
:103E20001BD0122804D140F202320E4B1A600DE072
:103E3000142804D140F202320B4B1A6006E00B4BFF
:103E40005A7B02F0FE025A7300207047074B5A7BE0
:103E500042F001025A73012070470020704700BFF2
:103E6000348004400CA0044014C0044000A006406C
:103E70002DE9F04107461F4B1B6813F4806F37D0C4
:103E80001D4B1B680BB101221A701C4B1C780134AE
:103E9000402C28BF00241A4D1A4EDFF86C8017E022
:103EA000FEF7CCFA40280FDC337913F0800F0FD0E7
:103EB0002B780133402B28BF002318F80320D2B2FF
:103EC000F271DBB22B7003E0FF2801DDFFF75CFD30
:103ED0002B78DBB29C42E3D0FFB20B4B1F55012283
:103EE0000A4B1A70E4B2054B1C70BC22054BDA7009
:103EF000BDE8F08134800440E4BAFF1FE8BAFF1F38
:103F0000E1BAFF1F00A006405CBAFF1F58BAFF1FAE
:103F10002DE9F84F0746284B1B6813F4806F49D0F2
:103F2000264B1B680BB101221A7007EB010B5F4592
:103F30003DD2DFF89890224EDFF88C80DFF890A019
:103F400099F800400134402C28BF00243578EDB2A8
:103F5000A54220D1BC2388F80330FEF76FFA402831
:103F600011DC98F8043013F0800F10D0337801334F
:103F7000402B28BF00231AF80320D2B288F807206C
:103F8000DBB2337003E0FF2801DDFFF7FDFC33787F
:103F9000DBB29D42E1D017F8013B0AF80430012260
:103FA000084B1A70E4B289F800405F45C8D1BC22C2
:103FB000054BDA70BDE8F88F34800440E4BAFF1F87
:103FC000E1BAFF1F58BAFF1F00A00640E8BAFF1F62
:103FD0005CBAFF1F10B5064B1B7813F0FF0F06D01D
:103FE000034CFFF7D1FC237813F0FF0FF9D110BD7C
:103FF00058BAFF1F064B1B78DBB2064A1278D2B2C2
:1040000093422CBF3F3202F1FF32D01A704700BFFB
:10401000E8BAFF1FE1BAFF1F054B1878C0B2054B85
:104020001B78DBB2984238BF4030C01A704700BFDF
:10403000E0BAFF1F59BAFF1F10B4184B1A78D2B25A
:10404000174B1B78DBB29A4218D001333F2B18D89C
:104050001449C85CC0B2DCB211490C70124909683D
:10406000C9B19A4203D300E00023D31A01E04032E1
:10407000D31A1A2B0FDC00230B700CE04FF0FF302B
:1040800009E0084B1878C0B20021054B1970064BA7
:1040900019680029E8D15DF8044B7047E0BAFF1FAA
:1040A00059BAFF1FA0BAFF1F54BAFF1F094B1A7855
:1040B000D2B2094B1B78DBB29A4207D00133402BB6
:1040C00028BF0023054AD05CC0B270474FF0FF30D4
:1040D000704700BFE0BAFF1F59BAFF1FA0BAFF1F09
:1040E0000D4B1B6813F4806F14D00C4BDA7802F080
:1040F000CB02DA7040225A74DA7842F03402DA7075
:10410000074B1A78D2B2074B1A70074B1B680BB1DA
:1041100000221A70704700BF3480044000A006409F
:1041200059BAFF1FE0BAFF1F54BAFF1F70B43D4BCE
:104130001B7913F0300F33D072B63A4B9B7D03F0EE
:10414000FF022BB9374BDA7940225A7462B627E066
:1041500062B6354B1978C9B2344B1C78E4B2314D94
:10416000334EEB79D8B24B1C402B28BF0023A3421F
:104170001CBFF0541946531E13F0FF02F1D1CAB20E
:10418000294B1A702B4B1B6853B1A1422EBFC4EBB5
:104190000101C4F1400409192729C4BF01221A7082
:1041A000204BDA78D2B212F0800F27D01B7913F0AF
:1041B000800F23D0204B1C78E4B2204B1B78DBB25D
:1041C0009C4210D017491E4D01E0A3420BD0013391
:1041D000402B28BF00230879E85CC0B2C871087D75
:1041E000C0B20728F1D9DBB214490B700D4B1B7913
:1041F00013F0800F02D07C210A4BD97012F0400FCF
:104200000ED0084B1B7913F0400F09D000220D4B44
:104210001A700D4B1B6803B11A703C22014BDA7007
:1042200070BC704700A00640E0BAFF1F59BAFF1FDC
:10423000A0BAFF1F54BAFF1FE8BAFF1FE1BAFF1F61
:104240005CBAFF1F58BAFF1FE4BAFF1F254B1A685C
:1042500042F400621A600023234A1370234A137049
:10426000234A1370234A1370234A1370234B1B787D
:10427000092B02D01A2B05D008E040F21332204B54
:104280001A6003E040F213321E4B1A601E4B1B787B
:104290000A2B02D01F2B05D008E04FF451721B4BA4
:1042A0001A6003E04FF45172194B1A60C0F34432A4
:1042B000184B1A70C0F347125A7000F01F00987222
:1042C00004229A700221D9745A7588221A743C22E9
:1042D000DA704022104B1A704FF40042A3F22B33D5
:1042E0001A607047348004405CBBFF1FF1BAFF1FA7
:1042F00064BBFF1F5DBBFF1FF0BAFF1F3F8CFF1F9A
:104300000CB0044004D00440408CFF1F10B00440A7
:1043100000D0044000B006402FE400E0164B9B782C
:1043200003F0EC0300F00302134310F0040F18BF76
:1043300043F01003104A937000F00F03042B04D1D4
:104340001346927942F040029A710B4B5A7902F06F
:10435000EF0210F0100F18BF42F01002064B5A7116
:104360009B7903F0EF0310F0200F18BF43F0100308
:10437000014A9371704700BF00B0064010B5144B5E
:104380001B6813F4006F21D0124B1B7813F0FF0F42
:1043900006D0104CFFF7F8FA237813F0FF0FF9D18D
:1043A0004FF400420C4B1A6000230C4AD37040F2C9
:1043B00003120B490A6004310A600A4A13700A4A60
:1043C00013700A4B1B680BB101221A7010BD00BF9D
:1043D00034800440F0BAFF1F84E100E000B00640E2
:1043E0000CB004405CBBFF1FF1BAFF1FECBAFF1F0B
:1043F00010B50446094A137813F0FF0FFBD120468D
:104400000121FEF745FA20460021FEF70FFA044B82
:1044100053F83420034B1A6010BD00BFF0BAFF1FE1
:10442000D862000060BBFF1F10B40C4609B140F019
:104430008000184B1B78984228D0174A126812F453
:10444000006F21D003F07F030A2B02D01F2B04D072
:1044500006E00022114B1A6002E00022104B1A60A5
:10446000002C0CBF4422602200F07F030A2B02D0F4
:104470001F2B05D008E042F44072084B1A6003E09D
:1044800042F44072064B1A60024B18705DF8044B00
:10449000704700BF408CFF1F3480044010B00440C0
:1044A00000D00440124B1B78984220D0114A126869
:1044B00012F4006F19D0092B02D01A2B04D006E099
:1044C00000220D4B1A6002E000220C4B1A600928F2
:1044D00002D01A2805D008E040F21332064B1A60C9
:1044E00003E040F21332054B1A60014B187070471D
:1044F0003F8CFF1F348004400CB0044004D00440C3
:1045000010B50D4B1B6813F4006F12D021280CD886
:104510000A4C0B4B53F8303023600121FEF7B8F9F9
:10452000236800221A70012010BD0020034B186080
:1045300010BD002010BD00BF34800440ECBAFF1F46
:10454000D86200000D4B1B6813F4006F13D01728BE
:104550000AD140F202320A4B1A600A4B5A7B42F0EF
:1045600001025A7301207047064B5A7B02F0FE028B
:104570005A73002070470020704700BF3480044009
:1045800008B0044000B006402DE9F04107461F4B3B
:104590001B6813F4006F37D01D4B1B680BB1012251
:1045A0001A701C4B1C780134282C28BF00241A4D8B
:1045B0001A4EDFF86C8017E0FDF740FF40280FDC53
:1045C000337913F0800F0FD02B780133282B28BFBD
:1045D000002318F80320D2B2F271DBB22B7003E093
:1045E000FF2801DDFFF7D0F92B78DBB29C42E3D046
:1045F000FFB20B4B1F5501220A4B1A70E4B2054B58
:104600001C70BC22054BDA70BDE8F0813480044098
:1046100060BBFF1F64BBFF1F5DBBFF1F00B00640F8
:10462000F4BAFF1FF0BAFF1F2DE9F84F0746284BD9
:104630001B6813F4006F49D0264B1B680BB1012295
:104640001A7007EB010B5F453DD2DFF89890224EC0
:10465000DFF88C80DFF890A099F800400134282C16
:1046600028BF00243578EDB2A54220D1BC2388F8BC
:104670000330FDF7E3FE402811DC98F8043013F016
:10468000800F10D033780133282B28BF00231AF86D
:104690000320D2B288F80720DBB2337003E0FF2892
:1046A00001DDFFF771F93378DBB29D42E1D017F8F5
:1046B000013B0AF804300122084B1A70E4B289F871
:1046C00000405F45C8D1BC22054BDA70BDE8F88FC9
:1046D0003480044060BBFF1F5DBBFF1FF0BAFF1FAB
:1046E00000B0064064BBFF1FF4BAFF1F10B5064BB5
:1046F0001B7813F0FF0F06D0034CFFF745F9237822
:1047000013F0FF0FF9D110BDF0BAFF1F064B1B7855
:10471000DBB2064A1278D2B293422CBF273202F1A2
:10472000FF32D01A704700BF64BBFF1F5DBBFF1F85
:10473000054B1878C0B2054B1B78DBB2984238BFE6
:104740004030C01A704700BF5CBBFF1FF1BAFF1FAB
:1047500010B4184B1A78D2B2174B1B78DBB29A42BE
:1047600018D001333F2B18D81449C85CC0B2DCB252
:1047700011490C7012490968C9B19A4203D300E08B
:104780000023D31A01E04032D31A1A2B0FDC002386
:104790000B700CE04FF0FF3009E0084B1878C0B206
:1047A0000021054B1970064B19680029E8D15DF806
:1047B000044B70475CBBFF1FF1BAFF1F1CBBFF1F00
:1047C000ECBAFF1F094B1A78D2B2094B1B78DBB247
:1047D0009A4207D00133402B28BF0023054AD05C02
:1047E000C0B270474FF0FF30704700BF5CBBFF1F87
:1047F000F1BAFF1F1CBBFF1F0D4B1B6813F4006FAA
:1048000014D00C4BDA7802F0CB02DA7040225A74E2
:10481000DA7842F03402DA70074B1A78D2B2074BDA
:104820001A70074B1B680BB100221A70704700BF4B
:104830003480044000B00640F1BAFF1F5CBBFF1F8C
:10484000ECBAFF1F70B43D4B1B7913F0300F33D01F
:1048500072B63A4B9B7D03F0FF022BB9374BDA79E6
:1048600040225A7462B627E062B6354B1978C9B255
:10487000344B1C78E4B2314D334EEB79D8B24B1C3B
:10488000402B28BF0023A3421CBFF0541946531EDF
:1048900013F0FF02F1D1CAB2294B1A702B4B1B68DF
:1048A00053B1A1422EBFC4EB0101C4F14004091968
:1048B0002729C4BF01221A70204BDA78D2B212F035
:1048C000800F27D01B7913F0800F23D0204B1C784A
:1048D000E4B2204B1B78DBB29C4210D017491E4D2E
:1048E00001E0A3420BD00133282B28BF0023087915
:1048F000E85CC0B2C871087DC0B20728F1D9DBB24C
:1049000014490B700D4B1B7913F0800F02D07C21E2
:104910000A4BD97012F0400F0ED0084B1B7913F0E0
:10492000400F09D000220D4B1A700D4B1B6803B1CC
:104930001A703C22014BDA7070BC704700B0064020
:104940005CBBFF1FF1BAFF1F1CBBFF1FECBAFF1FB0
:1049500064BBFF1F5DBBFF1FF4BAFF1FF0BAFF1F50
:1049600060BBFF1F174B1A6842F480521A60002385
:10497000154A1370154A1370154A1370154A1370AF
:10498000154A137040F21331144A11604FF45171FB
:1049900004321160C0F34431114A1170C0F3471161
:1049A000517000F01F009072937013742C23D37019
:1049B00040220C4B1A704FF40032A3F22D331A60D0
:1049C000704700BF34800440D8BBFF1F6DBBFF1F82
:1049D000E0BBFF1FD9BBFF1F6CBBFF1F08C004401B
:1049E00000C0064031E400E0164B9B7803F0EC0376
:1049F00000F00302134310F0040F18BF43F010033C
:104A0000104A937000F00F03042B04D113469279DF
:104A100042F040029A710B4B5A7902F0EF0210F00B
:104A2000100F18BF42F01002064B5A719B7903F029
:104A3000EF0310F0200F18BF43F01003014A9371E9
:104A4000704700BF00C0064010B5144B1B6813F43C
:104A5000805F21D0124B1B7813F0FF0F06D0104C53
:104A6000FEF792FF237813F0FF0FF9D14FF40032D5
:104A70000C4B1A6000230C4AD37040F203120B490E
:104A80000A6004310A600A4A13700A4A13700A4B1A
:104A90001B680BB101221A7010BD00BF34800440A6
:104AA0006CBBFF1F84E100E000C0064008C004406A
:104AB000D8BBFF1F6DBBFF1F68BBFF1F10B50446AF
:104AC000094A137813F0FF0FFBD120460121FDF7AF
:104AD000DFFE20460021FDF7A9FE044B53F83420E9
:104AE000034B1A6010BD00BF6CBBFF1FD8620000F3
:104AF000DCBBFF1F10B40C4609B140F08000104B26
:104B00001B78984219D00F4A126812F4805F12D0B5
:104B100003F07F03082B02D100220B4B1A60002CFC
:104B20000CBF4422602200F07F03082B03D142F423
:104B30004072054B1A60024B18705DF8044B7047C9
:104B4000418CFF1F348004400CC00440704700BFFC
:104B500010B50D4B1B6813F4805F12D021280CD8C0
:104B60000A4C0B4B53F8303023600121FDF790FEC7
:104B7000236800221A70012010BD0020034B18602A
:104B800010BD002010BD00BF3480044068BBFF1F73
:104B9000D86200000D4B1B6813F4805F13D00E2801
:104BA0000AD140F202320A4B1A600A4B5A7B42F099
:104BB00001025A7301207047064B5A7B02F0FE0235
:104BC0005A73002070470020704700BF34800440B3
:104BD00004C0044000C006402DE9F04107461F4BC9
:104BE0001B6813F4805F37D01D4B1B680BB101228B
:104BF0001A701C4B1C780134282C28BF00241A4D35
:104C00001A4EDFF86C8017E0FDF718FC40280FDC27
:104C1000337913F0800F0FD02B780133282B28BF66
:104C2000002318F80320D2B2F271DBB22B7003E03C
:104C3000FF2801DDFEF7A8FE2B78DBB29C42E3D013
:104C4000FFB20B4B1F5501220A4B1A70E4B2054B01
:104C50001C70AC22054BDA70BDE8F0813480044052
:104C6000DCBBFF1FE0BBFF1FD9BBFF1F00C006401E
:104C700070BBFF1F6CBBFF1F38B505460C4629B142
:104C800015F8010BFFF7A8FF013CF9D138BD00BFB3
:104C900010B5064B1B7813F0FF0F06D0034CFEF740
:104CA00073FE237813F0FF0FF9D110BD6CBBFF1F0B
:104CB000064B1B78DBB2064A1278D2B293422CBF65
:104CC000273202F1FF32D01A704700BFE0BBFF1F4E
:104CD000D9BBFF1F054B1878C0B2054B1B78DBB260
:104CE000984238BF4030C01A704700BFD8BBFF1F82
:104CF0006DBBFF1F10B4184B1A78D2B2174B1B783C
:104D0000DBB29A4218D001333F2B18D81449C85C43
:104D1000C0B2DCB211490C7012490968C9B19A429B
:104D200003D300E00023D31A01E04032D31A1A2B38
:104D30000FDC00230B700CE04FF0FF3009E0084B54
:104D40001878C0B20021054B1970064B196800296C
:104D5000E8D15DF8044B7047D8BBFF1F6DBBFF1F48
:104D600098BBFF1F68BBFF1F094B1A78D2B2094BD3
:104D70001B78DBB29A4207D00133402B28BF0023B7
:104D8000054AD05CC0B270474FF0FF30704700BF9B
:104D9000D8BBFF1F6DBBFF1F98BBFF1F054B1A78C9
:104DA000D2B2054B1A70054B1B680BB100221A706A
:104DB000704700BF6DBBFF1FD8BBFF1F68BBFF1F45
:104DC0002F4B1B7913F0200F23D02D4BDB79D9B259
:104DD0002C4B1B780133402B28BF00232A4A127822
:104DE000D2B29A4204D0294AD154D9B2254A11707C
:104DF000274A116869B1274A1278D2B293422EBF6E
:104E0000C2EB0303C2F140029B18272BC4BF01234E
:104E10000B701B4BDB78DBB213F0800F1CD0184AF1
:104E2000127912F0800F17D01B4A1178C9B2194AB3
:104E30001278D2B2914203D16C21114AD1700BE0A9
:104E40000132282A28BF00221449885CC0B20C49CC
:104E5000C871D2B20F490A7013F0400F0ED0084B40
:104E60001B7913F0400F09D000220D4B1A700D4B27
:104E70001B6803B11A702C22014BDA70704700BF17
:104E800000C00640D8BBFF1F6DBBFF1F98BBFF1FB4
:104E900068BBFF1FD9BBFF1FE0BBFF1F70BBFF1F1D
:104EA0006CBBFF1FDCBBFF1F00B585B072B61B4B90
:104EB00070221A7041211A4A11700F21013A1170A3
:104EC00080221A701A46137813F0800FFBD0154B0E
:104ED000186862B6144B98429CBF00EB80004000FB
:104EE00001A90A22FEF7FCFD9DF804307BB908E019
:104EF00001A9595C31B19180023201330A2BF7D1FB
:104F000000E0002301335B00084A137003E0074A06
:104F100053800123ECE705B05DF804FB000002407C
:104F200007000240080002407F969800D08CFF1FC7
:104F300008B503681B68C9B2984708BD08B503687F
:104F40001B68C9B2984708BD08B503681B68C9B299
:104F5000984708BD08B503681B68C9B2984708BDE3
:104F600008B54B0803F1B76000F55840B0FBF1F00D
:104F7000FEF7D8FD08BD00BF10B514464B0803F17D
:104F8000B76000F55840B0FBF1F0FEF7CBFD2046CE
:104F9000FEF730FE10BD00BF08B5FEF75BFE08BD92
:104FA00008B50846FEF790FE08BD00BF08B50846E4
:104FB000FEF7E4FE08BD00BF08B508461146FEF73F
:104FC0009FFE08BD08B50846FEF704FF003018BF75
:104FD000012008BD08B50846FEF71EFF003018BFC7
:104FE000012008BD08B5FFF717F808BD08B5FFF7A1
:104FF0005DF808BD08B5FFF71FF808BD08B5FEF756
:10500000E9FF08BD08B5FFF76BF808BD08B5FEF766
:10501000F1FF08BD08B50846FEF72AFF012008BDCC
:1050200008B50846FEF724FF012008BD10B5144658
:1050300008461146FEF76CFF204610BD38B50D46F8
:10504000084600F077FD044628462146FEF760FF3B
:10505000204638BD704700BF044B00221A714FF440
:105060007A7199601A73024A1A607047E4BBFF1F95
:105070007864000008B503681B68C9B2984708BD8A
:1050800008B503681B68C9B2984708BD08B503682E
:105090001B68C9B2984708BD08B503681B68C9B248
:1050A000984708BD08B54B0803F1B76000F55840B4
:1050B000B0FBF1F0FFF7CAF808BD00BF10B5144609
:1050C0004B0803F1B76000F55840B0FBF1F0FFF773
:1050D000BDF82046FFF722F910BD00BF08B5FFF765
:1050E0004DF908BD08B50846FFF782F908BD00BFB5
:1050F00008B50846FFF7D6F908BD00BF08B5084651
:105100001146FFF791F908BD08B50846FFF7F8F911
:10511000003018BF012008BD08B50846FFF712FA95
:10512000003018BF012008BD08B5FFF701FB08BD1E
:1051300008B5FFF747FB08BD08B5FFF709FB08BD39
:1051400008B5FFF7D3FA08BD08B5FFF755FB08BD52
:1051500008B5FFF7DBFA08BD08B50846FFF714FAF3
:10516000012008BD08B50846FFF70EFA012008BD6A
:1051700010B5144608461146FFF756FA204610BDF2
:1051800038B50D46084600F0D5FC044628462146B1
:10519000FFF74AFA204638BD704700BF044B002293
:1051A0001A714FF47A7199601A73024A1A60704743
:1051B000F4BBFF1FD864000008B503681B68C9B2C0
:1051C000984708BD08B503681B68C9B2984708BD71
:1051D00008B503681B68C9B2984708BD08B50368DD
:1051E0001B68C9B2984708BD08B54B0803F1B76002
:1051F00000F55840B0FBF1F0FFF7B4FB08BD00BF6D
:1052000010B514464B0803F1B76000F55840B0FBE9
:10521000F1F0FFF7A7FB2046FFF7E6FB10BD00BF4C
:1052200008B5FFF711FC08BD08B50846FFF746FCB6
:1052300008BD00BF08B50846FFF788FC08BD00BFE1
:1052400008B508461146FFF755FC08BD08B50846E5
:10525000FFF77EFC003018BF012008BD08B50846E6
:10526000FFF798FC003018BF012008BD08B5FFF714
:1052700031FD08BD08B5FFF777FD08BD08B5FFF79C
:1052800039FD08BD08B5FFF703FD08BD08B5FFF7F8
:1052900085FD08BD08B5FFF70BFD08BD08B508463C
:1052A000FFF79AFC012008BD08B50846FFF794FCFB
:1052B000012008BD10B5144608461146FFF7DCFC76
:1052C000204610BD38B50D46084600F033FC0446B4
:1052D00028462146FFF7D0FC204638BD704700BF66
:1052E000044B00221A714FF47A7199601A73024AC2
:1052F0001A60704704BCFF1F38650000034608466B
:10530000194600F001B800BF10B40C461346014620
:10531000224602205DF8044B00F03CBC70B50F4EF5
:105320000F4D761BB61007D0043D0024013455F80C
:10533000043F9847A642F9D10A4E0B4D761B01F067
:1053400029F9B61008D0043D0024013455F8043F73
:105350009847A642F9D170BD70BD00BFA06500009E
:10536000A0650000C4650000A0650000024B014676
:10537000186800F00BB800BF1091FF1F024B0146E8
:10538000186800F0D1BC00BF1091FF1F2DE9F04F4D
:1053900001F10B05162D83B0064627D935F0070518
:1053A00027D4A94225D8304600F0D6FAB5F5FC7FBF
:1053B00026D2C14F4FEAD50C07EBCC03DC689C42E8
:1053C00000F0D2816368E268A16823F003032344FC
:1053D00030465D68CA6045F0010591605D6000F08F
:1053E000BDFA0834204603B0BDE8F08F1025A9426D
:1053F000D9D900240C232046336003B0BDE8F08FD8
:105400005FEA552C00F08A80BCF1040F00F2608145
:105410004FEA951C0CF1380C4FEA4C01A64F07EBF4
:105420008101CC68A14205D10CE0002B7ADAE46856
:10543000A14207D0626822F00302531B0F2BF4DD58
:105440000CF1FF3C0CF1010C9B4B3C6903F1080E85
:10545000744500F07E81616821F003014A1B0F2A28
:1054600000F36481002AC3F814E0C3F810E06ADA9C
:10547000B1F5007F80F03A81C90803EBC1004FEA23
:10548000A1085A688168A1604FF0010909FA08F87B
:1054900048EA0202E0605A608460CC604FEAAC03E4
:1054A0000120984090425BD8024206D12CF0030CB8
:1054B000400002420CF1040CFAD007EBCC08444641
:1054C000E146E3689C4207D145E1002A80F256811B
:1054D000DB689C4200F03F81596821F003014A1BC0
:1054E0000F2AF2DD1C46D3F80CC054F8088F591966
:1054F00045F0010942F00105C3F804903046C8F8B0
:105500000CC0CCF8088079613961C1F80CE0C1F8B1
:1055100008E04D608A5000F021FA63E77E214FF0E9
:105520003F0C7BE72244E3685068A16840F0010526
:10553000CB6030469960556000F010FA0834204680
:1055400003B0BDE8F08F214430464B6843F00103BF
:105550004B6000F003FA0834204603B0BDE8F08F3A
:10556000BC68636823F00309A94504D3C5EB0903AC
:105570000F2B00F39180514B514A19681368013386
:1055800005EB010A04EB090B00F061810AF5805A72
:105590000AF10F0A2AF47F6A2AF00F0A30465146B0
:1055A000019200F0DDF9B0F1FF3F8046019A00F072
:1055B0000081834500F2FA80DFF810C1DCF800308A
:1055C000C3455344CCF8003000F04A8112683C498E
:1055D00001321BBFCBEB080B5B44C1F80080CCF859
:1055E000003018F0070300F01381C3F10802C3F57F
:1055F000805390440833C244CAF30B0ACAEB030A2F
:1056000051463046CDF804C000F0AAF9431CDDF83D
:1056100004C000F03581C8EB0002524442F00102A0
:10562000DCF80030C7F808805344BC42C8F80420B6
:10563000CCF80030DFF894A015D0B9F10F0F40F28C
:10564000EA806168A9F10C0222F0070201F0010E64
:10565000A118052042EA0E0E0F2AC4F804E04860A3
:10566000886000F21181174ABC6811688B4288BFBC
:105670001360154A11688B4288BF1360626822F07C
:1056800003029542C5EB020301D80F2B04DC304620
:1056900000F064F90024A5E6621943F0010345F027
:1056A000010565603046BA60536000F057F9083470
:1056B000204603B0BDE8F08F1491FF1F1CBCFF1FF4
:1056C0002095FF1F18BCFF1F14BCFF1F20BCFF1F2D
:1056D000BCF1140F61D9BCF1540F00F28F804FEA76
:1056E000153C0CF16E0C4FEA4C0197E64B0A042B6B
:1056F00058D9142B00F2AE8003F15B02500007EB87
:105700008000DFF8BC818368834200F08A805A6899
:1057100022F00302914202D29B689842F7D1D968E5
:105720007A68E160A3608C60DC60B7E6611942F0E2
:10573000010745F001056560304659611961C1F8FE
:105740000CE0C1F808E04F608A50083400F006F918
:1057500048E65A68A2E609F1010919F0030F04F1BD
:1057600008047FF4AEAE2DE004F108036469A3429F
:1057700008BF0CF1020C3FF467AE23E619441C4647
:105780004868DB6854F8082F40F001054D6030464A
:10579000D3609A6000F0E2F824E60CF15B0C4FEA6B
:1057A0004C013BE68A0938325000A8E7BC423FF47E
:1057B00003AFBC68626822F0030262E7D8F8008099
:1057C00098457BD11CF0030FA8F108030CF1FF3CB6
:1057D000F4D17B6823EA00037B60400098423FF6E7
:1057E000BFAE00283FF4BCAE0342CC467FF465AEAA
:1057F000400003420CF1040CFAD05EE6BCF5AA7F2F
:105800001AD84FEAD53C0CF1770C4FEA4C0105E66B
:105810004FF48053EFE60123C8F8043044460022D9
:105820002FE791100120D8F8042000FA01F10A4373
:10583000C8F80420194674E740F254539C451BD81D
:105840004FEA954C0CF17C0C4FEA4C01E6E50AF16D
:10585000100AA3E6542B1FD80A0B6E3250004EE7F5
:10586000CBF30B0100297FF4B1AE0AEB0901BA6852
:1058700041F001015160F6E6FC214FF07E0CCDE5D0
:1058800001224FF0000ACBE604F10801304600F097
:105890004BFADAF80030E6E6B3F5AA7F03D8CA0B74
:1058A000773250002BE740F25452934203D88A0CCF
:1058B0007C32500023E7FC207E2220E77B688CE7C7
:1058C0001491FF1FF0B4840743D0541E002A3ED029
:1058D000CDB2034603E0621E002C38D0144603F814
:1058E000015B9A07F7D1032C2AD9CDB245EA0525E9
:1058F0000F2C45EA054515D9A4F110073F0903F11E
:10590000100606EB07161A46156055609560D560BF
:105910001032B242F8D104F00F040137032C03EB2C
:1059200007130DD91E462246043A032A46F8045BA3
:10593000FAD8221F22F003020432134404F00304B5
:105940002CB1C9B21C4403F8011BA342FBD1F0BC2B
:10595000704714460346C6E7704700BF704700BF54
:1059600038B5074C0023054608462360FCF75EFD6A
:10597000431C00D038BD2368002BFBD02B6038BD02
:105980005CBCFF1FC9B2F0B4002947D085070FD017
:105990000278002A3FD091423ED0431C05E013F824
:1059A000012B002A37D0914236D09A071846F6D1FB
:1059B000036841EA012747EA074783EA0702A2F1A1
:1059C0000135A3F1013425EA020224EA030313435B
:1059D00013F0803F11D1021D104652F8043B83EAB8
:1059E0000704A4F10136A3F1013526EA040425EAEF
:1059F0000303234313F0803FEED00378002B39D00C
:105A0000994209D0431C01E0914205D0184613F891
:105A1000012B002AF8D11046F0BC704784070BD048
:105A20000378002BF8D0431C03E002780133002AEE
:105A3000F2D099071846F8D10368A3F1013222EA9F
:105A4000030313F0803F0AD1031D184653F8042BBB
:105A5000A2F1013121EA020212F0803FF5D0037871
:105A6000002BD9D0431C184601330278002AFAD102
:105A7000F0BC70471846CFE780EA0102844612F076
:105A8000030F4FD111F0030F32D14DF8044D11F037
:105A9000040F51F8043B0BD0A3F101329A4312F0EA
:105AA000803F04BF4CF8043B51F8043B16D100BFC3
:105AB00051F8044BA3F101329A4312F0803FA4F154
:105AC00001320BD14CF8043BA24312F0803F04BFDB
:105AD00051F8043B4CF8044BEAD023460CF8013B48
