:1000000000800020BD010000E93B0000AD3B000086
:10001000AD3B0000AD3B0000AD3B0000AD3B000040
:10002000AD3B0000AD3B0000AD3B0000E93B0000F4
:10003000E93B0000AD3B0000E93B00009D3B0000B8
:10004000E93B0000E93B0000E93B0000E93B000020
:10005000E93B0000E93B0000E93B0000E93B000010
:10006000E93B0000E93B0000E93B0000E93B000000
:10007000E93B0000E93B0000E93B0000E93B0000F0
:10008000E93B0000E93B0000E93B0000E93B0000E0
:10009000E93B0000E93B0000E93B0000E93B0000D0
:1000A0006D3500007D350000E93B0000E93B0000B4
:1000B000E93B0000E93B0000E93B0000E93B0000B0
:1000C000E93B0000E93B0000E93B0000E93B0000A0
:1000D000E93B0000E93B0000E93B0000E93B000090
:1000E000E93B0000E93B0000E93B0000E93B000080
:1000F000E93B0000B1590000E93B0000C960000085
:10010000E93B000045660000E93B0000E93B0000D8
:10011000E93B0000E93B0000E93B0000E93B00004F
:10012000E93B0000E93B0000E93B0000E93B00003F
:10013000E93B0000E93B0000E93B0000E93B00002F
:10014000E93B0000E93B0000E93B0000E93B00001F
:10015000E93B0000E93B0000E93B0000E93B00000F
:10016000E93B0000F5430000E93B0000E93B0000EB
:10017000E93B0000E93B0000E93B0000E93B0000EF
:10018000E93B0000E93B0000E93B0000E93B0000DF
:10019000E93B0000E93B0000E93B0000E93B0000CF
:1001A000E93B0000E93B0000E93B0000E93B0000BF
:1001B000E93B0000E93B0000E93B0000574B4CF2F3
:1001C000205210B51A804DF628121A8000BF00BFC9
:1001D00003F00EFD524B4FF010621A60514A9A60C4
:1001E000514ADA60A3F53043203B1A6812F480725A
:1001F00004D14E490A604FF4A8521A604C4B1A7849
:10020000110703D51A7842F008021A70494B4A4C7C
:100210004A482A221A704A4A00239918A14203D256
:10022000195899500433F8E7464B474900228B424E
:1002300002D243F8042BFAE74448454900235A58B0
:100240001A500433B3F5DE7FF9D1424B424A802184
:1002500003F8011B9342FBD1404B3C4A1A60404BD0
:100260000A221A70A3F5805324225A70A0221A7011
:100270009A799207FCD59A79D406FCD4394A9379B5
:1002800003F00C03082B374BF9D103221A714022DB
:100290005A719A799006FCD5324A9179314B4906C8
:1002A000FBD5314A314911600221516020221A7078
:1002B0009A7902F00C020C2AFAD12D4B2D4A1A60C1
:1002C0002D4B4BF67F321A6000225A60072243F80A
:1002D000042C2A4AC3F80C2D62B603F04BFF134BD3
:1002E0001B68DA0705D5264803F07AFE254B264A17
:1002F0001A60264B1B785B0609D5224C224A2368DC
:10030000934204D11E4803F06BFE0023236007F0E4
:10031000B9F803F073FC04F09FFEFEE70E200540E1
:1003200030800440823F04000100002B14D00340C1
:1003300002D0074000E007406095FF1FD8B60000DC
:100340006087FF1F6095FF1FA4DCFF1F0082FF1F57
:100350000000000000E400E05FE400E008ED00E0E1
:100360000050064000400640448004400000131145
:1003700004800440C010050014E000E000002020CC
:10038000FAB4A8571CE00340A5C3945A00F00740F4
:10039000FFFFFFFFFFFFFFFFFFFFFFFFFFFFFFFF6D
:1003A000FFFFFFFFFFFFFFFFFFFFFFFFFFFFFFFF5D
:1003B000FFFFFFFFFFFFFFFFFFFFFFFFFFFFFFFF4D
:1003C000FFFFFFFFFFFFFFFFFFFFFFFFFFFFFFFF3D
:1003D000FFFFFFFFFFFFFFFFFFFFFFFFFFFFFFFF2D
:1003E000FFFFFFFFFFFFFFFFFFFFFFFFFFFFFFFF1D
:1003F000FFFFFFFFFFFFFFFFFFFFFFFFFFFFFFFF0D
:10040000FFFFFFFFFFFFFFFFFFFFFFFFDEF9FFFF23
:1004100010B5054C237833B9044B13B10448AFF33E
:1004200000800123237010BD6095FF1F00000000B5
:10043000D8B6000008B5064B1BB106480649AFF315
:1004400000800648036813B1054B03B1984708BD07
:1004500000000000D8B600006495FF1F6095FF1FE4
:100460000000000038B505460C46084607F050FD70
:1004700002462B685B6828462146984738BD00BF76
:10048000F8B50278042A10D0064600254FF6FF740E
:100490000F4F3846214603F0FBF804460135ADB254
:1004A00016F8012F042AF4D102E000254FF6FF745C
:1004B000084E33685B68304607490C22984730463F
:1004C000294604F0BFFD304604F070FD2046F8BD1B
:1004D0008095FF1F84DAFF1F54A900000B78042BBE
:1004E00014D00D2B0DD00A2B0BD04A1C114600F84E
:1004F000013B12F8013B042B08D00D2B01D00A2B35
:10050000F4D1037000234370481C70470021017030
:10051000084670470B782BB100F8013B11F8013FFA
:10052000002BF9D10A230370042300F8013F704720
:1005300070B504463D2107F005FB00282CD12F4D56
:100540002846214603F080F904462846214603F058
:10055000DFF9002845D02046294907F0B7FE0028DA
:1005600041D12046274907F0B1FE00283DD1204661
:10057000254907F0ABFE002839D12046234907F072
:10058000A5FE002835D12046214907F09FFE00280E
:1005900014BFEF20FE2070BD461C00220270174DD4
:1005A0002846214603F050F904462846214603F028
:1005B0008BF92846214603F0EFF92846314603F02F
:1005C00043F90546204607F0A3FC034620180130F6
:1005D0003D22E254A8420ED0294607F03BFC002001
:1005E00070BDFE2070BDDF2070BDAF2070BDBF208C
:1005F00070BDCF2070BD002070BD00BF8095FF1F73
:1006000064A9000070A900007CA9000088A900006E
:1006100098A9000010B50D4C23685B6820460C4972
:100620001122984720460B4B598804F00BFD236894
:100630005B68204608491F229847204604F0B6FC14
:10064000064B1A8801321A8010BD00BF84DAFF1FE2
:10065000A0A900008095FF1FB4A900007C95FF1F92
:1006600070B588B006463D2107F06CFA044640B9E3
:100670009248934903F0F4F9924B1A8801321A8098
:100680001AE1451C002303708F4A1380284607F0A7
:100690003FFC102804D989488C4903F0E1F90BE1AB
:1006A0006846294607F0D6FB3046894907F0C4FA68
:1006B00038BB2846874907F023FA002800F0F48069
:1006C0002846854907F01CFA002800F0ED802846EE
:1006D000824907F015FA002800F0E6802846804994
:1006E00007F00EFA002800F0DF8028467D4907F069
:1006F00007FA002800F0D88070487B4903F0B0F971
:10070000D2E03046794907F097FA88B9637863B147
:100710006A48694603F04CF8754B984240F0C48033
:100720006648744903F09CF9BEE0FFF773FFBBE035
:100730003046714907F080FA60B96048694603F0B5
:1007400037F86B4B984240F0AF805C48694903F042
:1007500087F9A9E03046694907F06EFA68B9574849
:10076000694602F0D1FF4FF6FF73984240F09C803B
:100770005248634903F074F996E03046614907F046
:100780005BFA68B94D48694602F0BEFF4FF6FF7349
:10079000984240F089804948594903F061F983E063
:1007A0003046594907F048FA60B94448694602F0B2
:1007B000ABFF4FF6FF73984276D14048504903F0A3
:1007C0004FF971E03046514907F036FA50B93B48CD
:1007D000694603F009F9002866D138484C4903F00E
:1007E0003FF961E030464B4907F026FA50B93348EB
:1007F000694603F0F9F8002856D13048464903F01D
:100800002FF951E03046454907F016FA50B92B4808
:10081000694603F0E9F8002846D12848404903F02A
:100820001FF941E030463F4907F006FA20BB284651
:100830003D4907F065F9002836D028463B4907F0C6
:100840005FF9002830D02846394907F059F958B3E4
:100850002846384907F054F930B32846364907F09E
:100860004FF908B32846354907F04AF9E0B1134873
:10087000334903F0F5F817E03046324907F0DCF968
:1008800070B92846304907F03BF968B128462F492E
:1008900007F036F940B109482D4903F0E1F803E0CB
:1008A00006482C4903F0DCF83D232370054B064A2B
:1008B00011881A880A441A8008B070BD8095FF1FFD
:1008C000D4A900007E95FF1FB0B8FF1FF0A900005B
:1008D0002CAA000008AA000010AA000014AA000018
:1008E0001CAA000020AA000024AA000034AA0000CC
:1008F0008051010040AA000050AA00005CAA00003C
:1009000068AA00007CAA000088AA00009CAA000037
:1009100094AA0000A8AA0000A0AA0000B0AA0000A3
:10092000BCAA0000D0AA0000D4AA0000D8AA0000E7
:10093000DCAA0000E0AA0000E4AA0000ECAA000083
:10094000F4AA00000CAB000010AB000014AB0000D8
:1009500018AB00002CAB000070B505463D2107F038
:10096000F1F8044640B95A485A4903F079F85A4B0D
:100970001A8801321A8070BD461C00230370574A42
:100980001380304607F0C4FA082804D95048544967
:1009900003F066F870BD2846524907F097FCE0B1B5
:1009A0006378BBB14A48A91D02F0C4FFFF2804D1F7
:1009B00047484D4903F054F881E04548314602F07C
:1009C000A3FE4FF6FF73984279D14148474903F09F
:1009D00047F874E0FFF71EFE71E02846444907F02F
:1009E00075FCE8B16378C3B1394805F1080102F03C
:1009F000A1FFFF2804D136483B4903F031F85EE0FF
:100A00003348314602F080FE4FF6FF73984256D1CC
:100A10002F48364903F024F851E0FFF7FBFD4EE084
:100A20002846344907F052FC00B36378DBB128480C
:100A300005F1080102F07EFFFF2804D124482A496D
:100A400003F00EF83BE02248314602F0B1FFC0B29D
:100A5000192834D0282832D0322830D01C482649D2
:100A600002F0FEFF2BE0FFF7D5FD28E028462349E2
:100A700007F02CFCF8B16378D3B1154805F10C01EF
:100A800002F058FFFF2804D11148174902F0E8FF8F
:100A900015E030461A4907F033F880B1304619495D
:100AA00007F02EF858B10A48174902F0D9FF06E0BE
:100AB000FFF7B0FD03E00648144902F0D1FF3D23E3
:100AC0002370054B054A11881A880A441A8070BDA4
:100AD0008095FF1FD4A900007E95FF1FB0B8FF1FAF
:100AE000F0A9000044AB00004CAB000068AA000075
:100AF00068AB000074AB000080AB000090AB00005E
:100B000014AB000010AB0000A0AB00002CAB000049
:100B100070B505463D2107F015F8044640B95A481E
:100B20005A4902F09DFF5A4B1A8801321A8070BD53
:100B3000461C00230370574A1380304607F0E8F93B
:100B4000082804D95048544902F08AFF70BD28464D
:100B5000524907F0BBFBE0B16378BBB14A48A91D1D
:100B600002F0E8FEFF2804D147484D4902F078FF23
:100B700081E04548314602F0C7FD4FF6FF739842C9
:100B800079D14148474902F06BFF74E0FFF742FD1D
:100B900071E02846444907F099FBE8B16378C3B196
:100BA000394805F1080102F0C5FEFF2804D1364896
:100BB0003B4902F055FF5EE03348314602F0A4FDA8
:100BC0004FF6FF73984256D12F48364902F048FF3E
:100BD00051E0FFF71FFD4EE02846344907F076FB51
:100BE00000B36378DBB1284805F1080102F0A2FEEA
:100BF000FF2804D124482A4902F032FF3BE0224872
:100C0000314602F0D5FEC0B2192834D0282832D09F
:100C1000322830D01C48264902F022FF2BE0FFF793
:100C2000F9FC28E02846234907F050FBF8B1637827
:100C3000D3B1154805F10C0102F07CFEFF2804D168
:100C40001148174902F00CFF15E030461A4906F02A
:100C500057FF80B13046194906F052FF58B10A4893
:100C6000174902F0FDFE06E0FFF7D4FC03E006485A
:100C7000144902F0F5FE3D232370054B054A118807
:100C80001A880A441A8070BD8095FF1FD4A90000FD
:100C90007E95FF1FB0B8FF1FF0A90000C4AB000095
:100CA0004CAB000068AA0000CCAB0000D8AB000041
:100CB00080AB0000E4AB000014AB000010AB000000
:100CC000A0AB00002CAB000070B505463D2106F03E
:100CD00039FF044640B97748774902F0C1FE774BA7
:100CE0001A8801321A8070BD461C00230370744AB2
:100CF0001380304607F00CF9082804D96D48714973
:100D000002F0AEFE70BD28466F4906F095FF90B91F
:100D100063786BB16748314602F0F6FC4FF6FF731B
:100D2000984240F0BD806348684902F099FEB7E000
:100D3000FFF770FCB4E02846654906F07DFF90B9E6
:100D400063786BB15B48314602F0DEFC4FF6FF730F
:100D5000984240F0A58057485C4902F081FE9FE030
:100D6000FFF758FC9CE028465A4906F065FFB8B9E1
:100D7000637893B14F48314602F01AFEC0B2192889
:100D800000F08E80282800F08B80322800F08880C8
:100D90004848514902F064FE82E0FFF73BFC7FE0E7
:100DA00028464E4907F092FAA8B1637883B13046DD
:100DB0004B4906F0A5FE002872D03046494906F09E
:100DC0009FFE00286CD03B48474902F049FE67E08F
:100DD000FFF720FC64E02846444906F02DFF88B95F
:100DE000637863B13348314602F08EFC4FF6FF73EF
:100DF000984255D12F48354902F032FE50E0FFF7B6
:100E000009FC4DE028463A4906F016FF88B9637898
:100E100063B12848314602F077FC4FF6FF739842E1
:100E20003ED12448294902F01BFE39E0FFF7F2FBCE
:100E300036E028462F4906F0FFFEA0B963787BB163
:100E40001C48314602F0B4FDC0B2192828D0282829
:100E500026D0322824D017481F4902F001FE1FE097
:100E6000FFF7D8FB1CE02846234907F02FFA98B17A
:100E7000637873B130461A4906F042FE80B13046BD
:100E8000184906F03DFE58B10A48174902F0E8FD3E
:100E900006E0FFF7BFFB03E00648184902F0E0FD5B
:100EA0003D232370054B064A11881A880A441A808C
:100EB00070BD00BF8095FF1FD4A900007E95FF1F65
:100EC000B0B8FF1FF0A90000F4AB000068AA000052
:100ED00000AC000010AC000080AB000020AC0000B3
:100EE00014AB000010AB0000A0AB000034AC00005D
:100EF00040AC000050AC000060AC00002CAB000027
:100F000070B505463D2106F01DFE044640B94B482C
:100F10004B4902F0A5FD4B4B1A8801321A8070BD77
:100F2000461C00230370484A1380304606F0F0FF49
:100F3000102804D94148454902F092FD70BD284669
:100F4000434907F0C3F988B13C48691D02F030FD00
:100F5000C0B20A2804D939483E4902F081FD64E054
:100F60006378002B61D1FFF755FB5EE028463A49D4
:100F700007F0ACF908B33148291D02F019FDC0B2E1
:100F80000A2804D92D48354902F06AFD4DE06378FE
:100F900083B12A48314602F00BFDB0F1FF3F04D087
:100FA000304606F0B5FF05283FD024482C4902F012
:100FB00057FD3AE0FFF72EFB37E02846294906F0B7
:100FC0003BFE70B31D48E91D02F0F2FCC0B20A28D6
:100FD00004D91A48244902F043FD26E06378EBB1B6
:100FE0003046224906F08CFDF8B13046204906F023
:100FF00087FDD0B130461F4906F082FDA8B13046CA
:101000001D4906F07DFD80B130461C4906F078FD93
:1010100058B10A481A4902F023FD06E0FFF7FAFA30
:1010200003E00648174902F01BFD3D232370054BE2
:10103000054A11881A880A441A8070BD8095FF1FDE
:10104000D4A900007E95FF1FB0B8FF1FF0A90000D3
:1010500074AC00007CAC000090AC000098AC0000C8
:10106000ACAC0000C0AC0000C8AC0000E0AC0000BC
:10107000F0AC0000FCAC000004AD00000CAD0000C2
:1010800018AD00002CAB00002DE9F04385B00746F9
:10109000264B1B680193019D0026244CDFF89480A9
:1010A0002FE003F0B5FDC0B223680293029D0A2829
:1010B00012D10136B6B207F101090A233B700423AD
:1010C0007B700023BB70D8F800305B68404618493D
:1010D000012298474F4614E00D2802D10136B6B2DE
:1010E0000FE00136B6B27A1C387004237B700023FF
:1010F000BB7041F6FE739E4202D900237B7011E063
:10110000174603F0D1FD0028CBD106E023680393F6
:10111000039B5B1BB3F57A7F04D803F0C5FD002861
:10112000F4D0EEE7304605B0BDE8F0838CD9FF1F60
:1011300018AE000084DAFF1F2DE9F04106463D217C
:1011400006F000FD471C384606F0E2FE8046C5B2B8
:10115000304606F0DDFEC4B230461B4907F0B6F853
:1011600090B93046194907F0B1F878B930461849B6
:1011700007F0ACF860B93046164907F0A7F8002828
:1011800014BF1026082604E0102602E0102600E016
:10119000102657FA88F3AE420ED9EA433244D2B24F
:1011A00001321A44002103F8011B9342FBD1641B56
:1011B00056FA84F4E4B200E01A460A231370601C65
:1011C000C0B2BDE8F08100BF9CAA0000A8AA000040
:1011D00030AD000038AD000003780A2B0ED00D2B87
:1011E0000ED0042B0ED00022013210F8013F0A2B42
:1011F00009D00D2B07D0042BF6D104E0002202E029
:10120000002200E00022501C704700BF70B5064667
:101210000C46234D2B685B68284622490A229847D2
:10122000304606F075FE02462B685B68284631465C
:10123000984734B128462B685B681B4909229847B8
:1012400005E0174803685B6818490922984703F0CE
:101250002BFD0028FBD003F0DBFCC0B20D2801D130
:1012600094B903E000F0DF004E280BD10C4C23684A
:101270005B6820460E4902229847204603F096FEFE
:10128000002070BD5928E2D1054C23685B682046D8
:10129000084903229847204603F088FE012070BDCC
:1012A00084DAFF1F40AD00004CAD000058AD0000D7
:1012B00010AB000014AB0000F8B504460E460A4D12
:1012C000284600F0A1FDEB792370013E002E0ADDD7
:1012D0002746284600F05CFDEB7904F8013FE31B4C
:1012E000DBB2B342F5DBF8BD90B7FF1F2DE9F0414B
:1012F000C0B003460F461646684619464FF4807242
:1013000006F09EFB9EB100250A4C4FF480787919B7
:10131000204689B200F01EFD00ABA360A4F8108047
:10132000204600F04DFD05F58075AE42EFD840B087
:10133000BDE8F08190B7FF1F2DE9F04F85B0014661
:10134000574800F007FD4FF00008564CDFF870A139
:10135000554FDFF870918DE023685B682046534954
:10136000042298474E4B1D790F2D05D823685B68E2
:10137000204649460122984720462946102200234C
:1013800003F024FE464B5D790F2D05D823685B687A
:10139000204649460122984720462946102200232C
:1013A00003F014FE23685B682046414904229847F5
:1013B00068461021FFF780FF0DF1FF366D460DF1F5
:1013C000070B73780F2B05D823685B6820464946C6
:1013D00001229847204616F8011F1022002303F02F
:1013E000F5FD23685B6820463946012298475E4533
:1013F000E7D123685B6820462E49042298470DF107
:10140000070605F10F0B73780F2B05D823685B686F
:101410002046494601229847204616F8011F10220F
:10142000002303F0D3FD23685B6820463946012280
:1014300098475E45E7D123685B6820461E49032232
:10144000984705F110064FF02E0B15F8013B1F2BA6
:1014500098BF05F801BC23681B68204615F8011CDD
:101460009847B542F1D108F101085FFA88F801E028
:101470004FF00008B8F10F0F7FF66EAF23685B687E
:101480002046514600229847204603F08FFD0B4826
:101490000121FFF7BBFE0028EAD105B0BDE8F08FBF
:1014A00090B7FF1F84DAFF1F60AD000064AD00003D
:1014B00070AD000078AD000080AD000084AD00008C
:1014C00068AD00006CAD000070B582B0162001213F
:1014D00002F0C8FD1620002102F092FD1620012125
:1014E00002F08EFD264C20461C2102F047FB2046D0
:1014F00002F048FB204602F049FB2249224C234AD5
:10150000234E42F20F700B7813F0FF0F30D0237888
:1015100013F0030F2CD015683368EB1A182B27D95A
:101520001C4C23685B6820461B491022984723689F
:101530005B68204619490C22984723685B6820465F
:1015400017490822984723685B68204615490122FD
:10155000984723685B68204613490B229847134C31
:101560002046502100F0DCFB204600F0DBFB05E0CC
:1015700013680193019B8342C5D9D1E702B070BDC6
:10158000A8B7FF1F70DAFF1F80DAFF1F8CD9FF1F7B
:101590009CDCFF1F84DAFF1F94AD0000A8AD0000A3
:1015A000B8AD000060AD0000C4AD000090B7FF1FF3
:1015B0002DE9F04F8FB0954804214FF4005206F00A
:1015C0003FFA934B1B680193019D924803685B6847
:1015D0009149202298474FF000088D4C8D4E1DE018
:1015E00023680293029B5B1BBB4219D923680393B8
:1015F000039D33685B68304688491C229847304613
:101600005FFA88F10A22002303F0E0FC33685B688C
:10161000304683490522984708F1010842F21077C5
:1016200003F042FB0028DBD07A4C23685B6820463D
:101630007C490B229847204603F0B8FC744D2B6878
:101640000493049E784F3846FFF71EFD81462B68B1
:101650000593DDF8148023685B68204673490B22EC
:1016600098472046494603F0EDFC23685B68204616
:101670006F490F2298472046C6EB08010A22002333
:1016800003F0A4FC23685B6820466A49022298475D
:10169000204603F08BFC0026674B5E8023685B6866
:1016A000204666490A229847204603F07FFC2B68B3
:1016B0000693DDF81890554DB846614C5E4FDFF843
:1016C000A4A120464146FEF709FF8046002854D0D9
:1016D0002378042B01D12B704FE07A8801327A8075
:1016E0000D2BEED00A2BECD02046232106F02AFA4F
:1016F0000028E6D12046FEF71BFF834668B1FE288E
:1017000004D13846514602F0ABF9DAE728462146C3
:10171000FEF700FF05465E46D3E7DF2E03D12046E5
:10172000FEF79EFF16E0AF2E03D12046FFF714F917
:1017300010E0BF2E03D12046FFF7EAF90AE0CF2ED2
:1017400003D12046FFF7C0FA04E0EF2E02D1204675
:10175000FFF7D6FB2046FFF7EFFC024650B100230F
:10176000195DE9540133D9B28A42F9D8531EDBB26C
:1017700001331D4404232B70A3E7254B1B680793FB
:10178000079D244C23685B6820462E490A2298470F
:101790002046294B598803F055FC23685B68204696
:1017A00029490A2298472046C9EB05010A2200234D
:1017B00003F00CFC23685B68204624490422984708
:1017C000234B198800294FD0204603F03BFC2368A7
:1017D0005B6820461F490B22984720461E4B1988FC
:1017E00003F030FC23685B6820461C490D229847B3
:1017F000204603F0DBFB23685B68204618491A2269
:101800009847204603F0D2FB43E000BF9097FF1FAC
:101810008CD9FF1F84DAFF1FD0AD0000F4AD0000AB
:1018200014AE00001CAE0000B4B8FF1F28AE0000CC
:1018300034AE000044AE00008095FF1F48AE0000AB
:10184000B0B7FF1F68AE000074AE000080AE0000AD
:101850007E95FF1F88AE00007C95FF1F94AE0000B0
:10186000A4AE000054AE0000884C23685B6820469C
:1018700087490C2298472046864B198803F0E2FBE3
:1018800023685B68204684490C229847204603F071
:101890008DFB804B1B886BB1804B1B88002B40F06D
:1018A0004A817F480021FFF7B1FC18B9794B1A88AB
:1018B0007A4B1A80794B1B88002B40F03C81734C8B
:1018C00023685B682046774917229847204603F033
:1018D0006DFB754D2B680893089E042010214FF472
:1018E0000052FFF703FD2B680993099F23685B688B
:1018F00020466E490922984720464FF4005103F0D4
:10190000A1FB23685B68204669490F22984720465F
:10191000B91B0A22002303F059FB23685B682046A9
:10192000644902229847204603F040FB0022624BA4
:101930005A8023685B682046604909229847204600
:1019400003F034FB2B680A930A9E5D48102100F0D7
:1019500001FADFF880815B4D574F594C28464146CC
:10196000FEF7BCFD804688B17B8801337B80A56093
:101970002846FFF731FC2082204600F021FA434838
:1019800003685B68504901229847E7E74C4C042301
:10199000A371204600F056FA2046002100F0DAF943
:1019A000204600F031FAE37993B1464D00212B46F1
:1019B00043F8041B6960043343F8041B1960204694
:1019C00000F0C8F9A56010232382204600F0F8F942
:1019D000354D2B680B93DDF82C802C4C23685B680D
:1019E00020463A4908229847334F2046798803F029
:1019F00029FB23685B682046354912229847204618
:101A0000C6EB08010A22002303F0E0FA23685B68B2
:101A10002046284902229847204603F0C7FA2B683F
:101A20000C930C9E2B48FEF72BFD054638461021E3
:101A300001F03CFE85421DD1214C20460E2100F0D4
:101A400089F9A571204600F0FDF920460F2100F02C
:101A500081F92B12A371204600F0F4F9124B1B6898
:101A60000D930D9F09481C49FEF7FCFCB5F5805FFE
:101A70003BD235E0054C23685B6820461749352288
:101A80009847204603F092FAFEE700BF84DAFF1F72
:101A9000C0AE00007C95FF1FD0AE00007E95FF1FFA
:101AA000E0AE00000CAF00008CD9FF1F24AF000097
:101AB00030AF000044AE00008095FF1F40AF000033
:101AC00090B7FF1FB0B7FF1F18AE00004CAF00006B
:101AD00058AF00009097FF1F6CAF00007CAF000074
:101AE000264803681B6830219847244C2046294625
:101AF0001022002303F06AFA20462149FEF7B2FCC7
:101B00002046B91B0A22002303F060FA23685B68B1
:101B100020461C4902229847204603F047FA2046F7
:101B20001949FEF79FFC19480121FFF76FFB10B11F
:101B30000020FFF701FC114C23685B682046144924
:101B400006229847204603F031FA12480021FFF799
:101B50005DFB48B923685B6820460F4922229847FD
:101B6000204603F023FAFEE70C4800214FF4005210
:101B700005F066FF0FB0BDE8F08F00BF84DAFF1FED
:101B8000B4AF000044AE0000CCAF0000E8AF0000EE
:101B900004B000000CB0000020B00000B4B8FF1F7B
:101BA0002DE9F8435C4B4FF0000883F8018083F87F
:101BB000028083F80380594CA4F80080A4F80280C6
:101BC0004FF04E09201D41464A4605F039FF40F6C8
:101BD000B867678140F65556A6811925A5732782F7
:101BE00066822575E7822683A576A783E68384F837
:101BF00020506784A68484F826502785668584F85B
:101C00002C50E785268684F83250A786E68684F82D
:101C100038506787A68784F83E50A4F84070A4F82F
:101C2000426084F84450A4F84670A4F8486084F8F0
:101C30004A50A4F84C70A4F84E6084F8505004F157
:101C4000520041464A4605F0FBFEA4F85870A4F83D
:101C50005A6084F85C50A4F85E70A4F8606084F860
:101C60006250A4F86470A4F8666084F86850A4F820
:101C70006A70A4F86C6084F86E50A4F87070A4F8D0
:101C8000726084F87450A4F87670A4F8786084F8D0
:101C90007A50A4F87C70A4F87E6084F88050A4F890
:101CA0008270A4F8846084F88650A4F88870A4F840
:101CB0008A6084F88C50A4F88E70A4F8906084F840
:101CC0009250A4F89470A4F8966084F89850A4F800
:101CD0009A70A4F89C6084F89E50C4F8A080C4F860
:101CE000A480C4F8A880A4F8B080A4F8A670A4F8D2
:101CF000A86084F8AA50A4F8AC70A4F8AE6084F888
:101D0000B050C4F8B480C4F8B880C4F8BC80C4F83B
:101D1000C080BDE8F88300BFA8B7FF1F8095FF1FF4
:101D20000170704700B587B0094B1869597B0029CD
:101D300014BF032200220023009301920293039315
:101D4000012204921A4600F0A1FC07B05DF804FBE2
:101D5000C8D8FF1F11F4004F03D149BA8180002079
:101D60007047FF20704700BF83885BBA9BB2013386
:101D7000C3F30E035BBA8380704700BF83885BBAEE
:101D8000028A12FA83F3C3F30E035BBA83807047AF
:101D900070B582B00446094D2869697B2278012319
:101DA00000930026019601F09DF8286901F0E4F8FF
:101DB000E0712046FFF7D8FF02B070BDC8D8FF1F02
:101DC00070B582B005460F4C0646204616F8041B37
:101DD00000F09AFD20463146022200F071F82046BC
:101DE000A9682A8A00F06CF82169627B00230093BD
:101DF0002046012301F062F82846FFF7BFFF02B03A
:101E000070BD00BFC8D8FF1F70B582B006460C4C2D
:101E10000546204615F8041B00F076FD20462946AD
:101E2000022200F04DF82169627B002300932046D6
:101E3000012301F043F83046FFF7AAFF02B070BD5E
:101E4000C8D8FF1F70B582B006460D4C0546204627
:101E500015F8041B00F058FD20462946022200F028
:101E60002FF82046B17900F017F82169627B002332
:101E700000932046012301F021F802B070BD00BF9D
:101E8000C8D8FF1F0369D3F83801D3F83431C01A1A
:101E9000704700BF704700BF0369D3F84422B2F512
:101EA000817F09D8D3F84422501CC3F8440213445C
:101EB00083F83C1101207047012303710020704713
:101EC00030B40369D3F84442B4F5817F1ED8D3F807
:101ED0004442C4F581740134D3F844522B4403F5D1
:101EE0009E73944202D201220271224632B18D18B1
:101EF00011F8014B03F8014BA942F9D10369D3F85A
:101F000044121144C3F84412104602E00123037145
:101F1000002030BC704700BF38B50446084B036052
:101F2000036993F84822022A08D1D3F860522DB1F0
:101F3000284603F021F8284603F09AF8204638BDD9
:101F400050B0000010B4002202714FF47A74846023
:101F50000273064A026041734FF41A74044A04FB88
:101F6000012101615DF8044B704700BF50B00000D3
:101F70006487FF1F70B504460D46C3681B7813F0D5
:101F8000200F40F0B680836880211970C368122149
:101F9000197090F84932012B0BD022B9002380F838
:101FA0004832012070BD531EDBB2012B00F2A3802A
:101FB00000E0012225B94FF08071504B196005E017
:101FC000012D03D14FF000714C4B1960022A40F0F3
:101FD0008C80D4F860624EB9082003F045F80646BC
:101FE000002102F06BFFC4F860627EB13379102BE0
:101FF0000CD1304602F0C0FF304603F039F8002320
:10200000C4F86032012084F8480270BD002D30D140
:1020100033689A8B92B2998B42F008029A83D4F873
:102020006032197910313648364A42F821001A795F
:1020300053119B0003F1604303F5614302F01F025B
:10204000012101FA02F21A60D4F860321B689A8BFF
:1020500092B2998B42F002029A83D4F860321B79D3
:1020600003F1804303F5043300221A7096221A709C
:1020700033E0012D31D1D4F860321B689A8B92B2D3
:10208000998B42F008029A83D4F8603219791031A2
:102090001D481C4A42F821001A7953119B0003F194
:1020A000604303F5614302F01F02012101FA02F2CD
:1020B0001A60D4F860321B689A8B92B2998B42F006
:1020C00002029A83D4F860321B7903F1804303F54E
:1020D000043300221A7097221A70002384F85632B3
:1020E000022384F84832012070BD012084F84802A0
:1020F00070BD002070BD012070BD00BF00E100E098
:102100006D3500000082FF1F7D35000010B40346CE
:102110009848814257D10D2A4DD8DFE802F0070CCC
:1021200011161B20252A2F34393E434759682C208D
:102130000870012043E059682420087001203EE027
:10214000596855200870012039E059684F200870FF
:10215000012034E059681920087001202FE05968E7
:102160001320087001202AE05968452008700120DA
:1021700025E059680D200870012020E059680B20E7
:10218000087001201BE0596806200870012016E045
:10219000596805200870012011E059680220087074
:1021A00001200CE059680120087008E059680020FF
:1021B0000870012003E05A68002010700D22996910
:1021C00004240C70B3E16C48814253D10C2A49D8E5
:1021D000DFE802F0070C11161B20252A2F34393EA8
:1021E000430059682C20087001203FE059682420E2
:1021F000087001203AE059681E200870012035E07F
:1022000059684F200870012030E059681520087087
:1022100001202BE059680F200870012026E0596842
:102220000E200870012021E059680C200870012060
:102230001CE059680A200870012017E0596809203D
:102240000870012012E059680420087001200DE098
:10225000596802200870012008E0596800200870C1
:10226000012003E05A68002010700C2299690424B0
:102270000C705CE1414881424DD10B2A43D8DFE824
:1022800002F0060B10151A1F24292E33383D596809
:102290002720087001203AE059685A200870012070
:1022A00035E059681C200870012030E0596885200D
:1022B000087001202BE0596814200870012026E0E6
:1022C000596845200870012021E059680D200870E8
:1022D00001201CE059680B200870012017E05968A4
:1022E00009200870012012E05968032008700120BD
:1022F0000DE0596802200870012008E059680020AC
:102300000870012003E05A68002010700B229969C0
:1023100004240C700BE11A4881424AD1092A40D8A2
:10232000DFE802F0050A0F14191E2330353A596808
:1023300095200870012038E0596855200870012068
:1023400033E059688520087001202EE05968152077
:102350000870012029E0596845200870012024E018
:1023600059680C20087001201FE059680A20087085
:1023700001201AE000879303007E5603006CDC0204
:102380000051250259680520087001200DE05968A8
:1023900002200870012008E0596800200870012020
:1023A00003E05A68002010700922996903240C7018
:1023B000BDE06148814237D1072A2DD8DFE802F01D
:1023C00004090E13181D222759681F2008700120C8
:1023D00026E0596885200870012021E05968142002
:1023E000087001201CE0596845200870012017E0A2
:1023F00059680B200870012012E059680520087008
:1024000001200DE0596802200870012008E0596899
:1024100000200870012003E05A6800201070072295
:10242000996902240C7082E0444881422CD1052A2B
:1024300022D8DFE802F003080D12171C59681D208E
:10244000087001201CE0596814200870012017E072
:10245000596843200870012012E059680B20087069
:1024600001200DE0596803200870012008E0596838
:1024700000200870012003E05A6800201070052237
:10248000996901240C7052E02D48814221D1032A20
:1024900017D8DFE802F002070C1159681420087001
:1024A000012012E059680B20087001200DE05968E6
:1024B00003200870012008E05968002008700120FE
:1024C00003E05A68002010700322996901240C70FF
:1024D0002DE01C48814215D112B1012A05D009E036
:1024E00059680B200870012008E059680020087026
:1024F000012003E05A68002010700122996900242D
:102500000C7014E0104881420CD122B95A680021A5
:102510001170012002E05A680020107099690022B1
:102520000A7004E05968002008709969087083F8FF
:102530004C225DF8044B704700366E010024F40015
:1025400000127A0000093D0080841E00F8B50446A0
:102550009DF8180000284DD0E5682D7815F0200F63
:1025600044D147E0012A0ED128B1002B5AD053E0C4
:10257000132001F077FD012384F84A323F4B1D60A0
:10258000043B1D6060E028B1002B57D050E01020C4
:1025900001F068FD002384F84A32394B1D60043B8A
:1025A0001D6051E0012923D1042A0FD128B1002B4D
:1025B00052D04BE01D2001F055FD042384F84A322F
:1025C000304B1E6004331E600120F8BD28B1002B83
:1025D0004ED047E01A2001F045FD032384F84A322B
:1025E000294B1D60043B1D600120F8BD0020F8BD93
:1025F0000120F8BD002B40F2032508BF4FF41975E8
:1026000040F2036640F26467002B08BF3E4684F840
:102610004B320029C6D1A5E71220022101F022FD8C
:102620000221A5E71220002101F01CFD00219FE7F7
:102630001120022101F016FD0221A8E7112000213E
:1026400001F010FD0021A2E70120F8BD1E200221AB
:1026500001F008FD0221ADE71E20002101F002FD7E
:102660000021A7E71F20022101F0FCFC0221B1E7B5
:102670001F20002101F0F6FC0021ABE704A004407C
:102680000CA0044000D004402CB00440F0B583B04E
:1026900004469DF820009DF82C600D4629B92F496D
:1026A0000F6847F040070F6006E0012904D12B496D
:1026B0000F6847F080070F6084F84922002184F8F2
:1026C0004E123AB9636920221A7022681170E269C9
:1026D000117011E06269002837D12DE05B00DBB298
:1026E0001370E2694300DBB205E04000C0B2107035
:1026F000E2695B00DBB21370002300932046294699
:102700009DF824209DF82830FFF720FF204614492B
:102710003246FFF7FBFC204629469DF83020FFF7A4
:1027200029FC94F849321BB9A36880221A7012E080
:10273000A368C0221A700EE02021117022685B008D
:10274000DBB21370E2690023D5E7282111702268FB
:102750009842C3D8C9E703B0F0BD00BF348004403D
:10276000006CDC022DE9F04F83B082468B4690F876
:102770004A32042B4FD8DFE803F031340306090056
:10278000172616242FE01E261D242CE01F261A24AF
:1027900029E02046494601F033FC2B46013B7FF4FB
:1027A000FDAF2046414601F02BFC2B46013B7FF458
:1027B000FDAF304601F048FC18B9013F17F0FF07A4
:1027C000E7D100218AF84E129AF84A229AF84B3241
:1027D000009150465946FFF7B9FE1CE0122613241B
:1027E00001E0112610249AF84B32002B304614BF1A
:1027F0000221002101F036FC2046012101F000FCFD
:102800002046012101F02EFC0B274FF00009502536
:102810004FF00108CDE703B0BDE8F08F2DE9F84394
:10282000054688461646994601F06CFC0746AB689B
:102830001A7812F0200F0ED0B4221A7032E0EC6831
:10284000247814F0200F06D1002385F84932AB68B4
:10285000B0221A7006E0002EF1D001F053FCC01B2C
:102860008642ECD8AB681B7813F0200F0ED12846B7
:102870004146FFF777FFEB681B7813F0200F05D177
:10288000002385F84932AB68B0221A70AB681B7818
:1028900003F0200303F0FF0023B9042385F84E3230
:1028A000BDE8F88395F84832013BDBB2012B20D814
:1028B00001F0AEF9124B134AB8F1000F18BF1346DE
:1028C0001B78984218DC0F2804DC012089F80000EE
:1028D000BDE8F8830A4B0B4AB8F1000F14BF9046CD
:1028E0009846A0F11003DBB288F800300120BDE863
:1028F000F8830120BDE8F8830120BDE8F88300BF1C
:1029000018E400E019E400E00369490083F83C1191
:1029100003690122C3F8442200230371026982F88B
:102920004E3270472DE9F04383B0054614461F46EA
:1029300000238DF80730D0F84432002B00F0C88017
:102940000FB9D0F86472EB6812221A7028463A4622
:102950000DF10703FFF762FF002800F0B98095F83A
:1029600048321BB19DF80720002A54D001F0CAFB61
:102970008146012385F84E3285F84D4200264FF0FE
:1029800002082BE02B69AA1992F83C211A70EC6816
:10299000217811F0020FFBD084F80080EB681978E1
:1029A000C9B211F0100F09D0072385F84E32AB6879
:1029B00080221A70EB6810221A701BE011F0010FD0
:1029C0000BD01EB9052385F84E3202E0062385F8A8
:1029D0004E32AB6880221A700CE00136D5F84432D2
:1029E0009E4207D2002FCDD001F08CFBC9EB000036
:1029F0008742C7D8D5F84432B3428CBF04230023A2
:102A000085F84E3295F84D32012BAB680CBF802211
:102A1000B0221A705CE05A1ED2B2012A58D80122A4
:102A200085F84E2285F84D420022C5F84022022B3F
:102A300014D1D5F84432042B18D80FE013689B68E2
:102A400033B9136800210120187259729972D97232
:102A5000136800221A765A769A76DA76AB68F022F4
:102A60001A702B6995F83C211A7031E0012385F822
:102A70005632D5F8602205F59F70D5F84442033CE4
:102A800011680B68002308601168012008714B7100
:102A90001168CB71116808724B728B72CB7211681E
:102AA0006042C8601068C18BA1B2C1831268D08A2D
:102AB000D182D5F860222969106804690161106823
:102AC0000375437510688371B1F1804FB9D3B5E7D1
:102AD00003B0BDE8F08300BF2DE9F04383B00446A6
:102AE00016469DF828700B9D00208DF80700002BDE
:102AF00000F04E81B3F5827F03D3082384F84E3271
:102B000046E1C4F850320023C4F83431C4F83831F7
:102B10000DB9D4F86452E36812221A7020462A468E
:102B20000DF10703FFF77AFE002800F0318194F8D9
:102B3000483223B19DF80720002A00F0968001F06A
:102B4000E1FA8046022384F84E3284F84D722369FC
:102B5000720042F00102D2B21A70E268137813F0E8
:102B6000020FFBD002231370E3681B78DBB213F073
:102B7000100F09D0072384F84E32A36880221A7000
:102B8000E36810221A7003E113F0010F06D0052349
:102B900084F84E32A36880221A70F9E0032384F887
:102BA0004E32D4F85032012BA3680CBFA822A022C9
:102BB0001A7023691B780226002745E00B7813F072
:102BC000020FFBD00E70002D00F0AA8001F09AFADF
:102BD000C8EB000085428CBF00230123D4F83811D4
:102BE0000231D4F85022914205D03BB194F85522DD
:102BF00022B900E03B46A26882F80090D4F8381170
:102C00000131D4F85022914280F09F80002B00F0D7
:102C1000918094F85522002A40F0AA808AE004228C
:102C200084F84E2201E084F84E7294F84D22012A75
:102C300006D11022013A7FF4FDAFA2688021117005
:102C400023B1012384F855324FF0A809D4F8382174
:102C5000D4F850329A4280F09B8094F84E32DBB226
:102C6000032B40F09580E168A8E75A1ED2B2012AF2
:102C700000F28E80022284F84E2284F84D72934234
:102C800044D1D4F85032042B40D9012384F8563271
:102C9000D4F860322169186802680022016018685F
:102CA000027142711868C271B1F1804F02D31A6883
:102CB000926832B91A680021012010725172917223
:102CC000D1721A680023137353739373D373D4F8B8
:102CD000602204F13005D4F85002013811680F6900
:102CE0000D61116801250D754B7511688B711168A7
:102CF0000D724B728B72CB721368414299611368EB
:102D0000D98B81B2D9831368DA8AD982A368F02279
:102D10001A702369720042F00102D2B21A7037E0D1
:102D2000D4F838210232D4F850329A423FF462AFDC
:102D30003B4663E722691178D4F83821501CC4F867
:102D40003801224482F830107AE784F85572A2687C
:102D5000B021117022691178D4F83821501CC4F8C0
:102D60003801224482F83010002B3FF45CAF56E764
:102D700084F85572A268B021117022691178D4F8D4
:102D80003821501CC4F83801224482F8301046E73C
:102D900003B0BDE8F08300BF036993F84E32043BF3
:102DA000042B0CD8DFE803F009100507030001200D
:102DB0007047032070470420704704207047007953
:102DC000003018BF012070470220704790F84E3243
:102DD00013F0FF0F1BD090F84E32DBB2052B18D04A
:102DE00090F84E32DBB2062B15D090F84E32DBB2A3
:102DF000072B12D090F84E32DBB2042B0FD090F894
:102E00004E02C0B2082814BF0020012070470120E4
:102E10007047012070470120704701207047012052
:102E2000704700BF70B5044615460AB9D0F8645221
:102E300001F068F906462046FFF7C8FF00283AD19E
:102E4000002DF8D001F05EF9801B8542F3D801F027
:102E500059F9801B854210D894F84832022B0CD1C6
:102E600094F8563213F0FF0F07D02046FFF7AEFF5D
:102E70000028FAD0042384F84E3294F84E32DBB2A4
:102E8000012B09D094F84E32DBB2022B04D094F817
:102E90004E32DBB2032B02D1042384F84E3240239E
:102EA000013B7FF4FDAF94F84E3213F0FF0F14BFD7
:102EB0000020012070BD002DDFD0C8E7F8B507461F
:102EC0000E461546069C084611461A462346FFF74D
:102ED00029FD304629462246FFF7A4FF3846FFF772
:102EE0005BFFF8BD70B582B004460D461E468BB13F
:102EF0009DF8183000930799019129463346FFF752
:102F0000EBFD20462946079AFFF78CFF20B1D4F845
:102F1000380102E0002000E0002002B070BD00BFD8
:102F2000D0F83421D0F838319A4208D2D0F8343170
:102F30005A1CC0F83421184490F8300070474FF004
:102F4000FF30704708B50069FFF7EAFF08BD00BF12
:102F5000D0F83421D0F838319A423DBFD0F834311E
:102F6000C01890F830004FF0FF30704708B5006986
:102F7000FFF7EEFF08BD00BFD0F83421D0F838319C
:102F80009A4208D2D0F834315A1CC0F8342118447F
:102F900090F8300070470020704700BF38B50446F5
:102FA000C2681578EDB281680B78DBB213F0200FA0
:102FB00000F0C38113F0100F00F0058190F8563235
:102FC000DBB2022B04D090F85632DBB2032B4CD18B
:102FD000D4F860120B689B8B03F080039BB2002B2C
:102FE00000F0808294F85632DBB2022B40F07A82F5
:102FF0006EE2137813F0800FFBD00A79B54B1A708C
:10300000002384F85632D4F84432013BC4F84032ED
:103010002369D4F84022224492F83C211A7020E01F
:10302000AD4B1A680B7901219940114219D0AB4A76
:103030001370D4F860321A79A94B1A70002384F8FF
:10304000563215F0100F0CD0072384F84E32A368C7
:1030500080221A70E36812221A700023C4F84032EA
:1030600038BDE36802221A7038BD90F84E32DBB2E8
:10307000012B56D115F0100F0DD0002380F85632D9
:10308000072280F84E2280220A70C2681221117035
:10309000C0F8403238BD15F0010F0FD0002380F882
:1030A0005632D0F840321BB9052380F84E3202E088
:1030B000062380F84E3280230B702EE0D0F8403289
:1030C0000133C0F84032D0F8442293420AD300239F
:1030D00080F84E3290F84D32012B0CBF8023B02384
:1030E0000B701AE090F85632DBB2012B0ED102239E
:1030F00080F85632F1230B70D0F860321A79794B90
:103100001A70036990F83D211A7006E00369D0F83F
:103110004022024492F83C211A70E36802221A709D
:1031200038BD90F84E32DBB2022B36D115F0100FBD
:1031300008D0072380F84E3280230B70C368122218
:103140001A7038BD15F0010F05D0052380F84E32F6
:1031500080230B701DE090F85632DBB2012B0CD1AE
:10316000022380F85632E1230B70D0F860321A79CE
:103170005C4B1A7003691B780BE0032380F84E3216
:10318000D0F85032012B0CBFE823E0230B70036909
:103190001B78E36802221A7038BD90F84E32DBB219
:1031A000042B0AD190F84D32012B0CBF8023B023A1
:1031B0000B70C36802221A7038BD80230B70C3687D
:1031C00002221A7038BD90F85632DBB2022B04D0BE
:1031D00090F85632DBB2032B56D1D4F860321A681D
:1031E000928B02F0800292B2002A00F08C8194F857
:1031F0005622D2B2022A40F086817AE11A79354B02
:103200001A70002384F8563294F84E32DBB2042B45
:103210001CBF002384F84E32A368B0221A70D4F881
:103220005032013BC4F83831D4F838315A1CC4F854
:10323000382122691278234483F8302094F84D32E3
:10324000012B1DD11023013B7FF4FDAFA368802229
:103250001A7015E0204A12681B7901219940114229
:103260000ED01F4A1370D4F860321A791B4B1A70B3
:10327000002384F8563284F84E32A36880221A70F4
:10328000E36802221A7038BDD0F838210232D0F833
:1032900050329A4200F03E8190F84E32DBB2042B5D
:1032A00004D190F85532002B00F03481D4F8382145
:1032B0000132D4F850329A4280F03A8194F84E327A
:1032C000DBB2042B40F0298194F85532002B40F0FA
:1032D0002F8122E11C8000402C8000401F80004094
:1032E0001E8000401B800040002384F84E32A368FB
:1032F000B0221A70D4F838315A1CC4F83821226927
:103300001278234483F8302094F84D32012B06D1F3
:103310001023013B7FF4FDAFA36880221A7094F85C
:103320004E32DBB2042B04D194F85532002B00F05E
:103330000981E36802221A7038BD15F0100F08D019
:103340001023137015F0400F06D1C36802221A70C3
:1033500038BD15F0400F60D094F84E32DBB20A2B26
:1033600004D1D4F85832002B40F0F08015F0040F4F
:103370001ED0092384F84E320023C4F84432A368D7
:10338000D0221A7023691B785B0884F84F32D4F876
:103390005C3203B19847D4F844320BB984F83C311D
:1033A000236994F83C211A700123C4F8403230E0BC
:1033B000002384F8543294F84A322BB91220684919
:1033C000032200F0ADFD16E0012B05D11120644968
:1033D000032200F0A5FD0EE0032B05D11E2061495C
:1033E000032200F09DFD06E0042B04D11F205D495F
:1033F000032200F095FD0A2384F84E320023C4F81E
:103400003831A368C0221A7023691B785B0884F8DE
:103410004F32E36802221A7038BD13F0100F20D02B
:1034200015F0010F15D1D0F84022D0F844329A425D
:1034300008D2D0F840325A1CC0F84022034493F816
:103440003C2100E0002223691A70A368D0221A7080
:103450003AE0C0230B7003691B78002380F84E32DA
:1034600032E0002380F8543290F84A322BB912200F
:103470003B49032200F054FD16E0012B05D1112039
:103480003749032200F04CFD0EE0032B05D11E202E
:103490003449032200F044FD06E0042B04D11F2030
:1034A0003049032200F03CFD23691B78DAB2D4F8DE
:1034B0003831B3F5817F07D8D4F83831591CC4F8B6
:1034C0003811234483F83020E36802221A7038BD93
:1034D0000A79254B1A70A368F0221A70032384F826
:1034E0005632BEE594F85632DBB2032B7FF498AD2A
:1034F0007FE51A791C4B1A70A368E8221A7003231F
:1035000084F85632BCE694F85622D2B2032A7FF4ED
:10351000A1AE73E6E8230B70C8E6D4F838315A1C24
:10352000C4F8382122691278234483F83020F6E663
:10353000002384F8553294F84E32DBB2042B7FF42A
:10354000D3AED4E6012384F85532F2E60023C4F862
:103550003431D4F83801D4F85832984706E700BF20
:1035600031360000413600001F80004008B5024897
:103570000021FFF713FD08BD6487FF1F08B502484F
:103580000121FFF70BFD08BDCC89FF1F10B50446D4
:10359000C3681B7813F0200F24D1002380F84E322B
:1035A00090F84A321BB9122000F002FD10E0012B06
:1035B00003D1112000F0FCFC0AE0032B03D11E20F4
:1035C00000F0F6FC04E0042B02D11F2000F0F0FC18
:1035D000D4F8583253B30022C4F83421D4F8380157
:1035E000984710BD90F854320133DBB280F8543262
:1035F000012B03D890F84932012B17D094F84A32A6
:103600001BB9122000F0D4FC10BD012B03D11120F6
:1036100000F0CEFC10BD032B03D11E2000F0C8FC2F
:1036200010BD042B02D11F2000F0C2FC10BD00BF52
:1036300008B502480021FFF7A9FF08BD6487FF1FF6
:1036400008B502480121FFF7A1FF08BDCC89FF1F83
:1036500070B50B4E30460021FEF774FC094D0A4C44
:1036600030462946224603F0FDFE084E3046012131
:10367000FEF768FC30462946224603F0F3FE70BD93
:10368000C8D8FF1F191F00006087FF1FB4D8FF1F95
:1036900082EA010008234AF2010210F0010F14BF70
:1036A00082EA60004008013BF7D17047F8B5074651
:1036B000144C2046FEF74EFB2046FEF7A5FBE279B0
:1036C000042A15D14FF6FF70F8BD38463146FFF792
:1036D000DFFF0646013CA4B23CB12846FEF758FB8A
:1036E000EA79042AF1D13046F8BD4FF6FF70F8BDF3
:1036F00038464FF6FF71FFF7CBFF064641F6FE74E2
:10370000004DEAE790B7FF1F30B583B002AB00224F
:1037100043F8042D0846194605F09AFE019B4BB369
:103720001B7853BB00221E4B03F02EFA18A3D3E9DB
:10373000002303F007FD04460D4617A3D3E9002339
:1037400003F066FEE0B9204629460022154B03F03F
:1037500041FEC0B9204629460022134B03F0C8FBA6
:103760000022124B03F0C4FB03F05CFE20F00700C4
:1037700080B20AE04FF6FF7007E04FF6FF7004E0FA
:103780004FF6FF7001E04FF6FF7003B030BD00BF91
:10379000000000C0CCCCFC3F0000000000C0624034
:1037A0000000404000804BC000003040000020403E
:1037B00010B50C4608463A2104F0C4F9034690B30C
:1037C000002202702078A0F13002092A2DD8D0B250
:1037D0006278A2F13001092906D800EB800001EBE4
:1037E000400000F0FF0000E00ABB5A78A2F130016F
:1037F00009291ED89B78A3F1300109291BD8172865
:103800001BD8303AD2B202EB820201EB420303F042
:10381000FF033B2B13D8C3EB03139B004FF46162F0
:1038200002FB003010BD074810BD064810BD05481A
:1038300010BD044810BD034810BD024810BD01482A
:1038400010BD00BF805101002DE9F843884691B3B7
:10385000084604F05DFB814608EB00064446274617
:1038600014F8015B284603F035FE18B1002DF6D19F
:103870003D4600E03D46AE4209D03446661E14F88F
:10388000010C344603F026FE08B1B542F6D109F129
:10389000FF39C144B14504D0002373703846BDE8F8
:1038A000F88345450AD04D450BD1002388F80030F8
:1038B0003846BDE8F8830020BDE8F8833846BDE807
:1038C000F8833846BDE8F88370B50C465F261AE0E9
:1038D00003F000FE90B1631C2670607880B11C4636
:1038E00007E0651C2046294604F0B4FA607848B128
:1038F0002C4603F0EFFD0028F3D104E0013402E090
:103900001C4600E02C4620780028E1D170BD00BFA5
:1039100010B50C460B785B2B0AD1084604F0F8FA78
:10392000204410F8010C5D2814BF0020012010BDB8
:10393000002010BD0B78642B20D14B78A3F130020E
:10394000092A1DD8CA78632A1CD10A79A2F130004D
:10395000092819D8C0B24979C1B9A3F13101C9B256
:10396000032915D8313AD2B2022A13D8303BDBB240
:10397000013B03EB43031844C0B27047FF2070477C
:10398000FF207047FF207047FF207047FF207047DF
:10399000FF207047FF20704710B5087838B14C1EE3
:1039A00005F05EFD04F8010F60780028F8D110BD25
:1039B0000B78A3F13002D2B2092A0FD8002003E01D
:1039C000A3F13002092A0CD800EB8000303B03EB56
:1039D000400011F8013F002BF2D170474FF0FF304B
:1039E00070474FF0FF30704770B584B005460091C6
:1039F00008462E2104F0A6F8034620B30130002229
:103A00001A7001902E2104F09DF80346E8B10130B0
:103A100000221A7002902E2104F094F8B8B100230D
:103A200000F8013B0390ADF1040403AE284654F8BE
:103A3000041FFFF7BDFFB0F1FF3F0AD0FF280ADCEB
:103A4000B442F3D109E0002008E0002006E00020A5
:103A500004E0002002E0002000E0012004B070BD7E
:103A600070B505460E46084604F052FA02460B4C65
:103A700023685B6820463146984723685B68204688
:103A80000749092298472046698801F0DBFA204659
:103A900001F08CFA2B8801332B8070BD84DAFF1F74
:103AA000A8A90000044A002353719371D371034AFB
:103AB00053719371D3717047DCD8FF1FF0D8FF1F8B
:103AC00001700171002383704370C370704700BFA1
:103AD00000B587B0094B1869597B002914BF032230
:103AE0000022002300930192029303930122049287
:103AF0001A46FEF7CBFD07B05DF804FBC8D8FF1FE0
:103B000070B582B003460D461646012908BF4270C3
:103B10000E4C20461978FEF7F7FE20462946FEF7A0
:103B2000BBF9054620463146FEF7B6F950FA85F551
:103B30002169627B0023009320460123FFF7BEF931
:103B400050FA85F0C0B202B070BD00BFC8D8FF1FE8
:103B500010B50446C3704270CA430321D2B2FFF7C6
:103B6000CFFF20460221E278FFF7CAFF204601215D
:103B70006278FFF7C5FF002010BD00BF08B5FFF752
:103B80009FFF08BD08B5FFF7A3FF08BD08B5FF21DB
:103B900001220023FFF7DCFF08BD00BF024B1A68BB
:103BA00001321A60704700BF8CD9FF1F08B50D4C59
:103BB000236813F4802F01D000F01CFC236813F459
:103BC000806F01D001F0F4FE236813F4006F01D080
:103BD00002F07AFA236813F4805FE9D002F032FD34
:103BE000E6E700BF3480044008B5FFF7DFFF00BF01
:103BF0001022014B1A80704700200540704700BF1B
:103C0000024A13681844106018467047348CFF1F2E
:103C1000EFF31383ABB9EFF31083ABB9EFF3058385
:103C200023B10F2B05D9094A985C03E04FF480704B
:103C300000E00020EFF311833BB1834238BF184608
:103C400070474FF0FF30704700207047F0E300E00E
:103C500010B5154B1C681C6014F4805F05D0134B25
:103C6000DB6813B1114BDB68984714F4005F05D093
:103C70000E4B1B6913B10D4B1B69984714F0200FB5
:103C800005D00A4B1B6E13B1084B1B6E984714F0FE
:103C9000100F07D0054BD3F884301BB1034BD3F87A
:103CA0008430984710BD00BFA090044004D9FF1F86
:103CB00010B5274B1C681C6014F4803F05D0254BC1
:103CC0001B6813B1234B1B68984714F4003F05D0C1
:103CD000204B5B6813B11F4B5B68984714F0010FD2
:103CE00005D01C4B1B6C13B11A4B1B6C984714F07E
:103CF000020F05D0174B5B6C13B1164B5B6C9847EA
:103D000014F0080F05D0134B9B6C13B1114B9B6C37
:103D1000984714F0040F05D00E4BDB6C13B10D4B1C
:103D2000DB6C984714F4002F05D00A4B5B6E13B17F
:103D3000084B5B6E984714F4802F07D0054BD3F8DF
:103D400080301BB1034BD3F88030984710BD00BFC3
:103D5000A0A0044004D9FF1F10B5384B1C681C609C
:103D600014F0080F05D0364B5B6A13B1344B5B6A15
:103D7000984714F0100F05D0314B9B6A13B1304BAC
:103D80009B6A984714F0400F05D02D4BDB6A13B1A6
:103D90002B4BDB6A984714F0800F05D0284B1B6B28
:103DA00013B1274B1B6B984714F0200F05D0244B01
:103DB0005B6B13B1224B5B6B984714F0010F05D07E
:103DC0001F4BDB6B13B11E4BDB6B984714F0020FDC
:103DD00005D01B4B9B6D13B1194B9B6D984714F08D
:103DE000040F05D0164BDB6D13B1154BDB6D9847F7
:103DF00014F4007F05D0124BDB6E13B1104BDB6E59
:103E0000984714F4807F05D00D4B1B6F13B10C4BFA
:103E10001B6F984714F4806F05D0094B5B6F13B18B
:103E2000074B5B6F984714F4006F05D0044B9B6FF2
:103E300013B1034B9B6F984710BD00BFA0B0044067
:103E400004D9FF1F10B5264B1C681C6014F0010F2D
:103E500005D0244B9B6813B1224B9B68984714F004
:103E6000800F05D01F4B5B6913B11E4B5B699847F0
:103E700014F0100F05D01B4B9B6913B1194B9B69B4
:103E8000984714F0040F05D0164BDB6913B1154B9E
:103E9000DB69984714F0080F05D0124B1B6A13B169
:103EA000104B1B6A984714F0020F05D00D4B9B6B0B
:103EB00013B10C4B9B6B984714F0200F05D0094BA6
:103EC0001B6D13B1074B1B6D984714F0400F05D0C5
:103ED000044B5B6D13B1034B5B6D984710BD00BF86
:103EE000A0C0044004D9FF1F10B50B4B1C681C6018
:103EF00014F0020F05D0094B9B6E13B1074B9B6E5C
:103F0000984714F0010F05D0044BDB6F13B1034B3E
:103F1000DB6F984710BD00BFA0D0044004D9FF1F3D
:103F200030B4212831D8042A2FD8DFE802F007095D
:103F3000050B03000B2406E00A2404E0082402E039
:103F40000C2400E00924124B03EBC0035A68114B08
:103F5000114DC3F89C51114DC3F8A051104DC3F839
:103F6000A451104DC3F8A8510F4DC3F8AC5172B60F
:103F7000136823F4702313600C4D45F8201043F0B0
:103F8000807343EA0444146062B630BC704700BFDB
:103F90007CB000000082FF1F513C0000B13C0000DB
:103FA000593D0000453E0000E93E000004D9FF1FD6
:103FB000094B03EBC0035A6872B6136823F087738A
:103FC00023F4803343F0807313600022034B43F8E3
:103FD000202062B6704700BF7CB0000004D9FF1FEC
:103FE000044B00221A6004490A60044A106010223F
:103FF0001A60704714D0034004D0034000D003403F
:1040000021281ED80F4B53F8303093F8802212F03D
:10401000FF0F08D019B1012283F8802070470122D8
:1040200083F800217047074B03EBC000436821B1C0
:104030001A6842F003021A6070471A6822F00202FE
:104040001A6070477CB00000212806D8044B53F852
:10405000303093F80002C0B270470020704700BFB4
:104060007CB0000021284AD8254B03EBC0035B68D5
:10407000012911D004291DD0214A52F830200020F6
:1040800082F8800200292FD0022931D003291FD0C5
:1040900040F203121A607047194A52F83020012189
:1040A00082F880124FF4A2721A601A6822F020027D
:1040B0001A607047124A52F83020012182F88012AB
:1040C0004FF4A2721A601A6842F020021A60704718
:1040D0004FF480721A601A6842F002021A601A687D
:1040E00022F001021A6070474FF480721A60704724
:1040F0004FF480721A601A6842F003021A60704727
:104100007CB0000072B60C4B1B680C4A12680C495C
:10411000096862B611F0806F02D0322B88BF01327D
:10412000C3F53B437F330749A1FB03035B094FF40E
:104130007A7000FB0230704718E000E08CD9FF1F56
:1041400004ED00E0ABAAAAAA38B50546FFF7DAFFEE
:10415000044625B938BD013D0AD004F57A74FFF74D
:10416000D1FF001BB0F57A7FF5D200F0B5FFF6E77E
:1041700038BD00BF10B5264B4FF400021A604FF057
:1041800080721A604FF000721A604FF080621A60FD
:104190004FF000621A6000201E4B18604BF6FF7152
:1041A0000433196028231C4A136008321360083254
:1041B000136008321360083213600832136008324B
:1041C0001360083213600922144C226004F58054F5
:1041D00004342060043421600434236008342360F4
:1041E000143C226004F5FE24043420600C48016075
:1041F0000C490B6008310B600B4B1A6001F028F87A
:104200004FF4C870FFF7A0FF00F074FC10BD00BFB2
:1042100008E100E0048003400C800340008003407C
:1042200008800B400C800B4000800B4030B40E4BDC
:104230001B7843F002020D4C04EBC20460600C4892
:10424000007800280CBF8824C82444EA0141074DA7
:1042500045F8321080F00100054A107083F0010328
:10426000014A137030BC7047F8D9FF1F0080FF1F50
:1042700071DAFF1F10B4431E032B11D872B60A4A1D
:1042800052F8230050B14268074941F82320074AF9
:1042900032F813400188611A22F8131062B600E068
:1042A00000205DF8044B7047E8D9FF1F8CDCFF1F2E
:1042B000013803280DD872B6074B53F820302BB1C4
:1042C000002001305B68002BFBD100E0002062B6CB
:1042D00070470020704700BF3CDAFF1F38B572B648
:1042E00001231B491B4C5A1812F8012C12F0080F1D
:1042F00024D09A0054F832506DB9164B03EBC2012A
:1043000008304860144943F83210144B1A78013AC7
:104310001A7062B638BD42F0010254F832506DB9DD
:104320000C4B03EBC201083048600D4943F83210D2
:104330000A4B1A78013A1A7062B638BD0133052B60
:10434000D1D162B60022054B1A7000F037FC38BD9F
:10435000B8B100000080FF1F8800400066DAFF1F30
:10436000C800400010B4431E032B37D8400140F072
:1043700010001C4A104472B61B4AD25C032A09D8AA
:10438000DFE802F019021B050830022216E00830AF
:10439000042213E0154A52F823201AB9134A42F8AE
:1043A000231003E0124A52F823205160104A42F8C9
:1043B000231062B612E0032200E005220A4CE25408
:1043C00001F10803436000F00803002B0CBF8823B1
:1043D000C8230A8843EA0243036062B65DF8044BCF
:1043E000704700BF0080FF1FA4D9FF1F3CDAFF1FEA
:1043F0004CDAFF1F2DE9F84FA34CDFF8E092DFF80D
:10440000E0A2DFF8E0B22578EDB215F0040F1DD080
:104410009E4B1B7813F0FF0F16D09D4B1B7803F0BB
:10442000FF022BB1531EDBB2994A137003B900BED1
:10443000984B1B7803F0FF0233B1531EDBB2954A51
:1044400013700BB900F016FD0423237015F0080F4C
:1044500000F0E48299F80030DBB21D0940F02182BF
:104460008D4D9E0805EBC6035A6855F83630C3F3E8
:104470008303013B0C2B00F21082DFE813F0CB0129
:10448000CB010E020E020E020E020E020E02E80117
:104490000E020E020E020D00804913680B60526876
:1044A0004A607F4A45F8362000227E490A607A49F0
:1044B0000A618A6101217C4A11709BB240F28162DB
:1044C000934218D8B3F5D06F2ED2B3F5817F00F0A8
:1044D0001E8106D8802B00F0C980822B00F0CC8092
:1044E00066E140F20232934200F02681B3F5A06FFC
:1044F00000F062815CE142F22102934200F0868189
:1045000007D8B3F5086F00F0AB80B3F5106F11D08A
:104510004EE142F22122934200F0418142F22132E7
:10452000934200F0498143E1604B5D68002D40F00B
:10453000188130E1594B9A78544B1A70564D05F159
:1045400080062B6A13F0800F03D0686A083800F0E9
:1045500035FB0835B542F4D1DFF88C8100263746AB
:10456000534AB05828B1456800F028FB0DB12846E1
:10457000F9E700234E4973504E4AB3504E4BF05862
:1045800028B1456800F01AFB0DB12846F9E7002371
:1045900049497350494AB35028F8023F484BFB5CE5
:1045A000023B032B0AD8DFE803F0020602060022D2
:1045B000434BDA5502E00122414BDA55013704360C
:1045C000102ECDD100223F4B1A7001253E4EDFF850
:1045D0001C81314F05EB080313F8013C06F8043B3E
:1045E00013F0080F2DD000F0C9FA48B1A90007EB6D
:1045F000451200F108035360344A47F8312007E0C0
:10460000AB00002247F833202E4B1A7801321A7083
:1046100000F0B4FA58B1AB0043F0010307EBC3015B
:1046200000F108024A601E4A47F8332009E0AB0057
:1046300043F00103002247F83320224B1A7801325D
:104640001A70AA0042F00201002347F8313042F00C
:10465000030247F8323001351D4B9E42BAD11EE2AB
:104660000A4B1B781B4D2B700127AAE0194D002324
:104670002B706B700227A4E0084B9B88042B37D962
:104680000F22154B1A70C1E08020074070DAFF1F1F
:10469000F9D9FF1F72DAFF1F0080FF1F5CDAFF1FCE
:1046A000C800400090D9FF1F71DAFF1FBCB10000A5
:1046B000E8D9FF1F94D9FF1F3CDAFF1F4CDAFF1F18
:1046C000A4D9FF1F66DAFF1FC420074088004000FE
:1046D000D420074068DAFF1FC02007409020074021
:1046E00094200740982007408ADCFF1FB8B10000E3
:1046F000A04A0021117051709F4A12F8233013F024
:10470000020F5CD09B4D01232B70022759E09B4B7D
:104710009B8803F07F03042B02DC984A52881AB16D
:104720000F22954B1A7071E0934A12F8231021F072
:10473000020102F82310B2E1904B9B8803F07F0343
:10474000042B02DC8D4A52881AB10F228A4B1A7050
:104750005CE0894A12F8231041F0020102F82310AC
:104760009DE1864B5E889F88854BA3F10C02114624
:1047700033F80C0CB04209D133F80A0CB84205D119
:10478000360A032E0CBF2F7817891AE00D690C33F7
:104790000C32002DEBD10F22774B1A7036E0794B9B
:1047A0001A68794B1A60754B9A78784B1A7076E1D3
:1047B0000F22714B1A7029E000273D4601E00227C5
:1047C0006C4D6E4BDB889F4228BF1F46402F34BF85
:1047D0003E46402628463146FFF728FD3544BF1B9C
:1047E00003D13F2E00F2608110E0402F34BF3E46DF
:1047F000402628463146FFF719FD3544BF1B01D13D
:104800003F2E03D9624B1D60624B1F8001238AF843
:10481000003042E0594B198842F22103994212D1EB
:104820005D4BD81D12F8011B03F8011F8342F9D11B
:104830005A4B1B68862B02D10F22594B1A7000204D
:104840000146FFF7F3FC574B45F8363025E0504B57
:104850001E68BEB14F4FB7F80080B8F1400F34BFAB
:104860004546402530462946FFF7E0FCC5EB0803E6
:104870009BB23B800BB9402D01D1354400E00025AF
:10488000434B1D603D4B1B88B3F5A06F05D13B4BDF
:1048900000225A709B788BF8003001238AF8003090
:1048A000B9E0414E9F0806EBC708D8F80420A2F1F2
:1048B0000800013DEDB213F0080F47D000F07EF97B
:1048C0003A4B53F825304BB35A68384941F8252004
:1048D00003F10802C8F80420354A525D032A12D8B1
:1048E000DFE802F002060A0E0321314A51550AE0C0
:1048F00002212F4A515506E005212D4A515502E06B
:1049000004212B4A515518F0080F0CBF8822C822E9
:104910001B8842EA034346F837307CE0244B5B5D5A
:10492000032B0BD8DFE803F0777702060022204B39
:104930005A5570E001221E4B5A556CE018F0080FD2
:104940000CBF022203221A4B5A5564E056F8373046
:104950001B0C22F8083C002B55D0002322F8063C03
:1049600042F8043C134B53F825302BBB114B43F852
:10497000250025E068DAFF1FC02007405CDAFF1F32
:10498000C8B100008CD9FF1F9CDCFF1F80DAFF1F1D
:1049900090D9FF1F64DAFF1F93DCFF1F94DCFF1F19
:1049A000F9D9FF1FC80040000080FF1F3CDAFF1F3D
:1049B000A4D9FF1FE8D9FF1F3F4B53F8253058609B
:1049C0003D4B43F825003D4B33F8151032F8082CC9
:1049D0000A4423F8152000F0D1F860B100F1080373
:1049E000C8F8043018F0080F354B364A08BF134694
:1049F00046F837300FE0002346F83730324B1A784C
:104A000001321A7007E018F0080F2D4B2D4A08BF2D
:104A1000134646F8373008232370F4E415F0010FED
:104A200022D02A4902230B700022294B1A70294BED
:104A300024481860284C5C6098602848D8601A6147
:104A40009A610D20264B1870FF2326480370083802
:104A5000037018300270244A13709F22234B1A707F
:104A600001230B70BDE8F88F15F0800F05D00D22E3
:104A70001B4B1A708022403B1A7015F0020F06D0B3
:104A8000184B1A78D2B21A700222083B1A7015F02D
:104A9000100F0ED01022164B1A70BDE8F88F0020B0
:104AA0000146FFF7C3FBB1E628460021FFF7BEFB36
:104AB000ACE6BDE8F88F00BF94D9FF1F8CDCFF1F68
:104AC000C80040008800400066DAFF1F94200740BD
:104AD000F8D9FF1F0080FF1FA8D9FF1FFCD9FF1FB7
:104AE000C0200740882007408C20074084200740D2
:104AF0008020074008B501F019FE00231B491A4623
:104B00005A50C81842600833882BF9D1184B1A68DC
:104B100042F480221A60154BC3F30721154A117025
:104B2000C3F30741143211701B0E04321370FF23BC
:104B3000343A137008321370783A137001238432B8
:104B4000137000216C3211707C3A137070220A4B82
:104B50001A704FF40072A3F241331A60102203F16D
:104B6000C04303F5C8231A7008BD00BF0080FF1FB3
:104B7000348004409C20074049E400E072B60D4BAD
:104B80001A68B2FA82F30B2B02D962B60020704782
:104B90004FF00041D94022EA010206490A6062B69C
:104BA000054903EBC303DB00C8180022CA5042606A
:104BB000704700BF388CFF1F0084FF1F08B50F4BE4
:104BC000C31A0F4AA2FB03131B090B2B14D80D4A5F
:104BD00012783AB10C4A127812F0FF0F02D0FFF7A8
:104BE0007DFB08BD72B6094A4FF0004121FA03F37C
:104BF00011681943116062B608BD00BF0084FF1F31
:104C0000398EE33866DAFF1F70DAFF1F388CFF1F1A
:104C100010B5134B1B6853B9124B1B7813F0FF0FE1
:104C200018D00320FFF726FB0D4B1860A8B10C4BE2
:104C3000186843885A1C03441C7A03889A4206D396
:104C4000FFF7BCFF0022064B1A60204610BD4280D1
:104C5000204610BD4FF0FF3010BD4FF0FF3010BDAB
:104C60007CDAFF1F70DAFF1F08B50D4B1B6883B994
:104C70000C4B1B7813F0FF0F08D00320FFF7FAFA54
:104C8000074B186028B94FF0FF3008BD4FF0FF30D8
:104C900008BD034B1B685A881344187A08BD00BF2F
:104CA0007CDAFF1F70DAFF1F044B9888044B1B68E7
:104CB0001BB11A885B88D31A184470478CDCFF1F1D
:104CC0007CDAFF1F10B50B4B1B7813F0FF0F0FD0D2
:104CD000094B186820B1FFF771FF0022064B1A60DC
:104CE00003242046FFF7C6FA10B1FFF767FFF8E785
:104CF00010BD00BF70DAFF1F7CDAFF1F2DE9F047FF
:104D000004460122374B1A700E46002964D0DFF8A2
:104D1000E080DFF8E0909A46334FD8F8003083BB4C
:104D200099F8003013F0FF0F06D100222D4B1A70B6
:104D30004FF0FF30BDE8F08747F209550420FFF738
:104D4000B7FA07280AD801238AF80030FFF716FFC0
:104D5000C8F80000A8B900238AF80030013D01D04E
:104D60003B7833B10122204B1A704FF0FF30BDE881
:104D7000F08700F0B1F999F8003013F0FF0FDDD1A2
:104D8000D3E700233B70D8F800104A88C2F14005F1
:104D9000AE4238BF354602F108030B442A444A802C
:104DA000761B3DB1254414F8012B03F8012BAC42CE
:104DB000F9D100E025464B883F2B07D940230B80D3
:104DC0000420FFF7CFFA0023C8F800300522074B74
:104DD0001A700EB12C46A0E70020024B1870BDE8F7
:104DE000F08700BF73DAFF1F78DAFF1F72DAFF1F48
:104DF00074DAFF1F70DAFF1F00B583B002AB03F84F
:104E0000010D18460121FFF779FF03B05DF804FB9F
:104E100010B5144B1B7813F0FF0F21D00122124B59
:104E20001A70124B196851B10024114B1C704B8839
:104E30000B800420FFF796FA0C4B1C600DE0FFF787
:104E40009DFE014630B10022094B1A700420FFF785
:104E500089FA02E00122064B1A700022024B1A70F6
:104E600010BD00BF70DAFF1F73DAFF1F74DAFF1F77
:104E700072DAFF1F08B50E4B1B7813F0FF0F16D127
:104E80000C4B196841B14B880B800420FFF76AFA7C
:104E90000022084B1A6008BDFFF770FE014618B1EA
:104EA0000420FFF75FFA08BD0122034B1A7008BD0A
:104EB00073DAFF1F74DAFF1F72DAFF1F30B472B6A5
:104EC00099B902688AB103790F2B0ED8274909884E
:104ED000194111F0010F08D003F1007303F590633D
:104EE000B2EB431F01D162B63EE0204B1D8829463C
:104EF000002341FA03F212F0010F2DD1012202FA30
:104F000003F42543194A158062B6DAB202711849D2
:104F10000C6844F002040C6004390C6844F002048C
:104F20000C60822413490C601A310A7004310A7033
:104F300006390A7007310A7003F1007303F59063B4
:104F40005B01036000221A605A609A60DA601A619D
:104F50005A619A61DA6107E00133102BC9D162B658
:104F6000002303601023037130BC704782DAFF1FF7
:104F7000408004400080004003790F2B10D8094A7C
:104F8000137072B6084B0279012101FA02F21988F6
:104F900021EA02021A8062B6102303710023036023
:104FA000704700BF1A80004082DAFF1F00B583B04F
:104FB000054B1B88ADF8043003685B6801A9022229
:104FC000984703B05DF804FB8CB10000F0B58BB0DE
:104FD000164622B903681B68C9B298472FE0012A18
:104FE00008BF0A2621B930228DF82520212417E098
:104FF00021243746B1FBF6F506FB1515EDB2224626
:10500000092D94BF30353735EDB20DF1280E7244BD
:1050100002F8245CB1FBF7F111B1013CE4B2E9E71D
:1050200033B1013CE4B20AAB23442D2203F8242C13
:1050300003685B6801A92144C4F1220298470BB0C0
:10504000F0BD00BF08B50029BABF49422D23002397
:105050000A22FFF7BBFF08BD08B5FCF735FAFCF7DD
:10506000A7FA00F039F8FAE708B502F03DFA08BDF2
:1050700008B502F041FA08BD08B5FFF715FE08BDF6
:1050800008B5FFF7C5FD08BD08B5FFF7EDFD08BD84
:1050900008B5FFF7BDFE08BD08B5FFF713FE08BD54
:1050A00008B50846FFF7A8FE08BD00BF08B50846CA
:1050B0001146FFF723FE08BD704700BF044B0022D6
:1050C0001A714FF47A7199601A73024A1A60704724
:1050D00084DAFF1F98B1000008B50F4B1B78CBB9DD
:1050E00001220D4B1A70FFF7DFFD08B1FFF7E4FF57
:1050F00000F0D4FB08B101F0EFFB00F05BFF08B15A
:1051000001F08CFC01F028FA08B101F029FD002221
:10511000014B1A7008BD00BF94DAFF1F844641EAB4
:10512000000313F003036DD1403A41D351F8043B1F
:1051300040F8043B51F8043B40F8043B51F8043B71
:1051400040F8043B51F8043B40F8043B51F8043B61
:1051500040F8043B51F8043B40F8043B51F8043B51
:1051600040F8043B51F8043B40F8043B51F8043B41
:1051700040F8043B51F8043B40F8043B51F8043B31
:1051800040F8043B51F8043B40F8043B51F8043B21
:1051900040F8043B51F8043B40F8043B51F8043B11
:1051A00040F8043B51F8043B40F8043B403ABDD280
:1051B000303211D351F8043B40F8043B51F8043B22
:1051C00040F8043B51F8043B40F8043B51F8043BE1
:1051D00040F8043B103AEDD20C3205D351F8043BB1
:1051E00040F8043B043AF9D2043208D0D2071CBF7D
:1051F00011F8013B00F8013B01D30B8803806046A6
:10520000704700BF082A13D38B078DD010F003031B
:105210008AD0C3F10403D21ADB071CBF11F8013B8B
:1052200000F8013B80D331F8023B20F8023B7BE7DA
:10523000043AD9D3013A11F8013B00F8013BF9D205
:105240000B7803704B7843708B788370604670479F
:1052500060223A4B1A70E12201331A70384B1B78E6
:10526000082B10D1012203F1804303F56C331A603F
:10527000132334490B6001F5FF2101F2FC710A6030
:10528000314A13601FE00A2B0DD139222F4B1A60CF
:1052900013232C490B6001F5FF2101F2FC710A6018
:1052A000294A13600FE00C2B0CBF35223D22274BFF
:1052B0001A60122323490B6001F5FF2101F2FC71F2
:1052C0000A60214A1360224B1B7833B10123214A23
:1052D000136002F50022136005E000231D4A1360ED
:1052E00002F5002213601C4B1B78012B06D880238B
:1052F0001A4A136002F5002213601AE0042B06D844
:105300008423164A136002F50022136011E0082B73
:1053100006D88523114A136002F50022136008E0C5
:10532000102B94BF862387230C4A136002F50022BA
:10533000136001220A4B1A70704700BF00400740FB
:105340003C8CFF1F0CB003400CB00B4008B0034076
:1053500096DAFF1F20B003403D8CFF1F24B00340AE
:1053600095DAFF1F30B40023B0FBF2F402FB140403
:105370001D46092C94BF30343734E4B2CC54B0FB12
:10538000F2F008B10133EFE70D4400226A70934256
:1053900007DD885CCC5C8C54C8540132013B9A42D6
:1053A000F7DB084630BC7047254B1A6842F4806230
:1053B0001A600023234A1370234A1370234A137080
:1053C000234A1370234A1370234B1B7813B1152BF8
:1053D00005D008E040F21332204B1A6003E040F29F
:1053E00013321F4B1A601F4B1B78012B02D0052B69
:1053F00005D008E04FF451721B4B1A6003E04FF4E4
:1054000051721A4B1A60C0F34432194B1A70C0F330
:1054100047125A7000F01F00987204229A700221FD
:10542000D9745A7588221A743C22DA704022114BC2
:105430001A704FF40052A3F229331A60704700BF6C
:105440003480044024DBFF1F9DDAFF1F2CDBFF1F8D
:1054500025DBFF1F9CDAFF1FE0DAFF1F40A004409E
:1054600018C004403E8CFF1F44A004401CC00440F0
:1054700000A006402DE400E0164B9B7803F0EC03FF
:1054800000F00302134310F0040F18BF43F01003A1
:10549000104A937000F00F03042B04D11346927945
:1054A00042F040029A710B4B5A7902F0EF0210F071
:1054B000100F18BF42F01002064B5A719B7903F08F
:1054C000EF0310F0200F18BF43F01003014A93714F
:1054D000704700BF00A0064010B5144B1B6813F4C2
:1054E000806F21D0124B1B7813F0FF0F06D0104CA9
:1054F000FFF7F2FD237813F0FF0FF9D14FF40052BC
:105500000C4B1A6000230C4AD37040F203120B4973
:105510000A6004310A600A4A13700A4A13700A4B7F
:105520001B680BB101221A7010BD00BF348004400B
:105530009CDAFF1F84E100E000A0064040A0044088
:1055400024DBFF1F9DDAFF1F98DAFF1F10B504460A
:10555000094A137813F0FF0FFBD120460121FEF713
:1055600081FD20460021FEF74BFD044B53F834200B
:10557000034B1A6010BD00BF9CDAFF1F7CB0000017
:1055800028DBFF1F10B40C4609B140F08000184B17
:105590001B78984228D0174A126812F4806F21D0E5
:1055A00003F07F03012B02D0052B04D006E000227C
:1055B000114B1A6002E00022104B1A60002C0CBF45
:1055C0004422602200F07F03012B02D0052B05D07E
:1055D00008E042F44072084B1A6003E042F4407263
:1055E000064B1A60024B18705DF8044B704700BF01
:1055F0003E8CFF1F3480044044A004401CC0044083
:10560000114B1B7898421ED0104A126812F4806F1A
:1056100017D013B1152B04D006E000220C4B1A60F2
:1056200002E000220B4B1A6010B1152805D008E0EB
:1056300040F21332064B1A6003E040F21332054B7E
:105640001A60014B18707047E0DAFF1F3480044085
:1056500040A0044018C0044010B50D4B1B6813F463
:10566000806F12D021280CD80A4C0B4B53F83030E5
:1056700023600121FEF7F6FC236800221A70012046
:1056800010BD0020034B186010BD002010BD00BFEE
:105690003480044098DAFF1F7CB00000114B1B6877
:1056A00013F4806F1BD0122804D140F202320E4B4B
:1056B0001A600DE0142804D140F202320B4B1A603C
:1056C00006E00B4B5A7B02F0FE025A730020704733
:1056D000074B5A7B42F001025A73012070470020A9
:1056E000704700BF348004400CA0044014C0044044
:1056F00000A006402DE9F04107461F4B1B6813F43C
:10570000806F37D01D4B1B680BB101221A701C4BE8
:105710001C780134402C28BF00241A4D1A4EDFF8A3
:105720006C8017E0FEF774FA40280FDC337913F031
:10573000800F0FD02B780133402B28BF002318F89F
:105740000320D2B2F271DBB22B7003E0FF2801DD3F
:10575000FFF7C2FC2B78DBB29C42E3D0FFB20B4BCD
:105760001F5501220A4B1A70E4B2054B1C70BC2273
:10577000054BDA70BDE8F0813480044028DBFF1F60
:105780002CDBFF1F25DBFF1F00A00640A0DAFF1F58
:105790009CDAFF1F2DE9F84F0746284B1B6813F4CE
:1057A000806F49D0264B1B680BB101221A7007EBA2
:1057B000010B5F453DD2DFF89890224EDFF88C80D8
:1057C000DFF890A099F800400134402C28BF002455
:1057D0003578EDB2A54220D1BC2388F80330FEF71E
:1057E00017FA402811DC98F8043013F0800F10D01D
:1057F00033780133402B28BF00231AF80320D2B29C
:1058000088F80720DBB2337003E0FF2801DDFFF7E3
:1058100063FC3378DBB29D42E1D017F8013B0AF814
:1058200004300122084B1A70E4B289F800405F4549
:10583000C8D1BC22054BDA70BDE8F88F3480044033
:1058400028DBFF1F25DBFF1F9CDAFF1F00A006409F
:105850002CDBFF1FA0DAFF1F10B5064B1B7813F0DF
:10586000FF0F06D0034CFFF737FC237813F0FF0F30
:10587000F9D110BD9CDAFF1F064B1B78DBB2064A3C
:105880001278D2B293422CBF3F3202F1FF32D01ACB
:10589000704700BF2CDBFF1F25DBFF1F054B18786F
:1058A000C0B2054B1B78DBB2984238BF4030C01AFB
:1058B000704700BF24DBFF1F9DDAFF1F10B4184B99
:1058C0001A78D2B2174B1B78DBB29A4218D0013348
:1058D0003F2B18D81449C85CC0B2DCB211490C7017
:1058E00012490968C9B19A4203D300E00023D31AD0
:1058F00001E04032D31A1A2B0FDC00230B700CE0AE
:105900004FF0FF3009E0084B1878C0B20021054B7A
:105910001970064B19680029E8D15DF8044B7047EF
:1059200024DBFF1F9DDAFF1FE4DAFF1F98DAFF1F59
:10593000094B1A78D2B2094B1B78DBB29A4207D0D6
:105940000133402B28BF0023054AD05CC0B270470A
:105950004FF0FF30704700BF24DBFF1F9DDAFF1FB1
:10596000E4DAFF1F0D4B1B6813F4806F14D00C4B4F
:10597000DA7802F0CB02DA7040225A74DA7842F018
:105980003402DA70074B1A78D2B2074B1A70074B01
:105990001B680BB100221A70704700BF34800440AE
:1059A00000A006409DDAFF1F24DBFF1F98DAFF1FCF
:1059B00070B43D4B1B7913F0300F33D072B63A4BB5
:1059C0009B7D03F0FF022BB9374BDA7940225A74E2
:1059D00062B627E062B6354B1978C9B2344B1C78F1
:1059E000E4B2314D334EEB79D8B24B1C402B28BF7B
:1059F0000023A3421CBFF0541946531E13F0FF02AC
:105A0000F1D1CAB2294B1A702B4B1B6853B1A1427A
:105A10002EBFC4EB0101C4F1400409192729C4BFFA
:105A200001221A70204BDA78D2B212F0800F27D000
:105A30001B7913F0800F23D0204B1C78E4B2204B4D
:105A40001B78DBB29C4210D017491E4D01E0A342E7
:105A50000BD00133402B28BF00230879E85CC0B28B
:105A6000C871087DC0B20728F1D9DBB214490B70A8
:105A70000D4B1B7913F0800F02D07C210A4BD9709B
:105A800012F0400F0ED0084B1B7913F0400F09D0D5
:105A900000220D4B1A700D4B1B6803B11A703C228B
:105AA000014BDA7070BC704700A0064024DBFF1F7A
:105AB0009DDAFF1FE4DAFF1F98DAFF1F2CDBFF1FC0
:105AC00025DBFF1FA0DAFF1F9CDAFF1F28DBFF1F6B
:105AD000254B1A6842F400621A600023234A1370AF
