:1000000000800020BD010000DD4A0000A14A000080
:10001000A14A0000A14A0000A14A0000A14A000034
:10002000A14A0000A14A0000A14A0000DD4A0000E8
:10003000DD4A0000A14A0000DD4A0000914A0000AC
:10004000DD4A0000DD4A0000DD4A0000DD4A000014
:10005000DD4A0000DD4A0000DD4A0000DD4A000004
:10006000DD4A0000DD4A0000DD4A0000DD4A0000F4
:10007000DD4A0000DD4A0000DD4A0000DD4A0000E4
:10008000DD4A0000DD4A0000DD4A0000DD4A0000D4
:10009000DD4A0000DD4A0000DD4A0000DD4A0000C4
:1000A000893B0000993B0000DD4A0000DD4A00006A
:1000B000DD4A0000DD4A0000DD4A0000DD4A0000A4
:1000C000DD4A0000DD4A0000DD4A0000DD4A000094
:1000D000DD4A0000DD4A0000DD4A0000DD4A000084
:1000E000DD4A0000DD4A0000DD4A0000DD4A000074
:1000F000DD4A000071670000DD4A0000896E0000E3
:10010000DD4A000005740000DD4A0000DD4A000001
:10011000DD4A0000DD4A0000DD4A0000DD4A000043
:10012000DD4A0000DD4A0000DD4A0000DD4A000033
:10013000DD4A0000DD4A0000DD4A0000DD4A000023
:10014000DD4A0000DD4A0000DD4A0000DD4A000013
:10015000DD4A0000DD4A0000DD4A0000DD4A000003
:10016000DD4A0000E9520000DD4A0000DD4A0000DF
:10017000DD4A0000DD4A0000DD4A0000DD4A0000E3
:10018000DD4A0000DD4A0000DD4A0000DD4A0000D3
:10019000DD4A0000DD4A0000DD4A0000DD4A0000C3
:1001A000DD4A0000DD4A0000DD4A0000DD4A0000B3
:1001B000DD4A0000DD4A0000DD4A0000574B4CF2EA
:1001C000205210B51A804DF628121A8000BF00BFC9
:1001D00004F088FC524B4FF010621A60514A9A604A
:1001E000514ADA60A3F53043203B1A6812F480725A
:1001F00004D14E490A604FF4A8521A604C4B1A7849
:10020000110703D51A7842F008021A70494B4A4C7C
:100210004A482A221A704A4A00239918A14203D256
:10022000195899500433F8E7464B474900228B424E
:1002300002D243F8042BFAE74448454900235A58B0
:100240001A500433B3F5DE7FF9D1424B424A802184
:1002500003F8011B9342FBD1404B3C4A1A60404BD0
:100260000A221A70A3F5805324225A70A0221A7011
:100270009A799207FCD59A79D406FCD4394A9379B5
:1002800003F00C03082B374BF9D103221A714022DB
:100290005A719A799006FCD5324A9179314B4906C8
:1002A000FBD5314A314911600221516020221A7078
:1002B0009A7902F00C020C2AFAD12D4B2D4A1A60C1
:1002C0002D4B4BF67F321A6000225A60072243F80A
:1002D000042C2A4AC3F80C2D62B604F0C5FE134B59
:1002E0001B68DA0705D5264804F0F4FD254B264A9D
:1002F0001A60264B1B785B0609D5224C224A2368DC
:10030000934204D11E4804F0E5FD0023236007F06A
:1003100099FF04F0EDFB05F019FEFEE70E20054005
:1003200030800440823F04000100002B14D00340C1
:1003300002D0074000E0074058A7FF1FD8C70000C1
:100340006087FF1F58A7FF1FDCF1FF1F0082FF1F00
:100350000000000000E400E05FE400E008ED00E0E1
:100360000050064000400640448004400000131145
:1003700004800440C010050014E000E000002020CC
:100380000F12DF571CE00340A5C3945A00F007404A
:10039000FFFFFFFFFFFFFFFFFFFFFFFFFFFFFFFF6D
:1003A000FFFFFFFFFFFFFFFFFFFFFFFFFFFFFFFF5D
:1003B000FFFFFFFFFFFFFFFFFFFFFFFFFFFFFFFF4D
:1003C000FFFFFFFFFFFFFFFFFFFFFFFFFFFFFFFF3D
:1003D000FFFFFFFFFFFFFFFFFFFFFFFFFFFFFFFF2D
:1003E000FFFFFFFFFFFFFFFFFFFFFFFFFFFFFFFF1D
:1003F000FFFFFFFFFFFFFFFFFFFFFFFFFFFFFFFF0D
:10040000FFFFFFFFFFFFFFFFFFFFFFFFDEF9FFFF23
:1004100010B5054C237833B9044B13B10448AFF33E
:1004200000800123237010BD58A7FF1F00000000AB
:10043000D8C7000008B5064B1BB106480649AFF304
:1004400000800648036813B1054B03B1984708BD07
:1004500000000000D8C700005CA7FF1F58A7FF1FBF
:100460000000000038B505460C46084608F030FC90
:1004700002462B685B6828462146984738BD00BF76
:1004800038B504460D46084608F022FC02462368AB
:100490005B682046294698470546204605F000FD42
:1004A000284438BD70B48DB00446051D1F4E0FCED4
:1004B0000FC596E8030085E803004FF48043A3834B
:1004C0001B4B1A680592059A22621A680492049AD4
:1004D000A2621A680392039A22631A680292029A2D
:1004E000A2631A680192019A22641A680092009A23
:1004F000A2641A680B920B9A22651A680A920A9AE9
:10050000A2651A680992099A22661A680892089ADE
:10051000A2661A680792079A22671B680693069BD1
:10052000A36720460DB070BC704700BF14B7000031
:10053000C4EEFF1F84B0194B1B681BB1B3F1FF3F22
:100540000FD024E0002825D0154B1B680193019A99
:10055000144B1A604FF0FF33134A13600F4A1360B5
:1005600015E070B90E4B1B680293029B0F4A136093
:100570000C4A1068181A0C4B18600022074B1A60BE
:100580000AE0074B1B680393039A064B1A60054B5E
:10059000186801E04FF0FF3004B0704774A7FF1FE8
:1005A000C4EEFF1FB0CBFF1F6487FF1FD8A7FF1F3C
:1005B000F8B50278042A10D0064600254FF6FF74DD
:1005C0000F4F3846214603F071FB04460135ADB2AA
:1005D00016F8012F042AF4D102E000254FF6FF742B
:1005E000084E33685B68304607490C22984730460E
:1005F000294605F0A1FC304605F052FC2046F8BD26
:1006000098C9FF1FBCEFFF1F90B700000B78042BA9
:1006100014D00D2B0DD00A2B0BD04A1C114600F81C
:10062000013B12F8013B042B08D00D2B01D00A2B03
:10063000F4D1037000234370481C704700210170FF
:10064000084670470B782BB100F8013B11F8013FC9
:10065000002BF9D10A230370042300F8013F7047EF
:1006600070B504463D2108F04DF900282CD12F4DDE
:100670002846214603F0F8FB04462846214603F0AD
:1006800057FC002845D02046294908F0FFFC0028E7
:1006900041D12046274908F0F9FC00283DD12046E9
:1006A000254908F0F3FC002839D12046234908F0F9
:1006B000EDFC002835D12046214908F0E7FC002850
:1006C00014BFEF20FE2070BD461C00220270174DA3
:1006D0002846214603F0C8FB04462846214603F07D
:1006E00003FC2846214603F067FC2846314603F008
:1006F000BBFB0546204608F0EBFA03462018013004
:100700003D22E254A8420ED0294608F083FA002088
:1007100070BDFE2070BDDF2070BDAF2070BDBF205A
:1007200070BDCF2070BD002070BD00BF98C9FF1FF5
:10073000A0B70000ACB70000B8B70000C4B7000015
:10074000D4B7000010B50D4C23685B6820460C49F7
:100750001122984720460B4B598805F0EDFB236882
:100760005B68204608491F229847204605F098FB01
:10077000064B1A8801321A8010BD00BFBCEFFF1F64
:10078000DCB7000098C9FF1FF0B7000094C9FF1F35
:1007900070B5044608F09CFA052836D12278A2F1FB
:1007A0003003092B33D8201D234613F8011F30399D
:1007B00009292ED88342F8D131E020461346002182
:1007C0003026392B1ABF0133DBB2334610F8015FF4
:1007D000AB4204D10131C9B20429F2D11BE0042992
:1007E0001BD000203921302A1ABF02F1FF32D2B2C9
:1007F0000A4614F8013F9A4203D10130C0B20428DE
:10080000F1D1043818BF012070BD002070BD002058
:1008100070BD002070BD002070BD002070BD21782B
:1008200063789942C9D1002070BD00BF70B588B00F
:1008300006463D2108F066F8044640B98C488D49CB
:1008400003F01EFC8C4B1A8801321A80B0E1451C63
:1008500000230370864A1380284608F039FA1028CE
:1008600004D98348854903F00BFCA1E16846294679
:1008700008F0D0F93046824908F0BEF810BB28468F
:10088000804908F01DF8C0B128467F4908F018F8E3
:1008900098B128467D4908F013F870B128467C4984
:1008A00008F00EF848B128467A4908F009F820B156
:1008B0006F48794903F0E4FB72E17848294608F073
:1008C000A9F96DE13046764908F096F8A8B9637841
:1008D00083B16748694603F07BFA724B984204D1B2
:1008E0006348714903F0CCFB5AE17048294608F08F
:1008F00091F955E1FFF726FF52E130466C4908F0C7
:100900007BF8A8B9637883B15948694603F060FA67
:10091000644B984204D15648634903F0B1FB3FE170
:100920006448294608F076F93AE1FFF70BFF37E112
:100930003046614908F060F8B0B963788BB14C4833
:10094000694603F0F1F94FF6FF73984204D1484825
:100950005A4903F095FB23E15948294608F05AF912
:100960001EE1FFF7EFFE1BE13046564908F044F860
:10097000B0B963788BB13E48694603F0D5F94FF6BC
:10098000FF73984204D13A484C4903F079FB07E1E0
:100990004D48294608F03EF902E1FFF7D3FEFFE09B
:1009A00030464A4908F028F8B0B963788BB130482E
:1009B000694603F0B9F94FF6FF73984204D12C4809
:1009C0003E4903F05DFBEBE04148294608F022F97F
:1009D000E6E0FFF7B7FEE3E030463E4908F00CF8EA
:1009E00098B9637873B12248694603F00DFB20B9CA
:1009F0001F48394903F044FBD2E03848294608F043
:100A000009F9CDE0FFF79EFECAE03046344907F011
:100A1000F3FF98B9637873B11548694603F0F4FAA7
:100A200020B913482F4903F02BFBB9E02E48294683
:100A300008F0F0F8B4E0FFF785FEB1E030462B494E
:100A400007F0DAFF002857D1637873B10848694688
:100A500003F0DAFA20B90648254903F011FB9FE0BC
:100A60002448294608F0D6F89AE0FFF76BFE97E095
:100A700098C9FF1F64B90000ACCBFF1F10B800007D
:100A80004CB8000028B8000030B8000034B80000AE
:100A90003CB8000040B8000044B80000B888FF1F10
:100AA00054B80000805101005CB800005099FF1F4D
:100AB0006CB800009088FF1F74B8000080B8000078
:100AC000688EFF1F94B80000708EFF1FA0B8000052
:100AD000788EFF1FB4B80000ACB80000E8ECFF1F30
:100AE000C0B80000B8B800003CEDFF1FC8B8000057
:100AF000D4B800004CEDFF1F30462E4907F07CFFB4
:100B000060BB63783BB328462B4907F0D9FEE8B1B8
:100B100028462A4907F0D4FEC0B12846284907F0E4
:100B2000CFFE98B12846274907F0CAFE70B1284683
:100B3000254907F0C5FE48B12846244907F0C0FE04
:100B400020B12348234903F09BFA29E02248294693
:100B500008F060F824E0FFF7F5FD21E030461F497A
:100B600007F04AFFC0B963789BB128461C4907F0DB
:100B7000A7FE48B128461B4907F0A2FE20B1144841
:100B8000194903F07DFA0BE01848294608F042F8AD
:100B900006E0FFF7D7FD03E00D48154903F070FAB2
:100BA0003D232370134B1988094A12880A441A807E
:100BB00008B070BDE8B80000ECB80000F0B8000064
:100BC000F4B80000F8B80000FCB8000004B9000058
:100BD00098C9FF1F0CB90000B088FF1F24B900009E
:100BE00028B900002CB9000030B900008888FF1F28
:100BF00044B90000ACCBFF1F70B506463D2107F09D
:100C000081FE044640B96E486E4903F039FA6E4BD6
:100C10001A8801321A8070BD451C00230370684A8F
:100C20001380284608F054F8082804D96448674916
:100C300003F026FA70BD3046654908F027FA30B354
:100C400063780BB35E48B11D03F084F90646FF28B4
:100C500004D15B485F4903F013FAA8E058482946DD
:100C600003F062F84FF6FF73984204D154485A4992
:100C700003F006FA9BE006EB4606584800EBC60078
:100C8000294607F0C7FF92E0FFF75CFD8FE0304692
:100C9000534908F0FBF940B363781BB3484806F1A9
:100CA000080103F057F90646FF2804D14448494992
:100CB00003F0E6F97BE04248294603F035F84FF6A9
:100CC000FF73984204D13E48434903F0D9F96EE0DE
:100CD00006EB4606414B03EBC6000830294607F0F9
:100CE00099FF64E0FFF72EFD61E030463D4908F0D2
:100CF000CDF958B3637833B3314806F1080103F0F6
:100D000029F90646FF2804D12D48324903F0B8F9E5
:100D10004DE02B48294603F05BF9C0B2192808D0F2
:100D2000282806D0322804D025482F4903F0A8F9F6
:100D30003DE006EB4606294B03EBC6001030294682
:100D400007F068FF33E0FFF7FDFC30E0304627494D
:100D500008F09CF938B3637813B3194806F10C0115
:100D600003F0F8F80646FF2804D11548194903F0A6
:100D700087F91CE028461E4907F0A2FD48B1284625
:100D80001C4907F09DFD20B10D481B4903F078F97F
:100D90000DE01A4800EBC600294607F03BFF06E0CD
:100DA000FFF7D0FC03E00648154903F069F93D233D
:100DB0002370054B1988024A12880A441A8070BDB4
:100DC00098C9FF1F5CB90000ACCBFF1F10B8000032
:100DD00078B9000080B9000080B80000E88EFF1FDD
:100DE0009CB90000A8B90000B4B90000C4B9000063
:100DF0002CB9000028B90000D4B90000808EFF1F74
:100E000044B9000070B506463D2107F07BFD04465D
:100E100040B96E486E4903F033F96E4B1A880132BF
:100E20001A8070BD451C00230370684A1380284651
:100E300007F04EFF082804D96448674903F020F9F9
:100E400070BD3046654908F021F930B363780BB3C3
:100E50005E48B11D03F07EF80646FF2804D15B48CA
:100E60005F4903F00DF9A8E05848294602F05CFFFD
:100E70004FF6FF73984204D154485A4903F000F9E1
:100E80009BE006EB4606584800EBC600294607F0F3
:100E9000C1FE92E0FFF756FC8FE03046534908F060
:100EA000F5F840B363781BB3484806F1080103F036
:100EB00051F80646FF2804D14448494903F0E0F8B8
:100EC0007BE04248294602F02FFF4FF6FF7398421D
:100ED00004D13E48434903F0D3F86EE006EB4606E2
:100EE000414B03EBC6000830294607F093FE64E04F
:100EF000FFF728FC61E030463D4908F0C7F858B3D9
:100F0000637833B3314806F1080103F023F806464D
:100F1000FF2804D12D48324903F0B2F84DE02B48A8
:100F2000294603F055F8C0B2192808D0282806D061
:100F3000322804D025482F4903F0A2F83DE006EB03
:100F40004606294B03EBC6001030294607F062FE27
:100F500033E0FFF7F7FB30E03046274908F096F81A
:100F600038B3637813B3194806F10C0102F0F2FFAD
:100F70000646FF2804D11548194903F081F81CE002
:100F800028461E4907F09CFC48B128461C4907F03A
:100F900097FC20B10D481B4903F072F80DE01A4888
:100FA00000EBC600294607F035FE06E0FFF7CAFB56
:100FB00003E00648154903F063F83D232370054B11
:100FC0001988024A12880A441A8070BD98C9FF1F06
:100FD0005CB90000ACCBFF1F10B80000F8B90000EE
:100FE00080B9000080B80000308DFF1F00BA0000FB
:100FF0000CBA0000B4B9000018BA00002CB9000007
:1010000028B90000D4B90000C088FF1F44B900000F
:1010100070B506463D2107F075FC044640B9874887
:10102000874903F02DF8874B1A8801321A8070BD6A
:10103000451C00230370814A1380284607F048FEB0
:10104000082804D97D48804903F01AF870BD30465D
:101050007E4907F0D1FCB0B963788BB17748294657
:1010600002F062FE4FF6FF73984204D1734878494C
:1010700003F006F8D9E07748294607F0CBFDD4E025
:10108000FFF760FBD1E03046734907F0B5FCB0B91B
:1010900063788BB16948294602F046FE4FF6FF732C
:1010A000984204D165486A4902F0EAFFBDE06B4806
:1010B000294607F0AFFDB8E0FFF744FBB5E0304646
:1010C000674907F099FCC8B96378A3B15B48294622
:1010D00002F07EFFC0B2192808D0282806D0322896
:1010E00004D056485F4902F0CBFF9EE05E48294697
:1010F00007F090FD99E0FFF725FB96E030465B494D
:1011000007F0C4FFC0B163789BB12846584907F087
:10111000D7FB48B12846574907F0D2FB20B14748D2
:10112000554902F0ADFF80E05448294607F072FDB2
:101130007BE0FFF707FB78E03046514907F05CFCA5
:10114000B0B963788BB13D48294602F0EDFD4FF60A
:10115000FF73984204D139483D4902F091FF64E0A1
:101160004848294607F056FD5FE0FFF7EBFA5CE0E0
:101170003046454907F040FCB0B963788BB12F4841
:10118000294602F0D1FD4FF6FF73984204D12B4857
:101190002F4902F075FF48E03C48294607F03AFD28
:1011A00043E0FFF7CFFA40E03046394907F024FC2E
:1011B000C8B96378A3B12148294602F009FFC0B23B
:1011C000192808D0282806D0322804D01B482549E1
:1011D00002F056FF29E02F48294607F01BFD24E0C6
:1011E000FFF7B0FA21E030462B4907F04FFFC0B1BE
:1011F00063789BB128461E4907F062FB48B1284638
:101200001C4907F05DFB20B10C481B4902F038FF78
:101210000BE02248294607F0FDFC06E0FFF792FAB2
:1012200003E006481E4902F02BFF3D232370054BC7
:101230001988024A12880A441A8070BD98C9FF1F93
:101240005CB90000ACCBFF1F10B8000028BA00004A
:1012500080B80000008DFF1F34BA0000088DFF1F0A
:1012600044BA0000B4B90000108DFF1F54BA00004A
:101270002CB9000028B90000D4B90000A088FF1FD5
:1012800068BA0000188DFF1F74BA0000208DFF1F80
:1012900084BA0000288DFF1F94BA0000A888FF1FA1
:1012A00044B9000070B506463D2107F02BFB04460B
:1012B00040B95448544902F0E3FE544B1A880132B5
:1012C0001A8070BD451C002303704E4A13802846C7
:1012D00007F0FEFC102804D94A484D4902F0D0FE20
:1012E00086E030464B4907F0D1FEC0B16378002B51
:1012F0007ED04448711D02F06BFEC3B20A2B04D9A4
:101300004048454902F0BCFE72E0C0B200EB8000EC
:10131000424B03EBC000294607F07CFC68E03046F6
:101320003F4907F0B3FE18B36378002B60D035480F
:10133000311D02F04DFE0646C3B20A2B04D93148D6
:10134000384902F09DFE53E02846FFF721FA50B1DC
:10135000F6B206EB8606314B03EBC6001030294689
:1013600007F058FC44E027482F4902F089FE3FE08F
:1013700030462E4907F040FB002835D06378002B1B
:1013800036D02048F11D02F023FE0646C3B20A2BD8
:1013900004D91C48264902F073FE29E063783BB368
:1013A0002846244907F08CFA98B12846224907F0CC
:1013B00087FA70B12846214907F082FA48B12846D9
:1013C0001F4907F07DFA20B10E481E4902F058FE71
:1013D0000EE0F6B206EB8606104B03EBC6001830A3
:1013E000294607F017FC03E00648174902F048FEBB
:1013F0003D232370054B1988024A12880A441A803B
:1014000070BD00BF98C9FF1F5CB90000ACCBFF1FC7
:1014100010B80000A8BA0000B0BA0000DCC7FF1F77
:10142000C4BA0000CCBA0000E0BA0000F4BA000070
:10143000FCBA000014BB00001CBB000024BB000071
:101440002CBB000038BB000044B900002DE9F0437C
:1014500085B00746264B1B680193019D0026244C4E
:10146000DFF894802FE004F04DFBC0B223680293B4
:10147000029D0A2812D10136B6B207F101090A23EA
:101480003B7004237B700023BB70D8F800305B688E
:1014900040461849012298474F4614E00D2802D1D2
:1014A0000136B6B20FE00136B6B27A1C38700423AA
:1014B0007B700023BB7041F6FE739E4202D900236D
:1014C0007B7011E0174604F069FB0028CBD106E0E1
:1014D00023680393039B5B1BB3F57A7F04D804F066
:1014E0005DFB0028F4D0EEE7304605B0BDE8F083A0
:1014F000C4EEFF1F7CBC0000BCEFFF1F2DE9F041D4
:1015000006463D2107F0FEF9451C284607F0E0FBA2
:10151000C7B2304607F0DCFB5FFA80F83046164968
:1015200007F0B4FD20B185428CBF1024082400E0F0
:1015300008243046114907F0A9FD10B1854288BF43
:10154000102430460E4907F0A1FD10B1854288BF36
:10155000102430460B4907F099FD10B1854288BF31
:1015600010240A232B5508F10108C7EB080754FA89
:1015700087F0C0B2BDE8F081B4B80000C0B8000088
:1015800050BB000058BB000003780A2B0ED00D2B77
:101590000ED0042B0ED00022013210F8013F0A2B8E
:1015A00009D00D2B07D0042BF6D104E0002202E075
:1015B000002200E00022501C704700BF84B070B5CC
:1015C00004AC84E80F000A9D099E1C48002180227B
:1015D00007F016F99DF8102052B1194B04AC1846CB
:1015E00003F8012C14F8012F0133002AF7D100E091
:1015F0001248421C3D230370337833B1314602F860
:10160000013B11F8013F002BF9D1002313700B4867
:10161000FFF774FF014658B1002308481A5CEA54EA
:101620000133DAB28A42F9D30139C9B201310D442A
:101630002846BDE8704004B0704700BFB4CBFF1F20
:10164000B5CBFF1F70B584B00446614D614A2B468F
:1016500007CA03C31A802B78002B00F0A7802A4604
:1016600004F8013B12F8013F002BF9D19EE005EB95
:10167000450306EBC303029403F1100292E8030052
:101680008DE803000FCBFFF799FF044601350C2DC1
:10169000EDD14F4E504B35460FCB07C52B703378ED
:1016A000002B00F08680324604F8013B12F8013F1F
:1016B000002BF9D17DE005EB450306EBC303029453
:1016C00003F1100292E803008DE803000FCBFFF74F
:1016D00075FF04460135312DEDD13D4E3F4B35466A
:1016E0000FCB07C52B703378002B65D0324604F83A
:1016F000013B12F8013F002BF9D15DE005EB4503FA
:1017000006EBC303029403F1100292E803008DE894
:1017100003000FCBFFF752FF04460135312DEDD109
:101720002B4E2F4B35460FCB07C52B803378002B24
:1017300045D0324604F8013B12F8013F002BF9D1A5
:101740003DE005EB450306EBC303029403F11002F1
:1017500092E803008DE803000FCBFFF72FFF04464C
:101760000135092DEDD11A4D1E4A2B4607CA03C378
:101770001A702B7833B32A4604F8013B12F8013F64
:10178000002BF9D11EE005EB450306EBC3030294E1
:1017900003F1100292E803008DE803000FCBFFF77E
:1017A0000DFF044601351F2DEDD10EE001250E4E33
:1017B0005DE701250D4E7EE701250D4E9EE70125D3
:1017C0000C4EBEE701250C4EDDE704B070BD00BF36
:1017D000B4CBFF1F60BB00006CBB00007CBB0000F3
:1017E0008CBB00009CBB00006887FF1F2090FF1F80
:1017F000B894FF1F2889FF1F008AFF1FF0B583B030
:101800001620012103F0A8FB1620002103F072FB33
:101810001620012103F06EFB494C20461C2102F0EA
:1018200051FC204602F052FC204602F053FC454E8B
:1018300030461B2102F0C8FF434D28461A2102F012
:10184000C3FF424C2046192102F0BEFF304602F091
:10185000C1FF284602F0BEFF204602F0BBFF304623
:1018600003F064F8284603F061F8204603F05EF8C0
:1018700000273763304603F007F82F63284603F04C
:1018800003F82763204602F0FFFF314C2046502129
:1018900000F014FC204600F013FC204600F0ECFCA5
:1018A0002C482D4D2D4B2E4C42F20F71027812F028
:1018B000FF0F3DD02A7812F0030F39D01E6822683E
:1018C000B21A182A34D9274C23685B682046264967
:1018D0001022984723685B68204624490C229847C9
:1018E00023685B68204622490822984723685B6882
:1018F000204620490122984723685B6820461E49FC
:101900000B229847124B1B7DC3B923685B682046A6
:101910001A4929229847204604F0C2FA23685B68D6
:101920002046174920229847204604F0B9FAFEE7DE
:101930001A680192019A8A42B8D9C4E703B0F0BD8F
:10194000ACA7FF1FDCEDFF1FB4ECFF1F78A7FF1F44
:10195000F8ECFF1FA8EFFF1FB8EFFF1FC4EEFF1F3B
:10196000D4F1FF1FBCEFFF1FA8BB0000BCBB0000F1
:10197000CCBB00008CC00000D8BB0000E4BB000062
:1019800010BC00002DE9F04784B0884804214FF4D2
:10199000005206F035FF864B1B680193019D854878
:1019A00003685B688449202298474FF00008804C08
:1019B000804E1DE023680293029B5B1BBB4219D93A
:1019C00023680393039D33685B6830467B491C2280
:1019D000984730465FFA88F10A22002304F070FA33
:1019E00033685B68304676490522984708F101085C
:1019F00042F2107704F0D2F80028DBD06D4C236857
:101A00005B6820466F490B229847204604F048FA4D
:101A10000120FEF78FFD6C4F3846FFF717FD064695
:101A20000020FEF787FD054623685B68204667496E
:101A30000B2298472046314604F07EFA23685B6803
:101A4000204663490F2298472046294604F074FA3D
:101A500023685B6820465F4902229847204604F0CD
:101A60001FFA00255C4B5D8023685B6820465B495C
:101A70000A229847204604F013FA0120FEF75AFD87
:101A8000DFF82881564C544EDFF8789120463946CD
:101A9000FEF7BCFD0746002843D02378042B02D173
:101AA00088F800303DE07288013272800D2BEDD055
:101AB0000A2BEBD02046232106F024FF0028E5D195
:101AC0002046FEF7CDFD824668B1FE2804D130469F
:101AD000494602F0D5FAD9E740462146FEF7B2FD65
:101AE00080465546D2E7DF2D03D12046FEF79EFE05
:101AF000CCE7AF2D03D12046FFF77EF8C6E7BF2D18
:101B000003D12046FFF77EF9C0E7CF2D03D1204651
:101B1000FFF77EFABAE7EF2DB8D12046FFF7C2FBF8
:101B2000B4E70020FEF706FD0546224C23685B68FB
:101B300020462C490A2298472046274B598804F012
:101B4000FBF923685B68204627490A22984720460C
:101B5000294604F0F1F923685B68204623490422F2
:101B60009847234B198800294ED0204604F0E4F909
:101B700023685B6820461F490B22984720461E4B6E
:101B8000198804F0D9F923685B6820461B490D22A7
:101B90009847204604F084F923685B68204618497A
:101BA0001A229847204604F07BF942E0DCA7FF1F89
:101BB000C4EEFF1FBCEFFF1F34BC000058BC000088
:101BC00078BC000080BC0000B4CCFF1F8CBC0000BF
:101BD00098BC0000A8BC000098C9FF1FACBC000066
:101BE000B4CBFF1FB8BC0000C4BC0000D0BC0000D8
:101BF000ACCBFF1FD8BC000094C9FF1FE4BC0000A1
:101C0000F4BC000064B90000964C23685B68204671
:101C100095490C2298472046944B198804F08CF97A
:101C200023685B68204692490C229847204604F0BE
:101C300037F98E4B1B8893B18E4B1B88002B40F0DD
:101C40004F818D488D498E4A02F026FC38B9874B6A
:101C50001A88884B1A8083488A49FEF711FC854B05
:101C60001B88002B40F03C81874F3846FFF7EAFC89
:101C70007C4C23685B68204684491722984720469D
:101C800004F00EF90120FEF755FC7B4804214FF4C7
:101C900080724FF4706302F0C7FB0020FEF74AFC2D
:101CA000054623685B682046794909229847204603
:101CB0004FF4706104F040F923685B682046754971
:101CC0000F2298472046294604F036F923685B68BE
:101CD0002046714902229847204604F0E1F800228C
:101CE0006E4B5A8023685B6820466D4909229847ED
:101CF000204604F0D5F80120FEF71CFC69484FF49B
:101D0000807100F013FA684D644E664C28463946DF
:101D1000FEF77CFC074688B1738801337380A562A7
:101D20002846FFF731FC2063204600F0B9FA4D4801
:101D300003685B685D4901229847E7E7594C042333
:101D40002376204600F07EFB2046002100F0EEF9CD
:101D5000204600F0F3FA544D4FF4807628460021D7
:101D6000324606F04DFD2046002100F0DFF9A56265
:101D70002663204600F094FA0020FEF7DBFB0546C0
:101D8000384C23685B682046494908229847434FEE
:101D90002046798804F0D0F823685B6820464549DE
:101DA000122298472046294604F0C6F823685B684B
:101DB0002046394902229847204604F071F8012054
:101DC000FEF7B8FB3048FEF7F3FB054638463146D0
:101DD00001F07AFF85422FD1324C2046FE2100F0DF
:101DE000A5F96583204600F09BFA0020FEF7A2FBD0
:101DF00007461C4C20463049FEF734FB1E4E304649
:101E0000294602F007FC20462C49FEF72BFB204612
:101E1000394604F091F820461F49FEF731FB204671
:101E20002749FEF71FFB30461449264A012302F0DA
:101E300033FB002850D04BE00F481049224A0123C1
:101E400002F02AFB18B10C48002102F05DFC054CA1
:101E500023685B6820461D4935229847204604F0D8
:101E60001FF8FEE7BCEFFF1F10BD000094C9FF1F65
:101E700020BD0000ACCBFF1F5CEDFF1F30BD00009C
:101E800038BD000064BD0000DCA7FF1F70BD00006E
:101E900088BD000094BD0000A8BC000098C9FF1FC9
:101EA000A4BD0000F8ECFF1FB4CBFF1F7CBC0000FA
:101EB000B0BD0000BCBD0000D0BD0000E0BD000012
:101EC00008BE000044BE000030BE000060BE00003E
:101ED0003148002102F018FC30483149FEF7D0FAB1
:101EE0002D483049304A012302F0D6FA20B12A4861
:101EF0004FF4804102F008FC27482A492B4A00236E
:101F000002F0CAFA38B3254C20462949FEF7B8FA40
:101F10000120FEF70FFB204804214FF480421346B6
:101F200002F082FA0020FEF705FB05462046214913
:101F3000FEF798FA20464FF4804103F0FDFF20465B
:101F40001D49FEF78FFA2046294603F0F5FF20468B
:101F50001A49FEF795FA10481249194A002302F06F
:101F60009BFA50B90D4C23685B6820461549222224
:101F70009847204603F094FFFEE7134800214FF4F2
:101F8000005206F03DFC0023104A1380104A1380D3
:101F900004B0BDE8F08700BF5CEDFF1FBCEFFF1F82
:101FA00098BE000030BD0000A0BE0000B8BE00001A
:101FB000D4BE000088BD000094BD0000A8BC000095
:101FC000F4BE000008BF0000B4CCFF1FACCBFF1F65
:101FD00094C9FF1F2DE9F041314C00252580658013
:101FE000304F07F118084E26201D4146324602F0B8
:101FF000B5FC04F152004146324602F0AFFC04F158
:10200000A00657F8680F7968BA68FB680FC63B8A64
:102010003380C4F8B450C4F8B850C4F8BC50C4F805
:10202000C05004F1C4002946442206F0E9FB032312
:1020300084F8C43045F26043C4F8C8304FF62053EA
:10204000C4F8CC3040F65553A4F8D03040F6B8630D
:10205000A4F8D23041F21C03A4F8D430012384F850
:102060000631F82384F807310F48FEF71BFA0F4AB0
:102070005570F021D170FF23137153710C4A5571C3
:10208000D171137253720B4A5571D171137253721D
:10209000094A5571D17113725372BDE8F08100BFC6
:1020A00098C9FF1F14B700005CEDFF1FACA7FF1F0E
:1020B000DCEDFF1FB4ECFF1F78A7FF1F0170704716
:1020C00000B587B0094B1869597B002914BF03225A
:1020D00000220023009301920293039301220492B1
:1020E0001A4600F0E1FD07B05DF804FB24EEFF1F87
:1020F0000139072918D8DFE801F004080E12080E8C
:10210000120443680133436070478368013383607E
:10211000002303757047C3680133C36070470369C8
:102120000133036100230375704700BF11F4004FB2
:1021300003D149BAC18200207047FE20704700BF1A
:10214000C38A5BBA9BB20133C3F30E035BBAC3828B
:10215000704700BFC28A52BA036B13FA82F3C3F30B
:102160000E035BBAC382704730B583B00446037D6B
:1021700013B3134B1869597B227801230093002570
:10218000019501F0BDF9A06350B10D4B186901F044
:1021900001FA84F820002046FFF7D2FF28460CE021
:1021A000074B1B6993F84E12C9B284F83C102046C5
:1021B000FFF79EFFFF2000E0FD2003B030BD00BF11
:1021C00024EEFF1F2DE9F04182B00546294C204640
:1021D0007C2100F0A7FE2368297849001B6820466F
:1021E00001F0FE0198472169627B0023009320469D
:1021F00001F072F9044685F83C0058BB03232B63B9
:102200001C4A1069517B01220092002201927C221B
:1022100001F076F9A8632B6B83421BD1154E306910
:1022200001F08CF98046306901F088F90746306981
:1022300001F084F9C7F303135FFA88F803EB081879
:10224000A5F8428007F00F07C0B200EB0727A5F8FA
:1022500040700AE0074B1B6993F84E12C9B285F82B
:102260003C102846FFF744FFFF24204602B0BDE89B
:10227000F08100BF24EEFF1F10B50446FFF7A2FF58
:10228000034618B9226C05498A4203D000232375FE
:10229000FF2301E001222275184610BD10050A0037
:1022A00070B582B00446037D002B32D01B4D06462C
:1022B000284616F8161B00F035FE28463146022245
:1022C00000F00CF92846A16A226B00F007F9606360
:1022D000296991F84E32DBB2082B05D1204608213E
:1022E000FFF706FFFF2515E00C48427B0023009313
:1022F000012301F0F1F8054684F83C0018B92046A6
:10230000FFF728FF06E020462946FFF7F1FEFF25EC
:1023100000E0FD25284602B070BD00BF24EEFF1F7F
:1023200008B5037D3BB100F11A0383620223036306
:10233000FFF7B6FF08BDFD2008BD00BF70B582B035
:102340000446037D03B3124D0646284616F8161BB5
:1023500000F0E8FD28463146022200F0BFF8296966
:102360006A7B002300932846012301F0B5F801465B
:1023700084F83C0020B12046FFF7BAFEFF2004E0BD
:102380002046FFF7F1FE00E0FD2002B070BD00BF67
:1023900024EEFF1F2DE9F04182B00446C66A037D9A
:1023A000002B48D0264D0746284617F8161B00F08C
:1023B000B9FD28463946022200F090F829696A7B67
:1023C00000230093284601F087F8054684F83C0076
:1023D00028B120462946FFF78BFEFF252CE0184B3D
:1023E0001869597B2278236B0127009700270197F2
:1023F00001F086F8A063236B834210D12046FFF7DB
:10240000A9FE236BC3B1DFF83880D8F8100001F0C3
:10241000C1F8F0550137236BBB42F6D80CE0084BEE
:102420001B6993F84E12C9B284F83C102046FFF79E
:102430005FFEFF2500E0FD25284602B0BDE8F081E3
:1024400024EEFF1F70B582B00446037D0BB3134D1D
:102450000646284616F8161B00F064FD284631464D
:10246000022200F03BF82846217E00F023F860634A
:1024700029696A7B002300932846012301F02CF888
:10248000014684F83C0028B12046FFF731FEFF21C9
:1024900000E0FD21084602B070BD00BF24EEFF1F22
:1024A0000369D3F83801D3F83431C01A704700BF3C
:1024B000704700BF0369D3F84422B2F5817F09D881
:1024C000D3F84422501CC3F84402134483F83C114F
:1024D00001207047012303710020704730B4036965
:1024E000D3F84442B4F5817F1ED8D3F84442C4F5F2
:1024F00081740134D3F844522B4403F59E73944203
:1025000002D201220271224632B18D1811F8014B1C
:1025100003F8014BA942F9D10369D3F844121144DD
:10252000C3F84412104602E001230371002030BCBE
:10253000704700BF38B50446084B0360036993F841
:102540004822022A08D1D3F860522DB1284603F060
:102550008DFC284603F006FD204638BD80BF0000F4
:1025600010B4002202714FF47A7484600273064A38
:10257000026041734FF41A74044A04FB01210161A3
:102580005DF8044B704700BF80BF00005899FF1FE3
:1025900070B504460D46C3681B7813F0200F40F059
:1025A000B680836880211970C3681221197090F871
:1025B0004932012B0BD022B9002380F84832012088
:1025C00070BD531EDBB2012B00F2A38000E001229C
:1025D00025B94FF08071504B196005E0012D03D1F2
:1025E0004FF000714C4B1960022A40F08C80D4F8F7
:1025F00060624EB9082003F0B1FC0646002103F0EA
:10260000D7FBC4F860627EB13379102B0CD1304611
:1026100003F02CFC304603F0A5FC0023C4F8603224
:10262000012084F8480270BD002D30D133689A8BA8
:1026300092B2998B42F008029A83D4F860321979E9
:1026400010313648364A42F821001A7953119B005E
:1026500003F1604303F5614302F01F02012101FA17
:1026600002F21A60D4F860321B689A8B92B2998B8E
:1026700042F002029A83D4F860321B7903F180435E
:1026800003F5043300221A7096221A7033E0012DEC
:1026900031D1D4F860321B689A8B92B2998B42F098
:1026A00008029A83D4F86032197910311D481C4A07
:1026B00042F821001A7953119B0003F1604303F59E
:1026C000614302F01F02012101FA02F21A60D4F8FC
:1026D00060321B689A8B92B2998B42F002029A8305
:1026E000D4F860321B7903F1804303F504330022F0
:1026F0001A7097221A70002384F85632022384F845
:102700004832012070BD012084F8480270BD0020CD
:1027100070BD012070BD00BF00E100E0893B0000FA
:102720000082FF1F993B000010B403469848814285
:1027300057D10D2A4DD8DFE802F0070C11161B20E7
:10274000252A2F34393E434759682C200870012030
:1027500043E059682420087001203EE05968552064
:102760000870012039E059684F200870012034E0DA
:1027700059681920087001202FE05968132008704B
:1027800001202AE0596845200870012025E0596899
:102790000D200870012020E059680B2008700120EE
:1027A0001BE0596806200870012016E059680520D2
:1027B0000870012011E059680220087001200CE027
:1027C00059680120087008E059680020087001204D
:1027D00003E05A68002010700D22996904240C70DF
:1027E000B3E16C48814253D10C2A49D8DFE802F0AA
:1027F000070C11161B20252A2F34393E4300596837
:102800002C20087001203FE0596824200870012026
:102810003AE059681E200870012035E059684F20C1
:102820000870012030E059681520087001202BE065
:1028300059680F200870012026E059680E200870A2
:10284000012021E059680C20087001201CE0596823
:102850000A200870012017E059680920087001203B
:1028600012E059680420087001200DE05968022028
:102870000870012008E0596800200870012003E07A
:102880005A68002010700C22996904240C705CE1D5
:10289000414881424DD10B2A43D8DFE802F0060BB4
:1028A00010151A1F24292E33383D59682720087027
:1028B00001203AE059685A200870012035E0596833
:1028C0001C200870012030E0596885200870012024
:1028D0002BE0596814200870012026E05968452033
:1028E0000870012021E059680D20087001201CE0CB
:1028F00059680B200870012017E0596809200870FA
:10290000012012E059680320087001200DE0596889
:1029100002200870012008E059680020087001209A
:1029200003E05A68002010700B22996904240C708F
:102930000BE11A4881424AD1092A40D8DFE802F067
:10294000050A0F14191E2330353A5968952008706E
:10295000012038E0596855200870012033E059689B
:102960008520087001202EE059681520087001208C
:1029700029E0596845200870012024E059680C209E
:10298000087001201FE059680A20087001201AE031
:1029900000879303007E5603006CDC020051250281
:1029A00059680520087001200DE059680220087060
:1029B000012008E0596800200870012003E05A68EF
:1029C000002010700922996903240C70BDE0614851
:1029D000814237D1072A2DD8DFE802F004090E130F
:1029E000181D222759681F200870012026E0596809
:1029F00085200870012021E059681420087001200A
:102A00001CE0596845200870012017E059680B2028
:102A10000870012012E059680520087001200DE0BF
:102A2000596802200870012008E0596800200870E9
:102A3000012003E05A6800201070072299690224DF
:102A40000C7082E0444881422CD1052A22D8DFE86C
:102A500002F003080D12171C59681D200870012090
:102A60001CE0596814200870012017E059684320C1
:102A70000870012012E059680B20087001200DE059
:102A8000596803200870012008E059680020087088
:102A9000012003E05A680020107005229969012482
:102AA0000C7052E02D48814221D1032A17D8DFE86B
:102AB00002F002070C11596814200870012012E07E
:102AC00059680B20087001200DE059680320087038
:102AD000012008E0596800200870012003E05A68CE
:102AE000002010700322996901240C702DE01C480D
:102AF000814215D112B1012A05D009E059680B2095
:102B00000870012008E0596800200870012003E0E7
:102B10005A68002010700122996900240C7014E09A
:102B2000104881420CD122B95A680021117001204D
:102B300002E05A6800201070996900220A7004E0CF
:102B40005968002008709969087083F84C225DF874
:102B5000044B704700366E010024F40000127A0026
:102B600000093D0080841E00F8B504469DF8180059
:102B700000284DD0E5682D7815F0200F44D147E0AE
:102B8000012A0ED128B1002B5AD053E0132002F0B5
:102B9000E3F9012384F84A323F4B1D60043B1D607A
:102BA00060E028B1002B57D050E0102002F0D4F99B
:102BB000002384F84A32394B1D60043B1D6051E00C
:102BC000012923D1042A0FD128B1002B52D04BE088
:102BD0001D2002F0C1F9042384F84A32304B1E60F4
:102BE00004331E600120F8BD28B1002B4ED047E011
:102BF0001A2002F0B1F9032384F84A32294B1D60F0
:102C0000043B1D600120F8BD0020F8BD0120F8BD87
:102C1000002B40F2032508BF4FF4197540F20366FC
:102C200040F26467002B08BF3E4684F84B3200290F
:102C3000C6D1A5E71220022102F08EF90221A5E7F4
:102C40001220002102F088F900219FE711200221C3
:102C500002F082F90221A8E71120002102F07CF99C
:102C60000021A2E70120F8BD1E20022102F074F924
:102C70000221ADE71E20002102F06EF90021A7E736
:102C80001F20022102F068F90221B1E71F20002174
:102C900002F062F90021ABE704A004400CA004405C
:102CA00000D004402CB00440F0B583B004469DF839
:102CB00020009DF82C600D4629B92F490F6847F078
:102CC00040070F6006E0012904D12B490F6847F047
:102CD00080070F6084F84922002184F84E123AB927
:102CE000636920221A7022681170E269117011E084
:102CF0006269002837D12DE05B00DBB21370E26916
:102D00004300DBB205E04000C0B21070E2695B0036
:102D1000DBB2137000230093204629469DF824203F
:102D20009DF82830FFF720FF204614493246FFF770
:102D3000FBFC204629469DF83020FFF729FC94F83B
:102D400049321BB9A36880221A7012E0A368C0221E
:102D50001A700EE02021117022685B00DBB2137044
:102D6000E2690023D5E72821117022689842C3D870
:102D7000C9E703B0F0BD00BF34800440006CDC0242
:102D80002DE9F04F83B082468B4690F84A32042BEF
:102D90004FD8DFE803F03134030609001726162464
:102DA0002FE01E261D242CE01F261A2429E0204691
:102DB000494602F09FF82B46013B7FF4FDAF2046C9
:102DC000414602F097F82B46013B7FF4FDAF3046B9
:102DD00002F0B4F818B9013F17F0FF07E7D100215E
:102DE0008AF84E129AF84A229AF84B3200915046CD
:102DF0005946FFF7B9FE1CE01226132401E0112604
:102E000010249AF84B32002B304614BF02210021C7
:102E100002F0A2F82046012102F06CF820460121C0
:102E200002F09AF80B274FF0000950254FF00108E7
:102E3000CDE703B0BDE8F08F2DE9F843054688469D
:102E40001646994602F0D8F80746AB681A7812F091
:102E5000200F0ED0B4221A7032E0EC68247814F0FF
:102E6000200F06D1002385F84932AB68B0221A70D2
:102E700006E0002EF1D002F0BFF8C01B8642ECD86D
:102E8000AB681B7813F0200F0ED128464146FFF7A0
:102E900077FFEB681B7813F0200F05D1002385F82E
:102EA0004932AB68B0221A70AB681B7803F020037C
:102EB00003F0FF0023B9042385F84E32BDE8F88300
:102EC00095F84832013BDBB2012B20D801F01AFE05
:102ED000124B134AB8F1000F18BF13461B789842E3
:102EE00018DC0F2804DC012089F80000BDE8F88315
:102EF0000A4B0B4AB8F1000F14BF90469846A0F158
:102F00001003DBB288F800300120BDE8F88301200F
:102F1000BDE8F8830120BDE8F88300BF18E400E0B5
:102F200019E400E00369490083F83C1103690122B8
:102F3000C3F8442200230371026982F84E327047BD
:102F40002DE9F04383B0054614461F4600238DF853
:102F50000730D0F84432002B00F0C8800FB9D0F809
:102F60006472EB6812221A7028463A460DF1070384
:102F7000FFF762FF002800F0B98095F848321BB1D6
:102F80009DF80720002A54D002F036F8814601232C
:102F900085F84E3285F84D4200264FF002082BE0AE
:102FA0002B69AA1992F83C211A70EC68217811F06B
:102FB000020FFBD084F80080EB681978C9B211F0D9
:102FC000100F09D0072385F84E32AB6880221A70A3
:102FD000EB6810221A701BE011F0010F0BD01EB924
:102FE000052385F84E3202E0062385F84E32AB68A1
:102FF00080221A700CE00136D5F844329E4207D286
:10300000002FCDD001F0F8FFC9EB00008742C7D8F0
:10301000D5F84432B3428CBF0423002385F84E32E6
:1030200095F84D32012BAB680CBF8022B0221A708C
:103030005CE05A1ED2B2012A58D8012285F84E22ED
:1030400085F84D420022C5F84022022B14D1D5F854
:103050004432042B18D80FE013689B6833B9136807
:1030600000210120187259729972D97213680022D6
:103070001A765A769A76DA76AB68F0221A702B694D
:1030800095F83C211A7031E0012385F85632D5F8C5
:10309000602205F59F70D5F84442033C11680B6827
:1030A000002308601168012008714B711168CB7111
:1030B000116808724B728B72CB7211686042C860E3
:1030C0001068C18BA1B2C1831268D08AD182D5F8B1
:1030D00060222969106804690161106803754375ED
:1030E00010688371B1F1804FB9D3B5E703B0BDE883
:1030F000F08300BF2DE9F04383B0044616469DF8E7
:1031000028700B9D00208DF80700002B00F04E81E9
:10311000B3F5827F03D3082384F84E3246E1C4F826
:1031200050320023C4F83431C4F838310DB9D4F822
:103130006452E36812221A7020462A460DF10703F2
:10314000FFF77AFE002800F0318194F8483223B16D
:103150009DF80720002A00F0968001F04DFF804680
:10316000022384F84E3284F84D722369720042F0D3
:103170000102D2B21A70E268137813F0020FFBD08A
:1031800002231370E3681B78DBB213F0100F09D031
:10319000072384F84E32A36880221A70E368102255
:1031A0001A7003E113F0010F06D0052384F84E32A4
:1031B000A36880221A70F9E0032384F84E32D4F811
:1031C0005032012BA3680CBFA822A0221A702369D9
:1031D0001B780226002745E00B7813F0020FFBD086
:1031E0000E70002D00F0AA8001F006FFC8EB000071
:1031F00085428CBF00230123D4F838110231D4F862
:103200005022914205D03BB194F8552222B900E0FA
:103210003B46A26882F80090D4F838110131D4F806
:103220005022914280F09F80002B00F0918094F812
:103230005522002A40F0AA808AE0042284F84E2217
:1032400001E084F84E7294F84D22012A06D1102232
:10325000013A7FF4FDAFA2688021117023B10123F0
:1032600084F855324FF0A809D4F83821D4F85032F8
:103270009A4280F09B8094F84E32DBB2032B40F0F0
:103280009580E168A8E75A1ED2B2012A00F28E802A
:10329000022284F84E2284F84D72934244D1D4F82D
:1032A0005032042B40D9012384F85632D4F86032CE
:1032B0002169186802680022016018680271427171
:1032C0001868C271B1F1804F02D31A68926832B99E
:1032D0001A6800210120107251729172D1721A681D
:1032E0000023137353739373D373D4F8602204F1E0
:1032F0003005D4F85002013811680F690D6111686A
:1033000001250D754B7511688B7111680D724B722B
:103310008B72CB721368414299611368D98B81B269
:10332000D9831368DA8AD982A368F0221A702369D4
:10333000720042F00102D2B21A7037E0D4F838219C
:103340000232D4F850329A423FF462AF3B4663E710
:1033500022691178D4F83821501CC4F8380122446D
:1033600082F830107AE784F85572A268B0211170A3
:1033700022691178D4F83821501CC4F8380122444D
:1033800082F83010002B3FF45CAF56E784F855729A
:10339000A268B021117022691178D4F83821501C2C
:1033A000C4F83801224482F8301046E703B0BDE883
:1033B000F08300BF036993F84E32043B042B0CD812
:1033C000DFE803F009100507030001207047032020
:1033D000704704207047042070470079003018BF00
:1033E000012070470220704790F84E3213F0FF0F13
:1033F0001BD090F84E32DBB2052B18D090F84E322D
:10340000DBB2062B15D090F84E32DBB2072B12D070
:1034100090F84E32DBB2042B0FD090F84E02C0B2BF
:10342000082814BF002001207047012070470120A8
:10343000704701207047012070470120704700BF8E
:1034400070B5044615460AB9D0F8645201F0D4FDAF
:1034500006462046FFF7C8FF00283AD1002DF8D0D5
:1034600001F0CAFD801B8542F3D801F0C5FD801B29
:10347000854210D894F84832022B0CD194F8563279
:1034800013F0FF0F07D02046FFF7AEFF0028FAD059
:10349000042384F84E3294F84E32DBB2012B09D06B
:1034A00094F84E32DBB2022B04D094F84E32DBB2E9
:1034B000032B02D1042384F84E324023013B7FF4D6
:1034C000FDAF94F84E3213F0FF0F14BF002001201F
:1034D00070BD002DDFD0C8E7F8B507460E4615468B
:1034E000069C084611461A462346FFF729FD30463A
:1034F00029462246FFF7A4FF3846FFF75BFFF8BDD9
:1035000070B582B004460D461E468BB19DF818304A
:1035100000930799019129463346FFF7EBFD2046BA
:103520002946079AFFF78CFF20B1D4F8380102E052
:10353000002000E0002002B070BD00BFD0F83421B0
:10354000D0F838319A4208D2D0F834315A1CC0F839
:103550003421184490F8300070474FF0FF30704726
:1035600008B50069FFF7EAFF08BD00BFD0F83421B5
:10357000D0F838319A423DBFD0F83431C01890F8B5
:1035800030004FF0FF30704708B50069FFF7EEFFDD
:1035900008BD00BFD0F83421D0F838319A4208D2A3
:1035A000D0F834315A1CC0F83421184490F8300057
:1035B00070470020704700BF38B50446C2681578D0
:1035C000EDB281680B78DBB213F0200F00F0C381FD
:1035D00013F0100F00F0058190F85632DBB2022B89
:1035E00004D090F85632DBB2032B4CD1D4F86012E1
:1035F0000B689B8B03F080039BB2002B00F0808252
:1036000094F85632DBB2022B40F07A826EE21378E5
:1036100013F0800FFBD00A79B54B1A70002384F8A1
:103620005632D4F84432013BC4F840322369D4F80E
:103630004022224492F83C211A7020E0AD4B1A68D7
:103640000B7901219940114219D0AB4A1370D4F87B
:1036500060321A79A94B1A70002384F8563215F09B
:10366000100F0CD0072384F84E32A36880221A7002
:10367000E36812221A700023C4F8403238BDE368B0
:1036800002221A7038BD90F84E32DBB2012B56D1AF
:1036900015F0100F0DD0002380F85632072280F865
:1036A0004E2280220A70C26812211170C0F8403286
:1036B00038BD15F0010F0FD0002380F85632D0F836
:1036C00040321BB9052380F84E3202E0062380F811
:1036D0004E3280230B702EE0D0F840320133C0F818
:1036E0004032D0F8442293420AD3002380F84E326D
:1036F00090F84D32012B0CBF8023B0230B701AE0E1
:1037000090F85632DBB2012B0ED1022380F85632EC
:10371000F1230B70D0F860321A79794B1A70036973
:1037200090F83D211A7006E00369D0F84022024467
:1037300092F83C211A70E36802221A7038BD90F8A2
:103740004E32DBB2022B36D115F0100F08D0072312
:1037500080F84E3280230B70C36812221A7038BD75
:1037600015F0010F05D0052380F84E3280230B7031
:103770001DE090F85632DBB2012B0CD1022380F809
:103780005632E1230B70D0F860321A795C4B1A7014
:1037900003691B780BE0032380F84E32D0F85032D7
:1037A000012B0CBFE823E0230B7003691B78E3684F
:1037B00002221A7038BD90F84E32DBB2042B0AD1C7
:1037C00090F84D32012B0CBF8023B0230B70C368DF
:1037D00002221A7038BD80230B70C36802221A704F
:1037E00038BD90F85632DBB2022B04D090F8563236
:1037F000DBB2032B56D1D4F860321A68928B02F0F8
:10380000800292B2002A00F08C8194F85622D2B243
:10381000022A40F086817AE11A79354B1A7000232A
:1038200084F8563294F84E32DBB2042B1CBF0023CE
:1038300084F84E32A368B0221A70D4F85032013B9B
:10384000C4F83831D4F838315A1CC4F83821226908
:103850001278234483F8302094F84D32012B1DD187
:103860001023013B7FF4FDAFA36880221A7015E09E
:10387000204A12681B790121994011420ED01F4A3B
:103880001370D4F860321A791B4B1A70002384F835
:10389000563284F84E32A36880221A70E3680222FE
:1038A0001A7038BDD0F838210232D0F850329A421E
:1038B00000F03E8190F84E32DBB2042B04D190F838
:1038C0005532002B00F03481D4F838210132D4F87D
:1038D00050329A4280F03A8194F84E32DBB2042B97
:1038E00040F0298194F85532002B40F02F8122E1DD
:1038F0001C8000402C8000401F8000401E80004043
:103900001B800040002384F84E32A368B0221A7056
:10391000D4F838315A1CC4F838212269127823446B
:1039200083F8302094F84D32012B06D11023013B4F
:103930007FF4FDAFA36880221A7094F84E32DBB298
:10394000042B04D194F85532002B00F00981E36870
:1039500002221A7038BD15F0100F08D01023137012
:1039600015F0400F06D1C36802221A7038BD15F059
:10397000400F60D094F84E32DBB20A2B04D1D4F859
:103980005832002B40F0F08015F0040F1ED00923B0
:1039900084F84E320023C4F84432A368D0221A704F
:1039A00023691B785B0884F84F32D4F85C3203B18A
:1039B0009847D4F844320BB984F83C31236994F821
:1039C0003C211A700123C4F8403230E0002384F80F
:1039D000543294F84A322BB912206849032201F07C
:1039E00019FA16E0012B05D111206449032201F0D8
:1039F00011FA0EE0032B05D11E206149032201F0CC
:103A000009FA06E0042B04D11F205D49032201F0CE
:103A100001FA0A2384F84E320023C4F83831A3682F
:103A2000C0221A7023691B785B0884F84F32E36860
:103A300002221A7038BD13F0100F20D015F0010FBC
:103A400015D1D0F84022D0F844329A4208D2D0F8AA
:103A500040325A1CC0F84022034493F83C2100E055
:103A6000002223691A70A368D0221A703AE0C0239A
:103A70000B7003691B78002380F84E3232E000237C
:103A800080F8543290F84A322BB912203B49032275
:103A900001F0C0F916E0012B05D1112037490322AE
:103AA00001F0B8F90EE0032B05D11E2034490322A2
:103AB00001F0B0F906E0042B04D11F2030490322A5
:103AC00001F0A8F923691B78DAB2D4F83831B3F5DC
:103AD000817F07D8D4F83831591CC4F838112344F1
:103AE00083F83020E36802221A7038BD0A79254B2A
:103AF0001A70A368F0221A70032384F85632BEE5C8
:103B000094F85632DBB2032B7FF498AD7FE51A7937
:103B10001C4B1A70A368E8221A70032384F85632EB
:103B2000BCE694F85622D2B2032A7FF4A1AE73E623
:103B3000E8230B70C8E6D4F838315A1CC4F8382191
:103B400022691278234483F83020F6E6002384F8B3
:103B5000553294F84E32DBB2042B7FF4D3AED4E668
:103B6000012384F85532F2E60023C4F83431D4F846
:103B70003801D4F85832984706E700BF4D3C0000A2
:103B80005D3C00001F80004008B502480021FFF79F
:103B900013FD08BD5899FF1F08B502480121FFF722
:103BA0000BFD08BDC09BFF1F10B50446C3681B7802
:103BB00013F0200F24D1002380F84E3290F84A32BF
:103BC0001BB9122001F06EF910E0012B03D1112076
:103BD00001F068F90AE0032B03D11E2001F062F91D
:103BE00004E0042B02D11F2001F05CF9D4F8583214
:103BF00053B30022C4F83421D4F83801984710BDDB
:103C000090F854320133DBB280F85432012B03D8E0
:103C100090F84932012B17D094F84A321BB9122080
:103C200001F040F910BD012B03D1112001F03AF948
:103C300010BD032B03D11E2001F034F910BD042B5D
:103C400002D11F2001F02EF910BD00BF08B50248B7
:103C50000021FFF7A9FF08BD5899FF1F08B50248CA
:103C60000121FFF7A1FF08BDC09BFF1F70B50B4EE0
:103C700030460021FEF774FC094D0A4C30462946B7
:103C8000224604F0CFFA084E30460121FEF768FCC8
:103C900030462946224604F0C5FA70BD24EEFF1FC7
:103CA000352500006087FF1F10EEFF1F82EA01002C
:103CB00008234AF2010210F0010F14BF82EA6000EB
:103CC0004008013BF7D17047F8B50746154C204630
:103CD000FEF72CFA2046FEF731FB94F82020042A48
:103CE00016D14FF6FF70F8BD38463146FFF7DEFFBC
:103CF0000646013CA4B244B12846FEF735FA95F8D1
:103D00002020042AF0D13046F8BD4FF6FF70F8BDF0
:103D100038464FF6FF71FFF7C9FF064641F6FE74BD
:103D2000004DE9E7F8ECFF1F30B583B002AB00228D
:103D300043F8042D0846194606F06AFA019B4BB376
:103D40001B7853BB00221E4B03F0FEFD18A3D3E9E2
:103D5000002304F0D7F804460D4617A3D3E9002347
:103D600004F036FAE0B9204629460022154B04F04B
:103D700011FAC0B9204629460022134B03F098FFE0
:103D80000022124B03F094FF04F02CFA20F00700FD
:103D900080B20AE04FF6FF7007E04FF6FF7004E0D4
:103DA0004FF6FF7001E04FF6FF7003B030BD00BF6B
:103DB000000000C0CCCCFC3F0000000000C062400E
:103DC0000000404000804BC0000030400000204018
:103DD00010B50C4608463A2104F094FD034690B312
:103DE000002202702078A0F13002092A2DD8D0B22A
:103DF0006278A2F13001092906D800EB800001EBBE
:103E0000400000F0FF0000E00ABB5A78A2F1300148
:103E100009291ED89B78A3F1300109291BD817283E
:103E20001BD8303AD2B202EB820201EB420303F01C
:103E3000FF033B2B13D8C3EB03139B004FF46162CA
:103E400002FB003010BD074810BD064810BD0548F4
:103E500010BD044810BD034810BD024810BD014804
:103E600010BD00BF805101002DE9F843884691B391
:103E7000084604F02DFF814608EB0006444627461D
:103E800014F8015B284604F005FA18B1002DF6D1AC
:103E90003D4600E03D46AE4209D03446661E14F869
:103EA000010C344604F0F6F908B1B542F6D109F137
:103EB000FF39C144B14504D0002373703846BDE8D2
:103EC000F88345450AD04D450BD1002388F80030D2
:103ED0003846BDE8F8830020BDE8F8833846BDE8E1
:103EE000F8833846BDE8F88370B50C465F261AE0C3
:103EF00004F0D0F990B1631C2670607880B11C4644
:103F000007E0651C2046294604F084FE607848B12D
:103F10002C4604F0BFF90028F3D104E0013402E09C
:103F20001C4600E02C4620780028E1D170BD00BF7F
:103F300010B50C460B785B2B0AD1084604F0C8FE7E
:103F4000204410F8010C5D2814BF0020012010BD92
:103F5000002010BD0B78642B20D14B78A3F13002E8
:103F6000092A1DD8CA78632A1CD10A79A2F1300027
:103F7000092819D8C0B24979C1B9A3F13101C9B230
:103F8000032915D8313AD2B2022A13D8303BDBB21A
:103F9000013B03EB43031844C0B27047FF20704756
:103FA000FF207047FF207047FF207047FF207047B9
:103FB000FF207047FF20704710B5087838B14C1EBD
:103FC00006F02EF904F8010F60780028F8D110BD32
:103FD0000B78A3F13002D2B2092A0FD8002003E0F7
:103FE000A3F13002092A0CD800EB8000303B03EB30
:103FF000400011F8013F002BF2D170474FF0FF3025
:1040000070474FF0FF30704770B584B0054600919F
:1040100008462E2104F076FC034620B3013000222E
:104020001A7001902E2104F06DFC0346E8B10130B6
:1040300000221A7002902E2104F064FCB8B1002313
:1040400000F8013B0390ADF1040403AE284654F898
:10405000041FFFF7BDFFB0F1FF3F0AD0FF280ADCC5
:10406000B442F3D109E0002008E0002006E000207F
:1040700004E0002002E0002000E0012004B070BD58
:1040800070B505460E46084604F022FE02460B4C6B
:1040900023685B6820463146984723685B68204662
:1040A0000749092298472046698801F045FF2046C4
:1040B00001F0F6FE2B8801332B8070BDBCEFFF1F93
:1040C000E4B7000008B500F00DF808BD08B500F031
:1040D00015F808BD08B5FF210122002300F020F9E2
:1040E00008BD00BF017080F8241000238370437066
:1040F000F023C370FF2303714371704700B587B08D
:10410000094B1869597B002914BF032200220023A0
:104110000093019202930393012204921A46FEF740
:10412000C3FD07B05DF804FB24EEFF1F08291FD86C
:10413000DFE801F005090D14180D14180900C36813
:104140000133C360704703690133036170474369FA
:1041500001334361002380F82030704783690133C5
:1041600083617047C3690133C361002380F8203045
:10417000704700BF70B582B004460D4690F82030FD
:10418000002B31D01B4B1869597B227801230093F7
:1041900000260196FFF7B4F901280AD0154B1B69D8
:1041A00093F84E12C9B221722046FFF7BFFFFF20DD
:1041B0001DE0104B1869FFF7C1F9C0B22870637990
:1041C0000BB9A0700AE0012B02D1607000200EE054
:1041D000022B03D12B78E370002008E0032B05D1DC
:1041E0002B782371002002E0FD2000E0002002B0C7
:1041F00070BD00BF24EEFF1F70B582B004460D46AF
:1042000090F820302BB3154E30462178FEF78AFE09
:1042100030462946FEF74EF9C0B22072012806D07A
:10422000002121722046FFF781FFFF2112E00B4899
:104230000169427B002300930123FFF74DF90146FA
:10424000207220B12046FFF771FFFF2102E0657167
:1042500000E0FD21084602B070BD00BF24EEFF1F44
:1042600038B504460D4690F8203063B10021FFF7C1
:10427000C3FF50B920462946FFF77CFF002814BF32
:10428000FF20002038BDFD2038BDFF2038BD00BF15
:10429000F0B583B004460D46164690F82030002B4A
:1042A00037D01E4F38462178FEF73CFE3846294667
:1042B000FEF700F9207238463146FEF7FBF8237A04
:1042C0001844C3B22372022B06D00021217220466B
:1042D000FFF72CFFFF211DE010480169427B0023FE
:1042E00000930123FFF7F8F80146207220B1204621
:1042F000FFF71CFFFF210DE06571012D01D16670F4
:1043000008E0022D01D1E67004E0032D02D12671F0
:1043100000E0FD21084603B0F0BD00BF24EEFF1F02
:104320002DE9F04383B005468946174698461C4C54
:1043300020462978FEF7F6FD206806682046002111
:10434000B0472169627B0023009320460123FFF7D9
:10435000C3F820B1002385F82030FF201CE00124A1
:1043600085F820406FEA090228460321D2B2FFF700
:104370008FFF0646284602214246FFF789FF304359
:10438000C6B2284621463A46FFF782FF304310F076
:10439000FF0F14BFFF20002003B0BDE8F08300BF73
:1043A00024EEFF1F70B504460D46417890F820308A
:1043B000F3B13AB121EA050601213246FFF768FF61
:1043C000C0B907E045EA010601213246FFF760FF68
:1043D00090B902E046EA050201E026EA050220461D
:1043E0000121FFF755FF002814BFFF20002070BDFA
:1043F000FD2070BDFF2070BDFF2070BD10B544785A
:1044000090F820306BB112B141EA040201E024EAD5
:1044100001020121FFF73CFF002814BFFF2000200C
:1044200010BDFD2010BD00BF70B5C0B015461C46C4
:10443000013B1344B3F5004F26D868464FF4807211
:1044400004F0DEF9134E30462946FDF76FFE4FF4B7
:104450008073336300ABB362B4F5807F0AD94FF445
:1044600080753046FDF71CFF05F58072944202D935
:104470001546F6E70025AC4208D00648641B0463E5
:10448000FDF70EFF002002E0FF2000E0002040B01A
:1044900070BD00BFF8ECFF1FF8B50F4616461D466D
:1044A0002A4C23685B6820462949072298473846EA
:1044B00004F00EFC024623685B68204639469847A4
:1044C00023685B682046234902229847304604F05F
:1044D000FFFB024623685B6820463146984735B1AA
:1044E000204623685B681C490922984705E0174865
:1044F00003685B6819490922984701F04FFB0028BF
:10450000FBD001F0FFFAC0B20D2801D195B903E04C
:1045100000F0DF004E280BD10C4C23685B6820466E
:104520000F4902229847204601F0BAFC0020F8BD4E
:104530005928E2D1054C23685B68204609490322CB
:104540009847204601F0ACFC0120F8BDBCEFFF1FEE
:104550006CC0000074C0000078C0000084C000007F
:1045600028B900002CB900002DE9F8430E46022AB4
:1045700017D0042A02D0012A2FD125E004254FF0BC
:1045800080541E4FDFF878904FF00108A64205D204
:104590003B685B6838464946424698472409013DD6
:1045A000F4D102254FF48054144FDFF854904FF0AB
:1045B0000108A64205D23B685B6838464946424638
:1045C00098472409013DF4D10F2E0ED80B480368FB
:1045D0005B680B490122984707E0084803685B685D
:1045E00008491C229847BDE8F88304483146102248
:1045F000002301F065FCBDE8F88300BFBCEFFF1F9E
:1046000090C0000094C0000008B50122FFF7ACFF85
:1046100008BD00BF08B50222FFF7A6FF08BD00BF16
:104620002DE9F04F83B007468A4602F1080902F5EA
:10463000847201922E4CDFF8CC80A9F10806236821
:104640005B6820462B490422984738465146FFF7BD
:10465000E1FF23685B6820462749042298474D46BE
:104660004FF0010B384616F8011BFFF7CDFF23680A
:104670005B68204641465A469847AE42F2D12368CD
:104680005B6820461D490422984709F1080B012662
:10469000384615F8011BFFF7B7FF23685B68204613
:1046A0004146324698475D45F2D123685B68204613
:1046B00013490322984709F10706A9F109054FF0AC
:1046C0002E0B15F8011F1F2923681B68204698BF71
:1046D00059469847B542F4D10AF1100ACAF30E0AB6
:1046E00009F11009019B9945A7D103B0BDE8F08FEE
:1046F000BCEFFF1F28BE0000E8C00000F0C00000B3
:10470000F8C000008CC000002DE9F041C0B00746A1
:104710000C46174B00AADA624FF480721A631E46E9
:10472000144DDFF85C8030462146FDF7FFFC304633
:10473000FDF730FE384621466A46FFF771FF2B68C9
:104740005B682846414600229847284601F0A8FBAE
:1047500038460949094A0123FFF79EFE20B104F5B6
:104760008074C4F30E04DEE740B0BDE8F08100BF02
:10477000F8ECFF1FBCEFFF1F30BD0000FCC00000C5
:104780002CBE000010B586B004460A4B1869597B50
:10479000002914BF032200220023009301920293F8
:1047A0000393012204921A46FEF77EFA204606B0D1
:1047B00010BD00BF24EEFF1F08B50248FFF7E2FF5F
:1047C00008BD00BF38EEFF1F08B50430FFF78AFCB4
:1047D00008BD00BF08B50430FFF790FC08BD00BF5E
:1047E0002DE9F04782B005468A46066B041D204637
:1047F00020210122FFF702FE204601210022FFF7BF
:10480000FDFD20274FF080094FF040082B685B002A
:104810002B6020460DF10701FFF722FD9DF80730C0
:1048200013F0100F03D02B6843F001032B602046D8
:104830004946F20FFFF7E2FD76002046414600228E
:10484000FFF7B0FD7B1E13F0FF07DFD1BAF1000FB9
:104850000AD0204628210022FFF7D0FD204608215B
:104860000122FFF7CBFD04E0204620210022FFF7C4
:10487000C5FD204601210A46FFF7C0FD2B68EB620B
:10488000002002B0BDE8F08708B50121FFF7A8FFBE
:1048900008BD00BF2DE9F04182B0002402AF07F847
:1048A000014D051D284602212246FFF7F1FC4FF07D
:1048B0000108E6B2284641463246FFF7E9FC2846A1
:1048C0003946FFF7CDFC9DF80720A3B29A421ED0CF
:1048D000134C23685B68204612490B2298472046F8
:1048E00031461022002301F0EBFA23685B68204672
:1048F0000D490522984720469DF8071010220023F5
:1049000001F0DEFA204601F0CBFAFF2004E001348A
:10491000B4F5807FCDD1002002B0BDE8F08100BFAA
:10492000BCEFFF1F64C1000070C1000038B5044631
:10493000051D2846FF2101220023FFF7F1FC50B995
:104940002046FFF7A7FF38B92846E92101220023B6
:10495000FFF7E6FC38BD38BD38BD00BF844641EAEC
:10496000000313F003036DD1403A41D351F8043BE7
:1049700040F8043B51F8043B40F8043B51F8043B39
:1049800040F8043B51F8043B40F8043B51F8043B29
:1049900040F8043B51F8043B40F8043B51F8043B19
:1049A00040F8043B51F8043B40F8043B51F8043B09
:1049B00040F8043B51F8043B40F8043B51F8043BF9
:1049C00040F8043B51F8043B40F8043B51F8043BE9
:1049D00040F8043B51F8043B40F8043B51F8043BD9
:1049E00040F8043B51F8043B40F8043B403ABDD248
:1049F000303211D351F8043B40F8043B51F8043BEA
:104A000040F8043B51F8043B40F8043B51F8043BA8
:104A100040F8043B103AEDD20C3205D351F8043B78
:104A200040F8043B043AF9D2043208D0D2071CBF44
:104A300011F8013B00F8013B01D30B88038060466D
:104A4000704700BF082A13D38B078DD010F00303E3
:104A50008AD0C3F10403D21ADB071CBF11F8013B53
:104A600000F8013B80D331F8023B20F8023B7BE7A2
:104A7000043AD9D3013A11F8013B00F8013BF9D2CD
:104A80000B7803704B7843708B7883706046704767
:104A9000024B1A6801321A60704700BFC4EEFF1F54
:104AA00008B50D4C236813F4802F01D000F01CFCD6
:104AB000236813F4806F01D001F05AFE236813F4C9
:104AC000006F01D002F0E0F9236813F4805FE9D0B1
:104AD00002F098FCE6E700BF3480044008B5FFF719
:104AE000DFFF00BF1022014B1A80704700200540F5
:104AF000704700BF024A1368184410601846704798
:104B0000289EFF1FEFF31383ABB9EFF31083ABB90C
:104B1000EFF3058323B10F2B05D9094A985C03E015
:104B20004FF4807000E00020EFF311833BB183422B
:104B300038BF184670474FF0FF307047002070476D
:104B4000F0E300E010B5154B1C681C6014F4805FA6
:104B500005D0134BDB6813B1114BDB68984714F495
:104B6000005F05D00E4B1B6913B10D4B1B699847B5
:104B700014F0200F05D00A4B1B6E13B1084B1B6EAF
:104B8000984714F0100F07D0054BD3F884301BB1B1
:104B9000034BD3F88430984710BD00BFA090044069
:104BA0003CEEFF1F10B5274B1C681C6014F4803FBF
:104BB00005D0254B1B6813B1234B1B68984714F491
:104BC000003F05D0204B5B6813B11F4B5B689847D3
:104BD00014F0010F05D01C4B1B6C13B11A4B1B6C4E
:104BE000984714F0020F05D0174B5B6C13B1164BAE
:104BF0005B6C984714F0080F05D0134B9B6C13B1F6
:104C0000114B9B6C984714F0040F05D00E4BDB6CD6
:104C100013B10D4BDB6C984714F4002F05D00A4BF1
:104C20005B6E13B1084B5B6E984714F4802F07D06E
:104C3000054BD3F880301BB1034BD3F88030984735
:104C400010BD00BFA0A004403CEEFF1F10B5384BC4
:104C50001C681C6014F0080F05D0364B5B6A13B15A
:104C6000344B5B6A984714F0100F05D0314B9B6AA8
:104C700013B1304B9B6A984714F0400F05D02D4B71
:104C8000DB6A13B12B4BDB6A984714F0800F05D019
:104C9000284B1B6B13B1274B1B6B984714F0200F4D
:104CA00005D0244B5B6B13B1224B5B6B984714F020
:104CB000010F05D01F4BDB6B13B11E4BDB6B98470D
:104CC00014F0020F05D01B4B9B6D13B1194B9B6D5C
:104CD000984714F0040F05D0164BDB6D13B1154B3C
:104CE000DB6D984714F4007F05D0124BDB6E13B1D7
:104CF000104BDB6E984714F4807F05D00D4B1B6F73
:104D000013B10C4B1B6F984714F4806F05D0094BFF
:104D10005B6F13B1074B5B6F984714F4006F05D0BE
:104D2000044B9B6F13B1034B9B6F984710BD00BFA3
:104D3000A0B004403CEEFF1F10B5264B1C681C6061
:104D400014F0010F05D0244B9B6813B1224B9B68D4
:104D5000984714F0800F05D01F4B5B6913B11E4BB1
:104D60005B69984714F0100F05D01B4B9B6913B17A
:104D7000194B9B69984714F0040F05D0164BDB695B
:104D800013B1154BDB69984714F0080F05D0124B8F
:104D90001B6A13B1104B1B6A984714F0020F05D021
:104DA0000D4B9B6B13B10C4B9B6B984714F0200F72
:104DB00005D0094B1B6D13B1074B1B6D984714F0C1
:104DC000400F05D0044B5B6D13B1034B5B6D9847EF
:104DD00010BD00BFA0C004403CEEFF1F10B50B4B40
:104DE0001C681C6014F0020F05D0094B9B6E13B1B8
:104DF000074B9B6E984714F0010F05D0044BDB6FF7
:104E000013B1034BDB6F984710BD00BFA0D0044027
:104E10003CEEFF1F30B4212831D8042A2FD8DFE818
:104E200002F00709050B03000B2406E00A2404E046
:104E3000082402E00C2400E00924124B03EBC00319
:104E40005A68114B114DC3F89C51114DC3F8A05134
:104E5000104DC3F8A451104DC3F8A8510F4DC3F81D
:104E6000AC5172B6136823F4702313600C4D45F8EF
:104E7000201043F0807343EA0444146062B630BCEF
:104E8000704700BF78C100000082FF1F454B000043
:104E9000A54B00004D4C0000394D0000DD4D0000D9
:104EA0003CEEFF1F094B03EBC0035A6872B6136850
:104EB00023F0877323F4803343F080731360002260
:104EC000034B43F8202062B6704700BF78C1000052
:104ED0003CEEFF1F044B00221A6004490A60044A9A
:104EE000106010221A60704714D0034004D00340B1
:104EF00000D0034021281ED80F4B53F8303093F8D0
:104F0000802212F0FF0F08D019B1012283F880200F
:104F10007047012283F800217047074B03EBC00064
:104F2000436821B11A6842F003021A6070471A6898
:104F300022F002021A60704778C10000212806D8CA
:104F4000044B53F8303093F80002C0B27047002091
:104F5000704700BF78C1000021284AD8254B03EBD9
:104F6000C0035B68012911D004291DD0214A52F8E1
:104F70003020002082F8800200292FD0022931D071
:104F800003291FD040F203121A607047194A52F8E1
:104F90003020012182F880124FF4A2721A601A6840
:104FA00022F020021A607047124A52F83020012184
:104FB00082F880124FF4A2721A601A6842F020023E
:104FC0001A6070474FF480721A601A6842F0020249
:104FD0001A601A6822F001021A6070474FF480725A
:104FE0001A6070474FF480721A601A6842F0030228
:104FF0001A60704778C1000072B60C4B1B680C4AEF
:1050000012680C49096862B611F0806F02D0322B29
:1050100088BF0132C3F53B437F330749A1FB03033C
:105020005B094FF47A7000FB0230704718E000E033
:10503000C4EEFF1F04ED00E0ABAAAAAA38B50546EE
:10504000FFF7DAFF044625B938BD013D0AD004F563
:105050007A74FFF7D1FF001BB0F57A7FF5D200F02C
:10506000B5FFF6E738BD00BF10B5264B4FF4000280
:105070001A604FF080721A604FF000721A604FF0A1
:1050800080621A604FF000621A6000201E4B1860A8
:105090004BF6FF710433196028231C4A1360083251
:1050A000136008321360083213600832136008324C
:1050B000136008321360083213600922144C226016
:1050C00004F58054043420600434216004342360E7
:1050D00008342360143C226004F5FE24043420606C
:1050E0000C4801600C490B6008310B600B4B1A60D7
:1050F00000F08EFF4FF4C870FFF7A0FF00F074FCC3
:1051000010BD00BF08E100E0048003400C800340B4
:105110000080034008800B400C800B4000800B4057
:1051200030B40E4B1B7843F002020D4C04EBC2046A
:1051300060600C48007800280CBF8824C82444EA2A
:105140000141074D45F8321080F00100054A10700A
:1051500083F00103014A137030BC704730EFFF1F2A
:105160000080FF1FA9EFFF1F10B4431E032B11D8AF
:1051700072B60A4A52F8230050B14268074941F812
:105180002320074A32F813400188611A22F81310CD
:1051900062B600E000205DF8044B704720EFFF1F6F
:1051A000C4F1FF1F013803280DD872B6074B53F81E
:1051B00020302BB1002001305B68002BFBD100E0D8
:1051C000002062B670470020704700BF74EFFF1FD9
:1051D00038B572B601231B491B4C5A1812F8012C22
:1051E00012F0080F24D09A0054F832506DB9164BC3
:1051F00003EBC20108304860144943F83210144BE5
:105200001A78013A1A7062B638BD42F0010254F8B9
:1052100032506DB90C4B03EBC201083048600D49A8
:1052200043F832100A4B1A78013A1A7062B638BD48
:105230000133052BD1D162B60022054B1A7000F064
:1052400037FC38BDB8C200000080FF1F8800400056
:105250009EEFFF1FC800400010B4431E032B37D839
:10526000400140F010001C4A104472B61B4AD25C48
:10527000032A09D8DFE802F019021B0508300222D0
:1052800016E00830042213E0154A52F823201AB918
:10529000134A42F8231003E0124A52F823205160C7
:1052A000104A42F8231062B612E0032200E0052201
:1052B0000A4CE25401F10803436000F00803002B9C
:1052C0000CBF8823C8230A8843EA0243036062B6FE
:1052D0005DF8044B704700BF0080FF1FDCEEFF1F2E
:1052E00074EFFF1F84EFFF1F2DE9F84FA34CDFF889
:1052F000E092DFF8E0A2DFF8E0B22578EDB215F039
:10530000040F1DD09E4B1B7813F0FF0F16D09D4B42
:105310001B7803F0FF022BB1531EDBB2994A1370C6
:1053200003B900BE984B1B7803F0FF0233B1531E44
:10533000DBB2954A13700BB900F016FD04232370FD
:1053400015F0080F00F0E48299F80030DBB21D0977
:1053500040F021828D4D9E0805EBC6035A6855F832
:105360003630C3F38303013B0C2B00F21082DFE8DD
:1053700013F0CB01CB010E020E020E020E020E0242
:105380000E02E8010E020E020E020D0080491368A3
:105390000B6052684A607F4A45F8362000227E49F9
:1053A0000A607A490A618A6101217C4A11709BB2C4
:1053B00040F28162934218D8B3F5D06F2ED2B3F584
:1053C000817F00F01E8106D8802B00F0C980822BDF
:1053D00000F0CC8066E140F20232934200F0268178
:1053E000B3F5A06F00F062815CE142F221029342CA
:1053F00000F0868107D8B3F5086F00F0AB80B3F5F5
:10540000106F11D04EE142F22122934200F041810F
:1054100042F22132934200F0498143E1604B5D68E2
:10542000002D40F0188130E1594B9A78544B1A7096
:10543000564D05F180062B6A13F0800F03D0686A81
:10544000083800F035FB0835B542F4D1DFF88C811F
:1054500000263746534AB05828B1456800F028FB6B
:105460000DB12846F9E700234E4973504E4AB35018
:105470004E4BF05828B1456800F01AFB0DB1284694
:10548000F9E7002349497350494AB35028F8023FCD
:10549000484BFB5C023B032B0AD8DFE803F0020613
:1054A00002060022434BDA5502E00122414BDA5555
:1054B00001370436102ECDD100223F4B1A70012542
:1054C0003E4EDFF81C81314F05EB080313F8013C19
:1054D00006F8043B13F0080F2DD000F0C9FA48B1CC
:1054E000A90007EB451200F108035360344A47F85E
:1054F000312007E0AB00002247F833202E4B1A780A
:1055000001321A7000F0B4FA58B1AB0043F0010355
:1055100007EBC30100F108024A601E4A47F8332036
:1055200009E0AB0043F00103002247F83320224B8F
:105530001A7801321A70AA0042F00201002347F8DB
:10554000313042F0030247F8323001351D4B9E42A4
:10555000BAD11EE20A4B1B781B4D2B700127AAE023
:10556000194D00232B706B700227A4E0084B9B8819
:10557000042B37D90F22154B1A70C1E08020074049
:10558000A8EFFF1F31EFFF1FAAEFFF1F0080FF1FD3
:1055900094EFFF1FC8004000C8EEFF1FA9EFFF1FD8
:1055A000BCC2000020EFFF1FCCEEFF1F74EFFF1FF7
:1055B00084EFFF1FDCEEFF1F9EEFFF1FC42007409C
:1055C00088004000D4200740A0EFFF1FC020074004
:1055D000902007409420074098200740C2F1FF1F09
:1055E000B8C20000A04A0021117051709F4A12F801
:1055F000233013F0020F5CD09B4D01232B70022748
:1056000059E09B4B9B8803F07F03042B02DC984AF4
:1056100052881AB10F22954B1A7071E0934A12F812
:10562000231021F0020102F82310B2E1904B9B8875
:1056300003F07F03042B02DC8D4A52881AB10F223B
:105640008A4B1A705CE0894A12F8231041F002017B
:1056500002F823109DE1864B5E889F88854BA3F15D
:105660000C02114633F80C0CB04209D133F80A0C85
:10567000B84205D1360A032E0CBF2F7817891AE0DD
:105680000D690C330C32002DEBD10F22774B1A70C1
:1056900036E0794B1A68794B1A60754B9A78784BDB
:1056A0001A7076E10F22714B1A7029E000273D46EF
:1056B00001E002276C4D6E4BDB889F4228BF1F46DE
:1056C000402F34BF3E46402628463146FFF728FD8E
:1056D0003544BF1B03D13F2E00F2608110E0402F04
:1056E00034BF3E46402628463146FFF719FD354473
:1056F000BF1B01D13F2E03D9624B1D60624B1F803F
:1057000001238AF8003042E0594B198842F2210304
:10571000994212D15D4BD81D12F8011B03F8011FED
:105720008342F9D15A4B1B68862B02D10F22594B69
:105730001A7000200146FFF7F3FC574B45F836304E
:1057400025E0504B1E68BEB14F4FB7F80080B8F14E
:10575000400F34BF4546402530462946FFF7E0FC60
:10576000C5EB08039BB23B800BB9402D01D13544FA
:1057700000E00025434B1D603D4B1B88B3F5A06F37
:1057800005D13B4B00225A709B788BF800300123E7
:105790008AF80030B9E0414E9F0806EBC708D8F8F8
:1057A0000420A2F10800013DEDB213F0080F47D02C
:1057B00000F07EF93A4B53F825304BB35A6838491C
:1057C00041F8252003F10802C8F80420354A525D4B
:1057D000032A12D8DFE802F002060A0E0321314A3A
:1057E00051550AE002212F4A515506E005212D4A64
:1057F000515502E004212B4A515518F0080F0CBFF7
:105800008822C8221B8842EA034346F837307CE0EE
:10581000244B5B5D032B0BD8DFE803F077770206A0
:105820000022204B5A5570E001221E4B5A556CE065
:1058300018F0080F0CBF022203221A4B5A5564E0DD
:1058400056F837301B0C22F8083C002B55D00023AB
:1058500022F8063C42F8043C134B53F825302BBB8E
:10586000114B43F8250025E0A0EFFF1FC0200740A3
:1058700094EFFF1FC8C20000C4EEFF1FD4F1FF1F4A
:10588000B8EFFF1FC8EEFF1F9CEFFF1FCBF1FF1FFC
:10589000CCF1FF1F31EFFF1FC80040000080FF1F49
:1058A00074EFFF1FDCEEFF1F20EFFF1F3F4B53F88D
:1058B000253058603D4B43F825003D4B33F815101B
:1058C00032F8082C0A4423F8152000F0D1F860B112
:1058D00000F10803C8F8043018F0080F354B364AB9
:1058E00008BF134646F837300FE0002346F837303C
:1058F000324B1A7801321A7007E018F0080F2D4B5E
:105900002D4A08BF134646F8373008232370F4E4C5
:1059100015F0010F22D02A4902230B700022294BD7
:105920001A70294B24481860284C5C6098602848FD
:10593000D8601A619A610D20264B1870FF23264803
:1059400003700838037018300270244A13709F22C5
:10595000234B1A7001230B70BDE8F88F15F0800FF0
:1059600005D00D221B4B1A708022403B1A7015F097
:10597000020F06D0184B1A78D2B21A700222083BD6
:105980001A7015F0100F0ED01022164B1A70BDE8C9
:10599000F88F00200146FFF7C3FBB1E6284600213F
:1059A000FFF7BEFBACE6BDE8F88F00BFCCEEFF1FF3
:1059B000C4F1FF1FC8004000880040009EEFFF1F99
:1059C0009420074030EFFF1F0080FF1FE0EEFF1F15
:1059D00034EFFF1FC0200740882007408C2007407D
:1059E000842007408020074008B501F07FFD002398
:1059F0001B491A465A50C81842600833882BF9D1FF
:105A0000184B1A6842F480221A60154BC3F3072121
:105A1000154A1170C3F30741143211701B0E043282
:105A20001370FF23343A137008321370783A1370EE
:105A300001238432137000216C3211707C3A137090
:105A400070220A4B1A704FF40072A3F241331A60AD
:105A5000102203F1C04303F5C8231A7008BD00BF2C
:105A60000080FF1F348004409C20074049E400E090
:105A700072B60D4B1A68B2FA82F30B2B02D962B6DA
:105A8000002070474FF00041D94022EA0102064948
:105A90000A6062B6054903EBC303DB00C8180022A5
:105AA000CA504260704700BF2C9EFF1F0084FF1F3A
:105AB00008B50F4BC31A0F4AA2FB03131B090B2B8C
:105AC00014D80D4A12783AB10C4A127812F0FF0F2E
:105AD00002D0FFF77DFB08BD72B6094A4FF00041C6
