:1000000000800020BD010000ED490000B149000062
:10001000B1490000B1490000B1490000B1490000F8
:10002000B1490000B1490000B1490000ED490000AC
:10003000ED490000B1490000ED490000A149000070
:10004000ED490000ED490000ED490000ED490000D8
:10005000ED490000ED490000ED490000ED490000C8
:10006000ED490000ED490000ED490000ED490000B8
:10007000ED490000ED490000ED490000ED490000A8
:10008000ED490000ED490000ED490000ED49000098
:10009000ED490000ED490000ED490000ED49000088
:1000A000553B0000653B0000ED490000ED490000B4
:1000B000ED490000ED490000ED490000ED49000068
:1000C000ED490000ED490000ED490000ED49000058
:1000D000ED490000ED490000ED490000ED49000048
:1000E000ED490000ED490000ED490000ED49000038
:1000F000ED49000081660000ED490000996D0000A7
:10010000ED49000015730000ED490000ED490000C5
:10011000ED490000ED490000ED490000ED49000007
:10012000ED490000ED490000ED490000ED490000F7
:10013000ED490000ED490000ED490000ED490000E7
:10014000ED490000ED490000ED490000ED490000D7
:10015000ED490000ED490000ED490000ED490000C7
:10016000ED490000F9510000ED490000ED490000A3
:10017000ED490000ED490000ED490000ED490000A7
:10018000ED490000ED490000ED490000ED49000097
:10019000ED490000ED490000ED490000ED49000087
:1001A000ED490000ED490000ED490000ED49000077
:1001B000ED490000ED490000ED490000574B4CF2BD
:1001C000205210B51A804DF628121A8000BF00BFC9
:1001D00004F010FC524B4FF010621A60514A9A60C2
:1001E000514ADA60A3F53043203B1A6812F480725A
:1001F00004D14E490A604FF4A8521A604C4B1A7849
:10020000110703D51A7842F008021A70494B4A4C7C
:100210004A482A221A704A4A00239918A14203D256
:10022000195899500433F8E7464B474900228B424E
:1002300002D243F8042BFAE74448454900235A58B0
:100240001A500433B3F5DE7FF9D1424B424A802184
:1002500003F8011B9342FBD1404B3C4A1A60404BD0
:100260000A221A70A3F5805324225A70A0221A7011
:100270009A799207FCD59A79D406FCD4394A9379B5
:1002800003F00C03082B374BF9D103221A714022DB
:100290005A719A799006FCD5324A9179314B4906C8
:1002A000FBD5314A314911600221516020221A7078
:1002B0009A7902F00C020C2AFAD12D4B2D4A1A60C1
:1002C0002D4B4BF67F321A6000225A60072243F80A
:1002D000042C2A4AC3F80C2D62B604F04DFE134BD1
:1002E0001B68DA0705D5264804F07CFD254B264A15
:1002F0001A60264B1B785B0609D5224C224A2368DC
:10030000934204D11E4804F06DFD0023236007F0E2
:1003100021FF04F075FB05F0A1FDFEE70E2005406E
:1003200030800440823F04000100002B14D00340C1
:1003300002D0074000E0074058A7FF1F30C600006A
:100340006087FF1F58A7FF1FACF1FF1F0082FF1F30
:100350000000000000E400E05FE400E008ED00E0E1
:100360000050064000400640448004400000131145
:1003700004800440C010050014E000E000002020CC
:10038000618EBD571CE00340A5C3945A00F007409E
:10039000FFFFFFFFFFFFFFFFFFFFFFFFFFFFFFFF6D
:1003A000FFFFFFFFFFFFFFFFFFFFFFFFFFFFFFFF5D
:1003B000FFFFFFFFFFFFFFFFFFFFFFFFFFFFFFFF4D
:1003C000FFFFFFFFFFFFFFFFFFFFFFFFFFFFFFFF3D
:1003D000FFFFFFFFFFFFFFFFFFFFFFFFFFFFFFFF2D
:1003E000FFFFFFFFFFFFFFFFFFFFFFFFFFFFFFFF1D
:1003F000FFFFFFFFFFFFFFFFFFFFFFFFFFFFFFFF0D
:10040000FFFFFFFFFFFFFFFFFFFFFFFFDEF9FFFF23
:1004100010B5054C237833B9044B13B10448AFF33E
:1004200000800123237010BD58A7FF1F00000000AB
:1004300030C6000008B5064B1BB106480649AFF3AD
:1004400000800648036813B1054B03B1984708BD07
:100450000000000030C600005CA7FF1F58A7FF1F68
:100460000000000038B505460C46084608F0B8FB09
:1004700002462B685B6828462146984738BD00BF76
:1004800038B504460D46084608F0AAFB0246236824
:100490005B682046294698470546204605F088FCBB
:1004A000284438BD84B0194B1B681BB1B3F1FF3F22
:1004B0000FD024E0002825D0154B1B680193019A2A
:1004C000144B1A604FF0FF33134A13600F4A136046
:1004D00015E070B90E4B1B680293029B0F4A136024
:1004E0000C4A1068181A0C4B18600022074B1A604F
:1004F0000AE0074B1B680393039A064B1A60054BEF
:10050000186801E04FF0FF3004B0704774A7FF1F78
:1005100094EEFF1FB4EBFF1F6487FF1FACA7FF1F04
:10052000F8B50278042A10D0064600254FF6FF746D
:100530000F4F3846214603F09FFB04460135ADB20C
:1005400016F8012F042AF4D102E000254FF6FF74BB
:10055000084E33685B68304607490C22984730469E
:10056000294605F071FC304605F022FC2046F8BD16
:10057000A0E9FF1F8CEFFF1F88B600000B78042B4B
:1005800014D00D2B0DD00A2B0BD04A1C114600F8AD
:10059000013B12F8013B042B08D00D2B01D00A2B94
:1005A000F4D1037000234370481C70470021017090
:1005B000084670470B782BB100F8013B11F8013F5A
:1005C000002BF9D10A230370042300F8013F704780
:1005D00070B504463D2108F01DF900282CD12F4D9F
:1005E0002846214603F024FC04462846214603F011
:1005F00083FC002845D02046294908F0CFFC00287C
:1006000041D12046274908F0C9FC00283DD12046A9
:10061000254908F0C3FC002839D12046234908F0B9
:10062000BDFC002835D12046214908F0B7FC002840
:1006300014BFEF20FE2070BD461C00220270174D33
:100640002846214603F0F4FB04462846214603F0E1
:100650002FFC2846214603F093FC2846314603F040
:10066000E7FB0546204608F0BBFA03462018013098
:100670003D22E254A8420ED0294608F053FA002049
:1006800070BDFE2070BDDF2070BDAF2070BDBF20EB
:1006900070BDCF2070BD002070BD00BFA0E9FF1F5E
:1006A00098B60000A4B60000B0B60000BCB60000CA
:1006B000CCB6000010B50D4C23685B6820460C4991
:1006C0001122984720460B4B598805F0BDFB236843
:1006D0005B68204608491F229847204605F068FBC2
:1006E000064B1A8801321A8010BD00BF8CEFFF1F25
:1006F000D4B60000A0E9FF1FE8B600009CE9FF1F88
:1007000070B5044608F06CFA052836D12278A2F1BB
:100710003003092B33D8201D234613F8011F30392D
:1007200009292ED88342F8D131E020461346002112
:100730003026392B1ABF0133DBB2334610F8015F84
:10074000AB4204D10131C9B20429F2D11BE0042922
:100750001BD000203921302A1ABF02F1FF32D2B259
:100760000A4614F8013F9A4203D10130C0B204286E
:10077000F1D1043818BF012070BD002070BD0020E9
:1007800070BD002070BD002070BD002070BD2178BC
:1007900063789942C9D1002070BD00BF70B588B0A0
:1007A00006463D2108F036F8044640B98C488D498C
:1007B00003F04AFC8C4B1A8801321A80B0E1451CC8
:1007C00000230370864A1380284608F009FA10288F
:1007D00004D98348854903F037FCA1E168462946DE
:1007E00008F0A0F93046824908F08EF810BB284680
:1007F000804907F0EDFFC0B128467F4907F0E8FFC8
:1008000098B128467D4907F0E3FF70B128467C493E
:1008100007F0DEFF48B128467A4907F0D9FF20B13A
:100820006F48794903F010FC72E17848294608F0D6
:1008300079F96DE13046764908F066F8A8B9637831
:1008400083B16748694603F0A7FA724B984204D116
:100850006348714903F0F8FB5AE17048294608F0F3
:1008600061F955E1FFF726FF52E130466C4908F087
:100870004BF8A8B9637883B15948694603F08CFAFC
:10088000644B984204D15648634903F0DDFB3FE1D5
:100890006448294608F046F93AE1FFF70BFF37E1D3
:1008A0003046614908F030F8B0B963788BB14C48F4
:1008B000694603F01DFA4FF6FF73984204D1484889
:1008C0005A4903F0C1FB23E15948294608F02AF9A7
:1008D0001EE1FFF7EFFE1BE13046564908F014F821
:1008E000B0B963788BB13E48694603F001FA4FF620
:1008F000FF73984204D13A484C4903F0A5FB07E145
:100900004D48294608F00EF902E1FFF7D3FEFFE05B
:1009100030464A4907F0F8FFB0B963788BB13048E8
:10092000694603F0E5F94FF6FF73984204D12C486D
:100930003E4903F089FBEBE04148294608F0F2F814
:10094000E6E0FFF7B7FEE3E030463E4907F0DCFFA4
:1009500098B9637873B12248694603F039FB20B92E
:100960001F48394903F070FBD2E03848294608F0A7
:10097000D9F8CDE0FFF79EFECAE03046344907F0D3
:10098000C3FF98B9637873B11548694603F020FB3B
:1009900020B913482F4903F057FBB9E02E482946E8
:1009A00008F0C0F8B4E0FFF785FEB1E030462B490F
:1009B00007F0AAFF002857D1637873B10848694649
:1009C00003F006FB20B90648254903F03DFB9FE0F4
:1009D0002448294608F0A6F89AE0FFF76BFE97E056
:1009E000A0E9FF1F64B80000B0EBFF1F08B70000CC
:1009F00044B7000020B7000028B700002CB7000063
:100A000034B7000038B700003CB70000B888FF1FBB
:100A10004CB700008051010058B70000688EFF1FDE
:100A200068B700009088FF1F74B7000080B700000F
:100A3000708EFF1F94B70000788EFF1FA0B70000D4
:100A4000808EFF1FB4B70000ACB70000B8ECFF1FEA
:100A5000C0B70000B8B7000000EDFF1FC8B7000026
:100A6000D4B700003CEDFF1F30462E4907F04CFF85
:100A700060BB63783BB328462B4907F0A9FEE8B179
:100A800028462A4907F0A4FEC0B12846284907F0A5
:100A90009FFE98B12846274907F09AFE70B1284674
:100AA000254907F095FE48B12846244907F090FEF5
:100AB00020B12348234903F0C7FA29E022482946F8
:100AC00008F030F824E0FFF7F5FD21E030461F493B
:100AD00007F01AFFC0B963789BB128461C4907F09C
:100AE00077FE48B128461B4907F072FE20B1144832
:100AF000194903F0A9FA0BE01848294608F012F842
:100B000006E0FFF7D7FD03E00D48154903F09CFA16
:100B10003D232370134B1988094A12880A441A800E
:100B200008B070BDE8B70000ECB70000F0B70000F7
:100B3000F4B70000F8B70000FCB7000004B80000EC
:100B4000A0E9FF1F0CB80000B088FF1F24B8000008
:100B500028B800002CB8000030B800008888FF1FBB
:100B600044B80000B0EBFF1F70B506463D2107F00A
:100B700051FE044640B96E486E4903F065FA6E4B6B
:100B80001A8801321A8070BD451C00230370684A20
:100B90001380284608F024F8082804D964486749D7
:100BA00003F052FA70BD3046654908F0F7F930B3EA
:100BB00063780BB35E48B11D03F0B0F90646FF2819
:100BC00004D15B485F4903F03FFAA8E05848294642
:100BD00003F08EF84FF6FF73984204D154485A49F7
:100BE00003F032FA9BE006EB4606584800EBC600DD
:100BF000294607F097FF92E0FFF75CFD8FE0304653
:100C0000534908F0CBF940B363781BB3484806F169
:100C1000080103F083F90646FF2804D144484949F6
:100C200003F012FA7BE04248294603F061F84FF6E0
:100C3000FF73984204D13E48434903F005FA6EE041
:100C400006EB4606414B03EBC6000830294607F089
:100C500069FF64E0FFF72EFD61E030463D4908F092
:100C60009DF958B3637833B3314806F1080103F0B6
:100C700055F90646FF2804D12D48324903F0E4F91E
:100C80004DE02B48294603F087F9C0B2192808D057
:100C9000282806D0322804D025482F4903F0D4F95B
:100CA0003DE006EB4606294B03EBC6001030294613
:100CB00007F038FF33E0FFF7FDFC30E0304627490E
:100CC00008F06CF938B3637813B3194806F10C01D6
:100CD00003F024F90646FF2804D11548194903F00A
:100CE000B3F91CE028461E4907F072FD48B12846BA
:100CF0001C4907F06DFD20B10D481B4903F0A4F914
:100D00000DE01A4800EBC600294607F00BFF06E08D
:100D1000FFF7D0FC03E00648154903F095F93D23A1
:100D20002370054B1988024A12880A441A8070BD44
:100D3000A0E9FF1F5CB80000B0EBFF1F08B7000080
:100D400078B8000080B8000080B70000F08EFF1F68
:100D50009CB80000A8B80000B4B80000C4B80000F7
:100D60002CB8000028B80000D4B80000888EFF1FFF
:100D700044B8000070B506463D2107F04BFD04461F
:100D800040B96E486E4903F05FF96E4B1A88013224
:100D90001A8070BD451C00230370684A13802846E2
:100DA00007F01EFF082804D96448674903F04CF98E
:100DB00070BD3046654908F0F1F830B363780BB385
:100DC0005E48B11D03F0AAF80646FF2804D15B482F
:100DD0005F4903F039F9A8E05848294602F088FF36
:100DE0004FF6FF73984204D154485A4903F02CF946
:100DF0009BE006EB4606584800EBC600294607F084
:100E000091FE92E0FFF756FC8FE03046534908F020
:100E1000C5F840B363781BB3484806F1080103F0F6
:100E20007DF80646FF2804D14448494903F00CF9EF
:100E30007BE04248294602F05BFF4FF6FF73984281
:100E400004D13E48434903F0FFF86EE006EB460646
:100E5000414B03EBC6000830294607F063FE64E00F
:100E6000FFF728FC61E030463D4908F097F858B399
:100E7000637833B3314806F1080103F04FF80646B2
:100E8000FF2804D12D48324903F0DEF84DE02B480D
:100E9000294603F081F8C0B2192808D0282806D0C6
:100EA000322804D025482F4903F0CEF83DE006EB68
:100EB0004606294B03EBC6001030294607F032FEE8
:100EC00033E0FFF7F7FB30E03046274908F066F8DB
:100ED00038B3637813B3194806F10C0103F01EF818
:100EE0000646FF2804D11548194903F0ADF81CE067
:100EF00028461E4907F06CFC48B128461C4907F0FB
:100F000067FC20B10D481B4903F09EF80DE01A481C
:100F100000EBC600294607F005FE06E0FFF7CAFB16
:100F200003E00648154903F08FF83D232370054B75
:100F30001988024A12880A441A8070BDA0E9FF1F6E
:100F40005CB80000B0EBFF1F08B70000F8B8000065
:100F500080B8000080B70000308DFF1F00B900008E
:100F60000CB90000B4B8000018B900002CB800009B
:100F700028B80000D4B80000C088FF1F44B80000A3
:100F800070B506463D2107F045FC044640B9874848
:100F9000874903F059F8874B1A8801321A8070BDCF
:100FA000451C00230370814A1380284607F018FE71
:100FB000082804D97D48804903F046F870BD3046C2
:100FC0007E4907F0A1FCB0B963788BB17748294618
:100FD00002F08EFE4FF6FF73984204D173487849B1
:100FE00003F032F8D9E07748294607F09BFDD4E0BA
:100FF000FFF760FBD1E03046734907F085FCB0B9DC
:1010000063788BB16948294602F072FE4FF6FF7390
:10101000984204D165486A4903F016F8BDE06B4870
:10102000294607F07FFDB8E0FFF744FBB5E0304606
:10103000674907F069FCC8B96378A3B15B482946E2
:1010400002F0AAFFC0B2192808D0282806D03228FA
:1010500004D056485F4902F0F7FF9EE05E482946FB
:1010600007F060FD99E0FFF725FB96E030465B490D
:1010700007F094FFC0B163789BB12846584907F048
:10108000A7FB48B12846574907F0A2FB20B14748C3
:10109000554902F0D9FF80E05448294607F042FD47
:1010A0007BE0FFF707FB78E03046514907F02CFC66
:1010B000B0B963788BB13D48294602F019FE4FF66E
:1010C000FF73984204D139483D4902F0BDFF64E006
:1010D0004848294607F026FD5FE0FFF7EBFA5CE0A1
:1010E0003046454907F010FCB0B963788BB12F4802
:1010F000294602F0FDFD4FF6FF73984204D12B48BC
:101100002F4902F0A1FF48E03C48294607F00AFDBC
:1011100043E0FFF7CFFA40E03046394907F0F4FBEF
:10112000C8B96378A3B12148294602F035FFC0B29F
:10113000192808D0282806D0322804D01B48254971
:1011400002F082FF29E02F48294607F0EBFC24E05B
:10115000FFF7B0FA21E030462B4907F01FFFC0B17E
:1011600063789BB128461E4907F032FB48B12846F8
:101170001C4907F02DFB20B10C481B4902F064FF0D
:101180000BE02248294607F0CDFC06E0FFF792FA73
:1011900003E006481E4902F057FF3D232370054B2C
:1011A0001988024A12880A441A8070BDA0E9FF1FFC
:1011B0005CB80000B0EBFF1F08B7000028B90000C2
:1011C00080B70000008DFF1F34B90000088DFF1F9D
:1011D00044B90000B4B80000108DFF1F54B90000DE
:1011E0002CB8000028B80000D4B80000A088FF1F69
:1011F00068B90000188DFF1F74B90000208DFF1F13
:1012000084B90000288DFF1F94B90000A888FF1F33
:1012100044B8000070B506463D2107F0FBFA0446CD
:1012200040B95748574902F00FFF574B1A8801320F
:101230001A8070BD451C00230370514A1380284654
:1012400007F0CEFC102804D94D48504902F0FCFEAE
:101250008CE030464E4907F0A1FEC8B16378002B00
:1012600000F084804648711D02F096FEC3B20A2B3E
:1012700004D94348474902F0E7FE77E0C0B200EBEB
:101280008000454B03EBC000294607F04BFC6DE0A6
:101290003046424907F082FE18B36378002B65D0D0
:1012A0003748311D02F078FE0646C3B20A2B04D936
:1012B00033483B4902F0C8FE58E02846FFF720FAC1
:1012C00050B1F6B206EB8606334B03EBC600103086
:1012D000294607F027FC49E02948324902F0B4FECC
:1012E00044E03046304907F00FFB00283AD06378DD
:1012F000002B3BD02248F11D02F04EFE0646C3B241
:101300000A2B04D91E48294902F09EFE2EE063787C
:1013100063B32846264907F05BFAC0B12846254941
:1013200007F056FA98B12846234907F051FA70B1F0
:101330002846224907F04CFA48B12846204907F0D0
:1013400047FA20B10E481F4902F07EFE0EE0F6B2C9
:1013500006EB8606104B03EBC6001830294607F053
:10136000E1FB03E00648184902F06EFE3D232370BE
:10137000054B1988024A12880A441A8070BD00BFC2
:10138000A0E9FF1F5CB80000B0EBFF1F08B700002A
:10139000A8B90000B0B90000B0C7FF1FC4B9000071
:1013A000CCB90000E0B90000F4B90000FCB90000BD
:1013B00014BA000024BA000030BA000038BA0000A5
:1013C00040BA00004CBA000044B800002DE9F043D8
:1013D00085B00746264B1B680193019D0026244CCF
:1013E000DFF894802FE004F015FBC0B2236802936D
:1013F000029D0A2812D10136B6B207F101090A236B
:101400003B7004237B700023BB70D8F800305B680E
:1014100040461849012298474F4614E00D2802D152
:101420000136B6B20FE00136B6B27A1C387004232A
:101430007B700023BB7041F6FE739E4202D90023ED
:101440007B7011E0174604F031FB0028CBD106E099
:1014500023680393039B5B1BB3F57A7F04D804F0E6
:1014600025FB0028F4D0EEE7304605B0BDE8F08358
:1014700094EEFF1F90BB00008CEFFF1F2DE9F041A1
:1014800006463D2107F0C6F9451C284607F0A8FB93
:10149000C7B2304607F0A4FB5FFA80F83046164921
:1014A00007F07CFD20B185428CBF1024082400E0A9
:1014B00008243046114907F071FD10B1854288BFFC
:1014C000102430460E4907F069FD10B1854288BFEF
:1014D000102430460B4907F061FD10B1854288BFEA
:1014E00010240A232B5508F10108C7EB080754FA0A
:1014F00087F0C0B2BDE8F081B4B70000C0B700000B
:1015000064BA00006CBA000003780A2B0ED00D2BD1
:101510000ED0042B0ED00022013210F8013F0A2B0E
:1015200009D00D2B07D0042BF6D104E0002202E0F5
:10153000002200E00022501C704700BF84B070B54C
:1015400004AC84E80F000A9D099E1C4800218022FB
:1015500007F0DEF89DF8102052B1194B04AC184684
:1015600003F8012C14F8012F0133002AF7D100E011
:101570001248421C3D230370337833B1314602F8E0
:10158000013B11F8013F002BF9D1002313700B48E8
:10159000FFF774FF014658B1002308481A5CEA546B
:1015A0000133DAB28A42F9D30139C9B201310D44AB
:1015B0002846BDE8704004B0704700BFB8EBFF1F7D
:1015C000B9EBFF1F70B584B00446614D614A2B46EC
:1015D00007CA03C31A802B78002B00F0A7802A4685
:1015E00004F8013B12F8013F002BF9D19EE005EB16
:1015F000450306EBC303029403F1100292E80300D3
:101600008DE803000FCBFFF799FF044601350C2D41
:10161000EDD14F4E504B35460FCB07C52B7033786D
:10162000002B00F08680324604F8013B12F8013F9F
:10163000002BF9D17DE005EB450306EBC3030294D3
:1016400003F1100292E803008DE803000FCBFFF7CF
:1016500075FF04460135312DEDD13D4E3F4B3546EA
:101660000FCB07C52B703378002B65D0324604F8BA
:10167000013B12F8013F002BF9D15DE005EB45037A
:1016800006EBC303029403F1100292E803008DE815
:1016900003000FCBFFF752FF04460135312DEDD18A
:1016A0002B4E2F4B35460FCB07C52B803378002BA5
:1016B00045D0324604F8013B12F8013F002BF9D126
:1016C0003DE005EB450306EBC303029403F1100272
:1016D00092E803008DE803000FCBFFF72FFF0446CD
:1016E0000135092DEDD11A4D1E4A2B4607CA03C3F9
:1016F0001A702B7833B32A4604F8013B12F8013FE5
:10170000002BF9D11EE005EB450306EBC303029461
:1017100003F1100292E803008DE803000FCBFFF7FE
:101720000DFF044601351F2DEDD10EE001250E4EB3
:101730005DE701250D4E7EE701250D4E9EE7012553
:101740000C4EBEE701250C4EDDE704B070BD00BFB6
:10175000B8EBFF1F74BA000080BA000090BA000016
:10176000A0BA0000B0BA00006887FF1F2890FF1FD2
:10177000C094FF1F2889FF1F008AFF1FF0B583B0A8
:101780001620012103F070FB1620002103F03AFB24
:101790001620012103F036FB494C20461C2102F0A3
:1017A00075FC204602F076FC204602F077FC454EA0
:1017B00030461B2102F0ECFF434D28461A2102F06F
:1017C000E7FF424C2046192102F0E2FF304602F0CA
:1017D000E5FF284602F0E2FF204602F0DFFF304638
:1017E00002F0E2FF284602F0DFFF204602F0DCFFB5
:1017F00000273763304603F033F82F63284603F0A1
:101800002FF82763204603F02BF8314C2046502157
:1018100000F04CFC204600F04BFC204600F020FD80
:101820002C482D4D2D4B2E4C42F20F71027812F0A8
:10183000FF0F3DD02A7812F0030F39D01E682268BE
:10184000B21A182A34D9274C23685B6820462649E7
:101850001022984723685B68204624490C22984749
:1018600023685B68204622490822984723685B6802
:10187000204620490122984723685B6820461E497C
:101880000B229847124B1B7DC3B923685B68204627
:101890001A4929229847204604F08AFA23685B688F
:1018A0002046174920229847204604F081FAFEE797
:1018B0001A680192019A8A42B8D9C4E703B0F0BD10
:1018C00010EDFF1FACEDFF1F68E9FF1F78A7FF1F9A
:1018D000C8ECFF1F78EFFF1F88EFFF1F94EEFF1F7C
:1018E000A4F1FF1F8CEFFF1FBCBA0000D0BA0000AC
:1018F000E0BA000024BF0000ECBA0000F8BA000013
:1019000024BB00002DE9F04784B0884804214FF43F
:10191000005206F0FDFE864B1B680193019D854831
:1019200003685B688449202298474FF00008804C88
:10193000804E1DE023680293029B5B1BBB4219D9BA
:1019400023680393039D33685B6830467B491C2200
:10195000984730465FFA88F10A22002304F038FAEB
:1019600033685B68304676490522984708F10108DC
:1019700042F2107704F09AF80028DBD06D4C23680F
:101980005B6820466F490B229847204604F010FA06
:101990000120FEF787FD6C4F3846FFF717FD06461E
:1019A0000020FEF77FFD054623685B6820466749F7
:1019B0000B2298472046314604F046FA23685B68BC
:1019C000204663490F2298472046294604F03CFAF6
:1019D00023685B6820465F4902229847204604F04E
:1019E000E7F900255C4B5D8023685B6820465B4916
:1019F0000A229847204604F0DBF90120FEF752FD49
:101A0000DFF82881564C544EDFF87891204639464D
:101A1000FEF7B4FD0746002843D02378042B02D1FB
:101A200088F800303DE07288013272800D2BEDD0D5
:101A30000A2BEBD02046232106F0ECFE0028E5D14E
:101A40002046FEF7C5FD824668B1FE2804D1304627
:101A5000494602F0F9FAD9E740462146FEF7AAFDC9
:101A600080465546D2E7DF2D03D12046FEF796FE8D
:101A7000CCE7AF2D03D12046FFF776F8C6E7BF2DA0
:101A800003D12046FFF776F9C0E7CF2D03D12046DA
:101A9000FFF776FABAE7EF2DB8D12046FFF7BAFB89
:101AA000B4E70020FEF7FEFC0546224C23685B6885
:101AB00020462C490A2298472046274B598804F093
:101AC000C3F923685B68204627490A2298472046C5
:101AD000294604F0B9F923685B68204623490422AB
:101AE0009847234B198800294ED0204604F0ACF9C2
:101AF00023685B6820461F490B22984720461E4BEF
:101B0000198804F0A1F923685B6820461B490D225F
:101B10009847204604F04CF923685B682046184932
:101B20001A229847204604F043F942E0B0A7FF1F6D
:101B300094EEFF1F8CEFFF1F48BB00006CBB000042
:101B40008CBB000094BB000068C9FF1FA0BB000055
:101B5000ACBB0000BCBB0000A0E9FF1FC0BB000085
:101B6000B8EBFF1FCCBB0000D8BB0000E4BB0000FB
:101B7000B0EBFF1FECBB00009CE9FF1FF8BB0000AF
:101B800008BC000064B800009B4C23685B682046DA
:101B90009A490C2298472046994B198804F054F929
:101BA00023685B68204697490C229847204604F03A
:101BB000FFF8934B1B8893B1934B1B88002B40F08D
:101BC000598192489249934A02F04AFC38B98C4BA9
:101BD0001A888D4B1A8088488F49FEF751FC8A4B32
:101BE0001B88002B40F046818C4F3846FFF7EAFCFB
:101BF000814C23685B682046894917229847204614
:101C000004F0D6F80120FEF74DFC804804214FF483
:101C100080724FF4706302F0EBFB0020FEF742FC91
:101C2000054623685B6820467E490922984720467E
:101C30004FF4706104F008F923685B6820467A4924
:101C40000F2298472046294604F0FEF823685B6877
:101C50002046764902229847204604F0A9F800223F
:101C6000734B5A8023685B68204672490922984763
:101C7000204604F09DF80120FEF714FC6E484FF456
:101C8000807100F04BFA6D4D694E6B4C2846394619
:101C9000FEF774FC074688B1738801337380E561F1
:101CA0002846FFF731FC6062204600F0EDFA52480A
:101CB00003685B68624901229847E7E75E4C0423AA
:101CC0002376204600F0A4FB2046002100F026FAEF
:101CD000204600F019FB594D4FF48076284600212C
:101CE000324606F015FD2046002100F017FAE561A6
:101CF0006662204600F0C8FA0020FEF7D3FB0546D6
:101D00003D4C23685B6820464E4908229847484F5F
:101D10002046798804F098F823685B6820464A4991
:101D2000122298472046294604F08EF823685B6803
:101D300020463E4902229847204604F039F8012007
:101D4000FEF7B0FB3548FEF7EBFB0546384631465B
:101D500001F0A0FF854238D1374C2046FE2100F02B
:101D6000DDF92576204600F053FB2046FF2100F0E8
:101D7000D5F92B122376204600F04AFB0020FEF70F
:101D800091FB07461C4C20463049FEF76BFB1F4E6B
:101D90003046294602F022FC20462D49FEF762FB20
:101DA0002046394604F050F820462049FEF768FBEB
:101DB00020462849FEF756FB30461549264A01239E
:101DC00002F04EFB002851D04CE010481049234A45
:101DD000012302F045FB18B10C48002102F078FC09
:101DE000054C23685B6820461D49352298472046EC
:101DF00003F0DEFFFEE700BF8CEFFF1F24BC0000F6
:101E00009CE9FF1F34BC0000B0EBFF1F4CEDFF1F2F
:101E100044BC00004CBC000078BC0000B0A7FF1F11
:101E200084BC00009CBC0000A8BC0000BCBB00003F
:101E3000A0E9FF1FB8BC0000C8ECFF1FB8EBFF1FF4
:101E400090BB0000C4BC0000D0BC0000E4BC00009B
:101E5000F4BC00001CBD000058BD000044BD0000E3
:101E600074BD00003148002102F032FC3048314995
:101E7000FEF706FB2D483049304A012302F0F0FA04
:101E800020B12A484FF4804102F022FC27482A4919
:101E90002B4A002302F0E4FA38B3254C20462949A6
:101EA000FEF7EEFA0120FEF7FDFA204804214FF478
:101EB0008042134602F09CFA0020FEF7F3FA054632
:101EC00020462149FEF7CEFA20464FF4804103F028
:101ED000BBFF20461D49FEF7C5FA2046294603F000
:101EE000B3FF20461A49FEF7CBFA10481249194AA7
:101EF000002302F0B5FA50B90D4C23685B68204608
:101F0000154922229847204603F052FFFEE7134866
:101F100000214FF4005206F0FBFB0023104A13800F
:101F2000104A138004B0BDE8F08700BF4CEDFF1FDE
:101F30008CEFFF1FACBD000044BC0000B4BD00002E
:101F4000CCBD0000E8BD00009CBC0000A8BC0000A7
:101F5000BCBB000008BE00001CBE000068C9FF1F1B
:101F6000B0EBFF1F9CE9FF1FF0B58DB0474C00257B
:101F700025806580464F4E26201D3946324602F0A8
:101F800075FC04F152003946324602F06FFC04F150
:101F9000A00657F8500F7968BA68FB680FC63B8AED
:101FA0003380C4F8B450C4F8B850C4F8BC50C4F876
:101FB000C05004F1C4002946442206F0A9FB0323C3
:101FC00084F8C43045F26043C4F8C8304FF620535B
:101FD000C4F8CC3040F65553A4F8D03040F6B8637E
:101FE000A4F8D23041F21C03A4F8D430012384F8C1
:101FF0000631F82384F80731264B4FF480429A804B
:10200000254A11680691069999601168059105990C
:1020100019611168049104999961116803910399F8
:1020200019621168029102999962116801910199EE
:10203000196311680B910B99996311680A910A99B8
:1020400019641168099109999964116808910899AE
:10205000196512680792079A9A65104A5570F0211F
:10206000D170FF23137153710D4A5571D1711372E1
:1020700053720C4A5571D171137253720A4A5571D9
:10208000D171137253720DB0F0BD00BFA0E9FF1FF4
:1020900024B600004CEDFF1F94EEFF1F10EDFF1F54
:1020A000ACEDFF1F68E9FF1F78A7FF1F01707047A5
:1020B00000B587B0094B1869597B002914BF03226A
:1020C00000220023009301920293039301220492C1
:1020D0001A4600F0CFFD07B05DF804FBF4EDFF1FDA
:1020E0000139072918D8DFE801F004080E12080E9C
:1020F000120443680133436070478368013383608F
:10210000002303757047C3680133C36070470369D8
:102110000133036100230375704700BF11F4004FC2
:1021200003D149BAC18200207047FE20704700BF2A
:10213000C38A5BBA9BB20133C3F30E035BBAC3829B
:10214000704700BFC28A52BA436A13FA82F3C3F3DC
:102150000E035BBAC382704730B583B00446037D7B
:102160000BB3124B1869597B227801230093002589
:10217000019501F0ABF9E06248B10C4B186901F030
:10218000EFF960762046FFF7D3FF28460CE0074BB7
:102190001B6993F84E12C9B284F830102046FFF73D
:1021A0009FFFFF2000E0FD2003B030BDF4EDFF1FD6
:1021B0002DE9F04182B00546284C20467C2100F0F4
:1021C00097FE2368297849001B68204601F0FE012C
:1021D00098472169627B00230093204601F062F951
:1021E000044685F8300050BB03236B621B4A10691C
:1021F000517B01220092002201927C2201F066F9BB
:10220000E8626B6A83421AD1144E306901F07CF99E
:102210008046306901F078F90746306901F074F9B9
:10222000C7F303135FFA88F803EB0818A5F83680A4
:1022300007F00F07C0B200EB0727AF860AE0074B95
:102240001B6993F84E12C9B285F830102846FFF783
:1022500047FFFF24204602B0BDE8F081F4EDFF1FE8
:1022600010B50446FFF7A4FF034618B9626B054991
:102270008A4203D000232375FF2301E00122227547
:10228000184610BD10050A0070B582B00446037DE3
:10229000002B32D01B4D0646284616F8161B00F0C0
:1022A00027FE28463146022200F0FEF82846E16962
:1022B000626A00F0F9F8A062296991F84E32DBB247
:1022C000082B05D120460821FFF70AFFFF2515E05E
:1022D0000C48427B00230093012301F0E3F80546FC
:1022E00084F8300018B92046FFF72CFF06E020469E
:1022F0002946FFF7F5FEFF2500E0FD25284602B040
:1023000070BD00BFF4EDFF1F70B582B00446037DC1
:1023100003B3124D0646284616F8161B00F0E8FDDA
:1023200028463146022200F0BFF829696A7B002363
:1023300000932846012301F0B5F8014684F83000E7
:1023400020B12046FFF7CCFEFF2004E02046FFF737
:1023500003FF00E0FD2002B070BD00BFF4EDFF1FE1
:102360002DE9F04182B00446066A037D002B48D077
:10237000264D0746284617F8161B00F0B9FD2846DB
:102380003946022200F090F829696A7B0023009305
:10239000284601F087F8054684F8300028B1204629
:1023A0002946FFF79DFEFF252CE0184B1869597B45
:1023B0002278636A012700970027019701F086F8C9
:1023C000E062636A834210D12046FFF7BBFE636A76
:1023D000C3B1DFF83880D8F8100001F0C1F8F0552B
:1023E0000137636ABB42F6D80CE0084B1B6993F8CF
:1023F0004E12C9B284F830102046FFF771FEFF2557
:1024000000E0FD25284602B0BDE8F081F4EDFF1F95
:1024100070B582B00446037D0BB3134D06462846C3
:1024200016F8161B00F064FD28463146022200F023
:102430003BF82846217E00F023F8A06229696A7BD8
:10244000002300932846012301F02CF8014684F86C
:10245000300028B12046FFF743FEFF2100E0FD21B8
:10246000084602B070BD00BFF4EDFF1F0369D3F84A
:102470003801D3F83431C01A704700BF704700BF2D
:102480000369D3F84422B2F5817F09D8D3F84422F6
:10249000501CC3F84402134483F83C1101207047D8
:1024A000012303710020704730B40369D3F844421C
:1024B000B4F5817F1ED8D3F84442C4F58174013449
:1024C000D3F844522B4403F59E73944202D2012266
:1024D0000271224632B18D1811F8014B03F8014BFD
:1024E000A942F9D10369D3F844121144C3F8441244
:1024F000104602E001230371002030BC704700BF8A
:1025000038B50446084B0360036993F84822022A51
:1025100008D1D3F860522DB1284603F02FFC28468D
:1025200003F0A8FC204638BD48BE000010B40022CD
:1025300002714FF47A7484600273064A0260417338
:102540004FF41A74044A04FB012101615DF8044B45
:10255000704700BF48BE00005899FF1F70B5044681
:102560000D46C3681B7813F0200F40F0B6808368D7
:1025700080211970C3681221197090F84932012B1B
:102580000BD022B9002380F84832012070BD531EC1
:10259000DBB2012B00F2A38000E0012225B94FF04D
:1025A0008071504B196005E0012D03D14FF000718F
:1025B0004C4B1960022A40F08C80D4F860624EB90E
:1025C000082003F053FC0646002103F079FBC4F811
:1025D00060627EB13379102B0CD1304603F0CEFB14
:1025E000304603F047FC0023C4F86032012084F831
:1025F000480270BD002D30D133689A8B92B2998B0E
:1026000042F008029A83D4F86032197910313648C2
:10261000364A42F821001A7953119B0003F16043B6
:1026200003F5614302F01F02012101FA02F21A6070
:10263000D4F860321B689A8B92B2998B42F00202F6
:102640009A83D4F860321B7903F1804303F5043395
:1026500000221A7096221A7033E0012D31D1D4F87D
:1026600060321B689A8B92B2998B42F008029A836F
:10267000D4F86032197910311D481C4A42F8210003
:102680001A7953119B0003F1604303F5614302F093
:102690001F02012101FA02F21A60D4F860321B68AD
:1026A0009A8B92B2998B42F002029A83D4F86032EC
:1026B0001B7903F1804303F5043300221A7097223B
:1026C0001A70002384F85632022384F8483201201D
:1026D00070BD012084F8480270BD002070BD01204B
:1026E00070BD00BF00E100E0553B00000082FF1F0D
:1026F000653B000010B403469848814257D10D2A2B
:102700004DD8DFE802F0070C11161B20252A2F34C4
:10271000393E434759682C200870012043E059682E
:102720002420087001203EE05968552008700120DF
:1027300039E059684F200870012034E059681920A9
:10274000087001202FE059681320087001202AE04A
:10275000596845200870012025E059680D2008704F
:10276000012020E059680B20087001201BE0596807
:1027700006200870012016E0596805200870012025
:1027800011E059680220087001200CE0596801200E
:10279000087008E0596800200870012003E05A68BA
:1027A000002010700D22996904240C70B3E16C486C
:1027B000814253D10C2A49D8DFE802F0070C1116E8
:1027C0001B20252A2F34393E430059682C200870DD
:1027D00001203FE059682420087001203AE0596840
:1027E0001E200870012035E059684F200870012034
:1027F00030E059681520087001202BE059680F203F
:102800000870012026E059680E200870012021E0A0
:1028100059680C20087001201CE059680A200870D3
:10282000012017E0596809200870012012E059685A
:102830000420087001200DE0596802200870012072
:1028400008E0596800200870012003E05A68002061
:1028500010700C22996904240C705CE1414881429B
:102860004DD10B2A43D8DFE802F0060B10151A1FD2
:1028700024292E33383D59682720087001203AE07A
:1028800059685A200870012035E059681C200870EA
:10289000012030E059688520087001202BE059683C
:1028A00014200870012026E0596845200870012096
:1028B00021E059680D20087001201CE059680B20A8
:1028C0000870012017E0596809200870012012E003
:1028D00059680320087001200DE059680220087033
:1028E000012008E0596800200870012003E05A68C0
:1028F000002010700B22996904240C700BE11A4817
:1029000081424AD1092A40D8DFE802F0050A0F14B3
:10291000191E2330353A596895200870012038E097
:10292000596855200870012033E0596885200870E7
:1029300001202EE0596815200870012029E059680F
:1029400045200870012024E059680C2008700120FF
:102950001FE059680A20087001201AE000879303DD
:10296000007E5603006CDC020051250259680520E8
:10297000087001200DE0596802200870012008E06D
:10298000596800200870012003E05A680020107088
:102990000922996903240C70BDE06148814237D156
:1029A000072A2DD8DFE802F004090E13181D22278C
:1029B00059681F200870012026E05968852008709A
:1029C000012021E059681420087001201CE059689A
:1029D00045200870012017E059680B20087001207D
:1029E00012E059680520087001200DE059680220A6
:1029F0000870012008E0596800200870012003E0F9
:102A00005A68002010700722996902240C7082E035
:102A1000444881422CD1052A22D8DFE802F003087D
:102A20000D12171C59681D20087001201CE0596800
:102A300014200870012017E0596843200870012015
:102A400012E059680B20087001200DE0596803203E
:102A50000870012008E0596800200870012003E098
:102A60005A68002010700522996901240C7052E008
:102A70002D48814221D1032A17D8DFE802F002074E
:102A80000C11596814200870012012E059680B20BD
:102A9000087001200DE0596803200870012008E04B
:102AA000596800200870012003E05A680020107067
:102AB0000322996901240C702DE01C48814215D134
:102AC00012B1012A05D009E059680B2008700120D5
:102AD00008E0596800200870012003E05A680020CF
:102AE00010700122996900240C7014E01048814292
:102AF0000CD122B95A6800211170012002E05A68F5
:102B000000201070996900220A7004E059680020C2
:102B100008709969087083F84C225DF8044B70477F
:102B200000366E010024F40000127A0000093D0016
:102B300080841E00F8B504469DF8180000284DD08A
:102B4000E5682D7815F0200F44D147E0012A0ED119
:102B500028B1002B5AD053E0132002F085F901234D
:102B600084F84A323F4B1D60043B1D6060E028B191
:102B7000002B57D050E0102002F076F9002384F8A3
:102B80004A32394B1D60043B1D6051E0012923D1BD
:102B9000042A0FD128B1002B52D04BE01D2002F0A7
:102BA00063F9042384F84A32304B1E6004331E60FC
:102BB0000120F8BD28B1002B4ED047E01A2002F0CA
:102BC00053F9032384F84A32294B1D60043B1D60EE
:102BD0000120F8BD0020F8BD0120F8BD002B40F217
:102BE000032508BF4FF4197540F2036640F264678D
:102BF000002B08BF3E4684F84B320029C6D1A5E71A
:102C00001220022102F030F90221A5E71220002152
:102C100002F02AF900219FE71120022102F024F995
:102C20000221A8E71120002102F01EF90021A2E7ED
:102C30000120F8BD1E20022102F016F90221ADE7A5
:102C40001E20002102F010F90021A7E71F20022119
:102C500002F00AF90221B1E71F20002102F004F975
:102C60000021ABE704A004400CA0044000D00440C5
:102C70002CB00440F0B583B004469DF820009DF8C8
:102C80002C600D4629B92F490F6847F040070F60A7
:102C900006E0012904D12B490F6847F080070F6037
:102CA00084F84922002184F84E123AB9636920223F
:102CB0001A7022681170E269117011E062690028CF
:102CC00037D12DE05B00DBB21370E2694300DBB269
:102CD00005E04000C0B21070E2695B00DBB2137027
:102CE00000230093204629469DF824209DF8283093
:102CF000FFF720FF204614493246FFF7FBFC204631
:102D000029469DF83020FFF729FC94F849321BB979
:102D1000A36880221A7012E0A368C0221A700EE025
:102D20002021117022685B00DBB21370E26900237E
:102D3000D5E72821117022689842C3D8C9E703B0AB
:102D4000F0BD00BF34800440006CDC022DE9F04F80
:102D500083B082468B4690F84A32042B4FD8DFE886
:102D600003F0313403060900172616242FE01E262F
:102D70001D242CE01F261A2429E02046494602F093
:102D800041F82B46013B7FF4FDAF2046414602F05F
:102D900039F82B46013B7FF4FDAF304602F056F880
:102DA00018B9013F17F0FF07E7D100218AF84E124A
:102DB0009AF84A229AF84B32009150465946FFF74A
:102DC000B9FE1CE01226132401E0112610249AF803
:102DD0004B32002B304614BF0221002102F044F890
:102DE0002046012102F00EF82046012102F03CF8B5
:102DF0000B274FF0000950254FF00108CDE703B035
:102E0000BDE8F08F2DE9F8430546884616469946F9
:102E100002F07AF80746AB681A7812F0200F0ED04D
:102E2000B4221A7032E0EC68247814F0200F06D136
:102E3000002385F84932AB68B0221A7006E0002EF4
:102E4000F1D002F061F8C01B8642ECD8AB681B7869
:102E500013F0200F0ED128464146FFF777FFEB68AD
:102E60001B7813F0200F05D1002385F84932AB6899
:102E7000B0221A70AB681B7803F0200303F0FF0048
:102E800023B9042385F84E32BDE8F88395F848321B
:102E9000013BDBB2012B20D801F0BCFD124B134AE1
:102EA000B8F1000F18BF13461B78984218DC0F28A2
:102EB00004DC012089F80000BDE8F8830A4B0B4AC6
:102EC000B8F1000F14BF90469846A0F11003DBB292
:102ED00088F800300120BDE8F8830120BDE8F883C0
:102EE0000120BDE8F88300BF18E400E019E400E029
:102EF0000369490083F83C1103690122C3F84422A5
:102F000000230371026982F84E3270472DE9F043C5
:102F100083B0054614461F4600238DF80730D0F8CD
:102F20004432002B00F0C8800FB9D0F86472EB680F
:102F300012221A7028463A460DF10703FFF762FF86
:102F4000002800F0B98095F848321BB19DF80720A1
:102F5000002A54D001F0D8FF8146012385F84E3273
:102F600085F84D4200264FF002082BE02B69AA1984
:102F700092F83C211A70EC68217811F0020FFBD016
:102F800084F80080EB681978C9B211F0100F09D0ED
:102F9000072385F84E32AB6880221A70EB68102246
:102FA0001A701BE011F0010F0BD01EB9052385F834
:102FB0004E3202E0062385F84E32AB6880221A704A
:102FC0000CE00136D5F844329E4207D2002FCDD016
:102FD00001F09AFFC9EB00008742C7D8D5F8443208
:102FE000B3428CBF0423002385F84E3295F84D324E
:102FF000012BAB680CBF8022B0221A705CE05A1E15
:10300000D2B2012A58D8012285F84E2285F84D42C5
:103010000022C5F84022022B14D1D5F84432042BEB
:1030200018D80FE013689B6833B91368002101209A
:10303000187259729972D972136800221A765A76E8
:103040009A76DA76AB68F0221A702B6995F83C21F3
:103050001A7031E0012385F85632D5F8602205F563
:103060009F70D5F84442033C11680B680023086048
:103070001168012008714B711168CB7111680872D9
:103080004B728B72CB7211686042C8601068C18B42
:10309000A1B2C1831268D08AD182D5F86022296991
:1030A00010680469016110680375437510688371C5
:1030B000B1F1804FB9D3B5E703B0BDE8F08300BFED
:1030C0002DE9F04383B0044616469DF828700B9D09
:1030D00000208DF80700002B00F04E81B3F5827FB1
:1030E00003D3082384F84E3246E1C4F8503200235B
:1030F000C4F83431C4F838310DB9D4F86452E368F7
:1031000012221A7020462A460DF10703FFF77AFEB5
:10311000002800F0318194F8483223B19DF807204F
:10312000002A00F0968001F0EFFE8046022384F82A
:103130004E3284F84D722369720042F00102D2B21D
:103140001A70E268137813F0020FFBD00223137099
:10315000E3681B78DBB213F0100F09D0072384F863
:103160004E32A36880221A70E36810221A7003E1BD
:1031700013F0010F06D0052384F84E32A368802295
:103180001A70F9E0032384F84E32D4F85032012B40
:10319000A3680CBFA822A0221A7023691B780226FC
:1031A000002745E00B7813F0020FFBD00E70002DC6
:1031B00000F0AA8001F0A8FEC8EB000085428CBF99
:1031C00000230123D4F838110231D4F8502291425F
:1031D00005D03BB194F8552222B900E03B46A268E5
:1031E00082F80090D4F838110131D4F8502291427D
:1031F00080F09F80002B00F0918094F85522002AE7
:1032000040F0AA808AE0042284F84E2201E084F88B
:103210004E7294F84D22012A06D11022013A7FF411
:10322000FDAFA2688021117023B1012384F85532CB
:103230004FF0A809D4F83821D4F850329A4280F0DF
:103240009B8094F84E32DBB2032B40F09580E1680E
:10325000A8E75A1ED2B2012A00F28E80022284F818
:103260004E2284F84D72934244D1D4F85032042B4C
:1032700040D9012384F85632D4F8603221691868A5
:103280000268002201601868027142711868C271F8
:10329000B1F1804F02D31A68926832B91A680021DE
:1032A0000120107251729172D1721A680023137347
:1032B00053739373D373D4F8602204F13005D4F8B8
:1032C0005002013811680F690D61116801250D75F3
:1032D0004B7511688B7111680D724B728B72CB72CA
:1032E0001368414299611368D98B81B2D9831368FD
:1032F000DA8AD982A368F0221A702369720042F038
:103300000102D2B21A7037E0D4F838210232D4F870
:1033100050329A423FF462AF3B4663E7226911782C
:10332000D4F83821501CC4F83801224482F83010F7
:103330007AE784F85572A268B02111702269117879
:10334000D4F83821501CC4F83801224482F83010D7
:10335000002B3FF45CAF56E784F85572A268B021A9
:10336000117022691178D4F83821501CC4F8380142
:10337000224482F8301046E703B0BDE8F08300BF76
:10338000036993F84E32043B042B0CD8DFE803F0BA
:10339000091005070300012070470320704704202F
:1033A0007047042070470079003018BF0120704733
:1033B0000220704790F84E3213F0FF0F1BD090F8A8
:1033C0004E32DBB2052B18D090F84E32DBB2062B12
:1033D00015D090F84E32DBB2072B12D090F84E3257
:1033E000DBB2042B0FD090F84E02C0B2082814BFF5
:1033F0000020012070470120704701207047012004
:103400007047012070470120704700BF70B5044627
:1034100015460AB9D0F8645201F076FD06462046FA
:10342000FFF7C8FF00283AD1002DF8D001F06CFD5D
:10343000801B8542F3D801F067FD801B854210D8C0
:1034400094F84832022B0CD194F8563213F0FF0F47
:1034500007D02046FFF7AEFF0028FAD0042384F8F7
:103460004E3294F84E32DBB2012B09D094F84E3232
:10347000DBB2022B04D094F84E32DBB2032B02D124
:10348000042384F84E324023013B7FF4FDAF94F8CF
:103490004E3213F0FF0F14BF0020012070BD002D2D
:1034A000DFD0C8E7F8B507460E461546069C084625
:1034B00011461A462346FFF729FD30462946224683
:1034C000FFF7A4FF3846FFF75BFFF8BD70B582B089
:1034D00004460D461E468BB19DF81830009307999F
:1034E000019129463346FFF7EBFD20462946079A0E
:1034F000FFF78CFF20B1D4F8380102E0002000E093
:10350000002002B070BD00BFD0F83421D0F83831AF
:103510009A4208D2D0F834315A1CC0F834211844E9
:1035200090F8300070474FF0FF30704708B50069E1
:10353000FFF7EAFF08BD00BFD0F83421D0F83831DA
:103540009A423DBFD0F83431C01890F830004FF0A7
:10355000FF30704708B50069FFF7EEFF08BD00BFF8
:10356000D0F83421D0F838319A4208D2D0F834312A
:103570005A1CC0F83421184490F8300070470020DD
:10358000704700BF38B50446C2681578EDB281684F
:103590000B78DBB213F0200F00F0C38113F0100F93
:1035A00000F0058190F85632DBB2022B04D090F87F
:1035B0005632DBB2032B4CD1D4F860120B689B8BD4
:1035C00003F080039BB2002B00F0808294F8563207
:1035D000DBB2022B40F07A826EE2137813F0800F98
:1035E000FBD00A79B54B1A70002384F85632D4F810
:1035F0004432013BC4F840322369D4F840222244CB
:1036000092F83C211A7020E0AD4B1A680B79012129
:103610009940114219D0AB4A1370D4F860321A792C
:10362000A94B1A70002384F8563215F0100F0CD0F5
:10363000072384F84E32A36880221A70E3681222AE
:103640001A700023C4F8403238BDE36802221A70B1
:1036500038BD90F84E32DBB2012B56D115F0100F69
:103660000DD0002380F85632072280F84E228022A7
:103670000A70C26812211170C0F8403238BD15F0CE
:10368000010F0FD0002380F85632D0F840321BB91A
:10369000052380F84E3202E0062380F84E32802364
:1036A0000B702EE0D0F840320133C0F84032D0F831
:1036B000442293420AD3002380F84E3290F84D32D0
:1036C000012B0CBF8023B0230B701AE090F8563208
:1036D000DBB2012B0ED1022380F85632F1230B709E
:1036E000D0F860321A79794B1A70036990F83D214D
:1036F0001A7006E00369D0F84022024492F83C2197
:103700001A70E36802221A7038BD90F84E32DBB2AC
:10371000022B36D115F0100F08D0072380F84E3257
:1037200080230B70C36812221A7038BD15F0010F88
:1037300005D0052380F84E3280230B701DE090F8F1
:103740005632DBB2012B0CD1022380F85632E12332
:103750000B70D0F860321A795C4B1A7003691B78D1
:103760000BE0032380F84E32D0F85032012B0CBF0F
:10377000E823E0230B7003691B78E36802221A70C8
:1037800038BD90F84E32DBB2042B0AD190F84D329E
:10379000012B0CBF8023B0230B70C36802221A7068
:1037A00038BD80230B70C36802221A7038BD90F8B0
:1037B0005632DBB2022B04D090F85632DBB2032B28
:1037C00056D1D4F860321A68928B02F0800292B21D
:1037D000002A00F08C8194F85622D2B2022A40F0DE
:1037E00086817AE11A79354B1A70002384F85632B3
:1037F00094F84E32DBB2042B1CBF002384F84E3207
:10380000A368B0221A70D4F85032013BC4F83831A2
:10381000D4F838315A1CC4F838212269127823446C
:1038200083F8302094F84D32012B1DD11023013B39
:103830007FF4FDAFA36880221A7015E0204A126859
:103840001B790121994011420ED01F4A1370D4F800
:1038500060321A791B4B1A70002384F8563284F8B0
:103860004E32A36880221A70E36802221A7038BDB3
:10387000D0F838210232D0F850329A4200F03E811E
:1038800090F84E32DBB2042B04D190F85532002B65
:1038900000F03481D4F838210132D4F850329A4201
:1038A00080F03A8194F84E32DBB2042B40F029814B
:1038B00094F85532002B40F02F8122E11C8000400B
:1038C0002C8000401F8000401E8000401B80004074
:1038D000002384F84E32A368B0221A70D4F838312D
:1038E0005A1CC4F8382122691278234483F8302006
:1038F00094F84D32012B06D11023013B7FF4FDAF2C
:10390000A36880221A7094F84E32DBB2042B04D1E3
:1039100094F85532002B00F00981E36802221A70F6
:1039200038BD15F0100F08D01023137015F0400F9C
:1039300006D1C36802221A7038BD15F0400F60D05E
:1039400094F84E32DBB20A2B04D1D4F85832002B53
:1039500040F0F08015F0040F1ED0092384F84E3299
:103960000023C4F84432A368D0221A7023691B785C
:103970005B0884F84F32D4F85C3203B19847D4F82E
:1039800044320BB984F83C31236994F83C211A7015
:103990000123C4F8403230E0002384F8543294F814
:1039A0004A322BB912206849032201F0BBF916E014
:1039B000012B05D111206449032201F0B3F90EE077
:1039C000032B05D11E206149032201F0ABF906E06B
:1039D000042B04D11F205D49032201F0A3F90A231F
:1039E00084F84E320023C4F83831A368C0221A701C
:1039F00023691B785B0884F84F32E36802221A704F
:103A000038BD13F0100F20D015F0010F15D1D0F8EC
:103A10004022D0F844329A4208D2D0F840325A1CA0
:103A2000C0F84022034493F83C2100E000222369BF
:103A30001A70A368D0221A703AE0C0230B70036991
:103A40001B78002380F84E3232E0002380F8543295
:103A500090F84A322BB912203B49032201F062F957
:103A600016E0012B05D111203749032201F05AF944
:103A70000EE0032B05D11E203449032201F052F938
:103A800006E0042B04D11F203049032201F04AF93B
:103A900023691B78DAB2D4F83831B3F5817F07D8BF
:103AA000D4F83831591CC4F83811234483F8302035
:103AB000E36802221A7038BD0A79254B1A70A36890
:103AC000F0221A70032384F85632BEE594F8563279
:103AD000DBB2032B7FF498AD7FE51A791C4B1A708B
:103AE000A368E8221A70032384F85632BCE694F8DF
:103AF0005622D2B2032A7FF4A1AE73E6E8230B70FC
:103B0000C8E6D4F838315A1CC4F838212269127832
:103B1000234483F83020F6E6002384F8553294F8E5
:103B20004E32DBB2042B7FF4D3AED4E6012384F80B
:103B30005532F2E60023C4F83431D4F83801D4F811
:103B40005832984706E700BF193C0000293C0000A6
:103B50001F80004008B502480021FFF713FD08BD93
:103B60005899FF1F08B502480121FFF70BFD08BD5A
:103B7000C09BFF1F10B50446C3681B7813F0200FCD
:103B800024D1002380F84E3290F84A321BB912201B
:103B900001F010F910E0012B03D1112001F00AF916
:103BA0000AE0032B03D11E2001F004F904E0042BEA
:103BB00002D11F2001F0FEF8D4F8583253B300228E
:103BC000C4F83421D4F83801984710BD90F8543225
:103BD0000133DBB280F85432012B03D890F849321C
:103BE000012B17D094F84A321BB9122001F0E2F8E9
:103BF00010BD012B03D1112001F0DCF810BD032B07
:103C000003D11E2001F0D6F810BD042B02D11F20D5
:103C100001F0D0F810BD00BF08B502480021FFF741
:103C2000A9FF08BD5899FF1F08B502480121FFF7F9
:103C3000A1FF08BDC09BFF1F70B50B4E3046002191
:103C4000FEF774FC094D0A4C30462946224604F022
:103C500071FA084E30460121FEF768FC30462946CD
:103C6000224604F067FA70BDF4EDFF1F0125000045
:103C70006087FF1FE0EDFF1F82EA010008234AF280
:103C8000010210F0010F14BF82EA60004008013BFE
:103C9000F7D17047F8B50746144C2046FEF73EFAB8
:103CA0002046FEF731FB627E042A15D14FF6FF70E5
:103CB000F8BD38463146FFF7DFFF0646013CA4B2A7
:103CC0003CB12846FEF748FA6A7E042AF1D1304614
:103CD000F8BD4FF6FF70F8BD38464FF6FF71FFF79D
:103CE000CBFF064641F6FE74004DEAE7C8ECFF1F25
:103CF00030B583B002AB002243F8042D08461946C4
:103D000006F00EFA019B4BB31B7853BB00221E4BEF
:103D100003F0A2FD18A3D3E9002304F07BF80446C6
:103D20000D4617A3D3E9002304F0DAF9E0B92046E1
:103D300029460022154B04F0B5F9C0B920462946A2
:103D40000022134B03F03CFF0022124B03F038FF1C
:103D500004F0D0F920F0070080B20AE04FF6FF70BF
:103D600007E04FF6FF7004E04FF6FF7001E04FF6FA
:103D7000FF7003B030BD00BF000000C0CCCCFC3FE2
:103D80000000000000C062400000404000804BC0C6
:103D9000000030400000204010B50C4608463A2193
:103DA00004F038FD034690B3002202702078A0F1A1
:103DB0003002092A2DD8D0B26278A2F13001092947
:103DC00006D800EB800001EB400000F0FF0000E0AF
:103DD0000ABB5A78A2F1300109291ED89B78A3F1B9
:103DE000300109291BD817281BD8303AD2B202EB70
:103DF000820201EB420303F0FF033B2B13D8C3EB1A
:103E000003139B004FF4616202FB003010BD0748B2
:103E100010BD064810BD054810BD044810BD03483C
:103E200010BD024810BD014810BD00BF8051010007
:103E30002DE9F843884691B3084604F0D1FE814647
:103E400008EB00064446274614F8015B284604F0B8
:103E5000A9F918B1002DF6D13D4600E03D46AE422D
:103E600009D03446661E14F8010C344604F09AF961
:103E700008B1B542F6D109F1FF39C144B14504D0CA
:103E8000002373703846BDE8F88345450AD04D4598
:103E90000BD1002388F800303846BDE8F8830020B5
:103EA000BDE8F8833846BDE8F8833846BDE8F883B6
:103EB00070B50C465F261AE004F074F990B1631CEB
:103EC0002670607880B11C4607E0651C20462946B4
:103ED00004F028FE607848B12C4604F063F900280D
:103EE000F3D104E0013402E01C4600E02C462078C7
:103EF0000028E1D170BD00BF10B50C460B785B2BDC
:103F00000AD1084604F06CFE204410F8010C5D282C
:103F100014BF0020012010BD002010BD0B78642BC1
:103F200020D14B78A3F13002092A1DD8CA78632A20
:103F30001CD10A79A2F13000092819D8C0B24979F8
:103F4000C1B9A3F13101C9B2032915D8313AD2B2AE
:103F5000022A13D8303BDBB2013B03EB4303184486
:103F6000C0B27047FF207047FF207047FF207047A6
:103F7000FF207047FF207047FF207047FF207047E9
:103F800010B5087838B14C1E06F0D2F804F8010FCD
:103F900060780028F8D110BD0B78A3F13002D2B2BE
:103FA000092A0FD8002003E0A3F13002092A0CD817
:103FB00000EB8000303B03EB400011F8013F002B89
:103FC000F2D170474FF0FF3070474FF0FF3070472D
:103FD00070B584B00546009108462E2104F01AFC05
:103FE000034620B3013000221A7001902E2104F004
:103FF00011FC0346E8B1013000221A7002902E2114
:1040000004F008FCB8B1002300F8013B0390ADF1C7
:10401000040403AE284654F8041FFFF7BDFFB0F1B7
:10402000FF3F0AD0FF280ADCB442F3D109E00020A8
:1040300008E0002006E0002004E0002002E000206C
:1040400000E0012004B070BD70B505460E4608467C
:1040500004F0C6FD02460B4C23685B6820463146DF
:10406000984723685B6820460749092298472046FD
:10407000698801F0E9FE204601F09AFE2B880133A1
:104080002B8070BD8CEFFF1FDCB6000008B500F080
:104090000DF808BD08B500F015F808BD08B5FF21FA
:1040A0000122002300F020F908BD00BF017080F854
:1040B0002410002383704370F023C370FF23037127
:1040C0004371704700B587B0094B1869597B0029C7
:1040D00014BF032200220023009301920293039352
:1040E000012204921A46FEF7C5FD07B05DF804FBF5
:1040F000F4EDFF1F08291FD8DFE801F005090D14B2
:10410000180D14180900C3680133C36070470369B0
:10411000013303617047436901334361002380F831
:10412000203070478369013383617047C36901336D
:10413000C361002380F82030704700BF70B582B0A3
:1041400004460D4690F82030002B31D01B4B1869E7
:10415000597B22780123009300260196FFF7B6F9D8
:1041600001280AD0154B1B6993F84E12C9B221726F
:104170002046FFF7BFFFFF201DE0104B1869FFF737
:10418000C3F9C0B2287063790BB9A0700AE0012BA3
:1041900002D1607000200EE0022B03D12B78E37077
:1041A000002008E0032B05D12B782371002002E0CA
:1041B000FD2000E0002002B070BD00BFF4EDFF1F45
:1041C00070B582B004460D4690F820302BB3154EE2
:1041D00030462178FEF78CFE30462946FEF750F92E
:1041E000C0B22072012806D0002121722046FFF7BC
:1041F00081FFFF2112E00B480169427B00230093FD
:104200000123FFF74FF90146207220B12046FFF746
:1042100071FFFF2102E0657100E0FD21084602B058
:1042200070BD00BFF4EDFF1F38B504460D4690F891
:10423000203063B10021FFF7C3FF50B92046294663
:10424000FFF77CFF002814BFFF20002038BDFD20B1
:1042500038BDFF2038BD00BFF0B583B004460D4621
:10426000164690F82030002B37D01E4F3846217864
:10427000FEF73EFE38462946FEF702F92072384620
:104280003146FEF7FDF8237A1844C3B22372022B9D
:1042900006D0002121722046FFF72CFFFF211DE0F0
:1042A00010480169427B002300930123FFF7FAF8CD
:1042B0000146207220B12046FFF71CFFFF210DE0D0
:1042C0006571012D01D1667008E0022D01D1E67003
:1042D00004E0032D02D1267100E0FD21084603B061
:1042E000F0BD00BFF4EDFF1F2DE9F04383B005469C
:1042F0008946174698461C4C20462978FEF7F8FD5B
:104300002068066820460021B0472169627B0023AF
:10431000009320460123FFF7C5F820B1002385F85C
:104320002030FF201CE0012485F820406FEA0902BC
:1043300028460321D2B2FFF78FFF06462846022106
:104340004246FFF789FF3043C6B2284621463A4627
:10435000FFF782FF304310F0FF0F14BFFF20002053
:1043600003B0BDE8F08300BFF4EDFF1F70B5044655
:104370000D46417890F82030F3B13AB121EA0506B4
:1043800001213246FFF768FFC0B907E045EA0106A0
:1043900001213246FFF760FF90B902E046EA0502CC
:1043A00001E026EA050220460121FFF755FF00281B
:1043B00014BFFF20002070BDFD2070BDFF2070BD28
:1043C000FF2070BD10B5447890F820306BB112B169
:1043D00041EA040201E024EA01020121FFF73CFF67
:1043E000002814BFFF20002010BDFD2010BD00BF1D
:1043F00070B5C0B015461C46013B1344B3F5004FE1
:1044000026D868464FF4807204F082F9134E304685
:104410002946FDF783FE4FF48073736200ABF361AE
:10442000B4F5807F0AD94FF480753046FDF72CFF34
:1044300005F58072944202D91546F6E70025AC4294
:1044400008D00648641B4462FDF71EFF002002E00E
:10445000FF2000E0002040B070BD00BFC8ECFF1F8F
:10446000F8B50F4616461D462A4C23685B68204661
:10447000294907229847384604F0B2FB02462368D0
:104480005B6820463946984723685B682046234985
:1044900002229847304604F0A3FB024623685B687B
:1044A00020463146984735B1204623685B681C4951
:1044B0000922984705E0174803685B6819490922F3
:1044C000984701F0F3FA0028FBD001F0A3FAC0B23C
:1044D0000D2801D195B903E000F0DF004E280BD183
:1044E0000C4C23685B6820460F49022298472046FF
:1044F00001F05EFC0020F8BD5928E2D1054C23688C
:104500005B682046094903229847204601F050FC89
:104510000120F8BD8CEFFF1F04BF00000CBF00009E
:1045200010BF00001CBF000028B800002CB800001D
:104530002DE9F8430E46022A17D0042A02D0012A98
:104540002FD125E004254FF080541E4FDFF87890DE
:104550004FF00108A64205D23B685B6838464946E1
:10456000424698472409013DF4D102254FF4805476
:10457000144FDFF854904FF00108A64205D23B6873
:104580005B6838464946424698472409013DF4D1C4
:104590000F2E0ED80B4803685B680B490122984721
:1045A00007E0084803685B6808491C229847BDE893
:1045B000F883044831461022002301F009FCBDE8CD
:1045C000F88300BF8CEFFF1F28BF00002CBF000046
:1045D00008B50122FFF7ACFF08BD00BF08B50222F5
:1045E000FFF7A6FF08BD00BF2DE9F04F83B00746D7
:1045F0008A4602F1080902F5847201922E4CDFF816
:10460000CC80A9F1080623685B6820462B49042268
:10461000984738465146FFF7E1FF23685B6820461C
:104620002749042298474D464FF0010B384616F8AB
:10463000011BFFF7CDFF23685B68204641465A46C1
:104640009847AE42F2D123685B6820461D49042298
:10465000984709F1080B0126384615F8011BFFF7AA
:10466000B7FF23685B6820464146324698475D4560
:10467000F2D123685B68204613490322984709F169
:104680000706A9F109054FF02E0B15F8011F1F2988
:1046900023681B68204698BF59469847B542F4D115
:1046A0000AF1100ACAF30E0A09F11009019B994593
:1046B000A7D103B0BDE8F08F8CEFFF1F3CBD000019
:1046C00074BF00007CBF000084BF000024BF000056
:1046D0002DE9F041C0B007460C46174B00AA1A62FC
:1046E0004FF480725A621E46144DDFF85C803046EB
:1046F0002146FDF713FD3046FDF732FE38462146D0
:104700006A46FFF771FF2B685B6828464146002226
:104710009847284601F04CFB38460949094A0123CD
:10472000FFF79EFE20B104F58074C4F30E04DEE7AB
:1047300040B0BDE8F08100BFC8ECFF1F8CEFFF1F49
:1047400044BC000088BF000040BD000010B586B02A
:1047500004460A4B1869597B002914BF0322002222
:1047600000230093019202930393012204921A46BC
:10477000FEF780FA204606B010BD00BFF4EDFF1F23
:1047800008B50248FFF7E2FF08BD00BF08EEFF1FB3
:1047900008B50430FFF78AFC08BD00BF08B5043037
:1047A000FFF790FC08BD00BF08B50430E9210122E5
:1047B0000023FFF799FD08BD2DE9F04782B00546BB
:1047C0008A46066B041D204620210122FFF7FAFDD0
:1047D000204601210022FFF7F5FD20274FF0800938
:1047E0004FF040082B685B002B6020460DF107015D
:1047F000FFF71AFD9DF8073013F0100F03D02B6858
:1048000043F001032B6020464946F20FFFF7DAFD23
:104810007600204641460022FFF7A8FD7B1E13F0DC
:10482000FF07DFD1BAF1000F0AD02046282100226D
:10483000FFF7C8FD204608210122FFF7C3FD04E071
:10484000204620210022FFF7BDFD204601210A4617
:10485000FFF7B8FD2B68EB62002002B0BDE8F087DF
:1048600008B50121FFF7A8FF08BD00BF844641EA53
:10487000000313F003036DD1403A41D351F8043BD8
:1048800040F8043B51F8043B40F8043B51F8043B2A
:1048900040F8043B51F8043B40F8043B51F8043B1A
:1048A00040F8043B51F8043B40F8043B51F8043B0A
:1048B00040F8043B51F8043B40F8043B51F8043BFA
:1048C00040F8043B51F8043B40F8043B51F8043BEA
:1048D00040F8043B51F8043B40F8043B51F8043BDA
:1048E00040F8043B51F8043B40F8043B51F8043BCA
:1048F00040F8043B51F8043B40F8043B403ABDD239
:10490000303211D351F8043B40F8043B51F8043BDA
:1049100040F8043B51F8043B40F8043B51F8043B99
:1049200040F8043B103AEDD20C3205D351F8043B69
:1049300040F8043B043AF9D2043208D0D2071CBF35
:1049400011F8013B00F8013B01D30B88038060465E
:10495000704700BF082A13D38B078DD010F00303D4
:104960008AD0C3F10403D21ADB071CBF11F8013B44
:1049700000F8013B80D331F8023B20F8023B7BE793
:10498000043AD9D3013A11F8013B00F8013BF9D2BE
:104990000B7803704B7843708B7883706046704758
:1049A000024B1A6801321A60704700BF94EEFF1F75
:1049B00008B50D4C236813F4802F01D000F01CFCC7
:1049C000236813F4806F01D001F05AFE236813F4BA
:1049D000006F01D002F0E0F9236813F4805FE9D0A2
:1049E00002F098FCE6E700BF3480044008B5FFF70A
:1049F000DFFF00BF1022014B1A80704700200540E6
:104A0000704700BF024A1368184410601846704788
:104A1000289EFF1FEFF31383ABB9EFF31083ABB9FD
:104A2000EFF3058323B10F2B05D9094A985C03E006
:104A30004FF4807000E00020EFF311833BB183421C
:104A400038BF184670474FF0FF307047002070475E
:104A5000F0E300E010B5154B1C681C6014F4805F97
:104A600005D0134BDB6813B1114BDB68984714F486
:104A7000005F05D00E4B1B6913B10D4B1B699847A6
:104A800014F0200F05D00A4B1B6E13B1084B1B6EA0
:104A9000984714F0100F07D0054BD3F884301BB1A2
:104AA000034BD3F88430984710BD00BFA09004405A
:104AB0000CEEFF1F10B5274B1C681C6014F4803FE0
:104AC00005D0254B1B6813B1234B1B68984714F482
:104AD000003F05D0204B5B6813B11F4B5B689847C4
:104AE00014F0010F05D01C4B1B6C13B11A4B1B6C3F
:104AF000984714F0020F05D0174B5B6C13B1164B9F
:104B00005B6C984714F0080F05D0134B9B6C13B1E6
:104B1000114B9B6C984714F0040F05D00E4BDB6CC7
:104B200013B10D4BDB6C984714F4002F05D00A4BE2
:104B30005B6E13B1084B5B6E984714F4802F07D05F
:104B4000054BD3F880301BB1034BD3F88030984726
:104B500010BD00BFA0A004400CEEFF1F10B5384BE5
:104B60001C681C6014F0080F05D0364B5B6A13B14B
:104B7000344B5B6A984714F0100F05D0314B9B6A99
:104B800013B1304B9B6A984714F0400F05D02D4B62
:104B9000DB6A13B12B4BDB6A984714F0800F05D00A
:104BA000284B1B6B13B1274B1B6B984714F0200F3E
:104BB00005D0244B5B6B13B1224B5B6B984714F011
:104BC000010F05D01F4BDB6B13B11E4BDB6B9847FE
:104BD00014F0020F05D01B4B9B6D13B1194B9B6D4D
:104BE000984714F0040F05D0164BDB6D13B1154B2D
:104BF000DB6D984714F4007F05D0124BDB6E13B1C8
:104C0000104BDB6E984714F4807F05D00D4B1B6F63
:104C100013B10C4B1B6F984714F4806F05D0094BF0
:104C20005B6F13B1074B5B6F984714F4006F05D0AF
:104C3000044B9B6F13B1034B9B6F984710BD00BF94
:104C4000A0B004400CEEFF1F10B5264B1C681C6082
:104C500014F0010F05D0244B9B6813B1224B9B68C5
:104C6000984714F0800F05D01F4B5B6913B11E4BA2
:104C70005B69984714F0100F05D01B4B9B6913B16B
:104C8000194B9B69984714F0040F05D0164BDB694C
:104C900013B1154BDB69984714F0080F05D0124B80
:104CA0001B6A13B1104B1B6A984714F0020F05D012
:104CB0000D4B9B6B13B10C4B9B6B984714F0200F63
:104CC00005D0094B1B6D13B1074B1B6D984714F0B2
:104CD000400F05D0044B5B6D13B1034B5B6D9847E0
:104CE00010BD00BFA0C004400CEEFF1F10B50B4B61
:104CF0001C681C6014F0020F05D0094B9B6E13B1A9
:104D0000074B9B6E984714F0010F05D0044BDB6FE7
:104D100013B1034BDB6F984710BD00BFA0D0044018
:104D20000CEEFF1F30B4212831D8042A2FD8DFE839
:104D300002F00709050B03000B2406E00A2404E037
:104D4000082402E00C2400E00924124B03EBC0030A
:104D50005A68114B114DC3F89C51114DC3F8A05125
:104D6000104DC3F8A451104DC3F8A8510F4DC3F80E
:104D7000AC5172B6136823F4702313600C4D45F8E0
:104D8000201043F0807343EA0444146062B630BCE0
:104D9000704700BFD4BF00000082FF1F554A0000CB
:104DA000B54A00005D4B0000494C0000ED4C00008E
:104DB0000CEEFF1F094B03EBC0035A6872B6136871
:104DC00023F0877323F4803343F080731360002251
:104DD000034B43F8202062B6704700BFD4BF0000E9
:104DE0000CEEFF1F044B00221A6004490A60044ABB
:104DF000106010221A60704714D0034004D00340A2
:104E000000D0034021281ED80F4B53F8303093F8C0
:104E1000802212F0FF0F08D019B1012283F8802000
:104E20007047012283F800217047074B03EBC00055
:104E3000436821B11A6842F003021A6070471A6889
:104E400022F002021A607047D4BF0000212806D861
:104E5000044B53F8303093F80002C0B27047002082
:104E6000704700BFD4BF000021284AD8254B03EB70
:104E7000C0035B68012911D004291DD0214A52F8D2
:104E80003020002082F8800200292FD0022931D062
:104E900003291FD040F203121A607047194A52F8D2
:104EA0003020012182F880124FF4A2721A601A6831
:104EB00022F020021A607047124A52F83020012175
:104EC00082F880124FF4A2721A601A6842F020022F
:104ED0001A6070474FF480721A601A6842F002023A
:104EE0001A601A6822F001021A6070474FF480724B
:104EF0001A6070474FF480721A601A6842F0030219
:104F00001A607047D4BF000072B60C4B1B680C4A85
:104F100012680C49096862B611F0806F02D0322B1A
:104F200088BF0132C3F53B437F330749A1FB03032D
:104F30005B094FF47A7000FB0230704718E000E024
:104F400094EEFF1F04ED00E0ABAAAAAA38B505460F
:104F5000FFF7DAFF044625B938BD013D0AD004F554
:104F60007A74FFF7D1FF001BB0F57A7FF5D200F01D
:104F7000B5FFF6E738BD00BF10B5264B4FF4000271
:104F80001A604FF080721A604FF000721A604FF092
:104F900080621A604FF000621A6000201E4B186099
:104FA0004BF6FF710433196028231C4A1360083242
:104FB000136008321360083213600832136008323D
:104FC000136008321360083213600922144C226007
:104FD00004F58054043420600434216004342360D8
:104FE00008342360143C226004F5FE24043420605D
:104FF0000C4801600C490B6008310B600B4B1A60C8
:1050000000F08EFF4FF4C870FFF7A0FF00F074FCB3
:1050100010BD00BF08E100E0048003400C800340A5
:105020000080034008800B400C800B4000800B4048
:1050300030B40E4B1B7843F002020D4C04EBC2045B
:1050400060600C48007800280CBF8824C82444EA1B
:105050000141074D45F8321080F00100054A1070FB
:1050600083F00103014A137030BC704700EFFF1F4B
:105070000080FF1F79EFFF1F10B4431E032B11D8D0
:1050800072B60A4A52F8230050B14268074941F803
:105090002320074A32F813400188611A22F81310BE
:1050A00062B600E000205DF8044B7047F0EEFF1F91
:1050B00094F1FF1F013803280DD872B6074B53F83F
:1050C00020302BB1002001305B68002BFBD100E0C9
:1050D000002062B670470020704700BF44EFFF1FFA
:1050E00038B572B601231B491B4C5A1812F8012C13
:1050F00012F0080F24D09A0054F832506DB9164BB4
:1051000003EBC20108304860144943F83210144BD5
:105110001A78013A1A7062B638BD42F0010254F8AA
:1051200032506DB90C4B03EBC201083048600D4999
:1051300043F832100A4B1A78013A1A7062B638BD39
:105140000133052BD1D162B60022054B1A7000F055
:1051500037FC38BD10C100000080FF1F88004000F0
:105160006EEFFF1FC800400010B4431E032B37D85A
:10517000400140F010001C4A104472B61B4AD25C39
:10518000032A09D8DFE802F019021B0508300222C1
:1051900016E00830042213E0154A52F823201AB909
:1051A000134A42F8231003E0124A52F823205160B8
:1051B000104A42F8231062B612E0032200E00522F2
:1051C0000A4CE25401F10803436000F00803002B8D
:1051D0000CBF8823C8230A8843EA0243036062B6EF
:1051E0005DF8044B704700BF0080FF1FACEEFF1F4F
:1051F00044EFFF1F54EFFF1F2DE9F84FA34CDFF8DA
:10520000E092DFF8E0A2DFF8E0B22578EDB215F029
:10521000040F1DD09E4B1B7813F0FF0F16D09D4B33
:105220001B7803F0FF022BB1531EDBB2994A1370B7
:1052300003B900BE984B1B7803F0FF0233B1531E35
:10524000DBB2954A13700BB900F016FD04232370EE
:1052500015F0080F00F0E48299F80030DBB21D0968
:1052600040F021828D4D9E0805EBC6035A6855F823
:105270003630C3F38303013B0C2B00F21082DFE8CE
:1052800013F0CB01CB010E020E020E020E020E0233
:105290000E02E8010E020E020E020D008049136894
:1052A0000B6052684A607F4A45F8362000227E49EA
:1052B0000A607A490A618A6101217C4A11709BB2B5
:1052C00040F28162934218D8B3F5D06F2ED2B3F575
:1052D000817F00F01E8106D8802B00F0C980822BD0
:1052E00000F0CC8066E140F20232934200F0268169
:1052F000B3F5A06F00F062815CE142F221029342BB
:1053000000F0868107D8B3F5086F00F0AB80B3F5E5
:10531000106F11D04EE142F22122934200F0418100
:1053200042F22132934200F0498143E1604B5D68D3
:10533000002D40F0188130E1594B9A78544B1A7087
:10534000564D05F180062B6A13F0800F03D0686A72
:10535000083800F035FB0835B542F4D1DFF88C8110
:1053600000263746534AB05828B1456800F028FB5C
:105370000DB12846F9E700234E4973504E4AB35009
:105380004E4BF05828B1456800F01AFB0DB1284685
:10539000F9E7002349497350494AB35028F8023FBE
:1053A000484BFB5C023B032B0AD8DFE803F0020604
:1053B00002060022434BDA5502E00122414BDA5546
:1053C00001370436102ECDD100223F4B1A70012533
:1053D0003E4EDFF81C81314F05EB080313F8013C0A
:1053E00006F8043B13F0080F2DD000F0C9FA48B1BD
:1053F000A90007EB451200F108035360344A47F84F
:10540000312007E0AB00002247F833202E4B1A78FA
:1054100001321A7000F0B4FA58B1AB0043F0010346
:1054200007EBC30100F108024A601E4A47F8332027
:1054300009E0AB0043F00103002247F83320224B80
:105440001A7801321A70AA0042F00201002347F8CC
:10545000313042F0030247F8323001351D4B9E4295
:10546000BAD11EE20A4B1B781B4D2B700127AAE014
:10547000194D00232B706B700227A4E0084B9B880A
:10548000042B37D90F22154B1A70C1E0802007403A
:1054900078EFFF1F01EFFF1F7AEFFF1F0080FF1F54
:1054A00064EFFF1FC800400098EEFF1F79EFFF1F59
:1054B00014C10000F0EEFF1F9CEEFF1F44EFFF1F22
:1054C00054EFFF1FACEEFF1F6EEFFF1FC42007401D
:1054D00088004000D420074070EFFF1FC020074025
:1054E00090200740942007409820074092F1FF1F2A
:1054F00010C10000A04A0021117051709F4A12F89B
:10550000233013F0020F5CD09B4D01232B70022738
:1055100059E09B4B9B8803F07F03042B02DC984AE5
:1055200052881AB10F22954B1A7071E0934A12F803
:10553000231021F0020102F82310B2E1904B9B8866
:1055400003F07F03042B02DC8D4A52881AB10F222C
:105550008A4B1A705CE0894A12F8231041F002016C
:1055600002F823109DE1864B5E889F88854BA3F14E
:105570000C02114633F80C0CB04209D133F80A0C76
:10558000B84205D1360A032E0CBF2F7817891AE0CE
:105590000D690C330C32002DEBD10F22774B1A70B2
:1055A00036E0794B1A68794B1A60754B9A78784BCC
:1055B0001A7076E10F22714B1A7029E000273D46E0
:1055C00001E002276C4D6E4BDB889F4228BF1F46CF
:1055D000402F34BF3E46402628463146FFF728FD7F
:1055E0003544BF1B03D13F2E00F2608110E0402FF5
:1055F00034BF3E46402628463146FFF719FD354464
:10560000BF1B01D13F2E03D9624B1D60624B1F802F
:1056100001238AF8003042E0594B198842F22103F5
:10562000994212D15D4BD81D12F8011B03F8011FDE
:105630008342F9D15A4B1B68862B02D10F22594B5A
:105640001A7000200146FFF7F3FC574B45F836303F
:1056500025E0504B1E68BEB14F4FB7F80080B8F13F
:10566000400F34BF4546402530462946FFF7E0FC51
:10567000C5EB08039BB23B800BB9402D01D13544EB
:1056800000E00025434B1D603D4B1B88B3F5A06F28
:1056900005D13B4B00225A709B788BF800300123D8
:1056A0008AF80030B9E0414E9F0806EBC708D8F8E9
:1056B0000420A2F10800013DEDB213F0080F47D01D
:1056C00000F07EF93A4B53F825304BB35A6838490D
:1056D00041F8252003F10802C8F80420354A525D3C
:1056E000032A12D8DFE802F002060A0E0321314A2B
:1056F00051550AE002212F4A515506E005212D4A55
:10570000515502E004212B4A515518F0080F0CBFE7
:105710008822C8221B8842EA034346F837307CE0DF
:10572000244B5B5D032B0BD8DFE803F07777020691
:105730000022204B5A5570E001221E4B5A556CE056
:1057400018F0080F0CBF022203221A4B5A5564E0CE
:1057500056F837301B0C22F8083C002B55D000239C
:1057600022F8063C42F8043C134B53F825302BBB7F
:10577000114B43F8250025E070EFFF1FC0200740C4
:1057800064EFFF1F20C1000094EEFF1FA4F1FF1F74
:1057900088EFFF1F98EEFF1F6CEFFF1F9BF1FF1FAD
:1057A0009CF1FF1F01EFFF1FC80040000080FF1F9A
:1057B00044EFFF1FACEEFF1FF0EEFF1F3F4B53F80F
:1057C000253058603D4B43F825003D4B33F815100C
:1057D00032F8082C0A4423F8152000F0D1F860B103
:1057E00000F10803C8F8043018F0080F354B364AAA
:1057F00008BF134646F837300FE0002346F837302D
:10580000324B1A7801321A7007E018F0080F2D4B4E
:105810002D4A08BF134646F8373008232370F4E4B6
:1058200015F0010F22D02A4902230B700022294BC8
:105830001A70294B24481860284C5C6098602848EE
:10584000D8601A619A610D20264B1870FF232648F4
:1058500003700838037018300270244A13709F22B6
:10586000234B1A7001230B70BDE8F88F15F0800FE1
:1058700005D00D221B4B1A708022403B1A7015F088
:10588000020F06D0184B1A78D2B21A700222083BC7
:105890001A7015F0100F0ED01022164B1A70BDE8BA
:1058A000F88F00200146FFF7C3FBB1E62846002130
:1058B000FFF7BEFBACE6BDE8F88F00BF9CEEFF1F14
:1058C00094F1FF1FC8004000880040006EEFFF1FEA
:1058D0009420074000EFFF1F0080FF1FB0EEFF1F66
:1058E00004EFFF1FC0200740882007408C2007409E
:1058F000842007408020074008B501F07FFD002389
:105900001B491A465A50C81842600833882BF9D1EF
:10591000184B1A6842F480221A60154BC3F3072112
:10592000154A1170C3F30741143211701B0E043273
:105930001370FF23343A137008321370783A1370DF
:1059400001238432137000216C3211707C3A137081
:1059500070220A4B1A704FF40072A3F241331A609E
:10596000102203F1C04303F5C8231A7008BD00BF1D
:105970000080FF1F348004409C20074049E400E081
:1059800072B60D4B1A68B2FA82F30B2B02D962B6CB
:10599000002070474FF00041D94022EA0102064939
:1059A0000A6062B6054903EBC303DB00C818002296
:1059B000CA504260704700BF2C9EFF1F0084FF1F2B
:1059C00008B50F4BC31A0F4AA2FB03131B090B2B7D
:1059D00014D80D4A12783AB10C4A127812F0FF0F1F
:1059E00002D0FFF77DFB08BD72B6094A4FF00041B7
:1059F00021FA03F311681943116062B608BD00BFB4
:105A00000084FF1F398EE3386EEFFF1F78EFFF1F12
:105A10002C9EFF1F10B5134B1B6853B9124B1B78FC
:105A200013F0FF0F18D00320FFF726FB0D4B186073
:105A3000A8B10C4B186843885A1C03441C7A03888D
:105A40009A4206D3FFF7BCFF0022064B1A6020469D
:105A500010BD4280204610BD4FF0FF3010BD4FF00A
:105A6000FF3010BD84EFFF1F78EFFF1F08B50D4B0F
:105A70001B6883B90C4B1B7813F0FF0F08D0032071
:105A8000FFF7FAFA074B186028B94FF0FF3008BD4E
:105A90004FF0FF3008BD034B1B685A881344187A37
:105AA00008BD00BF84EFFF1F78EFFF1F044B9888ED
:105AB000044B1B681BB11A885B88D31A18447047C3
:105AC00094F1FF1F84EFFF1F10B50B4B1B7813F0F1
:105AD000FF0F0FD0094B186820B1FFF771FF0022AC
